{"contracts/StarknetBridge.sol":{"StarknetBridge":{"abi":[{"inputs":[{"internalType":"address","name":"_wethToken","type":"address"},{"internalType":"address","name":"_wstarkToken","type":"address"}],"stateMutability":"nonpayable","type":"constructor"},{"inputs":[{"internalType":"address","name":"owner","type":"address"}],"name":"OwnableInvalidOwner","type":"error"},{"inputs":[{"internalType":"address","name":"account","type":"address"}],"name":"OwnableUnauthorizedAccount","type":"error"},{"inputs":[],"name":"ReentrancyGuardReentrantCall","type":"error"},{"anonymous":false,"inputs":[{"indexed":true,"internalType":"bytes32","name":"id","type":"bytes32"},{"indexed":true,"internalType":"address","name":"initiator","type":"address"},{"indexed":true,"internalType":"uint256","name":"starknetAddress","type":"uint256"},{"indexed":false,"internalType":"uint256","name":"amount","type":"uint256"}],"name":"Initiated","type":"event"},{"anonymous":false,"inputs":[{"indexed":true,"internalType":"address","name":"previousOwner","type":"address"},{"indexed":true,"internalType":"address","name":"newOwner","type":"address"}],"name":"OwnershipTransferred","type":"event"},{"anonymous":false,"inputs":[{"indexed":true,"internalType":"bytes32","name":"id","type":"bytes32"},{"indexed":false,"internalType":"bytes32","name":"preimage","type":"bytes32"}],"name":"Redeemed","type":"event"},{"anonymous":false,"inputs":[{"indexed":true,"internalType":"bytes32","name":"id","type":"bytes32"}],"name":"Refunded","type":"event"},{"inputs":[],"name":"MAX_BRIDGE_AMOUNT","outputs":[{"internalType":"uint256","name":"","type":"uint256"}],"stateMutability":"view","type":"function"},{"inputs":[],"name":"MIN_BRIDGE_AMOUNT","outputs":[{"internalType":"uint256","name":"","type":"uint256"}],"stateMutability":"view","type":"function"},{"inputs":[],"name":"bridgeFee","outputs":[{"internalType":"uint256","name":"","type":"uint256"}],"stateMutability":"view","type":"function"},{"inputs":[{"internalType":"string","name":"_starknetAddressHex","type":"string"}],"name":"convertStarknetAddress","outputs":[{"internalType":"uint256","name":"","type":"uint256"}],"stateMutability":"pure","type":"function"},{"inputs":[],"name":"emergencyPause","outputs":[],"stateMutability":"nonpayable","type":"function"},{"inputs":[{"internalType":"address","name":"_token","type":"address"},{"internalType":"uint256","name":"_amount","type":"uint256"}],"name":"emergencyWithdraw","outputs":[],"stateMutability":"nonpayable","type":"function"},{"inputs":[{"internalType":"bytes32","name":"id","type":"bytes32"}],"name":"getHtlc","outputs":[{"internalType":"address","name":"initiator","type":"address"},{"internalType":"uint256","name":"starknetAddress","type":"uint256"},{"internalType":"uint256","name":"amount","type":"uint256"},{"internalType":"bytes32","name":"hash","type":"bytes32"},{"internalType":"uint256","name":"timelock","type":"uint256"},{"internalType":"bool","name":"executed","type":"bool"},{"internalType":"bool","name":"refunded","type":"bool"}],"stateMutability":"view","type":"function"},{"inputs":[{"internalType":"bytes32","name":"","type":"bytes32"}],"name":"htlcs","outputs":[{"internalType":"address payable","name":"initiator","type":"address"},{"internalType":"uint256","name":"starknetAddress","type":"uint256"},{"internalType":"uint256","name":"amount","type":"uint256"},{"internalType":"bytes32","name":"hash","type":"bytes32"},{"internalType":"uint256","name":"timelock","type":"uint256"},{"internalType":"bool","name":"executed","type":"bool"},{"internalType":"bool","name":"refunded","type":"bool"}],"stateMutability":"view","type":"function"},{"inputs":[{"internalType":"bytes32","name":"id","type":"bytes32"},{"internalType":"address payable","name":"_ethereumAddress","type":"address"},{"internalType":"uint256","name":"_amount","type":"uint256"},{"internalType":"bytes32","name":"_hash","type":"bytes32"},{"internalType":"uint256","name":"_timelock","type":"uint256"}],"name":"initiateFromStarknet","outputs":[],"stateMutability":"nonpayable","type":"function"},{"inputs":[{"internalType":"bytes32","name":"id","type":"bytes32"},{"internalType":"uint256","name":"_starknetAddress","type":"uint256"},{"internalType":"bytes32","name":"_hash","type":"bytes32"},{"internalType":"uint256","name":"_timelock","type":"uint256"}],"name":"initiateToStarknet","outputs":[],"stateMutability":"payable","type":"function"},{"inputs":[{"internalType":"bytes32","name":"id","type":"bytes32"}],"name":"isValidHtlc","outputs":[{"internalType":"bool","name":"","type":"bool"}],"stateMutability":"view","type":"function"},{"inputs":[],"name":"owner","outputs":[{"internalType":"address","name":"","type":"address"}],"stateMutability":"view","type":"function"},{"inputs":[{"internalType":"bytes32","name":"id","type":"bytes32"},{"internalType":"bytes","name":"_preimage","type":"bytes"}],"name":"redeem","outputs":[],"stateMutability":"nonpayable","type":"function"},{"inputs":[{"internalType":"bytes32","name":"id","type":"bytes32"}],"name":"refund","outputs":[],"stateMutability":"nonpayable","type":"function"},{"inputs":[],"name":"renounceOwnership","outputs":[],"stateMutability":"nonpayable","type":"function"},{"inputs":[{"internalType":"address","name":"newOwner","type":"address"}],"name":"transferOwnership","outputs":[],"stateMutability":"nonpayable","type":"function"},{"inputs":[{"internalType":"uint256","name":"_newFee","type":"uint256"}],"name":"updateBridgeFee","outputs":[],"stateMutability":"nonpayable","type":"function"},{"inputs":[],"name":"wethToken","outputs":[{"internalType":"contract IERC20","name":"","type":"address"}],"stateMutability":"view","type":"function"},{"inputs":[],"name":"withdrawFees","outputs":[],"stateMutability":"nonpayable","type":"function"},{"inputs":[],"name":"wstarkToken","outputs":[{"internalType":"contract IERC20","name":"","type":"address"}],"stateMutability":"view","type":"function"},{"stateMutability":"payable","type":"receive"}],"evm":{"bytecode":{"linkReferences":{},"object":"60c03461010a57601f61174738819003918201601f19168301916001600160401b0383118484101761010f57808492604094855283398101031261010a57610052602061004b83610125565b9201610125565b90600160005533156100f15760018054336001600160a01b031982168117909255604051936001600160a01b03939092849283167f8be0079c531659141344cd1fd0a4f28419497f9722a3daafe3b4186f6b6457e0600080a366038d7ea4c68000600355166080521660a05261160d908161013a823960805181610984015260a05181818161028201528181610479015281816107690152610b140152f35b604051631e4fbdf760e01b815260006004820152602490fd5b600080fd5b634e487b7160e01b600052604160045260246000fd5b51906001600160a01b038216820361010a5756fe60806040818152600480361015610021575b505050361561001f57600080fd5b005b600092833560e01c908163089c0aa41461116f5750806319304e251461110857806319e2a1b914610f23578063375629cd14610ca65780633a5c6e7a14610a4d578063476343ee146109b35780634b57b0be1461096f57806351858e27146109535780635a1c0366146108dd578063715018a61461087d5780637249fbb61461064e5780637fce00021461062a57806382b12dd71461060b578063886688c1146105e95780638da5cb5b146105c057806391edd8f21461054857806395ccea67146104ac578063cb521e7014610464578063f2fde38b146103da5763f7ff72070361001157346103d657816003193601126103d65780359060243567ffffffffffffffff81116103d25761013890369083016111ec565b61014061148a565b8386526020926002845285872091600583019081549461016360ff871615611511565b61017360ff8760081c161561156b565b8385015442101561038357816101a2888c9381958d519485928484013781018583820152038084520182611468565b895190805190835b82811061036e57505081908101838152039060025afa156103645787519360038401948554036103235760ff19166001908117909155820154879291901561024e57508180600281930154818115610245575b3390f11561023857927f489e9ee921192823d1aa1ef800c9ffc642993538b1e7e43a4d46a91965e894ab92935b549051908152a26001815580f35b50505051903d90823e3d90fd5b506108fc6101fd565b60029190910154865163a9059cbb60e01b8152339281019283526020830191909152959291508390869081906040010381897f00000000000000000000000000000000000000000000000000000000000000006001600160a01b03165af1948515610319577f489e9ee921192823d1aa1ef800c9ffc642993538b1e7e43a4d46a91965e894ab94956102e79188916102ec575b506114c5565b61022a565b61030c9150853d8711610312575b6103048183611468565b8101906114ad565b386102e1565b503d6102fa565b82513d88823e3d90fd5b60648387808b519262461bcd60e51b845283015260248201527f537461726b6e65744272696467653a20696e76616c696420707265696d6167656044820152fd5b86513d89823e3d90fd5b818101860151848201528a958e9550016101aa565b885162461bcd60e51b81528085018890526024808201527f537461726b6e65744272696467653a2074696d656c6f636b20686173206578706044820152631a5c995960e21b6064820152608490fd5b8480fd5b8280fd5b50346103d65760203660031901126103d6576103f461121f565b906103fd611235565b6001600160a01b0391821692831561044e575050600154826001600160601b0360a01b821617600155167f8be0079c531659141344cd1fd0a4f28419497f9722a3daafe3b4186f6b6457e08380a380f35b51631e4fbdf760e01b8152908101849052602490fd5b5050346104a857816003193601126104a857517f00000000000000000000000000000000000000000000000000000000000000006001600160a01b03168152602090f35b5080fd5b5090346103d657806003193601126103d657602061050f926104cc61121f565b6104d4611235565b600154845163a9059cbb60e01b81526001600160a01b0391821693810193845260243560208501529586938492899290918491604090910190565b0393165af190811561053f5750610524575080f35b61053b9060203d8111610312576103048183611468565b5080f35b513d84823e3d90fd5b5090346103d65760203660031901126103d6578060ff9160e0948435815260026020522060018060a01b03815416936001820154926002830154906005600385015493850154940154948151978852602088015286015260608501526080840152818116151560a084015260081c16151560c0820152f35b5050346104a857816003193601126104a85760015490516001600160a01b039091168152602090f35b5050346104a857816003193601126104a85760209051662386f26fc100008152f35b5050346104a857816003193601126104a8576020906003549051908152f35b5050346104a857816003193601126104a8576020905168056bc75e2d631000008152f35b509190346104a857602090816003193601126103d65783359161066f61148a565b82845260028152818420805490916001600160a01b039182163381036108265760058401978854986106a460ff8b1615611511565b6106b460ff8b60081c161561156b565b8186015442106107d257610100899a61ff009a98999a19161790556001850154151560001461073e57505050828260028294938394541691015490828215610735575bf11561072a57505b7ffe509803c09416b28ff3d8f690c8b0c61462a892c46d5430c8fb20abe472daf08280a26001815580f35b51913d9150823e3d90fd5b506108fc6106f7565b829560026044939495969998990154958951968795869463a9059cbb60e01b865285015260248401527f0000000000000000000000000000000000000000000000000000000000000000165af19182156107c8576107a693945085926107ab575b50506114c5565b6106ff565b6107c19250803d10610312576103048183611468565b388061079f565b84513d87823e3d90fd5b865162461bcd60e51b8152808301859052602860248201527f537461726b6e65744272696467653a2074696d656c6f636b20686173206e6f7460448201526708195e1c1a5c995960c21b6064820152608490fd5b845162461bcd60e51b8152808901839052602b60248201527f537461726b6e65744272696467653a2063616c6c6572206973206e6f7420746860448201526a329034b734ba34b0ba37b960a91b6064820152608490fd5b83346108da57806003193601126108da57610896611235565b600180546001600160a01b0319811690915581906001600160a01b03167f8be0079c531659141344cd1fd0a4f28419497f9722a3daafe3b4186f6b6457e08280a380f35b80fd5b50346103d65760203660031901126103d6578035916108fa611235565b662386f26fc10000831161091057505060035580f35b906020606492519162461bcd60e51b8352820152601c60248201527f537461726b6e65744272696467653a2066656520746f6f2068696768000000006044820152fd5b83346108da57806003193601126108da5761096c611235565b80f35b5050346104a857816003193601126104a857517f00000000000000000000000000000000000000000000000000000000000000006001600160a01b03168152602090f35b50346103d657826003193601126103d6576109cc611235565b479081156109fe575060015483918291829182916001600160a01b031682f1156109f4575080f35b51903d90823e3d90fd5b608490602084519162461bcd60e51b8352820152602360248201527f537461726b6e65744272696467653a206e6f206665657320746f20776974686460448201526272617760e81b6064820152fd5b509190346104a85760a03660031901126104a8576024356001600160a01b03818116928535928490036103d257604435916064359660843597610a8e61148a565b85885260209660028852610aa784868b20541615611261565b610aba662386f26fc100008710156112c6565b610acf683635c9adc5dea00000871115611312565b15610c52578798610ae182151561135e565b610aee610e1082116113aa565b84516323b872dd60e01b815233848201523060248201526044810187905288816064818d7f00000000000000000000000000000000000000000000000000000000000000008a165af1908115610c485791610b558a9694928a96948d91610c3157506114c5565b610b5f9042611413565b908a875194610b6d86611436565b3386528786019082825289808801938c8552606089019586526080890196875260a089019a818c5260c08a019a828c52825260029052209651166001600160601b0360a01b875416178655516001860155516002850155516003840155519082015560050191511515610bec90839060ff801983541691151516179055565b51815461ff00191690151560081b61ff00161790555190815233927f32f66378e1286d490c275e7123c9a3b56616fe021854a438dfcfa79ae7c46a2391a46001815580f35b61030c9150883d8a11610312576103048183611468565b86513d8c823e3d90fd5b835162461bcd60e51b8152808301889052602860248201527f537461726b6e65744272696467653a20696e76616c696420457468657265756d604482015267206164647265737360c01b6064820152608490fd5b508290346104a8576020806003193601126103d65767ffffffffffffffff9382358581116103d257610cdb90369085016111ec565b90958111610f1057815195610cf9601f8301601f1916850188611468565b8187523682820111610f0c578186928592838a0137870101526002855110610ebc578391825b8651841015610eb55781848801015160f81c603081101580610eaa575b15610dba5781861b9180830460101490151715610da75760ff90602f1901818111610d9457610d6d92911690611413565b925b6000198114610d815760010192610d1f565b634e487b7160e01b865260118552602486fd5b634e487b7160e01b885260118752602488fd5b634e487b7160e01b875260118652602487fd5b606181101580610e9f575b15610e055781861b9180830460101490151715610da75760ff9060601901818111610d945790610df8610dff93926115c5565b1690611413565b92610d6f565b604181101580610e94575b15610e435781861b9180830460101490151715610da75760ff9060401901818111610d945790610df8610dff93926115c5565b835162461bcd60e51b8152808701849052602560248201527f537461726b6e65744272696467653a20696e76616c696420686578206368617260448201526430b1ba32b960d91b6064820152608490fd5b506046811115610e10565b506066811115610dc5565b506039811115610d3c565b8251908152f35b5162461bcd60e51b815291820152602660248201527f537461726b6e65744272696467653a20696e76616c6964206164647265737320604482015265199bdc9b585d60d21b606482015260849150fd5b8580fd5b634e487b7160e01b855260418452602485fd5b5060803660031901126103d65780356024359260443560643593610f4561148a565b8387526002602052828720546001600160a01b039290610f6790841615611261565b610f7a662386f26fc100003410156112c6565b610f8f68056bc75e2d63100000341115611312565b86156110b457610fa081151561135e565b610fad610e1087116113aa565b6003543403953487116110a1576005611070948a948894610fd16110599542611413565b908b8d8b5195610fe087611436565b338752602087019182528c870192835260608701938452608087019485528c60a088019b808d5260c089019b818d5281526002602052209651166001600160601b0360a01b87541617865551600186015551600285015551600384015551908201550192511515839060ff801983541691151516179055565b51815461ff00191690151560081b61ff0016179055565b519182527f32f66378e1286d490c275e7123c9a3b56616fe021854a438dfcfa79ae7c46a2360203393a46001815580f35b634e487b7160e01b895260118352602489fd5b835162461bcd60e51b8152602081840152602860248201527f537461726b6e65744272696467653a20696e76616c696420537461726b6e6574604482015267206164647265737360c01b6064820152608490fd5b50346103d65760203660031901126103d657358252600260209081529181902080546001600160a01b0316151591908261115f575b8261114c575b50519015158152f35b6005015460081c60ff1615915038611143565b600581015460ff1615925061113d565b92919050346111e85760203660031901126111e85790818160e09560ff943581526002602052209060018060a01b03825416926001830154906002840154916005600386015494860154950154958852602088015286015260608501526080840152818116151560a084015260081c16151560c0820152f35b8380fd5b9181601f8401121561121a5782359167ffffffffffffffff831161121a576020838186019501011161121a57565b600080fd5b600435906001600160a01b038216820361121a57565b6001546001600160a01b0316330361124957565b60405163118cdaa760e01b8152336004820152602490fd5b1561126857565b60405162461bcd60e51b815260206004820152603060248201527f537461726b6e65744272696467653a207377617020776974682074686973206960448201526f6420616c72656164792065786973747360801b6064820152608490fd5b156112cd57565b60405162461bcd60e51b815260206004820152601e60248201527f537461726b6e65744272696467653a20616d6f756e7420746f6f206c6f7700006044820152606490fd5b1561131957565b60405162461bcd60e51b815260206004820152601f60248201527f537461726b6e65744272696467653a20616d6f756e7420746f6f2068696768006044820152606490fd5b1561136557565b60405162461bcd60e51b815260206004820152601c60248201527f537461726b6e65744272696467653a20696e76616c69642068617368000000006044820152606490fd5b156113b157565b60405162461bcd60e51b815260206004820152603460248201527f537461726b6e65744272696467653a2074696d656c6f636b206d7573742062656044820152731033b932b0ba32b9103a3430b71018903437bab960611b6064820152608490fd5b9190820180921161142057565b634e487b7160e01b600052601160045260246000fd5b60e0810190811067ffffffffffffffff82111761145257604052565b634e487b7160e01b600052604160045260246000fd5b90601f8019910116810190811067ffffffffffffffff82111761145257604052565b60026000541461149b576002600055565b604051633ee5aeb560e01b8152600490fd5b9081602091031261121a5751801515810361121a5790565b156114cc57565b60405162461bcd60e51b815260206004820152601f60248201527f537461726b6e65744272696467653a207472616e73666572206661696c6564006044820152606490fd5b1561151857565b60405162461bcd60e51b815260206004820152602560248201527f537461726b6e65744272696467653a207377617020616c72656164792065786560448201526418dd5d195960da1b6064820152608490fd5b1561157257565b60405162461bcd60e51b815260206004820152602560248201527f537461726b6e65744272696467653a207377617020616c7265616479207265666044820152641d5b99195960da1b6064820152608490fd5b60ff600a9116019060ff82116114205756fea264697066735822122004c2e535285083ec5e1470848428e9d3ba35408d7e8cc40844c57e6cfda01b2064736f6c63430008140033","opcodes":"PUSH1 0xC0 CALLVALUE PUSH2 0x10A JUMPI PUSH1 0x1F PUSH2 0x1747 CODESIZE DUP2 SWAP1 SUB SWAP2 DUP3 ADD PUSH1 0x1F NOT AND DUP4 ADD SWAP2 PUSH1 0x1 PUSH1 0x1 PUSH1 0x40 SHL SUB DUP4 GT DUP5 DUP5 LT OR PUSH2 0x10F JUMPI DUP1 DUP5 SWAP3 PUSH1 0x40 SWAP5 DUP6 MSTORE DUP4 CODECOPY DUP2 ADD SUB SLT PUSH2 0x10A JUMPI PUSH2 0x52 PUSH1 0x20 PUSH2 0x4B DUP4 PUSH2 0x125 JUMP JUMPDEST SWAP3 ADD PUSH2 0x125 JUMP JUMPDEST SWAP1 PUSH1 0x1 PUSH1 0x0 SSTORE CALLER ISZERO PUSH2 0xF1 JUMPI PUSH1 0x1 DUP1 SLOAD CALLER PUSH1 0x1 PUSH1 0x1 PUSH1 0xA0 SHL SUB NOT DUP3 AND DUP2 OR SWAP1 SWAP3 SSTORE PUSH1 0x40 MLOAD SWAP4 PUSH1 0x1 PUSH1 0x1 PUSH1 0xA0 SHL SUB SWAP4 SWAP1 SWAP3 DUP5 SWAP3 DUP4 AND PUSH32 0x8BE0079C531659141344CD1FD0A4F28419497F9722A3DAAFE3B4186F6B6457E0 PUSH1 0x0 DUP1 LOG3 PUSH7 0x38D7EA4C68000 PUSH1 0x3 SSTORE AND PUSH1 0x80 MSTORE AND PUSH1 0xA0 MSTORE PUSH2 0x160D SWAP1 DUP2 PUSH2 0x13A DUP3 CODECOPY PUSH1 0x80 MLOAD DUP2 PUSH2 0x984 ADD MSTORE PUSH1 0xA0 MLOAD DUP2 DUP2 DUP2 PUSH2 0x282 ADD MSTORE DUP2 DUP2 PUSH2 0x479 ADD MSTORE DUP2 DUP2 PUSH2 0x769 ADD MSTORE PUSH2 0xB14 ADD MSTORE RETURN JUMPDEST PUSH1 0x40 MLOAD PUSH4 0x1E4FBDF7 PUSH1 0xE0 SHL DUP2 MSTORE PUSH1 0x0 PUSH1 0x4 DUP3 ADD MSTORE PUSH1 0x24 SWAP1 REVERT JUMPDEST PUSH1 0x0 DUP1 REVERT JUMPDEST PUSH4 0x4E487B71 PUSH1 0xE0 SHL PUSH1 0x0 MSTORE PUSH1 0x41 PUSH1 0x4 MSTORE PUSH1 0x24 PUSH1 0x0 REVERT JUMPDEST MLOAD SWAP1 PUSH1 0x1 PUSH1 0x1 PUSH1 0xA0 SHL SUB DUP3 AND DUP3 SUB PUSH2 0x10A JUMPI JUMP INVALID PUSH1 0x80 PUSH1 0x40 DUP2 DUP2 MSTORE PUSH1 0x4 DUP1 CALLDATASIZE LT ISZERO PUSH2 0x21 JUMPI JUMPDEST POP POP POP CALLDATASIZE ISZERO PUSH2 0x1F JUMPI PUSH1 0x0 DUP1 REVERT JUMPDEST STOP JUMPDEST PUSH1 0x0 SWAP3 DUP4 CALLDATALOAD PUSH1 0xE0 SHR SWAP1 DUP2 PUSH4 0x89C0AA4 EQ PUSH2 0x116F JUMPI POP DUP1 PUSH4 0x19304E25 EQ PUSH2 0x1108 JUMPI DUP1 PUSH4 0x19E2A1B9 EQ PUSH2 0xF23 JUMPI DUP1 PUSH4 0x375629CD EQ PUSH2 0xCA6 JUMPI DUP1 PUSH4 0x3A5C6E7A EQ PUSH2 0xA4D JUMPI DUP1 PUSH4 0x476343EE EQ PUSH2 0x9B3 JUMPI DUP1 PUSH4 0x4B57B0BE EQ PUSH2 0x96F JUMPI DUP1 PUSH4 0x51858E27 EQ PUSH2 0x953 JUMPI DUP1 PUSH4 0x5A1C0366 EQ PUSH2 0x8DD JUMPI DUP1 PUSH4 0x715018A6 EQ PUSH2 0x87D JUMPI DUP1 PUSH4 0x7249FBB6 EQ PUSH2 0x64E JUMPI DUP1 PUSH4 0x7FCE0002 EQ PUSH2 0x62A JUMPI DUP1 PUSH4 0x82B12DD7 EQ PUSH2 0x60B JUMPI DUP1 PUSH4 0x886688C1 EQ PUSH2 0x5E9 JUMPI DUP1 PUSH4 0x8DA5CB5B EQ PUSH2 0x5C0 JUMPI DUP1 PUSH4 0x91EDD8F2 EQ PUSH2 0x548 JUMPI DUP1 PUSH4 0x95CCEA67 EQ PUSH2 0x4AC JUMPI DUP1 PUSH4 0xCB521E70 EQ PUSH2 0x464 JUMPI DUP1 PUSH4 0xF2FDE38B EQ PUSH2 0x3DA JUMPI PUSH4 0xF7FF7207 SUB PUSH2 0x11 JUMPI CALLVALUE PUSH2 0x3D6 JUMPI DUP2 PUSH1 0x3 NOT CALLDATASIZE ADD SLT PUSH2 0x3D6 JUMPI DUP1 CALLDATALOAD SWAP1 PUSH1 0x24 CALLDATALOAD PUSH8 0xFFFFFFFFFFFFFFFF DUP2 GT PUSH2 0x3D2 JUMPI PUSH2 0x138 SWAP1 CALLDATASIZE SWAP1 DUP4 ADD PUSH2 0x11EC JUMP JUMPDEST PUSH2 0x140 PUSH2 0x148A JUMP JUMPDEST DUP4 DUP7 MSTORE PUSH1 0x20 SWAP3 PUSH1 0x2 DUP5 MSTORE DUP6 DUP8 KECCAK256 SWAP2 PUSH1 0x5 DUP4 ADD SWAP1 DUP2 SLOAD SWAP5 PUSH2 0x163 PUSH1 0xFF DUP8 AND ISZERO PUSH2 0x1511 JUMP JUMPDEST PUSH2 0x173 PUSH1 0xFF DUP8 PUSH1 0x8 SHR AND ISZERO PUSH2 0x156B JUMP JUMPDEST DUP4 DUP6 ADD SLOAD TIMESTAMP LT ISZERO PUSH2 0x383 JUMPI DUP2 PUSH2 0x1A2 DUP9 DUP13 SWAP4 DUP2 SWAP6 DUP14 MLOAD SWAP5 DUP6 SWAP3 DUP5 DUP5 ADD CALLDATACOPY DUP2 ADD DUP6 DUP4 DUP3 ADD MSTORE SUB DUP1 DUP5 MSTORE ADD DUP3 PUSH2 0x1468 JUMP JUMPDEST DUP10 MLOAD SWAP1 DUP1 MLOAD SWAP1 DUP4 JUMPDEST DUP3 DUP2 LT PUSH2 0x36E JUMPI POP POP DUP2 SWAP1 DUP2 ADD DUP4 DUP2 MSTORE SUB SWAP1 PUSH1 0x2 GAS STATICCALL ISZERO PUSH2 0x364 JUMPI DUP8 MLOAD SWAP4 PUSH1 0x3 DUP5 ADD SWAP5 DUP6 SLOAD SUB PUSH2 0x323 JUMPI PUSH1 0xFF NOT AND PUSH1 0x1 SWAP1 DUP2 OR SWAP1 SWAP2 SSTORE DUP3 ADD SLOAD DUP8 SWAP3 SWAP2 SWAP1 ISZERO PUSH2 0x24E JUMPI POP DUP2 DUP1 PUSH1 0x2 DUP2 SWAP4 ADD SLOAD DUP2 DUP2 ISZERO PUSH2 0x245 JUMPI JUMPDEST CALLER SWAP1 CALL ISZERO PUSH2 0x238 JUMPI SWAP3 PUSH32 0x489E9EE921192823D1AA1EF800C9FFC642993538B1E7E43A4D46A91965E894AB SWAP3 SWAP4 JUMPDEST SLOAD SWAP1 MLOAD SWAP1 DUP2 MSTORE LOG2 PUSH1 0x1 DUP2 SSTORE DUP1 RETURN JUMPDEST POP POP POP MLOAD SWAP1 RETURNDATASIZE SWAP1 DUP3 RETURNDATACOPY RETURNDATASIZE SWAP1 REVERT JUMPDEST POP PUSH2 0x8FC PUSH2 0x1FD JUMP JUMPDEST PUSH1 0x2 SWAP2 SWAP1 SWAP2 ADD SLOAD DUP7 MLOAD PUSH4 0xA9059CBB PUSH1 0xE0 SHL DUP2 MSTORE CALLER SWAP3 DUP2 ADD SWAP3 DUP4 MSTORE PUSH1 0x20 DUP4 ADD SWAP2 SWAP1 SWAP2 MSTORE SWAP6 SWAP3 SWAP2 POP DUP4 SWAP1 DUP7 SWAP1 DUP2 SWAP1 PUSH1 0x40 ADD SUB DUP2 DUP10 PUSH32 0x0 PUSH1 0x1 PUSH1 0x1 PUSH1 0xA0 SHL SUB AND GAS CALL SWAP5 DUP6 ISZERO PUSH2 0x319 JUMPI PUSH32 0x489E9EE921192823D1AA1EF800C9FFC642993538B1E7E43A4D46A91965E894AB SWAP5 SWAP6 PUSH2 0x2E7 SWAP2 DUP9 SWAP2 PUSH2 0x2EC JUMPI JUMPDEST POP PUSH2 0x14C5 JUMP JUMPDEST PUSH2 0x22A JUMP JUMPDEST PUSH2 0x30C SWAP2 POP DUP6 RETURNDATASIZE DUP8 GT PUSH2 0x312 JUMPI JUMPDEST PUSH2 0x304 DUP2 DUP4 PUSH2 0x1468 JUMP JUMPDEST DUP2 ADD SWAP1 PUSH2 0x14AD JUMP JUMPDEST CODESIZE PUSH2 0x2E1 JUMP JUMPDEST POP RETURNDATASIZE PUSH2 0x2FA JUMP JUMPDEST DUP3 MLOAD RETURNDATASIZE DUP9 DUP3 RETURNDATACOPY RETURNDATASIZE SWAP1 REVERT JUMPDEST PUSH1 0x64 DUP4 DUP8 DUP1 DUP12 MLOAD SWAP3 PUSH3 0x461BCD PUSH1 0xE5 SHL DUP5 MSTORE DUP4 ADD MSTORE PUSH1 0x24 DUP3 ADD MSTORE PUSH32 0x537461726B6E65744272696467653A20696E76616C696420707265696D616765 PUSH1 0x44 DUP3 ADD MSTORE REVERT JUMPDEST DUP7 MLOAD RETURNDATASIZE DUP10 DUP3 RETURNDATACOPY RETURNDATASIZE SWAP1 REVERT JUMPDEST DUP2 DUP2 ADD DUP7 ADD MLOAD DUP5 DUP3 ADD MSTORE DUP11 SWAP6 DUP15 SWAP6 POP ADD PUSH2 0x1AA JUMP JUMPDEST DUP9 MLOAD PUSH3 0x461BCD PUSH1 0xE5 SHL DUP2 MSTORE DUP1 DUP6 ADD DUP9 SWAP1 MSTORE PUSH1 0x24 DUP1 DUP3 ADD MSTORE PUSH32 0x537461726B6E65744272696467653A2074696D656C6F636B2068617320657870 PUSH1 0x44 DUP3 ADD MSTORE PUSH4 0x1A5C9959 PUSH1 0xE2 SHL PUSH1 0x64 DUP3 ADD MSTORE PUSH1 0x84 SWAP1 REVERT JUMPDEST DUP5 DUP1 REVERT JUMPDEST DUP3 DUP1 REVERT JUMPDEST POP CALLVALUE PUSH2 0x3D6 JUMPI PUSH1 0x20 CALLDATASIZE PUSH1 0x3 NOT ADD SLT PUSH2 0x3D6 JUMPI PUSH2 0x3F4 PUSH2 0x121F JUMP JUMPDEST SWAP1 PUSH2 0x3FD PUSH2 0x1235 JUMP JUMPDEST PUSH1 0x1 PUSH1 0x1 PUSH1 0xA0 SHL SUB SWAP2 DUP3 AND SWAP3 DUP4 ISZERO PUSH2 0x44E JUMPI POP POP PUSH1 0x1 SLOAD DUP3 PUSH1 0x1 PUSH1 0x1 PUSH1 0x60 SHL SUB PUSH1 0xA0 SHL DUP3 AND OR PUSH1 0x1 SSTORE AND PUSH32 0x8BE0079C531659141344CD1FD0A4F28419497F9722A3DAAFE3B4186F6B6457E0 DUP4 DUP1 LOG3 DUP1 RETURN JUMPDEST MLOAD PUSH4 0x1E4FBDF7 PUSH1 0xE0 SHL DUP2 MSTORE SWAP1 DUP2 ADD DUP5 SWAP1 MSTORE PUSH1 0x24 SWAP1 REVERT JUMPDEST POP POP CALLVALUE PUSH2 0x4A8 JUMPI DUP2 PUSH1 0x3 NOT CALLDATASIZE ADD SLT PUSH2 0x4A8 JUMPI MLOAD PUSH32 0x0 PUSH1 0x1 PUSH1 0x1 PUSH1 0xA0 SHL SUB AND DUP2 MSTORE PUSH1 0x20 SWAP1 RETURN JUMPDEST POP DUP1 REVERT JUMPDEST POP SWAP1 CALLVALUE PUSH2 0x3D6 JUMPI DUP1 PUSH1 0x3 NOT CALLDATASIZE ADD SLT PUSH2 0x3D6 JUMPI PUSH1 0x20 PUSH2 0x50F SWAP3 PUSH2 0x4CC PUSH2 0x121F JUMP JUMPDEST PUSH2 0x4D4 PUSH2 0x1235 JUMP JUMPDEST PUSH1 0x1 SLOAD DUP5 MLOAD PUSH4 0xA9059CBB PUSH1 0xE0 SHL DUP2 MSTORE PUSH1 0x1 PUSH1 0x1 PUSH1 0xA0 SHL SUB SWAP2 DUP3 AND SWAP4 DUP2 ADD SWAP4 DUP5 MSTORE PUSH1 0x24 CALLDATALOAD PUSH1 0x20 DUP6 ADD MSTORE SWAP6 DUP7 SWAP4 DUP5 SWAP3 DUP10 SWAP3 SWAP1 SWAP2 DUP5 SWAP2 PUSH1 0x40 SWAP1 SWAP2 ADD SWAP1 JUMP JUMPDEST SUB SWAP4 AND GAS CALL SWAP1 DUP2 ISZERO PUSH2 0x53F JUMPI POP PUSH2 0x524 JUMPI POP DUP1 RETURN JUMPDEST PUSH2 0x53B SWAP1 PUSH1 0x20 RETURNDATASIZE DUP2 GT PUSH2 0x312 JUMPI PUSH2 0x304 DUP2 DUP4 PUSH2 0x1468 JUMP JUMPDEST POP DUP1 RETURN JUMPDEST MLOAD RETURNDATASIZE DUP5 DUP3 RETURNDATACOPY RETURNDATASIZE SWAP1 REVERT JUMPDEST POP SWAP1 CALLVALUE PUSH2 0x3D6 JUMPI PUSH1 0x20 CALLDATASIZE PUSH1 0x3 NOT ADD SLT PUSH2 0x3D6 JUMPI DUP1 PUSH1 0xFF SWAP2 PUSH1 0xE0 SWAP5 DUP5 CALLDATALOAD DUP2 MSTORE PUSH1 0x2 PUSH1 0x20 MSTORE KECCAK256 PUSH1 0x1 DUP1 PUSH1 0xA0 SHL SUB DUP2 SLOAD AND SWAP4 PUSH1 0x1 DUP3 ADD SLOAD SWAP3 PUSH1 0x2 DUP4 ADD SLOAD SWAP1 PUSH1 0x5 PUSH1 0x3 DUP6 ADD SLOAD SWAP4 DUP6 ADD SLOAD SWAP5 ADD SLOAD SWAP5 DUP2 MLOAD SWAP8 DUP9 MSTORE PUSH1 0x20 DUP9 ADD MSTORE DUP7 ADD MSTORE PUSH1 0x60 DUP6 ADD MSTORE PUSH1 0x80 DUP5 ADD MSTORE DUP2 DUP2 AND ISZERO ISZERO PUSH1 0xA0 DUP5 ADD MSTORE PUSH1 0x8 SHR AND ISZERO ISZERO PUSH1 0xC0 DUP3 ADD MSTORE RETURN JUMPDEST POP POP CALLVALUE PUSH2 0x4A8 JUMPI DUP2 PUSH1 0x3 NOT CALLDATASIZE ADD SLT PUSH2 0x4A8 JUMPI PUSH1 0x1 SLOAD SWAP1 MLOAD PUSH1 0x1 PUSH1 0x1 PUSH1 0xA0 SHL SUB SWAP1 SWAP2 AND DUP2 MSTORE PUSH1 0x20 SWAP1 RETURN JUMPDEST POP POP CALLVALUE PUSH2 0x4A8 JUMPI DUP2 PUSH1 0x3 NOT CALLDATASIZE ADD SLT PUSH2 0x4A8 JUMPI PUSH1 0x20 SWAP1 MLOAD PUSH7 0x2386F26FC10000 DUP2 MSTORE RETURN JUMPDEST POP POP CALLVALUE PUSH2 0x4A8 JUMPI DUP2 PUSH1 0x3 NOT CALLDATASIZE ADD SLT PUSH2 0x4A8 JUMPI PUSH1 0x20 SWAP1 PUSH1 0x3 SLOAD SWAP1 MLOAD SWAP1 DUP2 MSTORE RETURN JUMPDEST POP POP CALLVALUE PUSH2 0x4A8 JUMPI DUP2 PUSH1 0x3 NOT CALLDATASIZE ADD SLT PUSH2 0x4A8 JUMPI PUSH1 0x20 SWAP1 MLOAD PUSH9 0x56BC75E2D63100000 DUP2 MSTORE RETURN JUMPDEST POP SWAP2 SWAP1 CALLVALUE PUSH2 0x4A8 JUMPI PUSH1 0x20 SWAP1 DUP2 PUSH1 0x3 NOT CALLDATASIZE ADD SLT PUSH2 0x3D6 JUMPI DUP4 CALLDATALOAD SWAP2 PUSH2 0x66F PUSH2 0x148A JUMP JUMPDEST DUP3 DUP5 MSTORE PUSH1 0x2 DUP2 MSTORE DUP2 DUP5 KECCAK256 DUP1 SLOAD SWAP1 SWAP2 PUSH1 0x1 PUSH1 0x1 PUSH1 0xA0 SHL SUB SWAP2 DUP3 AND CALLER DUP2 SUB PUSH2 0x826 JUMPI PUSH1 0x5 DUP5 ADD SWAP8 DUP9 SLOAD SWAP9 PUSH2 0x6A4 PUSH1 0xFF DUP12 AND ISZERO PUSH2 0x1511 JUMP JUMPDEST PUSH2 0x6B4 PUSH1 0xFF DUP12 PUSH1 0x8 SHR AND ISZERO PUSH2 0x156B JUMP JUMPDEST DUP2 DUP7 ADD SLOAD TIMESTAMP LT PUSH2 0x7D2 JUMPI PUSH2 0x100 DUP10 SWAP11 PUSH2 0xFF00 SWAP11 SWAP9 SWAP10 SWAP11 NOT AND OR SWAP1 SSTORE PUSH1 0x1 DUP6 ADD SLOAD ISZERO ISZERO PUSH1 0x0 EQ PUSH2 0x73E JUMPI POP POP POP DUP3 DUP3 PUSH1 0x2 DUP3 SWAP5 SWAP4 DUP4 SWAP5 SLOAD AND SWAP2 ADD SLOAD SWAP1 DUP3 DUP3 ISZERO PUSH2 0x735 JUMPI JUMPDEST CALL ISZERO PUSH2 0x72A JUMPI POP JUMPDEST PUSH32 0xFE509803C09416B28FF3D8F690C8B0C61462A892C46D5430C8FB20ABE472DAF0 DUP3 DUP1 LOG2 PUSH1 0x1 DUP2 SSTORE DUP1 RETURN JUMPDEST MLOAD SWAP2 RETURNDATASIZE SWAP2 POP DUP3 RETURNDATACOPY RETURNDATASIZE SWAP1 REVERT JUMPDEST POP PUSH2 0x8FC PUSH2 0x6F7 JUMP JUMPDEST DUP3 SWAP6 PUSH1 0x2 PUSH1 0x44 SWAP4 SWAP5 SWAP6 SWAP7 SWAP10 SWAP9 SWAP10 ADD SLOAD SWAP6 DUP10 MLOAD SWAP7 DUP8 SWAP6 DUP7 SWAP5 PUSH4 0xA9059CBB PUSH1 0xE0 SHL DUP7 MSTORE DUP6 ADD MSTORE PUSH1 0x24 DUP5 ADD MSTORE PUSH32 0x0 AND GAS CALL SWAP2 DUP3 ISZERO PUSH2 0x7C8 JUMPI PUSH2 0x7A6 SWAP4 SWAP5 POP DUP6 SWAP3 PUSH2 0x7AB JUMPI JUMPDEST POP POP PUSH2 0x14C5 JUMP JUMPDEST PUSH2 0x6FF JUMP JUMPDEST PUSH2 0x7C1 SWAP3 POP DUP1 RETURNDATASIZE LT PUSH2 0x312 JUMPI PUSH2 0x304 DUP2 DUP4 PUSH2 0x1468 JUMP JUMPDEST CODESIZE DUP1 PUSH2 0x79F JUMP JUMPDEST DUP5 MLOAD RETURNDATASIZE DUP8 DUP3 RETURNDATACOPY RETURNDATASIZE SWAP1 REVERT JUMPDEST DUP7 MLOAD PUSH3 0x461BCD PUSH1 0xE5 SHL DUP2 MSTORE DUP1 DUP4 ADD DUP6 SWAP1 MSTORE PUSH1 0x28 PUSH1 0x24 DUP3 ADD MSTORE PUSH32 0x537461726B6E65744272696467653A2074696D656C6F636B20686173206E6F74 PUSH1 0x44 DUP3 ADD MSTORE PUSH8 0x8195E1C1A5C9959 PUSH1 0xC2 SHL PUSH1 0x64 DUP3 ADD MSTORE PUSH1 0x84 SWAP1 REVERT JUMPDEST DUP5 MLOAD PUSH3 0x461BCD PUSH1 0xE5 SHL DUP2 MSTORE DUP1 DUP10 ADD DUP4 SWAP1 MSTORE PUSH1 0x2B PUSH1 0x24 DUP3 ADD MSTORE PUSH32 0x537461726B6E65744272696467653A2063616C6C6572206973206E6F74207468 PUSH1 0x44 DUP3 ADD MSTORE PUSH11 0x329034B734BA34B0BA37B9 PUSH1 0xA9 SHL PUSH1 0x64 DUP3 ADD MSTORE PUSH1 0x84 SWAP1 REVERT JUMPDEST DUP4 CALLVALUE PUSH2 0x8DA JUMPI DUP1 PUSH1 0x3 NOT CALLDATASIZE ADD SLT PUSH2 0x8DA JUMPI PUSH2 0x896 PUSH2 0x1235 JUMP JUMPDEST PUSH1 0x1 DUP1 SLOAD PUSH1 0x1 PUSH1 0x1 PUSH1 0xA0 SHL SUB NOT DUP2 AND SWAP1 SWAP2 SSTORE DUP2 SWAP1 PUSH1 0x1 PUSH1 0x1 PUSH1 0xA0 SHL SUB AND PUSH32 0x8BE0079C531659141344CD1FD0A4F28419497F9722A3DAAFE3B4186F6B6457E0 DUP3 DUP1 LOG3 DUP1 RETURN JUMPDEST DUP1 REVERT JUMPDEST POP CALLVALUE PUSH2 0x3D6 JUMPI PUSH1 0x20 CALLDATASIZE PUSH1 0x3 NOT ADD SLT PUSH2 0x3D6 JUMPI DUP1 CALLDATALOAD SWAP2 PUSH2 0x8FA PUSH2 0x1235 JUMP JUMPDEST PUSH7 0x2386F26FC10000 DUP4 GT PUSH2 0x910 JUMPI POP POP PUSH1 0x3 SSTORE DUP1 RETURN JUMPDEST SWAP1 PUSH1 0x20 PUSH1 0x64 SWAP3 MLOAD SWAP2 PUSH3 0x461BCD PUSH1 0xE5 SHL DUP4 MSTORE DUP3 ADD MSTORE PUSH1 0x1C PUSH1 0x24 DUP3 ADD MSTORE PUSH32 0x537461726B6E65744272696467653A2066656520746F6F206869676800000000 PUSH1 0x44 DUP3 ADD MSTORE REVERT JUMPDEST DUP4 CALLVALUE PUSH2 0x8DA JUMPI DUP1 PUSH1 0x3 NOT CALLDATASIZE ADD SLT PUSH2 0x8DA JUMPI PUSH2 0x96C PUSH2 0x1235 JUMP JUMPDEST DUP1 RETURN JUMPDEST POP POP CALLVALUE PUSH2 0x4A8 JUMPI DUP2 PUSH1 0x3 NOT CALLDATASIZE ADD SLT PUSH2 0x4A8 JUMPI MLOAD PUSH32 0x0 PUSH1 0x1 PUSH1 0x1 PUSH1 0xA0 SHL SUB AND DUP2 MSTORE PUSH1 0x20 SWAP1 RETURN JUMPDEST POP CALLVALUE PUSH2 0x3D6 JUMPI DUP3 PUSH1 0x3 NOT CALLDATASIZE ADD SLT PUSH2 0x3D6 JUMPI PUSH2 0x9CC PUSH2 0x1235 JUMP JUMPDEST SELFBALANCE SWAP1 DUP2 ISZERO PUSH2 0x9FE JUMPI POP PUSH1 0x1 SLOAD DUP4 SWAP2 DUP3 SWAP2 DUP3 SWAP2 DUP3 SWAP2 PUSH1 0x1 PUSH1 0x1 PUSH1 0xA0 SHL SUB AND DUP3 CALL ISZERO PUSH2 0x9F4 JUMPI POP DUP1 RETURN JUMPDEST MLOAD SWAP1 RETURNDATASIZE SWAP1 DUP3 RETURNDATACOPY RETURNDATASIZE SWAP1 REVERT JUMPDEST PUSH1 0x84 SWAP1 PUSH1 0x20 DUP5 MLOAD SWAP2 PUSH3 0x461BCD PUSH1 0xE5 SHL DUP4 MSTORE DUP3 ADD MSTORE PUSH1 0x23 PUSH1 0x24 DUP3 ADD MSTORE PUSH32 0x537461726B6E65744272696467653A206E6F206665657320746F207769746864 PUSH1 0x44 DUP3 ADD MSTORE PUSH3 0x726177 PUSH1 0xE8 SHL PUSH1 0x64 DUP3 ADD MSTORE REVERT JUMPDEST POP SWAP2 SWAP1 CALLVALUE PUSH2 0x4A8 JUMPI PUSH1 0xA0 CALLDATASIZE PUSH1 0x3 NOT ADD SLT PUSH2 0x4A8 JUMPI PUSH1 0x24 CALLDATALOAD PUSH1 0x1 PUSH1 0x1 PUSH1 0xA0 SHL SUB DUP2 DUP2 AND SWAP3 DUP6 CALLDATALOAD SWAP3 DUP5 SWAP1 SUB PUSH2 0x3D2 JUMPI PUSH1 0x44 CALLDATALOAD SWAP2 PUSH1 0x64 CALLDATALOAD SWAP7 PUSH1 0x84 CALLDATALOAD SWAP8 PUSH2 0xA8E PUSH2 0x148A JUMP JUMPDEST DUP6 DUP9 MSTORE PUSH1 0x20 SWAP7 PUSH1 0x2 DUP9 MSTORE PUSH2 0xAA7 DUP5 DUP7 DUP12 KECCAK256 SLOAD AND ISZERO PUSH2 0x1261 JUMP JUMPDEST PUSH2 0xABA PUSH7 0x2386F26FC10000 DUP8 LT ISZERO PUSH2 0x12C6 JUMP JUMPDEST PUSH2 0xACF PUSH9 0x3635C9ADC5DEA00000 DUP8 GT ISZERO PUSH2 0x1312 JUMP JUMPDEST ISZERO PUSH2 0xC52 JUMPI DUP8 SWAP9 PUSH2 0xAE1 DUP3 ISZERO ISZERO PUSH2 0x135E JUMP JUMPDEST PUSH2 0xAEE PUSH2 0xE10 DUP3 GT PUSH2 0x13AA JUMP JUMPDEST DUP5 MLOAD PUSH4 0x23B872DD PUSH1 0xE0 SHL DUP2 MSTORE CALLER DUP5 DUP3 ADD MSTORE ADDRESS PUSH1 0x24 DUP3 ADD MSTORE PUSH1 0x44 DUP2 ADD DUP8 SWAP1 MSTORE DUP9 DUP2 PUSH1 0x64 DUP2 DUP14 PUSH32 0x0 DUP11 AND GAS CALL SWAP1 DUP2 ISZERO PUSH2 0xC48 JUMPI SWAP2 PUSH2 0xB55 DUP11 SWAP7 SWAP5 SWAP3 DUP11 SWAP7 SWAP5 DUP14 SWAP2 PUSH2 0xC31 JUMPI POP PUSH2 0x14C5 JUMP JUMPDEST PUSH2 0xB5F SWAP1 TIMESTAMP PUSH2 0x1413 JUMP JUMPDEST SWAP1 DUP11 DUP8 MLOAD SWAP5 PUSH2 0xB6D DUP7 PUSH2 0x1436 JUMP JUMPDEST CALLER DUP7 MSTORE DUP8 DUP7 ADD SWAP1 DUP3 DUP3 MSTORE DUP10 DUP1 DUP9 ADD SWAP4 DUP13 DUP6 MSTORE PUSH1 0x60 DUP10 ADD SWAP6 DUP7 MSTORE PUSH1 0x80 DUP10 ADD SWAP7 DUP8 MSTORE PUSH1 0xA0 DUP10 ADD SWAP11 DUP2 DUP13 MSTORE PUSH1 0xC0 DUP11 ADD SWAP11 DUP3 DUP13 MSTORE DUP3 MSTORE PUSH1 0x2 SWAP1 MSTORE KECCAK256 SWAP7 MLOAD AND PUSH1 0x1 PUSH1 0x1 PUSH1 0x60 SHL SUB PUSH1 0xA0 SHL DUP8 SLOAD AND OR DUP7 SSTORE MLOAD PUSH1 0x1 DUP7 ADD SSTORE MLOAD PUSH1 0x2 DUP6 ADD SSTORE MLOAD PUSH1 0x3 DUP5 ADD SSTORE MLOAD SWAP1 DUP3 ADD SSTORE PUSH1 0x5 ADD SWAP2 MLOAD ISZERO ISZERO PUSH2 0xBEC SWAP1 DUP4 SWAP1 PUSH1 0xFF DUP1 NOT DUP4 SLOAD AND SWAP2 ISZERO ISZERO AND OR SWAP1 SSTORE JUMP JUMPDEST MLOAD DUP2 SLOAD PUSH2 0xFF00 NOT AND SWAP1 ISZERO ISZERO PUSH1 0x8 SHL PUSH2 0xFF00 AND OR SWAP1 SSTORE MLOAD SWAP1 DUP2 MSTORE CALLER SWAP3 PUSH32 0x32F66378E1286D490C275E7123C9A3B56616FE021854A438DFCFA79AE7C46A23 SWAP2 LOG4 PUSH1 0x1 DUP2 SSTORE DUP1 RETURN JUMPDEST PUSH2 0x30C SWAP2 POP DUP9 RETURNDATASIZE DUP11 GT PUSH2 0x312 JUMPI PUSH2 0x304 DUP2 DUP4 PUSH2 0x1468 JUMP JUMPDEST DUP7 MLOAD RETURNDATASIZE DUP13 DUP3 RETURNDATACOPY RETURNDATASIZE SWAP1 REVERT JUMPDEST DUP4 MLOAD PUSH3 0x461BCD PUSH1 0xE5 SHL DUP2 MSTORE DUP1 DUP4 ADD DUP9 SWAP1 MSTORE PUSH1 0x28 PUSH1 0x24 DUP3 ADD MSTORE PUSH32 0x537461726B6E65744272696467653A20696E76616C696420457468657265756D PUSH1 0x44 DUP3 ADD MSTORE PUSH8 0x2061646472657373 PUSH1 0xC0 SHL PUSH1 0x64 DUP3 ADD MSTORE PUSH1 0x84 SWAP1 REVERT JUMPDEST POP DUP3 SWAP1 CALLVALUE PUSH2 0x4A8 JUMPI PUSH1 0x20 DUP1 PUSH1 0x3 NOT CALLDATASIZE ADD SLT PUSH2 0x3D6 JUMPI PUSH8 0xFFFFFFFFFFFFFFFF SWAP4 DUP3 CALLDATALOAD DUP6 DUP2 GT PUSH2 0x3D2 JUMPI PUSH2 0xCDB SWAP1 CALLDATASIZE SWAP1 DUP6 ADD PUSH2 0x11EC JUMP JUMPDEST SWAP1 SWAP6 DUP2 GT PUSH2 0xF10 JUMPI DUP2 MLOAD SWAP6 PUSH2 0xCF9 PUSH1 0x1F DUP4 ADD PUSH1 0x1F NOT AND DUP6 ADD DUP9 PUSH2 0x1468 JUMP JUMPDEST DUP2 DUP8 MSTORE CALLDATASIZE DUP3 DUP3 ADD GT PUSH2 0xF0C JUMPI DUP2 DUP7 SWAP3 DUP6 SWAP3 DUP4 DUP11 ADD CALLDATACOPY DUP8 ADD ADD MSTORE PUSH1 0x2 DUP6 MLOAD LT PUSH2 0xEBC JUMPI DUP4 SWAP2 DUP3 JUMPDEST DUP7 MLOAD DUP5 LT ISZERO PUSH2 0xEB5 JUMPI DUP2 DUP5 DUP9 ADD ADD MLOAD PUSH1 0xF8 SHR PUSH1 0x30 DUP2 LT ISZERO DUP1 PUSH2 0xEAA JUMPI JUMPDEST ISZERO PUSH2 0xDBA JUMPI DUP2 DUP7 SHL SWAP2 DUP1 DUP4 DIV PUSH1 0x10 EQ SWAP1 ISZERO OR ISZERO PUSH2 0xDA7 JUMPI PUSH1 0xFF SWAP1 PUSH1 0x2F NOT ADD DUP2 DUP2 GT PUSH2 0xD94 JUMPI PUSH2 0xD6D SWAP3 SWAP2 AND SWAP1 PUSH2 0x1413 JUMP JUMPDEST SWAP3 JUMPDEST PUSH1 0x0 NOT DUP2 EQ PUSH2 0xD81 JUMPI PUSH1 0x1 ADD SWAP3 PUSH2 0xD1F JUMP JUMPDEST PUSH4 0x4E487B71 PUSH1 0xE0 SHL DUP7 MSTORE PUSH1 0x11 DUP6 MSTORE PUSH1 0x24 DUP7 REVERT JUMPDEST PUSH4 0x4E487B71 PUSH1 0xE0 SHL DUP9 MSTORE PUSH1 0x11 DUP8 MSTORE PUSH1 0x24 DUP9 REVERT JUMPDEST PUSH4 0x4E487B71 PUSH1 0xE0 SHL DUP8 MSTORE PUSH1 0x11 DUP7 MSTORE PUSH1 0x24 DUP8 REVERT JUMPDEST PUSH1 0x61 DUP2 LT ISZERO DUP1 PUSH2 0xE9F JUMPI JUMPDEST ISZERO PUSH2 0xE05 JUMPI DUP2 DUP7 SHL SWAP2 DUP1 DUP4 DIV PUSH1 0x10 EQ SWAP1 ISZERO OR ISZERO PUSH2 0xDA7 JUMPI PUSH1 0xFF SWAP1 PUSH1 0x60 NOT ADD DUP2 DUP2 GT PUSH2 0xD94 JUMPI SWAP1 PUSH2 0xDF8 PUSH2 0xDFF SWAP4 SWAP3 PUSH2 0x15C5 JUMP JUMPDEST AND SWAP1 PUSH2 0x1413 JUMP JUMPDEST SWAP3 PUSH2 0xD6F JUMP JUMPDEST PUSH1 0x41 DUP2 LT ISZERO DUP1 PUSH2 0xE94 JUMPI JUMPDEST ISZERO PUSH2 0xE43 JUMPI DUP2 DUP7 SHL SWAP2 DUP1 DUP4 DIV PUSH1 0x10 EQ SWAP1 ISZERO OR ISZERO PUSH2 0xDA7 JUMPI PUSH1 0xFF SWAP1 PUSH1 0x40 NOT ADD DUP2 DUP2 GT PUSH2 0xD94 JUMPI SWAP1 PUSH2 0xDF8 PUSH2 0xDFF SWAP4 SWAP3 PUSH2 0x15C5 JUMP JUMPDEST DUP4 MLOAD PUSH3 0x461BCD PUSH1 0xE5 SHL DUP2 MSTORE DUP1 DUP8 ADD DUP5 SWAP1 MSTORE PUSH1 0x25 PUSH1 0x24 DUP3 ADD MSTORE PUSH32 0x537461726B6E65744272696467653A20696E76616C6964206865782063686172 PUSH1 0x44 DUP3 ADD MSTORE PUSH5 0x30B1BA32B9 PUSH1 0xD9 SHL PUSH1 0x64 DUP3 ADD MSTORE PUSH1 0x84 SWAP1 REVERT JUMPDEST POP PUSH1 0x46 DUP2 GT ISZERO PUSH2 0xE10 JUMP JUMPDEST POP PUSH1 0x66 DUP2 GT ISZERO PUSH2 0xDC5 JUMP JUMPDEST POP PUSH1 0x39 DUP2 GT ISZERO PUSH2 0xD3C JUMP JUMPDEST DUP3 MLOAD SWAP1 DUP2 MSTORE RETURN JUMPDEST MLOAD PUSH3 0x461BCD PUSH1 0xE5 SHL DUP2 MSTORE SWAP2 DUP3 ADD MSTORE PUSH1 0x26 PUSH1 0x24 DUP3 ADD MSTORE PUSH32 0x537461726B6E65744272696467653A20696E76616C6964206164647265737320 PUSH1 0x44 DUP3 ADD MSTORE PUSH6 0x199BDC9B585D PUSH1 0xD2 SHL PUSH1 0x64 DUP3 ADD MSTORE PUSH1 0x84 SWAP2 POP REVERT JUMPDEST DUP6 DUP1 REVERT JUMPDEST PUSH4 0x4E487B71 PUSH1 0xE0 SHL DUP6 MSTORE PUSH1 0x41 DUP5 MSTORE PUSH1 0x24 DUP6 REVERT JUMPDEST POP PUSH1 0x80 CALLDATASIZE PUSH1 0x3 NOT ADD SLT PUSH2 0x3D6 JUMPI DUP1 CALLDATALOAD PUSH1 0x24 CALLDATALOAD SWAP3 PUSH1 0x44 CALLDATALOAD PUSH1 0x64 CALLDATALOAD SWAP4 PUSH2 0xF45 PUSH2 0x148A JUMP JUMPDEST DUP4 DUP8 MSTORE PUSH1 0x2 PUSH1 0x20 MSTORE DUP3 DUP8 KECCAK256 SLOAD PUSH1 0x1 PUSH1 0x1 PUSH1 0xA0 SHL SUB SWAP3 SWAP1 PUSH2 0xF67 SWAP1 DUP5 AND ISZERO PUSH2 0x1261 JUMP JUMPDEST PUSH2 0xF7A PUSH7 0x2386F26FC10000 CALLVALUE LT ISZERO PUSH2 0x12C6 JUMP JUMPDEST PUSH2 0xF8F PUSH9 0x56BC75E2D63100000 CALLVALUE GT ISZERO PUSH2 0x1312 JUMP JUMPDEST DUP7 ISZERO PUSH2 0x10B4 JUMPI PUSH2 0xFA0 DUP2 ISZERO ISZERO PUSH2 0x135E JUMP JUMPDEST PUSH2 0xFAD PUSH2 0xE10 DUP8 GT PUSH2 0x13AA JUMP JUMPDEST PUSH1 0x3 SLOAD CALLVALUE SUB SWAP6 CALLVALUE DUP8 GT PUSH2 0x10A1 JUMPI PUSH1 0x5 PUSH2 0x1070 SWAP5 DUP11 SWAP5 DUP9 SWAP5 PUSH2 0xFD1 PUSH2 0x1059 SWAP6 TIMESTAMP PUSH2 0x1413 JUMP JUMPDEST SWAP1 DUP12 DUP14 DUP12 MLOAD SWAP6 PUSH2 0xFE0 DUP8 PUSH2 0x1436 JUMP JUMPDEST CALLER DUP8 MSTORE PUSH1 0x20 DUP8 ADD SWAP2 DUP3 MSTORE DUP13 DUP8 ADD SWAP3 DUP4 MSTORE PUSH1 0x60 DUP8 ADD SWAP4 DUP5 MSTORE PUSH1 0x80 DUP8 ADD SWAP5 DUP6 MSTORE DUP13 PUSH1 0xA0 DUP9 ADD SWAP12 DUP1 DUP14 MSTORE PUSH1 0xC0 DUP10 ADD SWAP12 DUP2 DUP14 MSTORE DUP2 MSTORE PUSH1 0x2 PUSH1 0x20 MSTORE KECCAK256 SWAP7 MLOAD AND PUSH1 0x1 PUSH1 0x1 PUSH1 0x60 SHL SUB PUSH1 0xA0 SHL DUP8 SLOAD AND OR DUP7 SSTORE MLOAD PUSH1 0x1 DUP7 ADD SSTORE MLOAD PUSH1 0x2 DUP6 ADD SSTORE MLOAD PUSH1 0x3 DUP5 ADD SSTORE MLOAD SWAP1 DUP3 ADD SSTORE ADD SWAP3 MLOAD ISZERO ISZERO DUP4 SWAP1 PUSH1 0xFF DUP1 NOT DUP4 SLOAD AND SWAP2 ISZERO ISZERO AND OR SWAP1 SSTORE JUMP JUMPDEST MLOAD DUP2 SLOAD PUSH2 0xFF00 NOT AND SWAP1 ISZERO ISZERO PUSH1 0x8 SHL PUSH2 0xFF00 AND OR SWAP1 SSTORE JUMP JUMPDEST MLOAD SWAP2 DUP3 MSTORE PUSH32 0x32F66378E1286D490C275E7123C9A3B56616FE021854A438DFCFA79AE7C46A23 PUSH1 0x20 CALLER SWAP4 LOG4 PUSH1 0x1 DUP2 SSTORE DUP1 RETURN JUMPDEST PUSH4 0x4E487B71 PUSH1 0xE0 SHL DUP10 MSTORE PUSH1 0x11 DUP4 MSTORE PUSH1 0x24 DUP10 REVERT JUMPDEST DUP4 MLOAD PUSH3 0x461BCD PUSH1 0xE5 SHL DUP2 MSTORE PUSH1 0x20 DUP2 DUP5 ADD MSTORE PUSH1 0x28 PUSH1 0x24 DUP3 ADD MSTORE PUSH32 0x537461726B6E65744272696467653A20696E76616C696420537461726B6E6574 PUSH1 0x44 DUP3 ADD MSTORE PUSH8 0x2061646472657373 PUSH1 0xC0 SHL PUSH1 0x64 DUP3 ADD MSTORE PUSH1 0x84 SWAP1 REVERT JUMPDEST POP CALLVALUE PUSH2 0x3D6 JUMPI PUSH1 0x20 CALLDATASIZE PUSH1 0x3 NOT ADD SLT PUSH2 0x3D6 JUMPI CALLDATALOAD DUP3 MSTORE PUSH1 0x2 PUSH1 0x20 SWAP1 DUP2 MSTORE SWAP2 DUP2 SWAP1 KECCAK256 DUP1 SLOAD PUSH1 0x1 PUSH1 0x1 PUSH1 0xA0 SHL SUB AND ISZERO ISZERO SWAP2 SWAP1 DUP3 PUSH2 0x115F JUMPI JUMPDEST DUP3 PUSH2 0x114C JUMPI JUMPDEST POP MLOAD SWAP1 ISZERO ISZERO DUP2 MSTORE RETURN JUMPDEST PUSH1 0x5 ADD SLOAD PUSH1 0x8 SHR PUSH1 0xFF AND ISZERO SWAP2 POP CODESIZE PUSH2 0x1143 JUMP JUMPDEST PUSH1 0x5 DUP2 ADD SLOAD PUSH1 0xFF AND ISZERO SWAP3 POP PUSH2 0x113D JUMP JUMPDEST SWAP3 SWAP2 SWAP1 POP CALLVALUE PUSH2 0x11E8 JUMPI PUSH1 0x20 CALLDATASIZE PUSH1 0x3 NOT ADD SLT PUSH2 0x11E8 JUMPI SWAP1 DUP2 DUP2 PUSH1 0xE0 SWAP6 PUSH1 0xFF SWAP5 CALLDATALOAD DUP2 MSTORE PUSH1 0x2 PUSH1 0x20 MSTORE KECCAK256 SWAP1 PUSH1 0x1 DUP1 PUSH1 0xA0 SHL SUB DUP3 SLOAD AND SWAP3 PUSH1 0x1 DUP4 ADD SLOAD SWAP1 PUSH1 0x2 DUP5 ADD SLOAD SWAP2 PUSH1 0x5 PUSH1 0x3 DUP7 ADD SLOAD SWAP5 DUP7 ADD SLOAD SWAP6 ADD SLOAD SWAP6 DUP9 MSTORE PUSH1 0x20 DUP9 ADD MSTORE DUP7 ADD MSTORE PUSH1 0x60 DUP6 ADD MSTORE PUSH1 0x80 DUP5 ADD MSTORE DUP2 DUP2 AND ISZERO ISZERO PUSH1 0xA0 DUP5 ADD MSTORE PUSH1 0x8 SHR AND ISZERO ISZERO PUSH1 0xC0 DUP3 ADD MSTORE RETURN JUMPDEST DUP4 DUP1 REVERT JUMPDEST SWAP2 DUP2 PUSH1 0x1F DUP5 ADD SLT ISZERO PUSH2 0x121A JUMPI DUP3 CALLDATALOAD SWAP2 PUSH8 0xFFFFFFFFFFFFFFFF DUP4 GT PUSH2 0x121A JUMPI PUSH1 0x20 DUP4 DUP2 DUP7 ADD SWAP6 ADD ADD GT PUSH2 0x121A JUMPI JUMP JUMPDEST PUSH1 0x0 DUP1 REVERT JUMPDEST PUSH1 0x4 CALLDATALOAD SWAP1 PUSH1 0x1 PUSH1 0x1 PUSH1 0xA0 SHL SUB DUP3 AND DUP3 SUB PUSH2 0x121A JUMPI JUMP JUMPDEST PUSH1 0x1 SLOAD PUSH1 0x1 PUSH1 0x1 PUSH1 0xA0 SHL SUB AND CALLER SUB PUSH2 0x1249 JUMPI JUMP JUMPDEST PUSH1 0x40 MLOAD PUSH4 0x118CDAA7 PUSH1 0xE0 SHL DUP2 MSTORE CALLER PUSH1 0x4 DUP3 ADD MSTORE PUSH1 0x24 SWAP1 REVERT JUMPDEST ISZERO PUSH2 0x1268 JUMPI JUMP JUMPDEST PUSH1 0x40 MLOAD PUSH3 0x461BCD PUSH1 0xE5 SHL DUP2 MSTORE PUSH1 0x20 PUSH1 0x4 DUP3 ADD MSTORE PUSH1 0x30 PUSH1 0x24 DUP3 ADD MSTORE PUSH32 0x537461726B6E65744272696467653A2073776170207769746820746869732069 PUSH1 0x44 DUP3 ADD MSTORE PUSH16 0x6420616C726561647920657869737473 PUSH1 0x80 SHL PUSH1 0x64 DUP3 ADD MSTORE PUSH1 0x84 SWAP1 REVERT JUMPDEST ISZERO PUSH2 0x12CD JUMPI JUMP JUMPDEST PUSH1 0x40 MLOAD PUSH3 0x461BCD PUSH1 0xE5 SHL DUP2 MSTORE PUSH1 0x20 PUSH1 0x4 DUP3 ADD MSTORE PUSH1 0x1E PUSH1 0x24 DUP3 ADD MSTORE PUSH32 0x537461726B6E65744272696467653A20616D6F756E7420746F6F206C6F770000 PUSH1 0x44 DUP3 ADD MSTORE PUSH1 0x64 SWAP1 REVERT JUMPDEST ISZERO PUSH2 0x1319 JUMPI JUMP JUMPDEST PUSH1 0x40 MLOAD PUSH3 0x461BCD PUSH1 0xE5 SHL DUP2 MSTORE PUSH1 0x20 PUSH1 0x4 DUP3 ADD MSTORE PUSH1 0x1F PUSH1 0x24 DUP3 ADD MSTORE PUSH32 0x537461726B6E65744272696467653A20616D6F756E7420746F6F206869676800 PUSH1 0x44 DUP3 ADD MSTORE PUSH1 0x64 SWAP1 REVERT JUMPDEST ISZERO PUSH2 0x1365 JUMPI JUMP JUMPDEST PUSH1 0x40 MLOAD PUSH3 0x461BCD PUSH1 0xE5 SHL DUP2 MSTORE PUSH1 0x20 PUSH1 0x4 DUP3 ADD MSTORE PUSH1 0x1C PUSH1 0x24 DUP3 ADD MSTORE PUSH32 0x537461726B6E65744272696467653A20696E76616C6964206861736800000000 PUSH1 0x44 DUP3 ADD MSTORE PUSH1 0x64 SWAP1 REVERT JUMPDEST ISZERO PUSH2 0x13B1 JUMPI JUMP JUMPDEST PUSH1 0x40 MLOAD PUSH3 0x461BCD PUSH1 0xE5 SHL DUP2 MSTORE PUSH1 0x20 PUSH1 0x4 DUP3 ADD MSTORE PUSH1 0x34 PUSH1 0x24 DUP3 ADD MSTORE PUSH32 0x537461726B6E65744272696467653A2074696D656C6F636B206D757374206265 PUSH1 0x44 DUP3 ADD MSTORE PUSH20 0x1033B932B0BA32B9103A3430B71018903437BAB9 PUSH1 0x61 SHL PUSH1 0x64 DUP3 ADD MSTORE PUSH1 0x84 SWAP1 REVERT JUMPDEST SWAP2 SWAP1 DUP3 ADD DUP1 SWAP3 GT PUSH2 0x1420 JUMPI JUMP JUMPDEST PUSH4 0x4E487B71 PUSH1 0xE0 SHL PUSH1 0x0 MSTORE PUSH1 0x11 PUSH1 0x4 MSTORE PUSH1 0x24 PUSH1 0x0 REVERT JUMPDEST PUSH1 0xE0 DUP2 ADD SWAP1 DUP2 LT PUSH8 0xFFFFFFFFFFFFFFFF DUP3 GT OR PUSH2 0x1452 JUMPI PUSH1 0x40 MSTORE JUMP JUMPDEST PUSH4 0x4E487B71 PUSH1 0xE0 SHL PUSH1 0x0 MSTORE PUSH1 0x41 PUSH1 0x4 MSTORE PUSH1 0x24 PUSH1 0x0 REVERT JUMPDEST SWAP1 PUSH1 0x1F DUP1 NOT SWAP2 ADD AND DUP2 ADD SWAP1 DUP2 LT PUSH8 0xFFFFFFFFFFFFFFFF DUP3 GT OR PUSH2 0x1452 JUMPI PUSH1 0x40 MSTORE JUMP JUMPDEST PUSH1 0x2 PUSH1 0x0 SLOAD EQ PUSH2 0x149B JUMPI PUSH1 0x2 PUSH1 0x0 SSTORE JUMP JUMPDEST PUSH1 0x40 MLOAD PUSH4 0x3EE5AEB5 PUSH1 0xE0 SHL DUP2 MSTORE PUSH1 0x4 SWAP1 REVERT JUMPDEST SWAP1 DUP2 PUSH1 0x20 SWAP2 SUB SLT PUSH2 0x121A JUMPI MLOAD DUP1 ISZERO ISZERO DUP2 SUB PUSH2 0x121A JUMPI SWAP1 JUMP JUMPDEST ISZERO PUSH2 0x14CC JUMPI JUMP JUMPDEST PUSH1 0x40 MLOAD PUSH3 0x461BCD PUSH1 0xE5 SHL DUP2 MSTORE PUSH1 0x20 PUSH1 0x4 DUP3 ADD MSTORE PUSH1 0x1F PUSH1 0x24 DUP3 ADD MSTORE PUSH32 0x537461726B6E65744272696467653A207472616E73666572206661696C656400 PUSH1 0x44 DUP3 ADD MSTORE PUSH1 0x64 SWAP1 REVERT JUMPDEST ISZERO PUSH2 0x1518 JUMPI JUMP JUMPDEST PUSH1 0x40 MLOAD PUSH3 0x461BCD PUSH1 0xE5 SHL DUP2 MSTORE PUSH1 0x20 PUSH1 0x4 DUP3 ADD MSTORE PUSH1 0x25 PUSH1 0x24 DUP3 ADD MSTORE PUSH32 0x537461726B6E65744272696467653A207377617020616C726561647920657865 PUSH1 0x44 DUP3 ADD MSTORE PUSH5 0x18DD5D1959 PUSH1 0xDA SHL PUSH1 0x64 DUP3 ADD MSTORE PUSH1 0x84 SWAP1 REVERT JUMPDEST ISZERO PUSH2 0x1572 JUMPI JUMP JUMPDEST PUSH1 0x40 MLOAD PUSH3 0x461BCD PUSH1 0xE5 SHL DUP2 MSTORE PUSH1 0x20 PUSH1 0x4 DUP3 ADD MSTORE PUSH1 0x25 PUSH1 0x24 DUP3 ADD MSTORE PUSH32 0x537461726B6E65744272696467653A207377617020616C726561647920726566 PUSH1 0x44 DUP3 ADD MSTORE PUSH5 0x1D5B991959 PUSH1 0xDA SHL PUSH1 0x64 DUP3 ADD MSTORE PUSH1 0x84 SWAP1 REVERT JUMPDEST PUSH1 0xFF PUSH1 0xA SWAP2 AND ADD SWAP1 PUSH1 0xFF DUP3 GT PUSH2 0x1420 JUMPI JUMP INVALID LOG2 PUSH5 0x6970667358 0x22 SLT KECCAK256 DIV 0xC2 0xE5 CALLDATALOAD 0x28 POP DUP4 0xEC 0x5E EQ PUSH17 0x848428E9D3BA35408D7E8CC40844C57E6C REVERT LOG0 SHL KECCAK256 PUSH5 0x736F6C6343 STOP ADDMOD EQ STOP CALLER "},"methodIdentifiers":{"MAX_BRIDGE_AMOUNT()":"7fce0002","MIN_BRIDGE_AMOUNT()":"886688c1","bridgeFee()":"82b12dd7","convertStarknetAddress(string)":"375629cd","emergencyPause()":"51858e27","emergencyWithdraw(address,uint256)":"95ccea67","getHtlc(bytes32)":"089c0aa4","htlcs(bytes32)":"91edd8f2","initiateFromStarknet(bytes32,address,uint256,bytes32,uint256)":"3a5c6e7a","initiateToStarknet(bytes32,uint256,bytes32,uint256)":"19e2a1b9","isValidHtlc(bytes32)":"19304e25","owner()":"8da5cb5b","redeem(bytes32,bytes)":"f7ff7207","refund(bytes32)":"7249fbb6","renounceOwnership()":"715018a6","transferOwnership(address)":"f2fde38b","updateBridgeFee(uint256)":"5a1c0366","wethToken()":"4b57b0be","withdrawFees()":"476343ee","wstarkToken()":"cb521e70"}}}}}