{"contracts/StellarBridge.sol":{"StellarBridge":{"abi":[{"inputs":[{"internalType":"address","name":"_wethToken","type":"address"},{"internalType":"address","name":"_wxlmToken","type":"address"}],"stateMutability":"nonpayable","type":"constructor"},{"inputs":[{"internalType":"address","name":"owner","type":"address"}],"name":"OwnableInvalidOwner","type":"error"},{"inputs":[{"internalType":"address","name":"account","type":"address"}],"name":"OwnableUnauthorizedAccount","type":"error"},{"inputs":[],"name":"ReentrancyGuardReentrantCall","type":"error"},{"anonymous":false,"inputs":[{"indexed":true,"internalType":"bytes32","name":"id","type":"bytes32"},{"indexed":true,"internalType":"address","name":"initiator","type":"address"},{"indexed":true,"internalType":"string","name":"stellarAddress","type":"string"},{"indexed":false,"internalType":"uint256","name":"amount","type":"uint256"}],"name":"Initiated","type":"event"},{"anonymous":false,"inputs":[{"indexed":true,"internalType":"address","name":"previousOwner","type":"address"},{"indexed":true,"internalType":"address","name":"newOwner","type":"address"}],"name":"OwnershipTransferred","type":"event"},{"anonymous":false,"inputs":[{"indexed":true,"internalType":"bytes32","name":"id","type":"bytes32"},{"indexed":false,"internalType":"bytes32","name":"preimage","type":"bytes32"}],"name":"Redeemed","type":"event"},{"anonymous":false,"inputs":[{"indexed":true,"internalType":"bytes32","name":"id","type":"bytes32"}],"name":"Refunded","type":"event"},{"anonymous":false,"inputs":[{"indexed":true,"internalType":"bytes32","name":"id","type":"bytes32"},{"indexed":false,"internalType":"string","name":"stellarTxHash","type":"string"}],"name":"StellarTransactionConfirmed","type":"event"},{"inputs":[],"name":"MAX_BRIDGE_AMOUNT","outputs":[{"internalType":"uint256","name":"","type":"uint256"}],"stateMutability":"view","type":"function"},{"inputs":[],"name":"MIN_BRIDGE_AMOUNT","outputs":[{"internalType":"uint256","name":"","type":"uint256"}],"stateMutability":"view","type":"function"},{"inputs":[],"name":"bridgeFee","outputs":[{"internalType":"uint256","name":"","type":"uint256"}],"stateMutability":"view","type":"function"},{"inputs":[{"internalType":"bytes32","name":"id","type":"bytes32"},{"internalType":"string","name":"_stellarTxHash","type":"string"}],"name":"confirmStellarTransaction","outputs":[],"stateMutability":"nonpayable","type":"function"},{"inputs":[],"name":"emergencyPause","outputs":[],"stateMutability":"nonpayable","type":"function"},{"inputs":[{"internalType":"address","name":"_token","type":"address"},{"internalType":"uint256","name":"_amount","type":"uint256"}],"name":"emergencyWithdraw","outputs":[],"stateMutability":"nonpayable","type":"function"},{"inputs":[{"internalType":"bytes32","name":"id","type":"bytes32"}],"name":"getHtlc","outputs":[{"internalType":"address","name":"initiator","type":"address"},{"internalType":"string","name":"stellarAddress","type":"string"},{"internalType":"uint256","name":"amount","type":"uint256"},{"internalType":"bytes32","name":"hash","type":"bytes32"},{"internalType":"uint256","name":"timelock","type":"uint256"},{"internalType":"bool","name":"executed","type":"bool"},{"internalType":"bool","name":"refunded","type":"bool"},{"internalType":"bool","name":"stellarConfirmed","type":"bool"},{"internalType":"string","name":"stellarTxHash","type":"string"}],"stateMutability":"view","type":"function"},{"inputs":[{"internalType":"bytes32","name":"","type":"bytes32"}],"name":"htlcs","outputs":[{"internalType":"address payable","name":"initiator","type":"address"},{"internalType":"string","name":"stellarAddress","type":"string"},{"internalType":"uint256","name":"amount","type":"uint256"},{"internalType":"bytes32","name":"hash","type":"bytes32"},{"internalType":"uint256","name":"timelock","type":"uint256"},{"internalType":"bool","name":"executed","type":"bool"},{"internalType":"bool","name":"refunded","type":"bool"},{"internalType":"bool","name":"stellarConfirmed","type":"bool"},{"internalType":"string","name":"stellarTxHash","type":"string"}],"stateMutability":"view","type":"function"},{"inputs":[{"internalType":"bytes32","name":"id","type":"bytes32"},{"internalType":"address payable","name":"_ethereumAddress","type":"address"},{"internalType":"uint256","name":"_amount","type":"uint256"},{"internalType":"bytes32","name":"_hash","type":"bytes32"},{"internalType":"uint256","name":"_timelock","type":"uint256"}],"name":"initiateFromStellar","outputs":[],"stateMutability":"nonpayable","type":"function"},{"inputs":[{"internalType":"bytes32","name":"id","type":"bytes32"},{"internalType":"string","name":"_stellarAddress","type":"string"},{"internalType":"bytes32","name":"_hash","type":"bytes32"},{"internalType":"uint256","name":"_timelock","type":"uint256"}],"name":"initiateToStellar","outputs":[],"stateMutability":"payable","type":"function"},{"inputs":[{"internalType":"bytes32","name":"id","type":"bytes32"}],"name":"isValidHtlc","outputs":[{"internalType":"bool","name":"","type":"bool"}],"stateMutability":"view","type":"function"},{"inputs":[],"name":"owner","outputs":[{"internalType":"address","name":"","type":"address"}],"stateMutability":"view","type":"function"},{"inputs":[{"internalType":"bytes32","name":"id","type":"bytes32"},{"internalType":"bytes","name":"_preimage","type":"bytes"}],"name":"redeem","outputs":[],"stateMutability":"nonpayable","type":"function"},{"inputs":[{"internalType":"bytes32","name":"id","type":"bytes32"}],"name":"refund","outputs":[],"stateMutability":"nonpayable","type":"function"},{"inputs":[],"name":"renounceOwnership","outputs":[],"stateMutability":"nonpayable","type":"function"},{"inputs":[],"name":"stellarNetwork","outputs":[{"internalType":"string","name":"","type":"string"}],"stateMutability":"view","type":"function"},{"inputs":[],"name":"stellarSequenceNumber","outputs":[{"internalType":"uint256","name":"","type":"uint256"}],"stateMutability":"view","type":"function"},{"inputs":[{"internalType":"address","name":"newOwner","type":"address"}],"name":"transferOwnership","outputs":[],"stateMutability":"nonpayable","type":"function"},{"inputs":[{"internalType":"uint256","name":"_newFee","type":"uint256"}],"name":"updateBridgeFee","outputs":[],"stateMutability":"nonpayable","type":"function"},{"inputs":[{"internalType":"string","name":"_network","type":"string"}],"name":"updateStellarNetwork","outputs":[],"stateMutability":"nonpayable","type":"function"},{"inputs":[{"internalType":"string","name":"_stellarAddress","type":"string"}],"name":"validateStellarAddress","outputs":[{"internalType":"bool","name":"","type":"bool"}],"stateMutability":"pure","type":"function"},{"inputs":[],"name":"wethToken","outputs":[{"internalType":"contract IERC20","name":"","type":"address"}],"stateMutability":"view","type":"function"},{"inputs":[],"name":"withdrawFees","outputs":[],"stateMutability":"nonpayable","type":"function"},{"inputs":[],"name":"wxlmToken","outputs":[{"internalType":"contract IERC20","name":"","type":"address"}],"stateMutability":"view","type":"function"},{"stateMutability":"payable","type":"receive"}],"evm":{"bytecode":{"linkReferences":{},"object":"60c034620001bf57601f6200226638819003918201601f19168301916001600160401b03831184841017620001c4578084926040948552833981010312620001bf576200005a60206200005283620001da565b9201620001da565b906001916000918383553315620001a6578354336001600160a01b0319821681178655604051956001600160a01b03959290919086167f8be0079c531659141344cd1fd0a4f28419497f9722a3daafe3b4186f6b6457e08480a366038d7ea4c680006003556004548181811c911680156200019b575b602082101462000187579081601f87959493116200013a575b5050600c657075626c696360d01b01600455600555166080521660a0526120769081620001f082396080518161119d015260a05181818161013d015281816102d00152818161058b0152610f920152f35b60048352601f0160051c7f8a35acfbc15ff81a39ae7d344fd709f28e8600b4aa8c65c6b64bfe7fe36bd19b908101905b818110620001795750620000e9565b83815587955082016200016a565b634e487b7160e01b83526022600452602483fd5b90607f1690620000d0565b604051631e4fbdf760e01b815260048101849052602490fd5b600080fd5b634e487b7160e01b600052604160045260246000fd5b51906001600160a01b0382168203620001bf5756fe6080604052600436101561001b575b361561001957600080fd5b005b60003560e01c80620111a41461157f578063089c0aa41461152257806319304e25146114b8578063470fb6261461125a578063476343ee146111cc5780634b57b0be1461118757806351858e271461116e5780635a1c0366146110fa578063715018a61461109d5780637249fbb614610e855780637fce000214610e6157806382b12dd714610e43578063886688c114610e215780638da5cb5b14610df857806391edd8f214610d3a57806395ccea6714610cbd578063acaa825514610c9f578063acdea6ad14610a26578063bd585a5c14610940578063e3294ccd146104c3578063eb6ad24e1461047e578063f2fde38b146103f5578063f7ff7207146101715763fcb6dc6e0361000e573461016c57600036600319011261016c576040517f00000000000000000000000000000000000000000000000000000000000000006001600160a01b03168152602090f35b600080fd5b3461016c5761017f36611b3d565b90610188611df3565b826000526020906002825260406000209060058201908154946101ae60ff871615611e7a565b6101be60ff8760081c1615611ed2565b60048401544210156103a45761020585926000926101f48560405183819483830196873781018783820152038084520182611a60565b60405192839283925192839161198c565b8101039060025afa1561028a5760005193600383019485540361035f5760019060ff191617905561023960018201546119d4565b1561029f5760008080600281940154818115610296575b3390f11561028a577f489e9ee921192823d1aa1ef800c9ffc642993538b1e7e43a4d46a91965e894ab915b54604051908152a26001600055005b6040513d6000823e3d90fd5b506108fc610250565b6002015460405163a9059cbb60e01b8152336004820152602481019190915291818360448160006001600160a01b037f0000000000000000000000000000000000000000000000000000000000000000165af192831561028a577f489e9ee921192823d1aa1ef800c9ffc642993538b1e7e43a4d46a91965e894ab9361032d91600091610332575b50611e2e565b61027b565b6103529150843d8611610358575b61034a8183611a60565b810190611e16565b86610327565b503d610340565b60405162461bcd60e51b815260048101859052601f60248201527f5374656c6c61724272696467653a20696e76616c696420707265696d616765006044820152606490fd5b60405162461bcd60e51b815260048101869052602360248201527f5374656c6c61724272696467653a2074696d656c6f636b2068617320657870696044820152621c995960ea1b6064820152608490fd5b3461016c57602036600319011261016c5761040e611b27565b610416611b70565b6001600160a01b0390811690811561046557600154826001600160601b0360a01b821617600155167f8be0079c531659141344cd1fd0a4f28419497f9722a3daafe3b4186f6b6457e0600080a3005b604051631e4fbdf760e01b815260006004820152602490fd5b3461016c57602036600319011261016c576004356001600160401b03811161016c576104b96104b3602092369060040161195f565b90611f2a565b6040519015158152f35b3461016c5760a036600319011261016c576024356001600160a01b038181169182900361016c5760643591608435906104fa611df3565b6004356000526002602052610516836040600020541615611b9c565b61052b662386f26fc100006044351015611c00565b610542683635c9adc5dea000006044351115611c4c565b156108eb57610552831515611c98565b61055f610e108211611ce4565b6040516323b872dd60e01b815233600482015230602482015260448035908201529060208260648160007f000000000000000000000000000000000000000000000000000000000000000088165af191821561028a576105d0926105ca916000916108d25750611e2e565b42611d4c565b91604051926105de84611a0e565b338452604051916105ee83611a2a565b6000835260208501928352604435604086015260608501526080840152600060a0840152600060c0840152600060e084015260405161062c81611a2a565b6000815261010084015260043560005260026020526040600020918351166001600160601b0360a01b835416178255518051906001600160401b03821161083b576106878261067e60018601546119d4565b60018601611d9f565b602090601f831160011461085c5791806101009492600694600092610851575b50508160011b916000199060031b1c19161760018201555b6040840151600282015560608401516003820155608084015160048201556107366005820161070060a08701511515829060ff801983541691151516179055565b60c0860151815461ff00191690151560081b61ff001617815560e0860151815462ff0000191690151560101b62ff000016179055565b019101519081516001600160401b03811161083b5761075f8161075984546119d4565b84611d9f565b602092601f82116001146107d757928192936000926107cc575b50508160011b916000199060031b1c19161790555b6040516000802090604435815233907f2a241314f1721916d74a645f65e364f43169e7aa07961dc76ae071f3b911cf59602060043592a46001600055005b015190508380610779565b601f198216938360005260206000209160005b868110610823575083600195961061080a575b505050811b01905561078e565b015160001960f88460031b161c191690558380806107fd565b919260206001819286850151815501940192016107ea565b634e487b7160e01b600052604160045260246000fd5b0151905086806106a7565b906001840160005260206000209160005b601f19851681106108ba575092610100949260019260069583601f198116106108a1575b505050811b0160018201556106bf565b015160001960f88460031b161c19169055868080610891565b9192602060018192868501518155019401920161086d565b610352915060203d6020116103585761034a8183611a60565b60405162461bcd60e51b815260206004820152602760248201527f5374656c6c61724272696467653a20696e76616c696420457468657265756d206044820152666164647265737360c81b6064820152608490fd5b3461016c57600036600319011261016c576040516000600454610962816119d4565b808452906001908181169081156109ff57506001146109a4575b6109a08461098c81860382611a60565b6040519182916020835260208301906119af565b0390f35b6004600090815292507f8a35acfbc15ff81a39ae7d344fd709f28e8600b4aa8c65c6b64bfe7fe36bd19b5b8284106109e757505050810160200161098c8261097c565b805460208587018101919091529093019281016109cf565b60ff191660208087019190915292151560051b8501909201925061098c915083905061097c565b3461016c57610a3436611b3d565b90610a3d611b70565b8260005260209060028252604060002060018060a01b0381541615610c4f5760058101805460ff8160101c16610c0c578515610bb75762ff00001916620100001790556006016001600160401b03841161083b57610aa584610a9f83546119d4565b83611d9f565b6000601f8511600114610b2a579380604093819593827f7b458edfb4d0a1eb2788cee32a1416442796661a685c60eaa574e969d29ffcf298600091610b1f575b508360011b906000198560031b1c19161790555b8451958487958652850152848401376000828201840152601f01601f19168101030190a2005b90508201358a610ae5565b601f1985169082600052846000209160005b818110610ba0575093869593869384937f7b458edfb4d0a1eb2788cee32a1416442796661a685c60eaa574e969d29ffcf29960409810610b86575b5050600183811b019055610af9565b830135600019600386901b60f8161c191690558980610b77565b919286600181928689013581550194019201610b3c565b60405162461bcd60e51b815260048101869052602760248201527f5374656c6c61724272696467653a20696e76616c6964207472616e73616374696044820152660dedc40d0c2e6d60cb1b6064820152608490fd5b6064856040519062461bcd60e51b825280600483015260248201527f5374656c6c61724272696467653a20616c726561647920636f6e6669726d65646044820152fd5b60405162461bcd60e51b815260048101849052602260248201527f5374656c6c61724272696467653a2048544c4320646f6573206e6f74206578696044820152611cdd60f21b6064820152608490fd5b3461016c57600036600319011261016c576020600554604051908152f35b3461016c57604036600319011261016c57610cd6611b27565b610cde611b70565b60015460405163a9059cbb60e01b81526001600160a01b03918216600482015260248035908201529160209183916044918391600091165af1801561028a57610d2357005b6100199060203d81116103585761034a8183611a60565b3461016c57602036600319011261016c57600435600090815260026020526040902080546001600160a01b03166109a0610d7660018401611a81565b9260028101549060ff6003820154916004810154610d9b600660058401549301611a81565b93610db8604051998a998a526101208060208c01528a01906119af565b95604089015260608801526080870152818116151560a0870152818160081c16151560c087015260101c16151560e08501528382036101008501526119af565b3461016c57600036600319011261016c576001546040516001600160a01b039091168152602090f35b3461016c57600036600319011261016c576020604051662386f26fc100008152f35b3461016c57600036600319011261016c576020600354604051908152f35b3461016c57600036600319011261016c57602060405168056bc75e2d631000008152f35b3461016c5760208060031936011261016c5760043590610ea3611df3565b60008281526002825260409020805490916001600160a01b0391821633810361104557600584018054610ed960ff821615611e7a565b610ee960ff8260081c1615611ed2565b60048601544210610ff05761ff0019166101001790556001840154610f0d906119d4565b15610f695750506000808360028295948395541691015490828215610f60575bf11561028a575b7ffe509803c09416b28ff3d8f690c8b0c61462a892c46d5430c8fb20abe472daf0600080a26001600055005b506108fc610f2d565b6044600283950154916000604051958694859363a9059cbb60e01b8552600485015260248401527f0000000000000000000000000000000000000000000000000000000000000000165af190811561028a57610fce92600092610fd3575b5050611e2e565b610f34565b610fe99250803d106103585761034a8183611a60565b8380610fc7565b60405162461bcd60e51b815260048101859052602760248201527f5374656c6c61724272696467653a2074696d656c6f636b20686173206e6f7420604482015266195e1c1a5c995960ca1b6064820152608490fd5b60405162461bcd60e51b815260048101839052602a60248201527f5374656c6c61724272696467653a2063616c6c6572206973206e6f74207468656044820152691034b734ba34b0ba37b960b11b6064820152608490fd5b3461016c57600036600319011261016c576110b6611b70565b600180546001600160a01b031981169091556000906001600160a01b03167f8be0079c531659141344cd1fd0a4f28419497f9722a3daafe3b4186f6b6457e08280a3005b3461016c57602036600319011261016c57600435611116611b70565b662386f26fc10000811161112957600355005b60405162461bcd60e51b815260206004820152601b60248201527f5374656c6c61724272696467653a2066656520746f6f206869676800000000006044820152606490fd5b3461016c57600036600319011261016c57610019611b70565b3461016c57600036600319011261016c576040517f00000000000000000000000000000000000000000000000000000000000000006001600160a01b03168152602090f35b3461016c57600036600319011261016c576111e5611b70565b47801561120a576001546000918291829182916001600160a01b031682f11561028a57005b60405162461bcd60e51b815260206004820152602260248201527f5374656c6c61724272696467653a206e6f206665657320746f20776974686472604482015261617760f01b6064820152608490fd5b3461016c5760208060031936011261016c576001600160401b0360043581811161016c5761128c90369060040161195f565b91611295611b70565b60405184810190848483376112b98682878101600083820152038084520182611a60565b51902060405185810190657075626c696360d01b8252600681526112dc81611a45565b519020148015611466575b1561142157821161083b576112fd6004546119d4565b601f81116113c2575b50600092601f8311600114611345575091819260009261133a575b5050600019600383901b1c191660019190911b17600455005b013590508280611321565b601f198316937f8a35acfbc15ff81a39ae7d344fd709f28e8600b4aa8c65c6b64bfe7fe36bd19b92916000905b8682106113aa5750508360019510611390575b505050811b01600455005b0135600019600384901b60f8161c19169055828080611385565b80600184968294958701358155019501920190611372565b7f8a35acfbc15ff81a39ae7d344fd709f28e8600b4aa8c65c6b64bfe7fe36bd19b601f840160051c810191858510611417575b601f0160051c01905b81811061140b5750611306565b600081556001016113fe565b90915081906113f5565b60405162461bcd60e51b815260048101859052601e60248201527f5374656c6c61724272696467653a20696e76616c6964206e6574776f726b00006044820152606490fd5b50604051848101908484833761148b8682878101600083820152038084520182611a60565b51902060405185810190661d195cdd1b995d60ca1b8252600781526114af81611a45565b519020146112e7565b3461016c57602036600319011261016c5760043560005260026020526020604060002060018060a01b0381541615159081611512575b816114ff575b506040519015158152f35b60ff91506005015460081c1615826114f4565b600581015460ff161591506114ee565b3461016c57602036600319011261016c576004356000526002602052604060002060018060a01b038154166109a06002830154600384015460ff6004860154600587015490610d9b600661157860018b01611a81565b9901611a81565b608036600319011261016c576024356001600160401b03811161016c576115aa90369060040161195f565b606435916115b6611df3565b6004356000908152600260205260409020546115db906001600160a01b031615611b9c565b6115ee662386f26fc10000341015611c00565b61160368056bc75e2d63100000341115611c4c565b811561190b576116166044351515611c98565b611623610e108411611ce4565b6003543403923484116118f55761163a9042611d4c565b6040519061164782611a0e565b338252611655368585611d59565b602083015284604083015260443560608301526080820152600060a0820152600060c0820152600060e082015260405161168e81611a2a565b600081526101008201526004356000526002602052604060002060018060a01b038251166001600160601b0360a01b82541617815560208201518051906001600160401b03821161083b576116ea8261067e60018601546119d4565b602090601f831160011461187f5791806101009492600694600092611874575b50508160011b916000199060031b1c19161760018201555b6040840151600282015560608401516003820155608084015160048201556117636005820161070060a08701511515829060ff801983541691151516179055565b019101518051906001600160401b03821161083b57819061178e8261178886546119d4565b86611d9f565b602090601f831160011461180e57600092611803575b50508160011b916000199060031b1c19161790555b8160405192839283378101600081520390209060405190815233907f2a241314f1721916d74a645f65e364f43169e7aa07961dc76ae071f3b911cf59602060043592a46001600055005b0151905086806117a4565b6000858152602081209350601f198516905b81811061185c5750908460019594939210611843575b505050811b0190556117b9565b015160001960f88460031b161c19169055868080611836565b92936020600181928786015181550195019301611820565b01519050898061170a565b906001840160005260206000209160005b601f19851681106118dd575092610100949260019260069583601f198116106118c4575b505050811b016001820155611722565b015160001960f88460031b161c191690558980806118b4565b91926020600181928685015181550194019201611890565b634e487b7160e01b600052601160045260246000fd5b60405162461bcd60e51b815260206004820152602660248201527f5374656c6c61724272696467653a20696e76616c6964205374656c6c6172206160448201526564647265737360d01b6064820152608490fd5b9181601f8401121561016c578235916001600160401b03831161016c576020838186019501011161016c57565b60005b83811061199f5750506000910152565b818101518382015260200161198f565b906020916119c88151809281855285808601910161198c565b601f01601f1916010190565b90600182811c92168015611a04575b60208310146119ee57565b634e487b7160e01b600052602260045260246000fd5b91607f16916119e3565b61012081019081106001600160401b0382111761083b57604052565b602081019081106001600160401b0382111761083b57604052565b604081019081106001600160401b0382111761083b57604052565b90601f801991011681019081106001600160401b0382111761083b57604052565b9060405191826000825492611a95846119d4565b908184526001948581169081600014611b045750600114611ac1575b5050611abf92500383611a60565b565b9093915060005260209081600020936000915b818310611aec575050611abf93508201013880611ab1565b85548884018501529485019487945091830191611ad4565b915050611abf94506020925060ff191682840152151560051b8201013880611ab1565b600435906001600160a01b038216820361016c57565b90604060031983011261016c5760043591602435906001600160401b03821161016c57611b6c9160040161195f565b9091565b6001546001600160a01b03163303611b8457565b60405163118cdaa760e01b8152336004820152602490fd5b15611ba357565b60405162461bcd60e51b815260206004820152602f60248201527f5374656c6c61724272696467653a20737761702077697468207468697320696460448201526e20616c72656164792065786973747360881b6064820152608490fd5b15611c0757565b60405162461bcd60e51b815260206004820152601d60248201527f5374656c6c61724272696467653a20616d6f756e7420746f6f206c6f770000006044820152606490fd5b15611c5357565b60405162461bcd60e51b815260206004820152601e60248201527f5374656c6c61724272696467653a20616d6f756e7420746f6f206869676800006044820152606490fd5b15611c9f57565b60405162461bcd60e51b815260206004820152601b60248201527f5374656c6c61724272696467653a20696e76616c6964206861736800000000006044820152606490fd5b15611ceb57565b60405162461bcd60e51b815260206004820152603360248201527f5374656c6c61724272696467653a2074696d656c6f636b206d7573742062652060448201527233b932b0ba32b9103a3430b71018903437bab960691b6064820152608490fd5b919082018092116118f557565b9291926001600160401b03821161083b5760405191611d82601f8201601f191660200184611a60565b82948184528183011161016c578281602093846000960137010152565b90601f8111611dad57505050565b600091825260208220906020601f850160051c83019410611de9575b601f0160051c01915b828110611dde57505050565b818155600101611dd2565b9092508290611dc9565b600260005414611e04576002600055565b604051633ee5aeb560e01b8152600490fd5b9081602091031261016c5751801515810361016c5790565b15611e3557565b60405162461bcd60e51b815260206004820152601e60248201527f5374656c6c61724272696467653a207472616e73666572206661696c656400006044820152606490fd5b15611e8157565b60405162461bcd60e51b8152602060048201526024808201527f5374656c6c61724272696467653a207377617020616c726561647920657865636044820152631d5d195960e21b6064820152608490fd5b15611ed957565b60405162461bcd60e51b8152602060048201526024808201527f5374656c6c61724272696467653a207377617020616c726561647920726566756044820152631b99195960e21b6064820152608490fd5b611f35913691611d59565b90815160388103611fee571561201057602082810180516001600160f81b0319908116604760f81b1415919082612026575b82611ff5575b5050611fee5760005b8351811015611fe65781818501015160f81c60418110159081611fda575b8115611fba575b5015611fb25760001981146118f557600101611f76565b506000925050565b6032811015915081611fce575b5038611f9b565b60379150111538611fc7565b605a8111159150611f94565b506001925050565b5060009150565b90915084511561201057905116605360f81b14153880611f6d565b634e487b7160e01b600052603260045260246000fd5b91508451156120105780518216604d60f81b141591611f6756fea26469706673582212203847c22bf189053da779ca73637e001f4d9cbf4a703bdf09ca4308a417a4692964736f6c63430008140033","opcodes":"PUSH1 0xC0 CALLVALUE PUSH3 0x1BF JUMPI PUSH1 0x1F PUSH3 0x2266 CODESIZE DUP2 SWAP1 SUB SWAP2 DUP3 ADD PUSH1 0x1F NOT AND DUP4 ADD SWAP2 PUSH1 0x1 PUSH1 0x1 PUSH1 0x40 SHL SUB DUP4 GT DUP5 DUP5 LT OR PUSH3 0x1C4 JUMPI DUP1 DUP5 SWAP3 PUSH1 0x40 SWAP5 DUP6 MSTORE DUP4 CODECOPY DUP2 ADD SUB SLT PUSH3 0x1BF JUMPI PUSH3 0x5A PUSH1 0x20 PUSH3 0x52 DUP4 PUSH3 0x1DA JUMP JUMPDEST SWAP3 ADD PUSH3 0x1DA JUMP JUMPDEST SWAP1 PUSH1 0x1 SWAP2 PUSH1 0x0 SWAP2 DUP4 DUP4 SSTORE CALLER ISZERO PUSH3 0x1A6 JUMPI DUP4 SLOAD CALLER PUSH1 0x1 PUSH1 0x1 PUSH1 0xA0 SHL SUB NOT DUP3 AND DUP2 OR DUP7 SSTORE PUSH1 0x40 MLOAD SWAP6 PUSH1 0x1 PUSH1 0x1 PUSH1 0xA0 SHL SUB SWAP6 SWAP3 SWAP1 SWAP2 SWAP1 DUP7 AND PUSH32 0x8BE0079C531659141344CD1FD0A4F28419497F9722A3DAAFE3B4186F6B6457E0 DUP5 DUP1 LOG3 PUSH7 0x38D7EA4C68000 PUSH1 0x3 SSTORE PUSH1 0x4 SLOAD DUP2 DUP2 DUP2 SHR SWAP2 AND DUP1 ISZERO PUSH3 0x19B JUMPI JUMPDEST PUSH1 0x20 DUP3 LT EQ PUSH3 0x187 JUMPI SWAP1 DUP2 PUSH1 0x1F DUP8 SWAP6 SWAP5 SWAP4 GT PUSH3 0x13A JUMPI JUMPDEST POP POP PUSH1 0xC PUSH6 0x7075626C6963 PUSH1 0xD0 SHL ADD PUSH1 0x4 SSTORE PUSH1 0x5 SSTORE AND PUSH1 0x80 MSTORE AND PUSH1 0xA0 MSTORE PUSH2 0x2076 SWAP1 DUP2 PUSH3 0x1F0 DUP3 CODECOPY PUSH1 0x80 MLOAD DUP2 PUSH2 0x119D ADD MSTORE PUSH1 0xA0 MLOAD DUP2 DUP2 DUP2 PUSH2 0x13D ADD MSTORE DUP2 DUP2 PUSH2 0x2D0 ADD MSTORE DUP2 DUP2 PUSH2 0x58B ADD MSTORE PUSH2 0xF92 ADD MSTORE RETURN JUMPDEST PUSH1 0x4 DUP4 MSTORE PUSH1 0x1F ADD PUSH1 0x5 SHR PUSH32 0x8A35ACFBC15FF81A39AE7D344FD709F28E8600B4AA8C65C6B64BFE7FE36BD19B SWAP1 DUP2 ADD SWAP1 JUMPDEST DUP2 DUP2 LT PUSH3 0x179 JUMPI POP PUSH3 0xE9 JUMP JUMPDEST DUP4 DUP2 SSTORE DUP8 SWAP6 POP DUP3 ADD PUSH3 0x16A JUMP JUMPDEST PUSH4 0x4E487B71 PUSH1 0xE0 SHL DUP4 MSTORE PUSH1 0x22 PUSH1 0x4 MSTORE PUSH1 0x24 DUP4 REVERT JUMPDEST SWAP1 PUSH1 0x7F AND SWAP1 PUSH3 0xD0 JUMP JUMPDEST PUSH1 0x40 MLOAD PUSH4 0x1E4FBDF7 PUSH1 0xE0 SHL DUP2 MSTORE PUSH1 0x4 DUP2 ADD DUP5 SWAP1 MSTORE PUSH1 0x24 SWAP1 REVERT JUMPDEST PUSH1 0x0 DUP1 REVERT JUMPDEST PUSH4 0x4E487B71 PUSH1 0xE0 SHL PUSH1 0x0 MSTORE PUSH1 0x41 PUSH1 0x4 MSTORE PUSH1 0x24 PUSH1 0x0 REVERT JUMPDEST MLOAD SWAP1 PUSH1 0x1 PUSH1 0x1 PUSH1 0xA0 SHL SUB DUP3 AND DUP3 SUB PUSH3 0x1BF JUMPI JUMP INVALID PUSH1 0x80 PUSH1 0x40 MSTORE PUSH1 0x4 CALLDATASIZE LT ISZERO PUSH2 0x1B JUMPI JUMPDEST CALLDATASIZE ISZERO PUSH2 0x19 JUMPI PUSH1 0x0 DUP1 REVERT JUMPDEST STOP JUMPDEST PUSH1 0x0 CALLDATALOAD PUSH1 0xE0 SHR DUP1 PUSH3 0x111A4 EQ PUSH2 0x157F JUMPI DUP1 PUSH4 0x89C0AA4 EQ PUSH2 0x1522 JUMPI DUP1 PUSH4 0x19304E25 EQ PUSH2 0x14B8 JUMPI DUP1 PUSH4 0x470FB626 EQ PUSH2 0x125A JUMPI DUP1 PUSH4 0x476343EE EQ PUSH2 0x11CC JUMPI DUP1 PUSH4 0x4B57B0BE EQ PUSH2 0x1187 JUMPI DUP1 PUSH4 0x51858E27 EQ PUSH2 0x116E JUMPI DUP1 PUSH4 0x5A1C0366 EQ PUSH2 0x10FA JUMPI DUP1 PUSH4 0x715018A6 EQ PUSH2 0x109D JUMPI DUP1 PUSH4 0x7249FBB6 EQ PUSH2 0xE85 JUMPI DUP1 PUSH4 0x7FCE0002 EQ PUSH2 0xE61 JUMPI DUP1 PUSH4 0x82B12DD7 EQ PUSH2 0xE43 JUMPI DUP1 PUSH4 0x886688C1 EQ PUSH2 0xE21 JUMPI DUP1 PUSH4 0x8DA5CB5B EQ PUSH2 0xDF8 JUMPI DUP1 PUSH4 0x91EDD8F2 EQ PUSH2 0xD3A JUMPI DUP1 PUSH4 0x95CCEA67 EQ PUSH2 0xCBD JUMPI DUP1 PUSH4 0xACAA8255 EQ PUSH2 0xC9F JUMPI DUP1 PUSH4 0xACDEA6AD EQ PUSH2 0xA26 JUMPI DUP1 PUSH4 0xBD585A5C EQ PUSH2 0x940 JUMPI DUP1 PUSH4 0xE3294CCD EQ PUSH2 0x4C3 JUMPI DUP1 PUSH4 0xEB6AD24E EQ PUSH2 0x47E JUMPI DUP1 PUSH4 0xF2FDE38B EQ PUSH2 0x3F5 JUMPI DUP1 PUSH4 0xF7FF7207 EQ PUSH2 0x171 JUMPI PUSH4 0xFCB6DC6E SUB PUSH2 0xE JUMPI CALLVALUE PUSH2 0x16C JUMPI PUSH1 0x0 CALLDATASIZE PUSH1 0x3 NOT ADD SLT PUSH2 0x16C JUMPI PUSH1 0x40 MLOAD PUSH32 0x0 PUSH1 0x1 PUSH1 0x1 PUSH1 0xA0 SHL SUB AND DUP2 MSTORE PUSH1 0x20 SWAP1 RETURN JUMPDEST PUSH1 0x0 DUP1 REVERT JUMPDEST CALLVALUE PUSH2 0x16C JUMPI PUSH2 0x17F CALLDATASIZE PUSH2 0x1B3D JUMP JUMPDEST SWAP1 PUSH2 0x188 PUSH2 0x1DF3 JUMP JUMPDEST DUP3 PUSH1 0x0 MSTORE PUSH1 0x20 SWAP1 PUSH1 0x2 DUP3 MSTORE PUSH1 0x40 PUSH1 0x0 KECCAK256 SWAP1 PUSH1 0x5 DUP3 ADD SWAP1 DUP2 SLOAD SWAP5 PUSH2 0x1AE PUSH1 0xFF DUP8 AND ISZERO PUSH2 0x1E7A JUMP JUMPDEST PUSH2 0x1BE PUSH1 0xFF DUP8 PUSH1 0x8 SHR AND ISZERO PUSH2 0x1ED2 JUMP JUMPDEST PUSH1 0x4 DUP5 ADD SLOAD TIMESTAMP LT ISZERO PUSH2 0x3A4 JUMPI PUSH2 0x205 DUP6 SWAP3 PUSH1 0x0 SWAP3 PUSH2 0x1F4 DUP6 PUSH1 0x40 MLOAD DUP4 DUP2 SWAP5 DUP4 DUP4 ADD SWAP7 DUP8 CALLDATACOPY DUP2 ADD DUP8 DUP4 DUP3 ADD MSTORE SUB DUP1 DUP5 MSTORE ADD DUP3 PUSH2 0x1A60 JUMP JUMPDEST PUSH1 0x40 MLOAD SWAP3 DUP4 SWAP3 DUP4 SWAP3 MLOAD SWAP3 DUP4 SWAP2 PUSH2 0x198C JUMP JUMPDEST DUP2 ADD SUB SWAP1 PUSH1 0x2 GAS STATICCALL ISZERO PUSH2 0x28A JUMPI PUSH1 0x0 MLOAD SWAP4 PUSH1 0x3 DUP4 ADD SWAP5 DUP6 SLOAD SUB PUSH2 0x35F JUMPI PUSH1 0x1 SWAP1 PUSH1 0xFF NOT AND OR SWAP1 SSTORE PUSH2 0x239 PUSH1 0x1 DUP3 ADD SLOAD PUSH2 0x19D4 JUMP JUMPDEST ISZERO PUSH2 0x29F JUMPI PUSH1 0x0 DUP1 DUP1 PUSH1 0x2 DUP2 SWAP5 ADD SLOAD DUP2 DUP2 ISZERO PUSH2 0x296 JUMPI JUMPDEST CALLER SWAP1 CALL ISZERO PUSH2 0x28A JUMPI PUSH32 0x489E9EE921192823D1AA1EF800C9FFC642993538B1E7E43A4D46A91965E894AB SWAP2 JUMPDEST SLOAD PUSH1 0x40 MLOAD SWAP1 DUP2 MSTORE LOG2 PUSH1 0x1 PUSH1 0x0 SSTORE STOP JUMPDEST PUSH1 0x40 MLOAD RETURNDATASIZE PUSH1 0x0 DUP3 RETURNDATACOPY RETURNDATASIZE SWAP1 REVERT JUMPDEST POP PUSH2 0x8FC PUSH2 0x250 JUMP JUMPDEST PUSH1 0x2 ADD SLOAD PUSH1 0x40 MLOAD PUSH4 0xA9059CBB PUSH1 0xE0 SHL DUP2 MSTORE CALLER PUSH1 0x4 DUP3 ADD MSTORE PUSH1 0x24 DUP2 ADD SWAP2 SWAP1 SWAP2 MSTORE SWAP2 DUP2 DUP4 PUSH1 0x44 DUP2 PUSH1 0x0 PUSH1 0x1 PUSH1 0x1 PUSH1 0xA0 SHL SUB PUSH32 0x0 AND GAS CALL SWAP3 DUP4 ISZERO PUSH2 0x28A JUMPI PUSH32 0x489E9EE921192823D1AA1EF800C9FFC642993538B1E7E43A4D46A91965E894AB SWAP4 PUSH2 0x32D SWAP2 PUSH1 0x0 SWAP2 PUSH2 0x332 JUMPI JUMPDEST POP PUSH2 0x1E2E JUMP JUMPDEST PUSH2 0x27B JUMP JUMPDEST PUSH2 0x352 SWAP2 POP DUP5 RETURNDATASIZE DUP7 GT PUSH2 0x358 JUMPI JUMPDEST PUSH2 0x34A DUP2 DUP4 PUSH2 0x1A60 JUMP JUMPDEST DUP2 ADD SWAP1 PUSH2 0x1E16 JUMP JUMPDEST DUP7 PUSH2 0x327 JUMP JUMPDEST POP RETURNDATASIZE PUSH2 0x340 JUMP JUMPDEST PUSH1 0x40 MLOAD PUSH3 0x461BCD PUSH1 0xE5 SHL DUP2 MSTORE PUSH1 0x4 DUP2 ADD DUP6 SWAP1 MSTORE PUSH1 0x1F PUSH1 0x24 DUP3 ADD MSTORE PUSH32 0x5374656C6C61724272696467653A20696E76616C696420707265696D61676500 PUSH1 0x44 DUP3 ADD MSTORE PUSH1 0x64 SWAP1 REVERT JUMPDEST PUSH1 0x40 MLOAD PUSH3 0x461BCD PUSH1 0xE5 SHL DUP2 MSTORE PUSH1 0x4 DUP2 ADD DUP7 SWAP1 MSTORE PUSH1 0x23 PUSH1 0x24 DUP3 ADD MSTORE PUSH32 0x5374656C6C61724272696467653A2074696D656C6F636B206861732065787069 PUSH1 0x44 DUP3 ADD MSTORE PUSH3 0x1C9959 PUSH1 0xEA SHL PUSH1 0x64 DUP3 ADD MSTORE PUSH1 0x84 SWAP1 REVERT JUMPDEST CALLVALUE PUSH2 0x16C JUMPI PUSH1 0x20 CALLDATASIZE PUSH1 0x3 NOT ADD SLT PUSH2 0x16C JUMPI PUSH2 0x40E PUSH2 0x1B27 JUMP JUMPDEST PUSH2 0x416 PUSH2 0x1B70 JUMP JUMPDEST PUSH1 0x1 PUSH1 0x1 PUSH1 0xA0 SHL SUB SWAP1 DUP2 AND SWAP1 DUP2 ISZERO PUSH2 0x465 JUMPI PUSH1 0x1 SLOAD DUP3 PUSH1 0x1 PUSH1 0x1 PUSH1 0x60 SHL SUB PUSH1 0xA0 SHL DUP3 AND OR PUSH1 0x1 SSTORE AND PUSH32 0x8BE0079C531659141344CD1FD0A4F28419497F9722A3DAAFE3B4186F6B6457E0 PUSH1 0x0 DUP1 LOG3 STOP JUMPDEST PUSH1 0x40 MLOAD PUSH4 0x1E4FBDF7 PUSH1 0xE0 SHL DUP2 MSTORE PUSH1 0x0 PUSH1 0x4 DUP3 ADD MSTORE PUSH1 0x24 SWAP1 REVERT JUMPDEST CALLVALUE PUSH2 0x16C JUMPI PUSH1 0x20 CALLDATASIZE PUSH1 0x3 NOT ADD SLT PUSH2 0x16C JUMPI PUSH1 0x4 CALLDATALOAD PUSH1 0x1 PUSH1 0x1 PUSH1 0x40 SHL SUB DUP2 GT PUSH2 0x16C JUMPI PUSH2 0x4B9 PUSH2 0x4B3 PUSH1 0x20 SWAP3 CALLDATASIZE SWAP1 PUSH1 0x4 ADD PUSH2 0x195F JUMP JUMPDEST SWAP1 PUSH2 0x1F2A JUMP JUMPDEST PUSH1 0x40 MLOAD SWAP1 ISZERO ISZERO DUP2 MSTORE RETURN JUMPDEST CALLVALUE PUSH2 0x16C JUMPI PUSH1 0xA0 CALLDATASIZE PUSH1 0x3 NOT ADD SLT PUSH2 0x16C JUMPI PUSH1 0x24 CALLDATALOAD PUSH1 0x1 PUSH1 0x1 PUSH1 0xA0 SHL SUB DUP2 DUP2 AND SWAP2 DUP3 SWAP1 SUB PUSH2 0x16C JUMPI PUSH1 0x64 CALLDATALOAD SWAP2 PUSH1 0x84 CALLDATALOAD SWAP1 PUSH2 0x4FA PUSH2 0x1DF3 JUMP JUMPDEST PUSH1 0x4 CALLDATALOAD PUSH1 0x0 MSTORE PUSH1 0x2 PUSH1 0x20 MSTORE PUSH2 0x516 DUP4 PUSH1 0x40 PUSH1 0x0 KECCAK256 SLOAD AND ISZERO PUSH2 0x1B9C JUMP JUMPDEST PUSH2 0x52B PUSH7 0x2386F26FC10000 PUSH1 0x44 CALLDATALOAD LT ISZERO PUSH2 0x1C00 JUMP JUMPDEST PUSH2 0x542 PUSH9 0x3635C9ADC5DEA00000 PUSH1 0x44 CALLDATALOAD GT ISZERO PUSH2 0x1C4C JUMP JUMPDEST ISZERO PUSH2 0x8EB JUMPI PUSH2 0x552 DUP4 ISZERO ISZERO PUSH2 0x1C98 JUMP JUMPDEST PUSH2 0x55F PUSH2 0xE10 DUP3 GT PUSH2 0x1CE4 JUMP JUMPDEST PUSH1 0x40 MLOAD PUSH4 0x23B872DD PUSH1 0xE0 SHL DUP2 MSTORE CALLER PUSH1 0x4 DUP3 ADD MSTORE ADDRESS PUSH1 0x24 DUP3 ADD MSTORE PUSH1 0x44 DUP1 CALLDATALOAD SWAP1 DUP3 ADD MSTORE SWAP1 PUSH1 0x20 DUP3 PUSH1 0x64 DUP2 PUSH1 0x0 PUSH32 0x0 DUP9 AND GAS CALL SWAP2 DUP3 ISZERO PUSH2 0x28A JUMPI PUSH2 0x5D0 SWAP3 PUSH2 0x5CA SWAP2 PUSH1 0x0 SWAP2 PUSH2 0x8D2 JUMPI POP PUSH2 0x1E2E JUMP JUMPDEST TIMESTAMP PUSH2 0x1D4C JUMP JUMPDEST SWAP2 PUSH1 0x40 MLOAD SWAP3 PUSH2 0x5DE DUP5 PUSH2 0x1A0E JUMP JUMPDEST CALLER DUP5 MSTORE PUSH1 0x40 MLOAD SWAP2 PUSH2 0x5EE DUP4 PUSH2 0x1A2A JUMP JUMPDEST PUSH1 0x0 DUP4 MSTORE PUSH1 0x20 DUP6 ADD SWAP3 DUP4 MSTORE PUSH1 0x44 CALLDATALOAD PUSH1 0x40 DUP7 ADD MSTORE PUSH1 0x60 DUP6 ADD MSTORE PUSH1 0x80 DUP5 ADD MSTORE PUSH1 0x0 PUSH1 0xA0 DUP5 ADD MSTORE PUSH1 0x0 PUSH1 0xC0 DUP5 ADD MSTORE PUSH1 0x0 PUSH1 0xE0 DUP5 ADD MSTORE PUSH1 0x40 MLOAD PUSH2 0x62C DUP2 PUSH2 0x1A2A JUMP JUMPDEST PUSH1 0x0 DUP2 MSTORE PUSH2 0x100 DUP5 ADD MSTORE PUSH1 0x4 CALLDATALOAD PUSH1 0x0 MSTORE PUSH1 0x2 PUSH1 0x20 MSTORE PUSH1 0x40 PUSH1 0x0 KECCAK256 SWAP2 DUP4 MLOAD AND PUSH1 0x1 PUSH1 0x1 PUSH1 0x60 SHL SUB PUSH1 0xA0 SHL DUP4 SLOAD AND OR DUP3 SSTORE MLOAD DUP1 MLOAD SWAP1 PUSH1 0x1 PUSH1 0x1 PUSH1 0x40 SHL SUB DUP3 GT PUSH2 0x83B JUMPI PUSH2 0x687 DUP3 PUSH2 0x67E PUSH1 0x1 DUP7 ADD SLOAD PUSH2 0x19D4 JUMP JUMPDEST PUSH1 0x1 DUP7 ADD PUSH2 0x1D9F JUMP JUMPDEST PUSH1 0x20 SWAP1 PUSH1 0x1F DUP4 GT PUSH1 0x1 EQ PUSH2 0x85C JUMPI SWAP2 DUP1 PUSH2 0x100 SWAP5 SWAP3 PUSH1 0x6 SWAP5 PUSH1 0x0 SWAP3 PUSH2 0x851 JUMPI JUMPDEST POP POP DUP2 PUSH1 0x1 SHL SWAP2 PUSH1 0x0 NOT SWAP1 PUSH1 0x3 SHL SHR NOT AND OR PUSH1 0x1 DUP3 ADD SSTORE JUMPDEST PUSH1 0x40 DUP5 ADD MLOAD PUSH1 0x2 DUP3 ADD SSTORE PUSH1 0x60 DUP5 ADD MLOAD PUSH1 0x3 DUP3 ADD SSTORE PUSH1 0x80 DUP5 ADD MLOAD PUSH1 0x4 DUP3 ADD SSTORE PUSH2 0x736 PUSH1 0x5 DUP3 ADD PUSH2 0x700 PUSH1 0xA0 DUP8 ADD MLOAD ISZERO ISZERO DUP3 SWAP1 PUSH1 0xFF DUP1 NOT DUP4 SLOAD AND SWAP2 ISZERO ISZERO AND OR SWAP1 SSTORE JUMP JUMPDEST PUSH1 0xC0 DUP7 ADD MLOAD DUP2 SLOAD PUSH2 0xFF00 NOT AND SWAP1 ISZERO ISZERO PUSH1 0x8 SHL PUSH2 0xFF00 AND OR DUP2 SSTORE PUSH1 0xE0 DUP7 ADD MLOAD DUP2 SLOAD PUSH3 0xFF0000 NOT AND SWAP1 ISZERO ISZERO PUSH1 0x10 SHL PUSH3 0xFF0000 AND OR SWAP1 SSTORE JUMP JUMPDEST ADD SWAP2 ADD MLOAD SWAP1 DUP2 MLOAD PUSH1 0x1 PUSH1 0x1 PUSH1 0x40 SHL SUB DUP2 GT PUSH2 0x83B JUMPI PUSH2 0x75F DUP2 PUSH2 0x759 DUP5 SLOAD PUSH2 0x19D4 JUMP JUMPDEST DUP5 PUSH2 0x1D9F JUMP JUMPDEST PUSH1 0x20 SWAP3 PUSH1 0x1F DUP3 GT PUSH1 0x1 EQ PUSH2 0x7D7 JUMPI SWAP3 DUP2 SWAP3 SWAP4 PUSH1 0x0 SWAP3 PUSH2 0x7CC JUMPI JUMPDEST POP POP DUP2 PUSH1 0x1 SHL SWAP2 PUSH1 0x0 NOT SWAP1 PUSH1 0x3 SHL SHR NOT AND OR SWAP1 SSTORE JUMPDEST PUSH1 0x40 MLOAD PUSH1 0x0 DUP1 KECCAK256 SWAP1 PUSH1 0x44 CALLDATALOAD DUP2 MSTORE CALLER SWAP1 PUSH32 0x2A241314F1721916D74A645F65E364F43169E7AA07961DC76AE071F3B911CF59 PUSH1 0x20 PUSH1 0x4 CALLDATALOAD SWAP3 LOG4 PUSH1 0x1 PUSH1 0x0 SSTORE STOP JUMPDEST ADD MLOAD SWAP1 POP DUP4 DUP1 PUSH2 0x779 JUMP JUMPDEST PUSH1 0x1F NOT DUP3 AND SWAP4 DUP4 PUSH1 0x0 MSTORE PUSH1 0x20 PUSH1 0x0 KECCAK256 SWAP2 PUSH1 0x0 JUMPDEST DUP7 DUP2 LT PUSH2 0x823 JUMPI POP DUP4 PUSH1 0x1 SWAP6 SWAP7 LT PUSH2 0x80A JUMPI JUMPDEST POP POP POP DUP2 SHL ADD SWAP1 SSTORE PUSH2 0x78E JUMP JUMPDEST ADD MLOAD PUSH1 0x0 NOT PUSH1 0xF8 DUP5 PUSH1 0x3 SHL AND SHR NOT AND SWAP1 SSTORE DUP4 DUP1 DUP1 PUSH2 0x7FD JUMP JUMPDEST SWAP2 SWAP3 PUSH1 0x20 PUSH1 0x1 DUP2 SWAP3 DUP7 DUP6 ADD MLOAD DUP2 SSTORE ADD SWAP5 ADD SWAP3 ADD PUSH2 0x7EA JUMP JUMPDEST PUSH4 0x4E487B71 PUSH1 0xE0 SHL PUSH1 0x0 MSTORE PUSH1 0x41 PUSH1 0x4 MSTORE PUSH1 0x24 PUSH1 0x0 REVERT JUMPDEST ADD MLOAD SWAP1 POP DUP7 DUP1 PUSH2 0x6A7 JUMP JUMPDEST SWAP1 PUSH1 0x1 DUP5 ADD PUSH1 0x0 MSTORE PUSH1 0x20 PUSH1 0x0 KECCAK256 SWAP2 PUSH1 0x0 JUMPDEST PUSH1 0x1F NOT DUP6 AND DUP2 LT PUSH2 0x8BA JUMPI POP SWAP3 PUSH2 0x100 SWAP5 SWAP3 PUSH1 0x1 SWAP3 PUSH1 0x6 SWAP6 DUP4 PUSH1 0x1F NOT DUP2 AND LT PUSH2 0x8A1 JUMPI JUMPDEST POP POP POP DUP2 SHL ADD PUSH1 0x1 DUP3 ADD SSTORE PUSH2 0x6BF JUMP JUMPDEST ADD MLOAD PUSH1 0x0 NOT PUSH1 0xF8 DUP5 PUSH1 0x3 SHL AND SHR NOT AND SWAP1 SSTORE DUP7 DUP1 DUP1 PUSH2 0x891 JUMP JUMPDEST SWAP2 SWAP3 PUSH1 0x20 PUSH1 0x1 DUP2 SWAP3 DUP7 DUP6 ADD MLOAD DUP2 SSTORE ADD SWAP5 ADD SWAP3 ADD PUSH2 0x86D JUMP JUMPDEST PUSH2 0x352 SWAP2 POP PUSH1 0x20 RETURNDATASIZE PUSH1 0x20 GT PUSH2 0x358 JUMPI PUSH2 0x34A DUP2 DUP4 PUSH2 0x1A60 JUMP JUMPDEST PUSH1 0x40 MLOAD PUSH3 0x461BCD PUSH1 0xE5 SHL DUP2 MSTORE PUSH1 0x20 PUSH1 0x4 DUP3 ADD MSTORE PUSH1 0x27 PUSH1 0x24 DUP3 ADD MSTORE PUSH32 0x5374656C6C61724272696467653A20696E76616C696420457468657265756D20 PUSH1 0x44 DUP3 ADD MSTORE PUSH7 0x61646472657373 PUSH1 0xC8 SHL PUSH1 0x64 DUP3 ADD MSTORE PUSH1 0x84 SWAP1 REVERT JUMPDEST CALLVALUE PUSH2 0x16C JUMPI PUSH1 0x0 CALLDATASIZE PUSH1 0x3 NOT ADD SLT PUSH2 0x16C JUMPI PUSH1 0x40 MLOAD PUSH1 0x0 PUSH1 0x4 SLOAD PUSH2 0x962 DUP2 PUSH2 0x19D4 JUMP JUMPDEST DUP1 DUP5 MSTORE SWAP1 PUSH1 0x1 SWAP1 DUP2 DUP2 AND SWAP1 DUP2 ISZERO PUSH2 0x9FF JUMPI POP PUSH1 0x1 EQ PUSH2 0x9A4 JUMPI JUMPDEST PUSH2 0x9A0 DUP5 PUSH2 0x98C DUP2 DUP7 SUB DUP3 PUSH2 0x1A60 JUMP JUMPDEST PUSH1 0x40 MLOAD SWAP2 DUP3 SWAP2 PUSH1 0x20 DUP4 MSTORE PUSH1 0x20 DUP4 ADD SWAP1 PUSH2 0x19AF JUMP JUMPDEST SUB SWAP1 RETURN JUMPDEST PUSH1 0x4 PUSH1 0x0 SWAP1 DUP2 MSTORE SWAP3 POP PUSH32 0x8A35ACFBC15FF81A39AE7D344FD709F28E8600B4AA8C65C6B64BFE7FE36BD19B JUMPDEST DUP3 DUP5 LT PUSH2 0x9E7 JUMPI POP POP POP DUP2 ADD PUSH1 0x20 ADD PUSH2 0x98C DUP3 PUSH2 0x97C JUMP JUMPDEST DUP1 SLOAD PUSH1 0x20 DUP6 DUP8 ADD DUP2 ADD SWAP2 SWAP1 SWAP2 MSTORE SWAP1 SWAP4 ADD SWAP3 DUP2 ADD PUSH2 0x9CF JUMP JUMPDEST PUSH1 0xFF NOT AND PUSH1 0x20 DUP1 DUP8 ADD SWAP2 SWAP1 SWAP2 MSTORE SWAP3 ISZERO ISZERO PUSH1 0x5 SHL DUP6 ADD SWAP1 SWAP3 ADD SWAP3 POP PUSH2 0x98C SWAP2 POP DUP4 SWAP1 POP PUSH2 0x97C JUMP JUMPDEST CALLVALUE PUSH2 0x16C JUMPI PUSH2 0xA34 CALLDATASIZE PUSH2 0x1B3D JUMP JUMPDEST SWAP1 PUSH2 0xA3D PUSH2 0x1B70 JUMP JUMPDEST DUP3 PUSH1 0x0 MSTORE PUSH1 0x20 SWAP1 PUSH1 0x2 DUP3 MSTORE PUSH1 0x40 PUSH1 0x0 KECCAK256 PUSH1 0x1 DUP1 PUSH1 0xA0 SHL SUB DUP2 SLOAD AND ISZERO PUSH2 0xC4F JUMPI PUSH1 0x5 DUP2 ADD DUP1 SLOAD PUSH1 0xFF DUP2 PUSH1 0x10 SHR AND PUSH2 0xC0C JUMPI DUP6 ISZERO PUSH2 0xBB7 JUMPI PUSH3 0xFF0000 NOT AND PUSH3 0x10000 OR SWAP1 SSTORE PUSH1 0x6 ADD PUSH1 0x1 PUSH1 0x1 PUSH1 0x40 SHL SUB DUP5 GT PUSH2 0x83B JUMPI PUSH2 0xAA5 DUP5 PUSH2 0xA9F DUP4 SLOAD PUSH2 0x19D4 JUMP JUMPDEST DUP4 PUSH2 0x1D9F JUMP JUMPDEST PUSH1 0x0 PUSH1 0x1F DUP6 GT PUSH1 0x1 EQ PUSH2 0xB2A JUMPI SWAP4 DUP1 PUSH1 0x40 SWAP4 DUP2 SWAP6 SWAP4 DUP3 PUSH32 0x7B458EDFB4D0A1EB2788CEE32A1416442796661A685C60EAA574E969D29FFCF2 SWAP9 PUSH1 0x0 SWAP2 PUSH2 0xB1F JUMPI JUMPDEST POP DUP4 PUSH1 0x1 SHL SWAP1 PUSH1 0x0 NOT DUP6 PUSH1 0x3 SHL SHR NOT AND OR SWAP1 SSTORE JUMPDEST DUP5 MLOAD SWAP6 DUP5 DUP8 SWAP6 DUP7 MSTORE DUP6 ADD MSTORE DUP5 DUP5 ADD CALLDATACOPY PUSH1 0x0 DUP3 DUP3 ADD DUP5 ADD MSTORE PUSH1 0x1F ADD PUSH1 0x1F NOT AND DUP2 ADD SUB ADD SWAP1 LOG2 STOP JUMPDEST SWAP1 POP DUP3 ADD CALLDATALOAD DUP11 PUSH2 0xAE5 JUMP JUMPDEST PUSH1 0x1F NOT DUP6 AND SWAP1 DUP3 PUSH1 0x0 MSTORE DUP5 PUSH1 0x0 KECCAK256 SWAP2 PUSH1 0x0 JUMPDEST DUP2 DUP2 LT PUSH2 0xBA0 JUMPI POP SWAP4 DUP7 SWAP6 SWAP4 DUP7 SWAP4 DUP5 SWAP4 PUSH32 0x7B458EDFB4D0A1EB2788CEE32A1416442796661A685C60EAA574E969D29FFCF2 SWAP10 PUSH1 0x40 SWAP9 LT PUSH2 0xB86 JUMPI JUMPDEST POP POP PUSH1 0x1 DUP4 DUP2 SHL ADD SWAP1 SSTORE PUSH2 0xAF9 JUMP JUMPDEST DUP4 ADD CALLDATALOAD PUSH1 0x0 NOT PUSH1 0x3 DUP7 SWAP1 SHL PUSH1 0xF8 AND SHR NOT AND SWAP1 SSTORE DUP10 DUP1 PUSH2 0xB77 JUMP JUMPDEST SWAP2 SWAP3 DUP7 PUSH1 0x1 DUP2 SWAP3 DUP7 DUP10 ADD CALLDATALOAD DUP2 SSTORE ADD SWAP5 ADD SWAP3 ADD PUSH2 0xB3C JUMP JUMPDEST PUSH1 0x40 MLOAD PUSH3 0x461BCD PUSH1 0xE5 SHL DUP2 MSTORE PUSH1 0x4 DUP2 ADD DUP7 SWAP1 MSTORE PUSH1 0x27 PUSH1 0x24 DUP3 ADD MSTORE PUSH32 0x5374656C6C61724272696467653A20696E76616C6964207472616E7361637469 PUSH1 0x44 DUP3 ADD MSTORE PUSH7 0xDEDC40D0C2E6D PUSH1 0xCB SHL PUSH1 0x64 DUP3 ADD MSTORE PUSH1 0x84 SWAP1 REVERT JUMPDEST PUSH1 0x64 DUP6 PUSH1 0x40 MLOAD SWAP1 PUSH3 0x461BCD PUSH1 0xE5 SHL DUP3 MSTORE DUP1 PUSH1 0x4 DUP4 ADD MSTORE PUSH1 0x24 DUP3 ADD MSTORE PUSH32 0x5374656C6C61724272696467653A20616C726561647920636F6E6669726D6564 PUSH1 0x44 DUP3 ADD MSTORE REVERT JUMPDEST PUSH1 0x40 MLOAD PUSH3 0x461BCD PUSH1 0xE5 SHL DUP2 MSTORE PUSH1 0x4 DUP2 ADD DUP5 SWAP1 MSTORE PUSH1 0x22 PUSH1 0x24 DUP3 ADD MSTORE PUSH32 0x5374656C6C61724272696467653A2048544C4320646F6573206E6F7420657869 PUSH1 0x44 DUP3 ADD MSTORE PUSH2 0x1CDD PUSH1 0xF2 SHL PUSH1 0x64 DUP3 ADD MSTORE PUSH1 0x84 SWAP1 REVERT JUMPDEST CALLVALUE PUSH2 0x16C JUMPI PUSH1 0x0 CALLDATASIZE PUSH1 0x3 NOT ADD SLT PUSH2 0x16C JUMPI PUSH1 0x20 PUSH1 0x5 SLOAD PUSH1 0x40 MLOAD SWAP1 DUP2 MSTORE RETURN JUMPDEST CALLVALUE PUSH2 0x16C JUMPI PUSH1 0x40 CALLDATASIZE PUSH1 0x3 NOT ADD SLT PUSH2 0x16C JUMPI PUSH2 0xCD6 PUSH2 0x1B27 JUMP JUMPDEST PUSH2 0xCDE PUSH2 0x1B70 JUMP JUMPDEST PUSH1 0x1 SLOAD PUSH1 0x40 MLOAD PUSH4 0xA9059CBB PUSH1 0xE0 SHL DUP2 MSTORE PUSH1 0x1 PUSH1 0x1 PUSH1 0xA0 SHL SUB SWAP2 DUP3 AND PUSH1 0x4 DUP3 ADD MSTORE PUSH1 0x24 DUP1 CALLDATALOAD SWAP1 DUP3 ADD MSTORE SWAP2 PUSH1 0x20 SWAP2 DUP4 SWAP2 PUSH1 0x44 SWAP2 DUP4 SWAP2 PUSH1 0x0 SWAP2 AND GAS CALL DUP1 ISZERO PUSH2 0x28A JUMPI PUSH2 0xD23 JUMPI STOP JUMPDEST PUSH2 0x19 SWAP1 PUSH1 0x20 RETURNDATASIZE DUP2 GT PUSH2 0x358 JUMPI PUSH2 0x34A DUP2 DUP4 PUSH2 0x1A60 JUMP JUMPDEST CALLVALUE PUSH2 0x16C JUMPI PUSH1 0x20 CALLDATASIZE PUSH1 0x3 NOT ADD SLT PUSH2 0x16C JUMPI PUSH1 0x4 CALLDATALOAD PUSH1 0x0 SWAP1 DUP2 MSTORE PUSH1 0x2 PUSH1 0x20 MSTORE PUSH1 0x40 SWAP1 KECCAK256 DUP1 SLOAD PUSH1 0x1 PUSH1 0x1 PUSH1 0xA0 SHL SUB AND PUSH2 0x9A0 PUSH2 0xD76 PUSH1 0x1 DUP5 ADD PUSH2 0x1A81 JUMP JUMPDEST SWAP3 PUSH1 0x2 DUP2 ADD SLOAD SWAP1 PUSH1 0xFF PUSH1 0x3 DUP3 ADD SLOAD SWAP2 PUSH1 0x4 DUP2 ADD SLOAD PUSH2 0xD9B PUSH1 0x6 PUSH1 0x5 DUP5 ADD SLOAD SWAP4 ADD PUSH2 0x1A81 JUMP JUMPDEST SWAP4 PUSH2 0xDB8 PUSH1 0x40 MLOAD SWAP10 DUP11 SWAP10 DUP11 MSTORE PUSH2 0x120 DUP1 PUSH1 0x20 DUP13 ADD MSTORE DUP11 ADD SWAP1 PUSH2 0x19AF JUMP JUMPDEST SWAP6 PUSH1 0x40 DUP10 ADD MSTORE PUSH1 0x60 DUP9 ADD MSTORE PUSH1 0x80 DUP8 ADD MSTORE DUP2 DUP2 AND ISZERO ISZERO PUSH1 0xA0 DUP8 ADD MSTORE DUP2 DUP2 PUSH1 0x8 SHR AND ISZERO ISZERO PUSH1 0xC0 DUP8 ADD MSTORE PUSH1 0x10 SHR AND ISZERO ISZERO PUSH1 0xE0 DUP6 ADD MSTORE DUP4 DUP3 SUB PUSH2 0x100 DUP6 ADD MSTORE PUSH2 0x19AF JUMP JUMPDEST CALLVALUE PUSH2 0x16C JUMPI PUSH1 0x0 CALLDATASIZE PUSH1 0x3 NOT ADD SLT PUSH2 0x16C JUMPI PUSH1 0x1 SLOAD PUSH1 0x40 MLOAD PUSH1 0x1 PUSH1 0x1 PUSH1 0xA0 SHL SUB SWAP1 SWAP2 AND DUP2 MSTORE PUSH1 0x20 SWAP1 RETURN JUMPDEST CALLVALUE PUSH2 0x16C JUMPI PUSH1 0x0 CALLDATASIZE PUSH1 0x3 NOT ADD SLT PUSH2 0x16C JUMPI PUSH1 0x20 PUSH1 0x40 MLOAD PUSH7 0x2386F26FC10000 DUP2 MSTORE RETURN JUMPDEST CALLVALUE PUSH2 0x16C JUMPI PUSH1 0x0 CALLDATASIZE PUSH1 0x3 NOT ADD SLT PUSH2 0x16C JUMPI PUSH1 0x20 PUSH1 0x3 SLOAD PUSH1 0x40 MLOAD SWAP1 DUP2 MSTORE RETURN JUMPDEST CALLVALUE PUSH2 0x16C JUMPI PUSH1 0x0 CALLDATASIZE PUSH1 0x3 NOT ADD SLT PUSH2 0x16C JUMPI PUSH1 0x20 PUSH1 0x40 MLOAD PUSH9 0x56BC75E2D63100000 DUP2 MSTORE RETURN JUMPDEST CALLVALUE PUSH2 0x16C JUMPI PUSH1 0x20 DUP1 PUSH1 0x3 NOT CALLDATASIZE ADD SLT PUSH2 0x16C JUMPI PUSH1 0x4 CALLDATALOAD SWAP1 PUSH2 0xEA3 PUSH2 0x1DF3 JUMP JUMPDEST PUSH1 0x0 DUP3 DUP2 MSTORE PUSH1 0x2 DUP3 MSTORE PUSH1 0x40 SWAP1 KECCAK256 DUP1 SLOAD SWAP1 SWAP2 PUSH1 0x1 PUSH1 0x1 PUSH1 0xA0 SHL SUB SWAP2 DUP3 AND CALLER DUP2 SUB PUSH2 0x1045 JUMPI PUSH1 0x5 DUP5 ADD DUP1 SLOAD PUSH2 0xED9 PUSH1 0xFF DUP3 AND ISZERO PUSH2 0x1E7A JUMP JUMPDEST PUSH2 0xEE9 PUSH1 0xFF DUP3 PUSH1 0x8 SHR AND ISZERO PUSH2 0x1ED2 JUMP JUMPDEST PUSH1 0x4 DUP7 ADD SLOAD TIMESTAMP LT PUSH2 0xFF0 JUMPI PUSH2 0xFF00 NOT AND PUSH2 0x100 OR SWAP1 SSTORE PUSH1 0x1 DUP5 ADD SLOAD PUSH2 0xF0D SWAP1 PUSH2 0x19D4 JUMP JUMPDEST ISZERO PUSH2 0xF69 JUMPI POP POP PUSH1 0x0 DUP1 DUP4 PUSH1 0x2 DUP3 SWAP6 SWAP5 DUP4 SWAP6 SLOAD AND SWAP2 ADD SLOAD SWAP1 DUP3 DUP3 ISZERO PUSH2 0xF60 JUMPI JUMPDEST CALL ISZERO PUSH2 0x28A JUMPI JUMPDEST PUSH32 0xFE509803C09416B28FF3D8F690C8B0C61462A892C46D5430C8FB20ABE472DAF0 PUSH1 0x0 DUP1 LOG2 PUSH1 0x1 PUSH1 0x0 SSTORE STOP JUMPDEST POP PUSH2 0x8FC PUSH2 0xF2D JUMP JUMPDEST PUSH1 0x44 PUSH1 0x2 DUP4 SWAP6 ADD SLOAD SWAP2 PUSH1 0x0 PUSH1 0x40 MLOAD SWAP6 DUP7 SWAP5 DUP6 SWAP4 PUSH4 0xA9059CBB PUSH1 0xE0 SHL DUP6 MSTORE PUSH1 0x4 DUP6 ADD MSTORE PUSH1 0x24 DUP5 ADD MSTORE PUSH32 0x0 AND GAS CALL SWAP1 DUP2 ISZERO PUSH2 0x28A JUMPI PUSH2 0xFCE SWAP3 PUSH1 0x0 SWAP3 PUSH2 0xFD3 JUMPI JUMPDEST POP POP PUSH2 0x1E2E JUMP JUMPDEST PUSH2 0xF34 JUMP JUMPDEST PUSH2 0xFE9 SWAP3 POP DUP1 RETURNDATASIZE LT PUSH2 0x358 JUMPI PUSH2 0x34A DUP2 DUP4 PUSH2 0x1A60 JUMP JUMPDEST DUP4 DUP1 PUSH2 0xFC7 JUMP JUMPDEST PUSH1 0x40 MLOAD PUSH3 0x461BCD PUSH1 0xE5 SHL DUP2 MSTORE PUSH1 0x4 DUP2 ADD DUP6 SWAP1 MSTORE PUSH1 0x27 PUSH1 0x24 DUP3 ADD MSTORE PUSH32 0x5374656C6C61724272696467653A2074696D656C6F636B20686173206E6F7420 PUSH1 0x44 DUP3 ADD MSTORE PUSH7 0x195E1C1A5C9959 PUSH1 0xCA SHL PUSH1 0x64 DUP3 ADD MSTORE PUSH1 0x84 SWAP1 REVERT JUMPDEST PUSH1 0x40 MLOAD PUSH3 0x461BCD PUSH1 0xE5 SHL DUP2 MSTORE PUSH1 0x4 DUP2 ADD DUP4 SWAP1 MSTORE PUSH1 0x2A PUSH1 0x24 DUP3 ADD MSTORE PUSH32 0x5374656C6C61724272696467653A2063616C6C6572206973206E6F7420746865 PUSH1 0x44 DUP3 ADD MSTORE PUSH10 0x1034B734BA34B0BA37B9 PUSH1 0xB1 SHL PUSH1 0x64 DUP3 ADD MSTORE PUSH1 0x84 SWAP1 REVERT JUMPDEST CALLVALUE PUSH2 0x16C JUMPI PUSH1 0x0 CALLDATASIZE PUSH1 0x3 NOT ADD SLT PUSH2 0x16C JUMPI PUSH2 0x10B6 PUSH2 0x1B70 JUMP JUMPDEST PUSH1 0x1 DUP1 SLOAD PUSH1 0x1 PUSH1 0x1 PUSH1 0xA0 SHL SUB NOT DUP2 AND SWAP1 SWAP2 SSTORE PUSH1 0x0 SWAP1 PUSH1 0x1 PUSH1 0x1 PUSH1 0xA0 SHL SUB AND PUSH32 0x8BE0079C531659141344CD1FD0A4F28419497F9722A3DAAFE3B4186F6B6457E0 DUP3 DUP1 LOG3 STOP JUMPDEST CALLVALUE PUSH2 0x16C JUMPI PUSH1 0x20 CALLDATASIZE PUSH1 0x3 NOT ADD SLT PUSH2 0x16C JUMPI PUSH1 0x4 CALLDATALOAD PUSH2 0x1116 PUSH2 0x1B70 JUMP JUMPDEST PUSH7 0x2386F26FC10000 DUP2 GT PUSH2 0x1129 JUMPI PUSH1 0x3 SSTORE STOP JUMPDEST PUSH1 0x40 MLOAD PUSH3 0x461BCD PUSH1 0xE5 SHL DUP2 MSTORE PUSH1 0x20 PUSH1 0x4 DUP3 ADD MSTORE PUSH1 0x1B PUSH1 0x24 DUP3 ADD MSTORE PUSH32 0x5374656C6C61724272696467653A2066656520746F6F20686967680000000000 PUSH1 0x44 DUP3 ADD MSTORE PUSH1 0x64 SWAP1 REVERT JUMPDEST CALLVALUE PUSH2 0x16C JUMPI PUSH1 0x0 CALLDATASIZE PUSH1 0x3 NOT ADD SLT PUSH2 0x16C JUMPI PUSH2 0x19 PUSH2 0x1B70 JUMP JUMPDEST CALLVALUE PUSH2 0x16C JUMPI PUSH1 0x0 CALLDATASIZE PUSH1 0x3 NOT ADD SLT PUSH2 0x16C JUMPI PUSH1 0x40 MLOAD PUSH32 0x0 PUSH1 0x1 PUSH1 0x1 PUSH1 0xA0 SHL SUB AND DUP2 MSTORE PUSH1 0x20 SWAP1 RETURN JUMPDEST CALLVALUE PUSH2 0x16C JUMPI PUSH1 0x0 CALLDATASIZE PUSH1 0x3 NOT ADD SLT PUSH2 0x16C JUMPI PUSH2 0x11E5 PUSH2 0x1B70 JUMP JUMPDEST SELFBALANCE DUP1 ISZERO PUSH2 0x120A JUMPI PUSH1 0x1 SLOAD PUSH1 0x0 SWAP2 DUP3 SWAP2 DUP3 SWAP2 DUP3 SWAP2 PUSH1 0x1 PUSH1 0x1 PUSH1 0xA0 SHL SUB AND DUP3 CALL ISZERO PUSH2 0x28A JUMPI STOP JUMPDEST PUSH1 0x40 MLOAD PUSH3 0x461BCD PUSH1 0xE5 SHL DUP2 MSTORE PUSH1 0x20 PUSH1 0x4 DUP3 ADD MSTORE PUSH1 0x22 PUSH1 0x24 DUP3 ADD MSTORE PUSH32 0x5374656C6C61724272696467653A206E6F206665657320746F20776974686472 PUSH1 0x44 DUP3 ADD MSTORE PUSH2 0x6177 PUSH1 0xF0 SHL PUSH1 0x64 DUP3 ADD MSTORE PUSH1 0x84 SWAP1 REVERT JUMPDEST CALLVALUE PUSH2 0x16C JUMPI PUSH1 0x20 DUP1 PUSH1 0x3 NOT CALLDATASIZE ADD SLT PUSH2 0x16C JUMPI PUSH1 0x1 PUSH1 0x1 PUSH1 0x40 SHL SUB PUSH1 0x4 CALLDATALOAD DUP2 DUP2 GT PUSH2 0x16C JUMPI PUSH2 0x128C SWAP1 CALLDATASIZE SWAP1 PUSH1 0x4 ADD PUSH2 0x195F JUMP JUMPDEST SWAP2 PUSH2 0x1295 PUSH2 0x1B70 JUMP JUMPDEST PUSH1 0x40 MLOAD DUP5 DUP2 ADD SWAP1 DUP5 DUP5 DUP4 CALLDATACOPY PUSH2 0x12B9 DUP7 DUP3 DUP8 DUP2 ADD PUSH1 0x0 DUP4 DUP3 ADD MSTORE SUB DUP1 DUP5 MSTORE ADD DUP3 PUSH2 0x1A60 JUMP JUMPDEST MLOAD SWAP1 KECCAK256 PUSH1 0x40 MLOAD DUP6 DUP2 ADD SWAP1 PUSH6 0x7075626C6963 PUSH1 0xD0 SHL DUP3 MSTORE PUSH1 0x6 DUP2 MSTORE PUSH2 0x12DC DUP2 PUSH2 0x1A45 JUMP JUMPDEST MLOAD SWAP1 KECCAK256 EQ DUP1 ISZERO PUSH2 0x1466 JUMPI JUMPDEST ISZERO PUSH2 0x1421 JUMPI DUP3 GT PUSH2 0x83B JUMPI PUSH2 0x12FD PUSH1 0x4 SLOAD PUSH2 0x19D4 JUMP JUMPDEST PUSH1 0x1F DUP2 GT PUSH2 0x13C2 JUMPI JUMPDEST POP PUSH1 0x0 SWAP3 PUSH1 0x1F DUP4 GT PUSH1 0x1 EQ PUSH2 0x1345 JUMPI POP SWAP2 DUP2 SWAP3 PUSH1 0x0 SWAP3 PUSH2 0x133A JUMPI JUMPDEST POP POP PUSH1 0x0 NOT PUSH1 0x3 DUP4 SWAP1 SHL SHR NOT AND PUSH1 0x1 SWAP2 SWAP1 SWAP2 SHL OR PUSH1 0x4 SSTORE STOP JUMPDEST ADD CALLDATALOAD SWAP1 POP DUP3 DUP1 PUSH2 0x1321 JUMP JUMPDEST PUSH1 0x1F NOT DUP4 AND SWAP4 PUSH32 0x8A35ACFBC15FF81A39AE7D344FD709F28E8600B4AA8C65C6B64BFE7FE36BD19B SWAP3 SWAP2 PUSH1 0x0 SWAP1 JUMPDEST DUP7 DUP3 LT PUSH2 0x13AA JUMPI POP POP DUP4 PUSH1 0x1 SWAP6 LT PUSH2 0x1390 JUMPI JUMPDEST POP POP POP DUP2 SHL ADD PUSH1 0x4 SSTORE STOP JUMPDEST ADD CALLDATALOAD PUSH1 0x0 NOT PUSH1 0x3 DUP5 SWAP1 SHL PUSH1 0xF8 AND SHR NOT AND SWAP1 SSTORE DUP3 DUP1 DUP1 PUSH2 0x1385 JUMP JUMPDEST DUP1 PUSH1 0x1 DUP5 SWAP7 DUP3 SWAP5 SWAP6 DUP8 ADD CALLDATALOAD DUP2 SSTORE ADD SWAP6 ADD SWAP3 ADD SWAP1 PUSH2 0x1372 JUMP JUMPDEST PUSH32 0x8A35ACFBC15FF81A39AE7D344FD709F28E8600B4AA8C65C6B64BFE7FE36BD19B PUSH1 0x1F DUP5 ADD PUSH1 0x5 SHR DUP2 ADD SWAP2 DUP6 DUP6 LT PUSH2 0x1417 JUMPI JUMPDEST PUSH1 0x1F ADD PUSH1 0x5 SHR ADD SWAP1 JUMPDEST DUP2 DUP2 LT PUSH2 0x140B JUMPI POP PUSH2 0x1306 JUMP JUMPDEST PUSH1 0x0 DUP2 SSTORE PUSH1 0x1 ADD PUSH2 0x13FE JUMP JUMPDEST SWAP1 SWAP2 POP DUP2 SWAP1 PUSH2 0x13F5 JUMP JUMPDEST PUSH1 0x40 MLOAD PUSH3 0x461BCD PUSH1 0xE5 SHL DUP2 MSTORE PUSH1 0x4 DUP2 ADD DUP6 SWAP1 MSTORE PUSH1 0x1E PUSH1 0x24 DUP3 ADD MSTORE PUSH32 0x5374656C6C61724272696467653A20696E76616C6964206E6574776F726B0000 PUSH1 0x44 DUP3 ADD MSTORE PUSH1 0x64 SWAP1 REVERT JUMPDEST POP PUSH1 0x40 MLOAD DUP5 DUP2 ADD SWAP1 DUP5 DUP5 DUP4 CALLDATACOPY PUSH2 0x148B DUP7 DUP3 DUP8 DUP2 ADD PUSH1 0x0 DUP4 DUP3 ADD MSTORE SUB DUP1 DUP5 MSTORE ADD DUP3 PUSH2 0x1A60 JUMP JUMPDEST MLOAD SWAP1 KECCAK256 PUSH1 0x40 MLOAD DUP6 DUP2 ADD SWAP1 PUSH7 0x1D195CDD1B995D PUSH1 0xCA SHL DUP3 MSTORE PUSH1 0x7 DUP2 MSTORE PUSH2 0x14AF DUP2 PUSH2 0x1A45 JUMP JUMPDEST MLOAD SWAP1 KECCAK256 EQ PUSH2 0x12E7 JUMP JUMPDEST CALLVALUE PUSH2 0x16C JUMPI PUSH1 0x20 CALLDATASIZE PUSH1 0x3 NOT ADD SLT PUSH2 0x16C JUMPI PUSH1 0x4 CALLDATALOAD PUSH1 0x0 MSTORE PUSH1 0x2 PUSH1 0x20 MSTORE PUSH1 0x20 PUSH1 0x40 PUSH1 0x0 KECCAK256 PUSH1 0x1 DUP1 PUSH1 0xA0 SHL SUB DUP2 SLOAD AND ISZERO ISZERO SWAP1 DUP2 PUSH2 0x1512 JUMPI JUMPDEST DUP2 PUSH2 0x14FF JUMPI JUMPDEST POP PUSH1 0x40 MLOAD SWAP1 ISZERO ISZERO DUP2 MSTORE RETURN JUMPDEST PUSH1 0xFF SWAP2 POP PUSH1 0x5 ADD SLOAD PUSH1 0x8 SHR AND ISZERO DUP3 PUSH2 0x14F4 JUMP JUMPDEST PUSH1 0x5 DUP2 ADD SLOAD PUSH1 0xFF AND ISZERO SWAP2 POP PUSH2 0x14EE JUMP JUMPDEST CALLVALUE PUSH2 0x16C JUMPI PUSH1 0x20 CALLDATASIZE PUSH1 0x3 NOT ADD SLT PUSH2 0x16C JUMPI PUSH1 0x4 CALLDATALOAD PUSH1 0x0 MSTORE PUSH1 0x2 PUSH1 0x20 MSTORE PUSH1 0x40 PUSH1 0x0 KECCAK256 PUSH1 0x1 DUP1 PUSH1 0xA0 SHL SUB DUP2 SLOAD AND PUSH2 0x9A0 PUSH1 0x2 DUP4 ADD SLOAD PUSH1 0x3 DUP5 ADD SLOAD PUSH1 0xFF PUSH1 0x4 DUP7 ADD SLOAD PUSH1 0x5 DUP8 ADD SLOAD SWAP1 PUSH2 0xD9B PUSH1 0x6 PUSH2 0x1578 PUSH1 0x1 DUP12 ADD PUSH2 0x1A81 JUMP JUMPDEST SWAP10 ADD PUSH2 0x1A81 JUMP JUMPDEST PUSH1 0x80 CALLDATASIZE PUSH1 0x3 NOT ADD SLT PUSH2 0x16C JUMPI PUSH1 0x24 CALLDATALOAD PUSH1 0x1 PUSH1 0x1 PUSH1 0x40 SHL SUB DUP2 GT PUSH2 0x16C JUMPI PUSH2 0x15AA SWAP1 CALLDATASIZE SWAP1 PUSH1 0x4 ADD PUSH2 0x195F JUMP JUMPDEST PUSH1 0x64 CALLDATALOAD SWAP2 PUSH2 0x15B6 PUSH2 0x1DF3 JUMP JUMPDEST PUSH1 0x4 CALLDATALOAD PUSH1 0x0 SWAP1 DUP2 MSTORE PUSH1 0x2 PUSH1 0x20 MSTORE PUSH1 0x40 SWAP1 KECCAK256 SLOAD PUSH2 0x15DB SWAP1 PUSH1 0x1 PUSH1 0x1 PUSH1 0xA0 SHL SUB AND ISZERO PUSH2 0x1B9C JUMP JUMPDEST PUSH2 0x15EE PUSH7 0x2386F26FC10000 CALLVALUE LT ISZERO PUSH2 0x1C00 JUMP JUMPDEST PUSH2 0x1603 PUSH9 0x56BC75E2D63100000 CALLVALUE GT ISZERO PUSH2 0x1C4C JUMP JUMPDEST DUP2 ISZERO PUSH2 0x190B JUMPI PUSH2 0x1616 PUSH1 0x44 CALLDATALOAD ISZERO ISZERO PUSH2 0x1C98 JUMP JUMPDEST PUSH2 0x1623 PUSH2 0xE10 DUP5 GT PUSH2 0x1CE4 JUMP JUMPDEST PUSH1 0x3 SLOAD CALLVALUE SUB SWAP3 CALLVALUE DUP5 GT PUSH2 0x18F5 JUMPI PUSH2 0x163A SWAP1 TIMESTAMP PUSH2 0x1D4C JUMP JUMPDEST PUSH1 0x40 MLOAD SWAP1 PUSH2 0x1647 DUP3 PUSH2 0x1A0E JUMP JUMPDEST CALLER DUP3 MSTORE PUSH2 0x1655 CALLDATASIZE DUP6 DUP6 PUSH2 0x1D59 JUMP JUMPDEST PUSH1 0x20 DUP4 ADD MSTORE DUP5 PUSH1 0x40 DUP4 ADD MSTORE PUSH1 0x44 CALLDATALOAD PUSH1 0x60 DUP4 ADD MSTORE PUSH1 0x80 DUP3 ADD MSTORE PUSH1 0x0 PUSH1 0xA0 DUP3 ADD MSTORE PUSH1 0x0 PUSH1 0xC0 DUP3 ADD MSTORE PUSH1 0x0 PUSH1 0xE0 DUP3 ADD MSTORE PUSH1 0x40 MLOAD PUSH2 0x168E DUP2 PUSH2 0x1A2A JUMP JUMPDEST PUSH1 0x0 DUP2 MSTORE PUSH2 0x100 DUP3 ADD MSTORE PUSH1 0x4 CALLDATALOAD PUSH1 0x0 MSTORE PUSH1 0x2 PUSH1 0x20 MSTORE PUSH1 0x40 PUSH1 0x0 KECCAK256 PUSH1 0x1 DUP1 PUSH1 0xA0 SHL SUB DUP3 MLOAD AND PUSH1 0x1 PUSH1 0x1 PUSH1 0x60 SHL SUB PUSH1 0xA0 SHL DUP3 SLOAD AND OR DUP2 SSTORE PUSH1 0x20 DUP3 ADD MLOAD DUP1 MLOAD SWAP1 PUSH1 0x1 PUSH1 0x1 PUSH1 0x40 SHL SUB DUP3 GT PUSH2 0x83B JUMPI PUSH2 0x16EA DUP3 PUSH2 0x67E PUSH1 0x1 DUP7 ADD SLOAD PUSH2 0x19D4 JUMP JUMPDEST PUSH1 0x20 SWAP1 PUSH1 0x1F DUP4 GT PUSH1 0x1 EQ PUSH2 0x187F JUMPI SWAP2 DUP1 PUSH2 0x100 SWAP5 SWAP3 PUSH1 0x6 SWAP5 PUSH1 0x0 SWAP3 PUSH2 0x1874 JUMPI JUMPDEST POP POP DUP2 PUSH1 0x1 SHL SWAP2 PUSH1 0x0 NOT SWAP1 PUSH1 0x3 SHL SHR NOT AND OR PUSH1 0x1 DUP3 ADD SSTORE JUMPDEST PUSH1 0x40 DUP5 ADD MLOAD PUSH1 0x2 DUP3 ADD SSTORE PUSH1 0x60 DUP5 ADD MLOAD PUSH1 0x3 DUP3 ADD SSTORE PUSH1 0x80 DUP5 ADD MLOAD PUSH1 0x4 DUP3 ADD SSTORE PUSH2 0x1763 PUSH1 0x5 DUP3 ADD PUSH2 0x700 PUSH1 0xA0 DUP8 ADD MLOAD ISZERO ISZERO DUP3 SWAP1 PUSH1 0xFF DUP1 NOT DUP4 SLOAD AND SWAP2 ISZERO ISZERO AND OR SWAP1 SSTORE JUMP JUMPDEST ADD SWAP2 ADD MLOAD DUP1 MLOAD SWAP1 PUSH1 0x1 PUSH1 0x1 PUSH1 0x40 SHL SUB DUP3 GT PUSH2 0x83B JUMPI DUP2 SWAP1 PUSH2 0x178E DUP3 PUSH2 0x1788 DUP7 SLOAD PUSH2 0x19D4 JUMP JUMPDEST DUP7 PUSH2 0x1D9F JUMP JUMPDEST PUSH1 0x20 SWAP1 PUSH1 0x1F DUP4 GT PUSH1 0x1 EQ PUSH2 0x180E JUMPI PUSH1 0x0 SWAP3 PUSH2 0x1803 JUMPI JUMPDEST POP POP DUP2 PUSH1 0x1 SHL SWAP2 PUSH1 0x0 NOT SWAP1 PUSH1 0x3 SHL SHR NOT AND OR SWAP1 SSTORE JUMPDEST DUP2 PUSH1 0x40 MLOAD SWAP3 DUP4 SWAP3 DUP4 CALLDATACOPY DUP2 ADD PUSH1 0x0 DUP2 MSTORE SUB SWAP1 KECCAK256 SWAP1 PUSH1 0x40 MLOAD SWAP1 DUP2 MSTORE CALLER SWAP1 PUSH32 0x2A241314F1721916D74A645F65E364F43169E7AA07961DC76AE071F3B911CF59 PUSH1 0x20 PUSH1 0x4 CALLDATALOAD SWAP3 LOG4 PUSH1 0x1 PUSH1 0x0 SSTORE STOP JUMPDEST ADD MLOAD SWAP1 POP DUP7 DUP1 PUSH2 0x17A4 JUMP JUMPDEST PUSH1 0x0 DUP6 DUP2 MSTORE PUSH1 0x20 DUP2 KECCAK256 SWAP4 POP PUSH1 0x1F NOT DUP6 AND SWAP1 JUMPDEST DUP2 DUP2 LT PUSH2 0x185C JUMPI POP SWAP1 DUP5 PUSH1 0x1 SWAP6 SWAP5 SWAP4 SWAP3 LT PUSH2 0x1843 JUMPI JUMPDEST POP POP POP DUP2 SHL ADD SWAP1 SSTORE PUSH2 0x17B9 JUMP JUMPDEST ADD MLOAD PUSH1 0x0 NOT PUSH1 0xF8 DUP5 PUSH1 0x3 SHL AND SHR NOT AND SWAP1 SSTORE DUP7 DUP1 DUP1 PUSH2 0x1836 JUMP JUMPDEST SWAP3 SWAP4 PUSH1 0x20 PUSH1 0x1 DUP2 SWAP3 DUP8 DUP7 ADD MLOAD DUP2 SSTORE ADD SWAP6 ADD SWAP4 ADD PUSH2 0x1820 JUMP JUMPDEST ADD MLOAD SWAP1 POP DUP10 DUP1 PUSH2 0x170A JUMP JUMPDEST SWAP1 PUSH1 0x1 DUP5 ADD PUSH1 0x0 MSTORE PUSH1 0x20 PUSH1 0x0 KECCAK256 SWAP2 PUSH1 0x0 JUMPDEST PUSH1 0x1F NOT DUP6 AND DUP2 LT PUSH2 0x18DD JUMPI POP SWAP3 PUSH2 0x100 SWAP5 SWAP3 PUSH1 0x1 SWAP3 PUSH1 0x6 SWAP6 DUP4 PUSH1 0x1F NOT DUP2 AND LT PUSH2 0x18C4 JUMPI JUMPDEST POP POP POP DUP2 SHL ADD PUSH1 0x1 DUP3 ADD SSTORE PUSH2 0x1722 JUMP JUMPDEST ADD MLOAD PUSH1 0x0 NOT PUSH1 0xF8 DUP5 PUSH1 0x3 SHL AND SHR NOT AND SWAP1 SSTORE DUP10 DUP1 DUP1 PUSH2 0x18B4 JUMP JUMPDEST SWAP2 SWAP3 PUSH1 0x20 PUSH1 0x1 DUP2 SWAP3 DUP7 DUP6 ADD MLOAD DUP2 SSTORE ADD SWAP5 ADD SWAP3 ADD PUSH2 0x1890 JUMP JUMPDEST PUSH4 0x4E487B71 PUSH1 0xE0 SHL PUSH1 0x0 MSTORE PUSH1 0x11 PUSH1 0x4 MSTORE PUSH1 0x24 PUSH1 0x0 REVERT JUMPDEST PUSH1 0x40 MLOAD PUSH3 0x461BCD PUSH1 0xE5 SHL DUP2 MSTORE PUSH1 0x20 PUSH1 0x4 DUP3 ADD MSTORE PUSH1 0x26 PUSH1 0x24 DUP3 ADD MSTORE PUSH32 0x5374656C6C61724272696467653A20696E76616C6964205374656C6C61722061 PUSH1 0x44 DUP3 ADD MSTORE PUSH6 0x646472657373 PUSH1 0xD0 SHL PUSH1 0x64 DUP3 ADD MSTORE PUSH1 0x84 SWAP1 REVERT JUMPDEST SWAP2 DUP2 PUSH1 0x1F DUP5 ADD SLT ISZERO PUSH2 0x16C JUMPI DUP3 CALLDATALOAD SWAP2 PUSH1 0x1 PUSH1 0x1 PUSH1 0x40 SHL SUB DUP4 GT PUSH2 0x16C JUMPI PUSH1 0x20 DUP4 DUP2 DUP7 ADD SWAP6 ADD ADD GT PUSH2 0x16C JUMPI JUMP JUMPDEST PUSH1 0x0 JUMPDEST DUP4 DUP2 LT PUSH2 0x199F JUMPI POP POP PUSH1 0x0 SWAP2 ADD MSTORE JUMP JUMPDEST DUP2 DUP2 ADD MLOAD DUP4 DUP3 ADD MSTORE PUSH1 0x20 ADD PUSH2 0x198F JUMP JUMPDEST SWAP1 PUSH1 0x20 SWAP2 PUSH2 0x19C8 DUP2 MLOAD DUP1 SWAP3 DUP2 DUP6 MSTORE DUP6 DUP1 DUP7 ADD SWAP2 ADD PUSH2 0x198C JUMP JUMPDEST PUSH1 0x1F ADD PUSH1 0x1F NOT AND ADD ADD SWAP1 JUMP JUMPDEST SWAP1 PUSH1 0x1 DUP3 DUP2 SHR SWAP3 AND DUP1 ISZERO PUSH2 0x1A04 JUMPI JUMPDEST PUSH1 0x20 DUP4 LT EQ PUSH2 0x19EE JUMPI JUMP JUMPDEST PUSH4 0x4E487B71 PUSH1 0xE0 SHL PUSH1 0x0 MSTORE PUSH1 0x22 PUSH1 0x4 MSTORE PUSH1 0x24 PUSH1 0x0 REVERT JUMPDEST SWAP2 PUSH1 0x7F AND SWAP2 PUSH2 0x19E3 JUMP JUMPDEST PUSH2 0x120 DUP2 ADD SWAP1 DUP2 LT PUSH1 0x1 PUSH1 0x1 PUSH1 0x40 SHL SUB DUP3 GT OR PUSH2 0x83B JUMPI PUSH1 0x40 MSTORE JUMP JUMPDEST PUSH1 0x20 DUP2 ADD SWAP1 DUP2 LT PUSH1 0x1 PUSH1 0x1 PUSH1 0x40 SHL SUB DUP3 GT OR PUSH2 0x83B JUMPI PUSH1 0x40 MSTORE JUMP JUMPDEST PUSH1 0x40 DUP2 ADD SWAP1 DUP2 LT PUSH1 0x1 PUSH1 0x1 PUSH1 0x40 SHL SUB DUP3 GT OR PUSH2 0x83B JUMPI PUSH1 0x40 MSTORE JUMP JUMPDEST SWAP1 PUSH1 0x1F DUP1 NOT SWAP2 ADD AND DUP2 ADD SWAP1 DUP2 LT PUSH1 0x1 PUSH1 0x1 PUSH1 0x40 SHL SUB DUP3 GT OR PUSH2 0x83B JUMPI PUSH1 0x40 MSTORE JUMP JUMPDEST SWAP1 PUSH1 0x40 MLOAD SWAP2 DUP3 PUSH1 0x0 DUP3 SLOAD SWAP3 PUSH2 0x1A95 DUP5 PUSH2 0x19D4 JUMP JUMPDEST SWAP1 DUP2 DUP5 MSTORE PUSH1 0x1 SWAP5 DUP6 DUP2 AND SWAP1 DUP2 PUSH1 0x0 EQ PUSH2 0x1B04 JUMPI POP PUSH1 0x1 EQ PUSH2 0x1AC1 JUMPI JUMPDEST POP POP PUSH2 0x1ABF SWAP3 POP SUB DUP4 PUSH2 0x1A60 JUMP JUMPDEST JUMP JUMPDEST SWAP1 SWAP4 SWAP2 POP PUSH1 0x0 MSTORE PUSH1 0x20 SWAP1 DUP2 PUSH1 0x0 KECCAK256 SWAP4 PUSH1 0x0 SWAP2 JUMPDEST DUP2 DUP4 LT PUSH2 0x1AEC JUMPI POP POP PUSH2 0x1ABF SWAP4 POP DUP3 ADD ADD CODESIZE DUP1 PUSH2 0x1AB1 JUMP JUMPDEST DUP6 SLOAD DUP9 DUP5 ADD DUP6 ADD MSTORE SWAP5 DUP6 ADD SWAP5 DUP8 SWAP5 POP SWAP2 DUP4 ADD SWAP2 PUSH2 0x1AD4 JUMP JUMPDEST SWAP2 POP POP PUSH2 0x1ABF SWAP5 POP PUSH1 0x20 SWAP3 POP PUSH1 0xFF NOT AND DUP3 DUP5 ADD MSTORE ISZERO ISZERO PUSH1 0x5 SHL DUP3 ADD ADD CODESIZE DUP1 PUSH2 0x1AB1 JUMP JUMPDEST PUSH1 0x4 CALLDATALOAD SWAP1 PUSH1 0x1 PUSH1 0x1 PUSH1 0xA0 SHL SUB DUP3 AND DUP3 SUB PUSH2 0x16C JUMPI JUMP JUMPDEST SWAP1 PUSH1 0x40 PUSH1 0x3 NOT DUP4 ADD SLT PUSH2 0x16C JUMPI PUSH1 0x4 CALLDATALOAD SWAP2 PUSH1 0x24 CALLDATALOAD SWAP1 PUSH1 0x1 PUSH1 0x1 PUSH1 0x40 SHL SUB DUP3 GT PUSH2 0x16C JUMPI PUSH2 0x1B6C SWAP2 PUSH1 0x4 ADD PUSH2 0x195F JUMP JUMPDEST SWAP1 SWAP2 JUMP JUMPDEST PUSH1 0x1 SLOAD PUSH1 0x1 PUSH1 0x1 PUSH1 0xA0 SHL SUB AND CALLER SUB PUSH2 0x1B84 JUMPI JUMP JUMPDEST PUSH1 0x40 MLOAD PUSH4 0x118CDAA7 PUSH1 0xE0 SHL DUP2 MSTORE CALLER PUSH1 0x4 DUP3 ADD MSTORE PUSH1 0x24 SWAP1 REVERT JUMPDEST ISZERO PUSH2 0x1BA3 JUMPI JUMP JUMPDEST PUSH1 0x40 MLOAD PUSH3 0x461BCD PUSH1 0xE5 SHL DUP2 MSTORE PUSH1 0x20 PUSH1 0x4 DUP3 ADD MSTORE PUSH1 0x2F PUSH1 0x24 DUP3 ADD MSTORE PUSH32 0x5374656C6C61724272696467653A207377617020776974682074686973206964 PUSH1 0x44 DUP3 ADD MSTORE PUSH15 0x20616C726561647920657869737473 PUSH1 0x88 SHL PUSH1 0x64 DUP3 ADD MSTORE PUSH1 0x84 SWAP1 REVERT JUMPDEST ISZERO PUSH2 0x1C07 JUMPI JUMP JUMPDEST PUSH1 0x40 MLOAD PUSH3 0x461BCD PUSH1 0xE5 SHL DUP2 MSTORE PUSH1 0x20 PUSH1 0x4 DUP3 ADD MSTORE PUSH1 0x1D PUSH1 0x24 DUP3 ADD MSTORE PUSH32 0x5374656C6C61724272696467653A20616D6F756E7420746F6F206C6F77000000 PUSH1 0x44 DUP3 ADD MSTORE PUSH1 0x64 SWAP1 REVERT JUMPDEST ISZERO PUSH2 0x1C53 JUMPI JUMP JUMPDEST PUSH1 0x40 MLOAD PUSH3 0x461BCD PUSH1 0xE5 SHL DUP2 MSTORE PUSH1 0x20 PUSH1 0x4 DUP3 ADD MSTORE PUSH1 0x1E PUSH1 0x24 DUP3 ADD MSTORE PUSH32 0x5374656C6C61724272696467653A20616D6F756E7420746F6F20686967680000 PUSH1 0x44 DUP3 ADD MSTORE PUSH1 0x64 SWAP1 REVERT JUMPDEST ISZERO PUSH2 0x1C9F JUMPI JUMP JUMPDEST PUSH1 0x40 MLOAD PUSH3 0x461BCD PUSH1 0xE5 SHL DUP2 MSTORE PUSH1 0x20 PUSH1 0x4 DUP3 ADD MSTORE PUSH1 0x1B PUSH1 0x24 DUP3 ADD MSTORE PUSH32 0x5374656C6C61724272696467653A20696E76616C696420686173680000000000 PUSH1 0x44 DUP3 ADD MSTORE PUSH1 0x64 SWAP1 REVERT JUMPDEST ISZERO PUSH2 0x1CEB JUMPI JUMP JUMPDEST PUSH1 0x40 MLOAD PUSH3 0x461BCD PUSH1 0xE5 SHL DUP2 MSTORE PUSH1 0x20 PUSH1 0x4 DUP3 ADD MSTORE PUSH1 0x33 PUSH1 0x24 DUP3 ADD MSTORE PUSH32 0x5374656C6C61724272696467653A2074696D656C6F636B206D75737420626520 PUSH1 0x44 DUP3 ADD MSTORE PUSH19 0x33B932B0BA32B9103A3430B71018903437BAB9 PUSH1 0x69 SHL PUSH1 0x64 DUP3 ADD MSTORE PUSH1 0x84 SWAP1 REVERT JUMPDEST SWAP2 SWAP1 DUP3 ADD DUP1 SWAP3 GT PUSH2 0x18F5 JUMPI JUMP JUMPDEST SWAP3 SWAP2 SWAP3 PUSH1 0x1 PUSH1 0x1 PUSH1 0x40 SHL SUB DUP3 GT PUSH2 0x83B JUMPI PUSH1 0x40 MLOAD SWAP2 PUSH2 0x1D82 PUSH1 0x1F DUP3 ADD PUSH1 0x1F NOT AND PUSH1 0x20 ADD DUP5 PUSH2 0x1A60 JUMP JUMPDEST DUP3 SWAP5 DUP2 DUP5 MSTORE DUP2 DUP4 ADD GT PUSH2 0x16C JUMPI DUP3 DUP2 PUSH1 0x20 SWAP4 DUP5 PUSH1 0x0 SWAP7 ADD CALLDATACOPY ADD ADD MSTORE JUMP JUMPDEST SWAP1 PUSH1 0x1F DUP2 GT PUSH2 0x1DAD JUMPI POP POP POP JUMP JUMPDEST PUSH1 0x0 SWAP2 DUP3 MSTORE PUSH1 0x20 DUP3 KECCAK256 SWAP1 PUSH1 0x20 PUSH1 0x1F DUP6 ADD PUSH1 0x5 SHR DUP4 ADD SWAP5 LT PUSH2 0x1DE9 JUMPI JUMPDEST PUSH1 0x1F ADD PUSH1 0x5 SHR ADD SWAP2 JUMPDEST DUP3 DUP2 LT PUSH2 0x1DDE JUMPI POP POP POP JUMP JUMPDEST DUP2 DUP2 SSTORE PUSH1 0x1 ADD PUSH2 0x1DD2 JUMP JUMPDEST SWAP1 SWAP3 POP DUP3 SWAP1 PUSH2 0x1DC9 JUMP JUMPDEST PUSH1 0x2 PUSH1 0x0 SLOAD EQ PUSH2 0x1E04 JUMPI PUSH1 0x2 PUSH1 0x0 SSTORE JUMP JUMPDEST PUSH1 0x40 MLOAD PUSH4 0x3EE5AEB5 PUSH1 0xE0 SHL DUP2 MSTORE PUSH1 0x4 SWAP1 REVERT JUMPDEST SWAP1 DUP2 PUSH1 0x20 SWAP2 SUB SLT PUSH2 0x16C JUMPI MLOAD DUP1 ISZERO ISZERO DUP2 SUB PUSH2 0x16C JUMPI SWAP1 JUMP JUMPDEST ISZERO PUSH2 0x1E35 JUMPI JUMP JUMPDEST PUSH1 0x40 MLOAD PUSH3 0x461BCD PUSH1 0xE5 SHL DUP2 MSTORE PUSH1 0x20 PUSH1 0x4 DUP3 ADD MSTORE PUSH1 0x1E PUSH1 0x24 DUP3 ADD MSTORE PUSH32 0x5374656C6C61724272696467653A207472616E73666572206661696C65640000 PUSH1 0x44 DUP3 ADD MSTORE PUSH1 0x64 SWAP1 REVERT JUMPDEST ISZERO PUSH2 0x1E81 JUMPI JUMP JUMPDEST PUSH1 0x40 MLOAD PUSH3 0x461BCD PUSH1 0xE5 SHL DUP2 MSTORE PUSH1 0x20 PUSH1 0x4 DUP3 ADD MSTORE PUSH1 0x24 DUP1 DUP3 ADD MSTORE PUSH32 0x5374656C6C61724272696467653A207377617020616C72656164792065786563 PUSH1 0x44 DUP3 ADD MSTORE PUSH4 0x1D5D1959 PUSH1 0xE2 SHL PUSH1 0x64 DUP3 ADD MSTORE PUSH1 0x84 SWAP1 REVERT JUMPDEST ISZERO PUSH2 0x1ED9 JUMPI JUMP JUMPDEST PUSH1 0x40 MLOAD PUSH3 0x461BCD PUSH1 0xE5 SHL DUP2 MSTORE PUSH1 0x20 PUSH1 0x4 DUP3 ADD MSTORE PUSH1 0x24 DUP1 DUP3 ADD MSTORE PUSH32 0x5374656C6C61724272696467653A207377617020616C72656164792072656675 PUSH1 0x44 DUP3 ADD MSTORE PUSH4 0x1B991959 PUSH1 0xE2 SHL PUSH1 0x64 DUP3 ADD MSTORE PUSH1 0x84 SWAP1 REVERT JUMPDEST PUSH2 0x1F35 SWAP2 CALLDATASIZE SWAP2 PUSH2 0x1D59 JUMP JUMPDEST SWAP1 DUP2 MLOAD PUSH1 0x38 DUP2 SUB PUSH2 0x1FEE JUMPI ISZERO PUSH2 0x2010 JUMPI PUSH1 0x20 DUP3 DUP2 ADD DUP1 MLOAD PUSH1 0x1 PUSH1 0x1 PUSH1 0xF8 SHL SUB NOT SWAP1 DUP2 AND PUSH1 0x47 PUSH1 0xF8 SHL EQ ISZERO SWAP2 SWAP1 DUP3 PUSH2 0x2026 JUMPI JUMPDEST DUP3 PUSH2 0x1FF5 JUMPI JUMPDEST POP POP PUSH2 0x1FEE JUMPI PUSH1 0x0 JUMPDEST DUP4 MLOAD DUP2 LT ISZERO PUSH2 0x1FE6 JUMPI DUP2 DUP2 DUP6 ADD ADD MLOAD PUSH1 0xF8 SHR PUSH1 0x41 DUP2 LT ISZERO SWAP1 DUP2 PUSH2 0x1FDA JUMPI JUMPDEST DUP2 ISZERO PUSH2 0x1FBA JUMPI JUMPDEST POP ISZERO PUSH2 0x1FB2 JUMPI PUSH1 0x0 NOT DUP2 EQ PUSH2 0x18F5 JUMPI PUSH1 0x1 ADD PUSH2 0x1F76 JUMP JUMPDEST POP PUSH1 0x0 SWAP3 POP POP JUMP JUMPDEST PUSH1 0x32 DUP2 LT ISZERO SWAP2 POP DUP2 PUSH2 0x1FCE JUMPI JUMPDEST POP CODESIZE PUSH2 0x1F9B JUMP JUMPDEST PUSH1 0x37 SWAP2 POP GT ISZERO CODESIZE PUSH2 0x1FC7 JUMP JUMPDEST PUSH1 0x5A DUP2 GT ISZERO SWAP2 POP PUSH2 0x1F94 JUMP JUMPDEST POP PUSH1 0x1 SWAP3 POP POP JUMP JUMPDEST POP PUSH1 0x0 SWAP2 POP JUMP JUMPDEST SWAP1 SWAP2 POP DUP5 MLOAD ISZERO PUSH2 0x2010 JUMPI SWAP1 MLOAD AND PUSH1 0x53 PUSH1 0xF8 SHL EQ ISZERO CODESIZE DUP1 PUSH2 0x1F6D JUMP JUMPDEST PUSH4 0x4E487B71 PUSH1 0xE0 SHL PUSH1 0x0 MSTORE PUSH1 0x32 PUSH1 0x4 MSTORE PUSH1 0x24 PUSH1 0x0 REVERT JUMPDEST SWAP2 POP DUP5 MLOAD ISZERO PUSH2 0x2010 JUMPI DUP1 MLOAD DUP3 AND PUSH1 0x4D PUSH1 0xF8 SHL EQ ISZERO SWAP2 PUSH2 0x1F67 JUMP INVALID LOG2 PUSH5 0x6970667358 0x22 SLT KECCAK256 CODESIZE SELFBALANCE 0xC2 0x2B CALL DUP10 SDIV RETURNDATASIZE 0xA7 PUSH26 0xCA73637E001F4D9CBF4A703BDF09CA4308A417A4692964736F6C PUSH4 0x43000814 STOP CALLER "},"methodIdentifiers":{"MAX_BRIDGE_AMOUNT()":"7fce0002","MIN_BRIDGE_AMOUNT()":"886688c1","bridgeFee()":"82b12dd7","confirmStellarTransaction(bytes32,string)":"acdea6ad","emergencyPause()":"51858e27","emergencyWithdraw(address,uint256)":"95ccea67","getHtlc(bytes32)":"089c0aa4","htlcs(bytes32)":"91edd8f2","initiateFromStellar(bytes32,address,uint256,bytes32,uint256)":"e3294ccd","initiateToStellar(bytes32,string,bytes32,uint256)":"000111a4","isValidHtlc(bytes32)":"19304e25","owner()":"8da5cb5b","redeem(bytes32,bytes)":"f7ff7207","refund(bytes32)":"7249fbb6","renounceOwnership()":"715018a6","stellarNetwork()":"bd585a5c","stellarSequenceNumber()":"acaa8255","transferOwnership(address)":"f2fde38b","updateBridgeFee(uint256)":"5a1c0366","updateStellarNetwork(string)":"470fb626","validateStellarAddress(string)":"eb6ad24e","wethToken()":"4b57b0be","withdrawFees()":"476343ee","wxlmToken()":"fcb6dc6e"}}}}}