{"contracts/SolanaBridge.sol":{"SolanaBridge":{"abi":[{"inputs":[{"internalType":"address","name":"_wsolToken","type":"address"},{"internalType":"address","name":"_wethToken","type":"address"}],"stateMutability":"nonpayable","type":"constructor"},{"inputs":[{"internalType":"address","name":"owner","type":"address"}],"name":"OwnableInvalidOwner","type":"error"},{"inputs":[{"internalType":"address","name":"account","type":"address"}],"name":"OwnableUnauthorizedAccount","type":"error"},{"inputs":[],"name":"ReentrancyGuardReentrantCall","type":"error"},{"anonymous":false,"inputs":[{"indexed":true,"internalType":"bytes32","name":"id","type":"bytes32"},{"indexed":true,"internalType":"address","name":"initiator","type":"address"},{"indexed":true,"internalType":"string","name":"solanaAddress","type":"string"},{"indexed":false,"internalType":"uint256","name":"amount","type":"uint256"}],"name":"Initiated","type":"event"},{"anonymous":false,"inputs":[{"indexed":true,"internalType":"address","name":"previousOwner","type":"address"},{"indexed":true,"internalType":"address","name":"newOwner","type":"address"}],"name":"OwnershipTransferred","type":"event"},{"anonymous":false,"inputs":[{"indexed":true,"internalType":"bytes32","name":"id","type":"bytes32"},{"indexed":false,"internalType":"bytes32","name":"preimage","type":"bytes32"}],"name":"Redeemed","type":"event"},{"anonymous":false,"inputs":[{"indexed":true,"internalType":"bytes32","name":"id","type":"bytes32"}],"name":"Refunded","type":"event"},{"inputs":[],"name":"MAX_BRIDGE_AMOUNT","outputs":[{"internalType":"uint256","name":"","type":"uint256"}],"stateMutability":"view","type":"function"},{"inputs":[],"name":"MIN_BRIDGE_AMOUNT","outputs":[{"internalType":"uint256","name":"","type":"uint256"}],"stateMutability":"view","type":"function"},{"inputs":[],"name":"bridgeFee","outputs":[{"internalType":"uint256","name":"","type":"uint256"}],"stateMutability":"view","type":"function"},{"inputs":[],"name":"emergencyPause","outputs":[],"stateMutability":"nonpayable","type":"function"},{"inputs":[{"internalType":"address","name":"_token","type":"address"},{"internalType":"uint256","name":"_amount","type":"uint256"}],"name":"emergencyWithdraw","outputs":[],"stateMutability":"nonpayable","type":"function"},{"inputs":[{"internalType":"bytes32","name":"id","type":"bytes32"}],"name":"getHtlc","outputs":[{"internalType":"address","name":"initiator","type":"address"},{"internalType":"string","name":"solanaAddress","type":"string"},{"internalType":"uint256","name":"amount","type":"uint256"},{"internalType":"bytes32","name":"hash","type":"bytes32"},{"internalType":"uint256","name":"timelock","type":"uint256"},{"internalType":"bool","name":"executed","type":"bool"},{"internalType":"bool","name":"refunded","type":"bool"}],"stateMutability":"view","type":"function"},{"inputs":[{"internalType":"bytes32","name":"","type":"bytes32"}],"name":"htlcs","outputs":[{"internalType":"address payable","name":"initiator","type":"address"},{"internalType":"string","name":"solanaAddress","type":"string"},{"internalType":"uint256","name":"amount","type":"uint256"},{"internalType":"bytes32","name":"hash","type":"bytes32"},{"internalType":"uint256","name":"timelock","type":"uint256"},{"internalType":"bool","name":"executed","type":"bool"},{"internalType":"bool","name":"refunded","type":"bool"}],"stateMutability":"view","type":"function"},{"inputs":[{"internalType":"bytes32","name":"id","type":"bytes32"},{"internalType":"address payable","name":"_ethereumAddress","type":"address"},{"internalType":"uint256","name":"_amount","type":"uint256"},{"internalType":"bytes32","name":"_hash","type":"bytes32"},{"internalType":"uint256","name":"_timelock","type":"uint256"}],"name":"initiateFromSolana","outputs":[],"stateMutability":"nonpayable","type":"function"},{"inputs":[{"internalType":"bytes32","name":"id","type":"bytes32"},{"internalType":"string","name":"_solanaAddress","type":"string"},{"internalType":"bytes32","name":"_hash","type":"bytes32"},{"internalType":"uint256","name":"_timelock","type":"uint256"}],"name":"initiateToSolana","outputs":[],"stateMutability":"payable","type":"function"},{"inputs":[{"internalType":"bytes32","name":"id","type":"bytes32"}],"name":"isValidHtlc","outputs":[{"internalType":"bool","name":"","type":"bool"}],"stateMutability":"view","type":"function"},{"inputs":[],"name":"owner","outputs":[{"internalType":"address","name":"","type":"address"}],"stateMutability":"view","type":"function"},{"inputs":[{"internalType":"bytes32","name":"id","type":"bytes32"},{"internalType":"bytes","name":"_preimage","type":"bytes"}],"name":"redeem","outputs":[],"stateMutability":"nonpayable","type":"function"},{"inputs":[{"internalType":"bytes32","name":"id","type":"bytes32"}],"name":"refund","outputs":[],"stateMutability":"nonpayable","type":"function"},{"inputs":[],"name":"renounceOwnership","outputs":[],"stateMutability":"nonpayable","type":"function"},{"inputs":[{"internalType":"address","name":"newOwner","type":"address"}],"name":"transferOwnership","outputs":[],"stateMutability":"nonpayable","type":"function"},{"inputs":[{"internalType":"uint256","name":"_newFee","type":"uint256"}],"name":"updateBridgeFee","outputs":[],"stateMutability":"nonpayable","type":"function"},{"inputs":[],"name":"wethToken","outputs":[{"internalType":"contract IERC20","name":"","type":"address"}],"stateMutability":"view","type":"function"},{"inputs":[],"name":"withdrawFees","outputs":[],"stateMutability":"nonpayable","type":"function"},{"inputs":[],"name":"wsolToken","outputs":[{"internalType":"contract IERC20","name":"","type":"address"}],"stateMutability":"view","type":"function"},{"stateMutability":"payable","type":"receive"}],"evm":{"bytecode":{"linkReferences":{},"object":"60c03461010a57601f61187138819003918201601f19168301916001600160401b0383118484101761010f57808492604094855283398101031261010a57610052602061004b83610125565b9201610125565b90600160005533156100f15760018054336001600160a01b031982168117909255604051936001600160a01b03939092849283167f8be0079c531659141344cd1fd0a4f28419497f9722a3daafe3b4186f6b6457e0600080a366038d7ea4c68000600355166080521660a052611737908161013a8239608051818181610276015281816104f00152818161088a0152610aeb015260a051816110920152f35b604051631e4fbdf760e01b815260006004820152602490fd5b600080fd5b634e487b7160e01b600052604160045260246000fd5b51906001600160a01b038216820361010a5756fe6080604052600436101561001b575b361561001957600080fd5b005b60003560e01c8063089c0aa4146111b857806319304e251461114e578063476343ee146110c15780634b57b0be1461107c57806351858e271461106357806355d42bb414610cc55780635a1c036614610c51578063715018a614610bf45780637249fbb6146109de5780637fce0002146109ba57806382b12dd71461099c578063886688c11461097a5780638da5cb5b1461095157806391edd8f2146108b9578063928275851461087457806395ccea67146107f7578063ab2875d014610428578063f2fde38b1461039f5763f7ff72070361000e573461039a57604036600319011261039a5760043560243567ffffffffffffffff811161039a5761012590369060040161126b565b9061012e6115ca565b8260005260209060028252604060002090600582019081549461015460ff871615611651565b61016460ff8760081c16156116a9565b600484015442101561034a576101ab859260009261019a85604051838194838301968737810187838201520380845201826112ef565b604051928392839251928391611223565b8101039060025afa15610230576000519360038301948554036103055760019060ff19161790556101df6001820154611299565b15610245576000808060028194015481811561023c575b3390f115610230577f489e9ee921192823d1aa1ef800c9ffc642993538b1e7e43a4d46a91965e894ab915b54604051908152a26001600055005b6040513d6000823e3d90fd5b506108fc6101f6565b6002015460405163a9059cbb60e01b8152336004820152602481019190915291818360448160006001600160a01b037f0000000000000000000000000000000000000000000000000000000000000000165af1928315610230577f489e9ee921192823d1aa1ef800c9ffc642993538b1e7e43a4d46a91965e894ab936102d3916000916102d8575b50611605565b610221565b6102f89150843d86116102fe575b6102f081836112ef565b8101906115ed565b386102cd565b503d6102e6565b60405162461bcd60e51b815260048101859052601e60248201527f536f6c616e614272696467653a20696e76616c696420707265696d61676500006044820152606490fd5b60405162461bcd60e51b815260048101869052602260248201527f536f6c616e614272696467653a2074696d656c6f636b20686173206578706972604482015261195960f21b6064820152608490fd5b600080fd5b3461039a57602036600319011261039a576103b86113b7565b6103c06113cd565b6001600160a01b0390811690811561040f57600154826001600160601b0360a01b821617600155167f8be0079c531659141344cd1fd0a4f28419497f9722a3daafe3b4186f6b6457e0600080a3005b604051631e4fbdf760e01b815260006004820152602490fd5b3461039a5760a036600319011261039a576001600160a01b036024358181169081900361039a57606435906084359061045f6115ca565b600435600052600260205261047b8460406000205416156113f9565b610490662386f26fc10000604435101561145c565b6104a7683635c9adc5dea0000060443511156114a8565b156107a3576104b78215156114f4565b6104c4610e108211611540565b6040516323b872dd60e01b815233600482015230602482015260448035908201529060208260648160007f000000000000000000000000000000000000000000000000000000000000000089165af1918215610230576105359261052f916000916107845750611605565b426115a7565b9060405191610543836112d3565b33835260405190602082019267ffffffffffffffff938381108582111761076e576040526000835260208501928352604435604086015260608501526080840152600060a0840152600060c084015260043560005260026020526040600020938351166001600160601b0360a01b85541617845551805191821161076e576105ce6001850154611299565b601f8111610727575b50602090601f83116001146106af57938260c093600593610666976000926106a4575b50508160011b916000199060031b1c19161760018201555b604084015160028201556060840151600382015560808401516004820155019161064e60a08201511515849060ff801983541691151516179055565b0151815461ff00191690151560081b61ff0016179055565b6040516000802090604435815233907f2a241314f1721916d74a645f65e364f43169e7aa07961dc76ae071f3b911cf59602060043592a46001600055005b0151905087806105fa565b906001850160005260206000209160005b601f198516811061070f575083600593610666979360019360c097601f198116106106f6575b505050811b016001820155610612565b015160001960f88460031b161c191690558780806106e6565b919260206001819286850151815501940192016106c0565b600185016000526020600020601f840160051c810160208510610767575b601f830160051c8201811061075b5750506105d7565b60008155600101610745565b5080610745565b634e487b7160e01b600052604160045260246000fd5b61079d915060203d6020116102fe576102f081836112ef565b866102cd565b60405162461bcd60e51b815260206004820152602660248201527f536f6c616e614272696467653a20696e76616c696420457468657265756d206160448201526564647265737360d01b6064820152608490fd5b3461039a57604036600319011261039a576108106113b7565b6108186113cd565b60015460405163a9059cbb60e01b81526001600160a01b03918216600482015260248035908201529160209183916044918391600091165af180156102305761085d57005b6100199060203d81116102fe576102f081836112ef565b3461039a57600036600319011261039a576040517f00000000000000000000000000000000000000000000000000000000000000006001600160a01b03168152602090f35b3461039a57602036600319011261039a57600435600090815260026020526040902080546001600160a01b03166108f260018301611311565b9160ff6002820154916003810154906005600482015491015491610928604051978897885260e0602089015260e0880190611246565b94604087015260608601526080850152818116151560a085015260081c16151560c08301520390f35b3461039a57600036600319011261039a576001546040516001600160a01b039091168152602090f35b3461039a57600036600319011261039a576020604051662386f26fc100008152f35b3461039a57600036600319011261039a576020600354604051908152f35b3461039a57600036600319011261039a57602060405168056bc75e2d631000008152f35b3461039a5760208060031936011261039a57600435906109fc6115ca565b60008281526002825260409020805490916001600160a01b03918216338103610b9d57600584018054610a3260ff821615611651565b610a4260ff8260081c16156116a9565b60048601544210610b495761ff0019166101001790556001840154610a6690611299565b15610ac25750506000808360028295948395541691015490828215610ab9575bf115610230575b7ffe509803c09416b28ff3d8f690c8b0c61462a892c46d5430c8fb20abe472daf0600080a26001600055005b506108fc610a86565b6044600283950154916000604051958694859363a9059cbb60e01b8552600485015260248401527f0000000000000000000000000000000000000000000000000000000000000000165af190811561023057610b2792600092610b2c575b5050611605565b610a8d565b610b429250803d106102fe576102f081836112ef565b8380610b20565b60405162461bcd60e51b815260048101859052602660248201527f536f6c616e614272696467653a2074696d656c6f636b20686173206e6f7420656044820152651e1c1a5c995960d21b6064820152608490fd5b60405162461bcd60e51b815260048101839052602960248201527f536f6c616e614272696467653a2063616c6c6572206973206e6f74207468652060448201526834b734ba34b0ba37b960b91b6064820152608490fd5b3461039a57600036600319011261039a57610c0d6113cd565b600180546001600160a01b031981169091556000906001600160a01b03167f8be0079c531659141344cd1fd0a4f28419497f9722a3daafe3b4186f6b6457e08280a3005b3461039a57602036600319011261039a57600435610c6d6113cd565b662386f26fc100008111610c8057600355005b60405162461bcd60e51b815260206004820152601a60248201527f536f6c616e614272696467653a2066656520746f6f20686967680000000000006044820152606490fd5b608036600319011261039a576024803567ffffffffffffffff811161039a57610cf290369060040161126b565b9060443560643593610d026115ca565b600435600052600260205260018060a01b0390610d268260406000205416156113f9565b610d39662386f26fc1000034101561145c565b610d4e68056bc75e2d631000003411156114a8565b841561101357610d5f8315156114f4565b610d6c610e108711611540565b600354340395348711610ffe57610d8390426115a7565b9260405193610d91856112d3565b33855267ffffffffffffffff8711610fe95760405191610dbb601f8901601f1916602001846112ef565b878352368888011161039a57878760208501376000602089850101526020860192835288604087015260608601526080850152600060a0850152600060c085015260043560005260026020526040600020928451166001600160601b0360a01b8454161783555180519167ffffffffffffffff8311610fd55750610e426001840154611299565b601f8111610f8e575b50602090601f8311600114610f1657928260c093600593610ec19796600092610f0b5750508160011b916000199060031b1c1916176001820155604084015160028201556060840151600382015560808401516004820155019161064e60a08201511515849060ff801983541691151516179055565b8160405192839283378101600081520390209060405190815233907f2a241314f1721916d74a645f65e364f43169e7aa07961dc76ae071f3b911cf59602060043592a46001600055005b015190508a806105fa565b906001840160005260206000209160005b601f1985168110610f76575083600593610ec197969360019360c097601f19811610610f5d57505050811b016001820155610612565b015160001960f88460031b161c191690558a80806106e6565b91926020600181928685015181550194019201610f27565b600184016000526020600020601f840160051c810160208510610fce575b601f830160051c82018110610fc2575050610e4b565b60008155600101610fac565b5080610fac565b634e487b7160e01b60009081526041600452fd5b82634e487b7160e01b60005260416004526000fd5b50634e487b7160e01b60009081526011600452fd5b6084906040519062461bcd60e51b825260206004830152808201527f536f6c616e614272696467653a20696e76616c696420536f6c616e61206164646044820152637265737360e01b6064820152fd5b3461039a57600036600319011261039a576100196113cd565b3461039a57600036600319011261039a576040517f00000000000000000000000000000000000000000000000000000000000000006001600160a01b03168152602090f35b3461039a57600036600319011261039a576110da6113cd565b4780156110ff576001546000918291829182916001600160a01b031682f11561023057005b60405162461bcd60e51b815260206004820152602160248201527f536f6c616e614272696467653a206e6f206665657320746f20776974686472616044820152607760f81b6064820152608490fd5b3461039a57602036600319011261039a5760043560005260026020526020604060002060018060a01b03815416151590816111a8575b81611195575b506040519015158152f35b60ff91506005015460081c16158261118a565b600581015460ff16159150611184565b3461039a57602036600319011261039a576004356000526002602052604060002060018060a01b03815416600282015460ff6003840154936004810154611206600160058401549301611311565b95610928604051978897885260e0602089015260e0880190611246565b60005b8381106112365750506000910152565b8181015183820152602001611226565b9060209161125f81518092818552858086019101611223565b601f01601f1916010190565b9181601f8401121561039a5782359167ffffffffffffffff831161039a576020838186019501011161039a57565b90600182811c921680156112c9575b60208310146112b357565b634e487b7160e01b600052602260045260246000fd5b91607f16916112a8565b60e0810190811067ffffffffffffffff82111761076e57604052565b90601f8019910116810190811067ffffffffffffffff82111761076e57604052565b906040519182600082549261132584611299565b9081845260019485811690816000146113945750600114611351575b505061134f925003836112ef565b565b9093915060005260209081600020936000915b81831061137c57505061134f93508201013880611341565b85548884018501529485019487945091830191611364565b91505061134f94506020925060ff191682840152151560051b8201013880611341565b600435906001600160a01b038216820361039a57565b6001546001600160a01b031633036113e157565b60405163118cdaa760e01b8152336004820152602490fd5b1561140057565b60405162461bcd60e51b815260206004820152602e60248201527f536f6c616e614272696467653a2073776170207769746820746869732069642060448201526d616c72656164792065786973747360901b6064820152608490fd5b1561146357565b60405162461bcd60e51b815260206004820152601c60248201527f536f6c616e614272696467653a20616d6f756e7420746f6f206c6f77000000006044820152606490fd5b156114af57565b60405162461bcd60e51b815260206004820152601d60248201527f536f6c616e614272696467653a20616d6f756e7420746f6f20686967680000006044820152606490fd5b156114fb57565b60405162461bcd60e51b815260206004820152601a60248201527f536f6c616e614272696467653a20696e76616c696420686173680000000000006044820152606490fd5b1561154757565b60405162461bcd60e51b815260206004820152603260248201527f536f6c616e614272696467653a2074696d656c6f636b206d75737420626520676044820152713932b0ba32b9103a3430b71018903437bab960711b6064820152608490fd5b919082018092116115b457565b634e487b7160e01b600052601160045260246000fd5b6002600054146115db576002600055565b604051633ee5aeb560e01b8152600490fd5b9081602091031261039a5751801515810361039a5790565b1561160c57565b60405162461bcd60e51b815260206004820152601d60248201527f536f6c616e614272696467653a207472616e73666572206661696c65640000006044820152606490fd5b1561165857565b60405162461bcd60e51b815260206004820152602360248201527f536f6c616e614272696467653a207377617020616c72656164792065786563756044820152621d195960ea1b6064820152608490fd5b156116b057565b60405162461bcd60e51b815260206004820152602360248201527f536f6c616e614272696467653a207377617020616c726561647920726566756e60448201526219195960ea1b6064820152608490fdfea2646970667358221220e03dff7a339890f9a22e47cc415a52f2c79a3ab270de542ff647278cce9c71bc64736f6c63430008140033","opcodes":"PUSH1 0xC0 CALLVALUE PUSH2 0x10A JUMPI PUSH1 0x1F PUSH2 0x1871 CODESIZE DUP2 SWAP1 SUB SWAP2 DUP3 ADD PUSH1 0x1F NOT AND DUP4 ADD SWAP2 PUSH1 0x1 PUSH1 0x1 PUSH1 0x40 SHL SUB DUP4 GT DUP5 DUP5 LT OR PUSH2 0x10F JUMPI DUP1 DUP5 SWAP3 PUSH1 0x40 SWAP5 DUP6 MSTORE DUP4 CODECOPY DUP2 ADD SUB SLT PUSH2 0x10A JUMPI PUSH2 0x52 PUSH1 0x20 PUSH2 0x4B DUP4 PUSH2 0x125 JUMP JUMPDEST SWAP3 ADD PUSH2 0x125 JUMP JUMPDEST SWAP1 PUSH1 0x1 PUSH1 0x0 SSTORE CALLER ISZERO PUSH2 0xF1 JUMPI PUSH1 0x1 DUP1 SLOAD CALLER PUSH1 0x1 PUSH1 0x1 PUSH1 0xA0 SHL SUB NOT DUP3 AND DUP2 OR SWAP1 SWAP3 SSTORE PUSH1 0x40 MLOAD SWAP4 PUSH1 0x1 PUSH1 0x1 PUSH1 0xA0 SHL SUB SWAP4 SWAP1 SWAP3 DUP5 SWAP3 DUP4 AND PUSH32 0x8BE0079C531659141344CD1FD0A4F28419497F9722A3DAAFE3B4186F6B6457E0 PUSH1 0x0 DUP1 LOG3 PUSH7 0x38D7EA4C68000 PUSH1 0x3 SSTORE AND PUSH1 0x80 MSTORE AND PUSH1 0xA0 MSTORE PUSH2 0x1737 SWAP1 DUP2 PUSH2 0x13A DUP3 CODECOPY PUSH1 0x80 MLOAD DUP2 DUP2 DUP2 PUSH2 0x276 ADD MSTORE DUP2 DUP2 PUSH2 0x4F0 ADD MSTORE DUP2 DUP2 PUSH2 0x88A ADD MSTORE PUSH2 0xAEB ADD MSTORE PUSH1 0xA0 MLOAD DUP2 PUSH2 0x1092 ADD MSTORE RETURN JUMPDEST PUSH1 0x40 MLOAD PUSH4 0x1E4FBDF7 PUSH1 0xE0 SHL DUP2 MSTORE PUSH1 0x0 PUSH1 0x4 DUP3 ADD MSTORE PUSH1 0x24 SWAP1 REVERT JUMPDEST PUSH1 0x0 DUP1 REVERT JUMPDEST PUSH4 0x4E487B71 PUSH1 0xE0 SHL PUSH1 0x0 MSTORE PUSH1 0x41 PUSH1 0x4 MSTORE PUSH1 0x24 PUSH1 0x0 REVERT JUMPDEST MLOAD SWAP1 PUSH1 0x1 PUSH1 0x1 PUSH1 0xA0 SHL SUB DUP3 AND DUP3 SUB PUSH2 0x10A JUMPI JUMP INVALID PUSH1 0x80 PUSH1 0x40 MSTORE PUSH1 0x4 CALLDATASIZE LT ISZERO PUSH2 0x1B JUMPI JUMPDEST CALLDATASIZE ISZERO PUSH2 0x19 JUMPI PUSH1 0x0 DUP1 REVERT JUMPDEST STOP JUMPDEST PUSH1 0x0 CALLDATALOAD PUSH1 0xE0 SHR DUP1 PUSH4 0x89C0AA4 EQ PUSH2 0x11B8 JUMPI DUP1 PUSH4 0x19304E25 EQ PUSH2 0x114E JUMPI DUP1 PUSH4 0x476343EE EQ PUSH2 0x10C1 JUMPI DUP1 PUSH4 0x4B57B0BE EQ PUSH2 0x107C JUMPI DUP1 PUSH4 0x51858E27 EQ PUSH2 0x1063 JUMPI DUP1 PUSH4 0x55D42BB4 EQ PUSH2 0xCC5 JUMPI DUP1 PUSH4 0x5A1C0366 EQ PUSH2 0xC51 JUMPI DUP1 PUSH4 0x715018A6 EQ PUSH2 0xBF4 JUMPI DUP1 PUSH4 0x7249FBB6 EQ PUSH2 0x9DE JUMPI DUP1 PUSH4 0x7FCE0002 EQ PUSH2 0x9BA JUMPI DUP1 PUSH4 0x82B12DD7 EQ PUSH2 0x99C JUMPI DUP1 PUSH4 0x886688C1 EQ PUSH2 0x97A JUMPI DUP1 PUSH4 0x8DA5CB5B EQ PUSH2 0x951 JUMPI DUP1 PUSH4 0x91EDD8F2 EQ PUSH2 0x8B9 JUMPI DUP1 PUSH4 0x92827585 EQ PUSH2 0x874 JUMPI DUP1 PUSH4 0x95CCEA67 EQ PUSH2 0x7F7 JUMPI DUP1 PUSH4 0xAB2875D0 EQ PUSH2 0x428 JUMPI DUP1 PUSH4 0xF2FDE38B EQ PUSH2 0x39F JUMPI PUSH4 0xF7FF7207 SUB PUSH2 0xE JUMPI CALLVALUE PUSH2 0x39A JUMPI PUSH1 0x40 CALLDATASIZE PUSH1 0x3 NOT ADD SLT PUSH2 0x39A JUMPI PUSH1 0x4 CALLDATALOAD PUSH1 0x24 CALLDATALOAD PUSH8 0xFFFFFFFFFFFFFFFF DUP2 GT PUSH2 0x39A JUMPI PUSH2 0x125 SWAP1 CALLDATASIZE SWAP1 PUSH1 0x4 ADD PUSH2 0x126B JUMP JUMPDEST SWAP1 PUSH2 0x12E PUSH2 0x15CA JUMP JUMPDEST DUP3 PUSH1 0x0 MSTORE PUSH1 0x20 SWAP1 PUSH1 0x2 DUP3 MSTORE PUSH1 0x40 PUSH1 0x0 KECCAK256 SWAP1 PUSH1 0x5 DUP3 ADD SWAP1 DUP2 SLOAD SWAP5 PUSH2 0x154 PUSH1 0xFF DUP8 AND ISZERO PUSH2 0x1651 JUMP JUMPDEST PUSH2 0x164 PUSH1 0xFF DUP8 PUSH1 0x8 SHR AND ISZERO PUSH2 0x16A9 JUMP JUMPDEST PUSH1 0x4 DUP5 ADD SLOAD TIMESTAMP LT ISZERO PUSH2 0x34A JUMPI PUSH2 0x1AB DUP6 SWAP3 PUSH1 0x0 SWAP3 PUSH2 0x19A DUP6 PUSH1 0x40 MLOAD DUP4 DUP2 SWAP5 DUP4 DUP4 ADD SWAP7 DUP8 CALLDATACOPY DUP2 ADD DUP8 DUP4 DUP3 ADD MSTORE SUB DUP1 DUP5 MSTORE ADD DUP3 PUSH2 0x12EF JUMP JUMPDEST PUSH1 0x40 MLOAD SWAP3 DUP4 SWAP3 DUP4 SWAP3 MLOAD SWAP3 DUP4 SWAP2 PUSH2 0x1223 JUMP JUMPDEST DUP2 ADD SUB SWAP1 PUSH1 0x2 GAS STATICCALL ISZERO PUSH2 0x230 JUMPI PUSH1 0x0 MLOAD SWAP4 PUSH1 0x3 DUP4 ADD SWAP5 DUP6 SLOAD SUB PUSH2 0x305 JUMPI PUSH1 0x1 SWAP1 PUSH1 0xFF NOT AND OR SWAP1 SSTORE PUSH2 0x1DF PUSH1 0x1 DUP3 ADD SLOAD PUSH2 0x1299 JUMP JUMPDEST ISZERO PUSH2 0x245 JUMPI PUSH1 0x0 DUP1 DUP1 PUSH1 0x2 DUP2 SWAP5 ADD SLOAD DUP2 DUP2 ISZERO PUSH2 0x23C JUMPI JUMPDEST CALLER SWAP1 CALL ISZERO PUSH2 0x230 JUMPI PUSH32 0x489E9EE921192823D1AA1EF800C9FFC642993538B1E7E43A4D46A91965E894AB SWAP2 JUMPDEST SLOAD PUSH1 0x40 MLOAD SWAP1 DUP2 MSTORE LOG2 PUSH1 0x1 PUSH1 0x0 SSTORE STOP JUMPDEST PUSH1 0x40 MLOAD RETURNDATASIZE PUSH1 0x0 DUP3 RETURNDATACOPY RETURNDATASIZE SWAP1 REVERT JUMPDEST POP PUSH2 0x8FC PUSH2 0x1F6 JUMP JUMPDEST PUSH1 0x2 ADD SLOAD PUSH1 0x40 MLOAD PUSH4 0xA9059CBB PUSH1 0xE0 SHL DUP2 MSTORE CALLER PUSH1 0x4 DUP3 ADD MSTORE PUSH1 0x24 DUP2 ADD SWAP2 SWAP1 SWAP2 MSTORE SWAP2 DUP2 DUP4 PUSH1 0x44 DUP2 PUSH1 0x0 PUSH1 0x1 PUSH1 0x1 PUSH1 0xA0 SHL SUB PUSH32 0x0 AND GAS CALL SWAP3 DUP4 ISZERO PUSH2 0x230 JUMPI PUSH32 0x489E9EE921192823D1AA1EF800C9FFC642993538B1E7E43A4D46A91965E894AB SWAP4 PUSH2 0x2D3 SWAP2 PUSH1 0x0 SWAP2 PUSH2 0x2D8 JUMPI JUMPDEST POP PUSH2 0x1605 JUMP JUMPDEST PUSH2 0x221 JUMP JUMPDEST PUSH2 0x2F8 SWAP2 POP DUP5 RETURNDATASIZE DUP7 GT PUSH2 0x2FE JUMPI JUMPDEST PUSH2 0x2F0 DUP2 DUP4 PUSH2 0x12EF JUMP JUMPDEST DUP2 ADD SWAP1 PUSH2 0x15ED JUMP JUMPDEST CODESIZE PUSH2 0x2CD JUMP JUMPDEST POP RETURNDATASIZE PUSH2 0x2E6 JUMP JUMPDEST PUSH1 0x40 MLOAD PUSH3 0x461BCD PUSH1 0xE5 SHL DUP2 MSTORE PUSH1 0x4 DUP2 ADD DUP6 SWAP1 MSTORE PUSH1 0x1E PUSH1 0x24 DUP3 ADD MSTORE PUSH32 0x536F6C616E614272696467653A20696E76616C696420707265696D6167650000 PUSH1 0x44 DUP3 ADD MSTORE PUSH1 0x64 SWAP1 REVERT JUMPDEST PUSH1 0x40 MLOAD PUSH3 0x461BCD PUSH1 0xE5 SHL DUP2 MSTORE PUSH1 0x4 DUP2 ADD DUP7 SWAP1 MSTORE PUSH1 0x22 PUSH1 0x24 DUP3 ADD MSTORE PUSH32 0x536F6C616E614272696467653A2074696D656C6F636B20686173206578706972 PUSH1 0x44 DUP3 ADD MSTORE PUSH2 0x1959 PUSH1 0xF2 SHL PUSH1 0x64 DUP3 ADD MSTORE PUSH1 0x84 SWAP1 REVERT JUMPDEST PUSH1 0x0 DUP1 REVERT JUMPDEST CALLVALUE PUSH2 0x39A JUMPI PUSH1 0x20 CALLDATASIZE PUSH1 0x3 NOT ADD SLT PUSH2 0x39A JUMPI PUSH2 0x3B8 PUSH2 0x13B7 JUMP JUMPDEST PUSH2 0x3C0 PUSH2 0x13CD JUMP JUMPDEST PUSH1 0x1 PUSH1 0x1 PUSH1 0xA0 SHL SUB SWAP1 DUP2 AND SWAP1 DUP2 ISZERO PUSH2 0x40F JUMPI PUSH1 0x1 SLOAD DUP3 PUSH1 0x1 PUSH1 0x1 PUSH1 0x60 SHL SUB PUSH1 0xA0 SHL DUP3 AND OR PUSH1 0x1 SSTORE AND PUSH32 0x8BE0079C531659141344CD1FD0A4F28419497F9722A3DAAFE3B4186F6B6457E0 PUSH1 0x0 DUP1 LOG3 STOP JUMPDEST PUSH1 0x40 MLOAD PUSH4 0x1E4FBDF7 PUSH1 0xE0 SHL DUP2 MSTORE PUSH1 0x0 PUSH1 0x4 DUP3 ADD MSTORE PUSH1 0x24 SWAP1 REVERT JUMPDEST CALLVALUE PUSH2 0x39A JUMPI PUSH1 0xA0 CALLDATASIZE PUSH1 0x3 NOT ADD SLT PUSH2 0x39A JUMPI PUSH1 0x1 PUSH1 0x1 PUSH1 0xA0 SHL SUB PUSH1 0x24 CALLDATALOAD DUP2 DUP2 AND SWAP1 DUP2 SWAP1 SUB PUSH2 0x39A JUMPI PUSH1 0x64 CALLDATALOAD SWAP1 PUSH1 0x84 CALLDATALOAD SWAP1 PUSH2 0x45F PUSH2 0x15CA JUMP JUMPDEST PUSH1 0x4 CALLDATALOAD PUSH1 0x0 MSTORE PUSH1 0x2 PUSH1 0x20 MSTORE PUSH2 0x47B DUP5 PUSH1 0x40 PUSH1 0x0 KECCAK256 SLOAD AND ISZERO PUSH2 0x13F9 JUMP JUMPDEST PUSH2 0x490 PUSH7 0x2386F26FC10000 PUSH1 0x44 CALLDATALOAD LT ISZERO PUSH2 0x145C JUMP JUMPDEST PUSH2 0x4A7 PUSH9 0x3635C9ADC5DEA00000 PUSH1 0x44 CALLDATALOAD GT ISZERO PUSH2 0x14A8 JUMP JUMPDEST ISZERO PUSH2 0x7A3 JUMPI PUSH2 0x4B7 DUP3 ISZERO ISZERO PUSH2 0x14F4 JUMP JUMPDEST PUSH2 0x4C4 PUSH2 0xE10 DUP3 GT PUSH2 0x1540 JUMP JUMPDEST PUSH1 0x40 MLOAD PUSH4 0x23B872DD PUSH1 0xE0 SHL DUP2 MSTORE CALLER PUSH1 0x4 DUP3 ADD MSTORE ADDRESS PUSH1 0x24 DUP3 ADD MSTORE PUSH1 0x44 DUP1 CALLDATALOAD SWAP1 DUP3 ADD MSTORE SWAP1 PUSH1 0x20 DUP3 PUSH1 0x64 DUP2 PUSH1 0x0 PUSH32 0x0 DUP10 AND GAS CALL SWAP2 DUP3 ISZERO PUSH2 0x230 JUMPI PUSH2 0x535 SWAP3 PUSH2 0x52F SWAP2 PUSH1 0x0 SWAP2 PUSH2 0x784 JUMPI POP PUSH2 0x1605 JUMP JUMPDEST TIMESTAMP PUSH2 0x15A7 JUMP JUMPDEST SWAP1 PUSH1 0x40 MLOAD SWAP2 PUSH2 0x543 DUP4 PUSH2 0x12D3 JUMP JUMPDEST CALLER DUP4 MSTORE PUSH1 0x40 MLOAD SWAP1 PUSH1 0x20 DUP3 ADD SWAP3 PUSH8 0xFFFFFFFFFFFFFFFF SWAP4 DUP4 DUP2 LT DUP6 DUP3 GT OR PUSH2 0x76E JUMPI PUSH1 0x40 MSTORE PUSH1 0x0 DUP4 MSTORE PUSH1 0x20 DUP6 ADD SWAP3 DUP4 MSTORE PUSH1 0x44 CALLDATALOAD PUSH1 0x40 DUP7 ADD MSTORE PUSH1 0x60 DUP6 ADD MSTORE PUSH1 0x80 DUP5 ADD MSTORE PUSH1 0x0 PUSH1 0xA0 DUP5 ADD MSTORE PUSH1 0x0 PUSH1 0xC0 DUP5 ADD MSTORE PUSH1 0x4 CALLDATALOAD PUSH1 0x0 MSTORE PUSH1 0x2 PUSH1 0x20 MSTORE PUSH1 0x40 PUSH1 0x0 KECCAK256 SWAP4 DUP4 MLOAD AND PUSH1 0x1 PUSH1 0x1 PUSH1 0x60 SHL SUB PUSH1 0xA0 SHL DUP6 SLOAD AND OR DUP5 SSTORE MLOAD DUP1 MLOAD SWAP2 DUP3 GT PUSH2 0x76E JUMPI PUSH2 0x5CE PUSH1 0x1 DUP6 ADD SLOAD PUSH2 0x1299 JUMP JUMPDEST PUSH1 0x1F DUP2 GT PUSH2 0x727 JUMPI JUMPDEST POP PUSH1 0x20 SWAP1 PUSH1 0x1F DUP4 GT PUSH1 0x1 EQ PUSH2 0x6AF JUMPI SWAP4 DUP3 PUSH1 0xC0 SWAP4 PUSH1 0x5 SWAP4 PUSH2 0x666 SWAP8 PUSH1 0x0 SWAP3 PUSH2 0x6A4 JUMPI JUMPDEST POP POP DUP2 PUSH1 0x1 SHL SWAP2 PUSH1 0x0 NOT SWAP1 PUSH1 0x3 SHL SHR NOT AND OR PUSH1 0x1 DUP3 ADD SSTORE JUMPDEST PUSH1 0x40 DUP5 ADD MLOAD PUSH1 0x2 DUP3 ADD SSTORE PUSH1 0x60 DUP5 ADD MLOAD PUSH1 0x3 DUP3 ADD SSTORE PUSH1 0x80 DUP5 ADD MLOAD PUSH1 0x4 DUP3 ADD SSTORE ADD SWAP2 PUSH2 0x64E PUSH1 0xA0 DUP3 ADD MLOAD ISZERO ISZERO DUP5 SWAP1 PUSH1 0xFF DUP1 NOT DUP4 SLOAD AND SWAP2 ISZERO ISZERO AND OR SWAP1 SSTORE JUMP JUMPDEST ADD MLOAD DUP2 SLOAD PUSH2 0xFF00 NOT AND SWAP1 ISZERO ISZERO PUSH1 0x8 SHL PUSH2 0xFF00 AND OR SWAP1 SSTORE JUMP JUMPDEST PUSH1 0x40 MLOAD PUSH1 0x0 DUP1 KECCAK256 SWAP1 PUSH1 0x44 CALLDATALOAD DUP2 MSTORE CALLER SWAP1 PUSH32 0x2A241314F1721916D74A645F65E364F43169E7AA07961DC76AE071F3B911CF59 PUSH1 0x20 PUSH1 0x4 CALLDATALOAD SWAP3 LOG4 PUSH1 0x1 PUSH1 0x0 SSTORE STOP JUMPDEST ADD MLOAD SWAP1 POP DUP8 DUP1 PUSH2 0x5FA JUMP JUMPDEST SWAP1 PUSH1 0x1 DUP6 ADD PUSH1 0x0 MSTORE PUSH1 0x20 PUSH1 0x0 KECCAK256 SWAP2 PUSH1 0x0 JUMPDEST PUSH1 0x1F NOT DUP6 AND DUP2 LT PUSH2 0x70F JUMPI POP DUP4 PUSH1 0x5 SWAP4 PUSH2 0x666 SWAP8 SWAP4 PUSH1 0x1 SWAP4 PUSH1 0xC0 SWAP8 PUSH1 0x1F NOT DUP2 AND LT PUSH2 0x6F6 JUMPI JUMPDEST POP POP POP DUP2 SHL ADD PUSH1 0x1 DUP3 ADD SSTORE PUSH2 0x612 JUMP JUMPDEST ADD MLOAD PUSH1 0x0 NOT PUSH1 0xF8 DUP5 PUSH1 0x3 SHL AND SHR NOT AND SWAP1 SSTORE DUP8 DUP1 DUP1 PUSH2 0x6E6 JUMP JUMPDEST SWAP2 SWAP3 PUSH1 0x20 PUSH1 0x1 DUP2 SWAP3 DUP7 DUP6 ADD MLOAD DUP2 SSTORE ADD SWAP5 ADD SWAP3 ADD PUSH2 0x6C0 JUMP JUMPDEST PUSH1 0x1 DUP6 ADD PUSH1 0x0 MSTORE PUSH1 0x20 PUSH1 0x0 KECCAK256 PUSH1 0x1F DUP5 ADD PUSH1 0x5 SHR DUP2 ADD PUSH1 0x20 DUP6 LT PUSH2 0x767 JUMPI JUMPDEST PUSH1 0x1F DUP4 ADD PUSH1 0x5 SHR DUP3 ADD DUP2 LT PUSH2 0x75B JUMPI POP POP PUSH2 0x5D7 JUMP JUMPDEST PUSH1 0x0 DUP2 SSTORE PUSH1 0x1 ADD PUSH2 0x745 JUMP JUMPDEST POP DUP1 PUSH2 0x745 JUMP JUMPDEST PUSH4 0x4E487B71 PUSH1 0xE0 SHL PUSH1 0x0 MSTORE PUSH1 0x41 PUSH1 0x4 MSTORE PUSH1 0x24 PUSH1 0x0 REVERT JUMPDEST PUSH2 0x79D SWAP2 POP PUSH1 0x20 RETURNDATASIZE PUSH1 0x20 GT PUSH2 0x2FE JUMPI PUSH2 0x2F0 DUP2 DUP4 PUSH2 0x12EF JUMP JUMPDEST DUP7 PUSH2 0x2CD JUMP JUMPDEST PUSH1 0x40 MLOAD PUSH3 0x461BCD PUSH1 0xE5 SHL DUP2 MSTORE PUSH1 0x20 PUSH1 0x4 DUP3 ADD MSTORE PUSH1 0x26 PUSH1 0x24 DUP3 ADD MSTORE PUSH32 0x536F6C616E614272696467653A20696E76616C696420457468657265756D2061 PUSH1 0x44 DUP3 ADD MSTORE PUSH6 0x646472657373 PUSH1 0xD0 SHL PUSH1 0x64 DUP3 ADD MSTORE PUSH1 0x84 SWAP1 REVERT JUMPDEST CALLVALUE PUSH2 0x39A JUMPI PUSH1 0x40 CALLDATASIZE PUSH1 0x3 NOT ADD SLT PUSH2 0x39A JUMPI PUSH2 0x810 PUSH2 0x13B7 JUMP JUMPDEST PUSH2 0x818 PUSH2 0x13CD JUMP JUMPDEST PUSH1 0x1 SLOAD PUSH1 0x40 MLOAD PUSH4 0xA9059CBB PUSH1 0xE0 SHL DUP2 MSTORE PUSH1 0x1 PUSH1 0x1 PUSH1 0xA0 SHL SUB SWAP2 DUP3 AND PUSH1 0x4 DUP3 ADD MSTORE PUSH1 0x24 DUP1 CALLDATALOAD SWAP1 DUP3 ADD MSTORE SWAP2 PUSH1 0x20 SWAP2 DUP4 SWAP2 PUSH1 0x44 SWAP2 DUP4 SWAP2 PUSH1 0x0 SWAP2 AND GAS CALL DUP1 ISZERO PUSH2 0x230 JUMPI PUSH2 0x85D JUMPI STOP JUMPDEST PUSH2 0x19 SWAP1 PUSH1 0x20 RETURNDATASIZE DUP2 GT PUSH2 0x2FE JUMPI PUSH2 0x2F0 DUP2 DUP4 PUSH2 0x12EF JUMP JUMPDEST CALLVALUE PUSH2 0x39A JUMPI PUSH1 0x0 CALLDATASIZE PUSH1 0x3 NOT ADD SLT PUSH2 0x39A JUMPI PUSH1 0x40 MLOAD PUSH32 0x0 PUSH1 0x1 PUSH1 0x1 PUSH1 0xA0 SHL SUB AND DUP2 MSTORE PUSH1 0x20 SWAP1 RETURN JUMPDEST CALLVALUE PUSH2 0x39A JUMPI PUSH1 0x20 CALLDATASIZE PUSH1 0x3 NOT ADD SLT PUSH2 0x39A JUMPI PUSH1 0x4 CALLDATALOAD PUSH1 0x0 SWAP1 DUP2 MSTORE PUSH1 0x2 PUSH1 0x20 MSTORE PUSH1 0x40 SWAP1 KECCAK256 DUP1 SLOAD PUSH1 0x1 PUSH1 0x1 PUSH1 0xA0 SHL SUB AND PUSH2 0x8F2 PUSH1 0x1 DUP4 ADD PUSH2 0x1311 JUMP JUMPDEST SWAP2 PUSH1 0xFF PUSH1 0x2 DUP3 ADD SLOAD SWAP2 PUSH1 0x3 DUP2 ADD SLOAD SWAP1 PUSH1 0x5 PUSH1 0x4 DUP3 ADD SLOAD SWAP2 ADD SLOAD SWAP2 PUSH2 0x928 PUSH1 0x40 MLOAD SWAP8 DUP9 SWAP8 DUP9 MSTORE PUSH1 0xE0 PUSH1 0x20 DUP10 ADD MSTORE PUSH1 0xE0 DUP9 ADD SWAP1 PUSH2 0x1246 JUMP JUMPDEST SWAP5 PUSH1 0x40 DUP8 ADD MSTORE PUSH1 0x60 DUP7 ADD MSTORE PUSH1 0x80 DUP6 ADD MSTORE DUP2 DUP2 AND ISZERO ISZERO PUSH1 0xA0 DUP6 ADD MSTORE PUSH1 0x8 SHR AND ISZERO ISZERO PUSH1 0xC0 DUP4 ADD MSTORE SUB SWAP1 RETURN JUMPDEST CALLVALUE PUSH2 0x39A JUMPI PUSH1 0x0 CALLDATASIZE PUSH1 0x3 NOT ADD SLT PUSH2 0x39A JUMPI PUSH1 0x1 SLOAD PUSH1 0x40 MLOAD PUSH1 0x1 PUSH1 0x1 PUSH1 0xA0 SHL SUB SWAP1 SWAP2 AND DUP2 MSTORE PUSH1 0x20 SWAP1 RETURN JUMPDEST CALLVALUE PUSH2 0x39A JUMPI PUSH1 0x0 CALLDATASIZE PUSH1 0x3 NOT ADD SLT PUSH2 0x39A JUMPI PUSH1 0x20 PUSH1 0x40 MLOAD PUSH7 0x2386F26FC10000 DUP2 MSTORE RETURN JUMPDEST CALLVALUE PUSH2 0x39A JUMPI PUSH1 0x0 CALLDATASIZE PUSH1 0x3 NOT ADD SLT PUSH2 0x39A JUMPI PUSH1 0x20 PUSH1 0x3 SLOAD PUSH1 0x40 MLOAD SWAP1 DUP2 MSTORE RETURN JUMPDEST CALLVALUE PUSH2 0x39A JUMPI PUSH1 0x0 CALLDATASIZE PUSH1 0x3 NOT ADD SLT PUSH2 0x39A JUMPI PUSH1 0x20 PUSH1 0x40 MLOAD PUSH9 0x56BC75E2D63100000 DUP2 MSTORE RETURN JUMPDEST CALLVALUE PUSH2 0x39A JUMPI PUSH1 0x20 DUP1 PUSH1 0x3 NOT CALLDATASIZE ADD SLT PUSH2 0x39A JUMPI PUSH1 0x4 CALLDATALOAD SWAP1 PUSH2 0x9FC PUSH2 0x15CA JUMP JUMPDEST PUSH1 0x0 DUP3 DUP2 MSTORE PUSH1 0x2 DUP3 MSTORE PUSH1 0x40 SWAP1 KECCAK256 DUP1 SLOAD SWAP1 SWAP2 PUSH1 0x1 PUSH1 0x1 PUSH1 0xA0 SHL SUB SWAP2 DUP3 AND CALLER DUP2 SUB PUSH2 0xB9D JUMPI PUSH1 0x5 DUP5 ADD DUP1 SLOAD PUSH2 0xA32 PUSH1 0xFF DUP3 AND ISZERO PUSH2 0x1651 JUMP JUMPDEST PUSH2 0xA42 PUSH1 0xFF DUP3 PUSH1 0x8 SHR AND ISZERO PUSH2 0x16A9 JUMP JUMPDEST PUSH1 0x4 DUP7 ADD SLOAD TIMESTAMP LT PUSH2 0xB49 JUMPI PUSH2 0xFF00 NOT AND PUSH2 0x100 OR SWAP1 SSTORE PUSH1 0x1 DUP5 ADD SLOAD PUSH2 0xA66 SWAP1 PUSH2 0x1299 JUMP JUMPDEST ISZERO PUSH2 0xAC2 JUMPI POP POP PUSH1 0x0 DUP1 DUP4 PUSH1 0x2 DUP3 SWAP6 SWAP5 DUP4 SWAP6 SLOAD AND SWAP2 ADD SLOAD SWAP1 DUP3 DUP3 ISZERO PUSH2 0xAB9 JUMPI JUMPDEST CALL ISZERO PUSH2 0x230 JUMPI JUMPDEST PUSH32 0xFE509803C09416B28FF3D8F690C8B0C61462A892C46D5430C8FB20ABE472DAF0 PUSH1 0x0 DUP1 LOG2 PUSH1 0x1 PUSH1 0x0 SSTORE STOP JUMPDEST POP PUSH2 0x8FC PUSH2 0xA86 JUMP JUMPDEST PUSH1 0x44 PUSH1 0x2 DUP4 SWAP6 ADD SLOAD SWAP2 PUSH1 0x0 PUSH1 0x40 MLOAD SWAP6 DUP7 SWAP5 DUP6 SWAP4 PUSH4 0xA9059CBB PUSH1 0xE0 SHL DUP6 MSTORE PUSH1 0x4 DUP6 ADD MSTORE PUSH1 0x24 DUP5 ADD MSTORE PUSH32 0x0 AND GAS CALL SWAP1 DUP2 ISZERO PUSH2 0x230 JUMPI PUSH2 0xB27 SWAP3 PUSH1 0x0 SWAP3 PUSH2 0xB2C JUMPI JUMPDEST POP POP PUSH2 0x1605 JUMP JUMPDEST PUSH2 0xA8D JUMP JUMPDEST PUSH2 0xB42 SWAP3 POP DUP1 RETURNDATASIZE LT PUSH2 0x2FE JUMPI PUSH2 0x2F0 DUP2 DUP4 PUSH2 0x12EF JUMP JUMPDEST DUP4 DUP1 PUSH2 0xB20 JUMP JUMPDEST PUSH1 0x40 MLOAD PUSH3 0x461BCD PUSH1 0xE5 SHL DUP2 MSTORE PUSH1 0x4 DUP2 ADD DUP6 SWAP1 MSTORE PUSH1 0x26 PUSH1 0x24 DUP3 ADD MSTORE PUSH32 0x536F6C616E614272696467653A2074696D656C6F636B20686173206E6F742065 PUSH1 0x44 DUP3 ADD MSTORE PUSH6 0x1E1C1A5C9959 PUSH1 0xD2 SHL PUSH1 0x64 DUP3 ADD MSTORE PUSH1 0x84 SWAP1 REVERT JUMPDEST PUSH1 0x40 MLOAD PUSH3 0x461BCD PUSH1 0xE5 SHL DUP2 MSTORE PUSH1 0x4 DUP2 ADD DUP4 SWAP1 MSTORE PUSH1 0x29 PUSH1 0x24 DUP3 ADD MSTORE PUSH32 0x536F6C616E614272696467653A2063616C6C6572206973206E6F742074686520 PUSH1 0x44 DUP3 ADD MSTORE PUSH9 0x34B734BA34B0BA37B9 PUSH1 0xB9 SHL PUSH1 0x64 DUP3 ADD MSTORE PUSH1 0x84 SWAP1 REVERT JUMPDEST CALLVALUE PUSH2 0x39A JUMPI PUSH1 0x0 CALLDATASIZE PUSH1 0x3 NOT ADD SLT PUSH2 0x39A JUMPI PUSH2 0xC0D PUSH2 0x13CD JUMP JUMPDEST PUSH1 0x1 DUP1 SLOAD PUSH1 0x1 PUSH1 0x1 PUSH1 0xA0 SHL SUB NOT DUP2 AND SWAP1 SWAP2 SSTORE PUSH1 0x0 SWAP1 PUSH1 0x1 PUSH1 0x1 PUSH1 0xA0 SHL SUB AND PUSH32 0x8BE0079C531659141344CD1FD0A4F28419497F9722A3DAAFE3B4186F6B6457E0 DUP3 DUP1 LOG3 STOP JUMPDEST CALLVALUE PUSH2 0x39A JUMPI PUSH1 0x20 CALLDATASIZE PUSH1 0x3 NOT ADD SLT PUSH2 0x39A JUMPI PUSH1 0x4 CALLDATALOAD PUSH2 0xC6D PUSH2 0x13CD JUMP JUMPDEST PUSH7 0x2386F26FC10000 DUP2 GT PUSH2 0xC80 JUMPI PUSH1 0x3 SSTORE STOP JUMPDEST PUSH1 0x40 MLOAD PUSH3 0x461BCD PUSH1 0xE5 SHL DUP2 MSTORE PUSH1 0x20 PUSH1 0x4 DUP3 ADD MSTORE PUSH1 0x1A PUSH1 0x24 DUP3 ADD MSTORE PUSH32 0x536F6C616E614272696467653A2066656520746F6F2068696768000000000000 PUSH1 0x44 DUP3 ADD MSTORE PUSH1 0x64 SWAP1 REVERT JUMPDEST PUSH1 0x80 CALLDATASIZE PUSH1 0x3 NOT ADD SLT PUSH2 0x39A JUMPI PUSH1 0x24 DUP1 CALLDATALOAD PUSH8 0xFFFFFFFFFFFFFFFF DUP2 GT PUSH2 0x39A JUMPI PUSH2 0xCF2 SWAP1 CALLDATASIZE SWAP1 PUSH1 0x4 ADD PUSH2 0x126B JUMP JUMPDEST SWAP1 PUSH1 0x44 CALLDATALOAD PUSH1 0x64 CALLDATALOAD SWAP4 PUSH2 0xD02 PUSH2 0x15CA JUMP JUMPDEST PUSH1 0x4 CALLDATALOAD PUSH1 0x0 MSTORE PUSH1 0x2 PUSH1 0x20 MSTORE PUSH1 0x1 DUP1 PUSH1 0xA0 SHL SUB SWAP1 PUSH2 0xD26 DUP3 PUSH1 0x40 PUSH1 0x0 KECCAK256 SLOAD AND ISZERO PUSH2 0x13F9 JUMP JUMPDEST PUSH2 0xD39 PUSH7 0x2386F26FC10000 CALLVALUE LT ISZERO PUSH2 0x145C JUMP JUMPDEST PUSH2 0xD4E PUSH9 0x56BC75E2D63100000 CALLVALUE GT ISZERO PUSH2 0x14A8 JUMP JUMPDEST DUP5 ISZERO PUSH2 0x1013 JUMPI PUSH2 0xD5F DUP4 ISZERO ISZERO PUSH2 0x14F4 JUMP JUMPDEST PUSH2 0xD6C PUSH2 0xE10 DUP8 GT PUSH2 0x1540 JUMP JUMPDEST PUSH1 0x3 SLOAD CALLVALUE SUB SWAP6 CALLVALUE DUP8 GT PUSH2 0xFFE JUMPI PUSH2 0xD83 SWAP1 TIMESTAMP PUSH2 0x15A7 JUMP JUMPDEST SWAP3 PUSH1 0x40 MLOAD SWAP4 PUSH2 0xD91 DUP6 PUSH2 0x12D3 JUMP JUMPDEST CALLER DUP6 MSTORE PUSH8 0xFFFFFFFFFFFFFFFF DUP8 GT PUSH2 0xFE9 JUMPI PUSH1 0x40 MLOAD SWAP2 PUSH2 0xDBB PUSH1 0x1F DUP10 ADD PUSH1 0x1F NOT AND PUSH1 0x20 ADD DUP5 PUSH2 0x12EF JUMP JUMPDEST DUP8 DUP4 MSTORE CALLDATASIZE DUP9 DUP9 ADD GT PUSH2 0x39A JUMPI DUP8 DUP8 PUSH1 0x20 DUP6 ADD CALLDATACOPY PUSH1 0x0 PUSH1 0x20 DUP10 DUP6 ADD ADD MSTORE PUSH1 0x20 DUP7 ADD SWAP3 DUP4 MSTORE DUP9 PUSH1 0x40 DUP8 ADD MSTORE PUSH1 0x60 DUP7 ADD MSTORE PUSH1 0x80 DUP6 ADD MSTORE PUSH1 0x0 PUSH1 0xA0 DUP6 ADD MSTORE PUSH1 0x0 PUSH1 0xC0 DUP6 ADD MSTORE PUSH1 0x4 CALLDATALOAD PUSH1 0x0 MSTORE PUSH1 0x2 PUSH1 0x20 MSTORE PUSH1 0x40 PUSH1 0x0 KECCAK256 SWAP3 DUP5 MLOAD AND PUSH1 0x1 PUSH1 0x1 PUSH1 0x60 SHL SUB PUSH1 0xA0 SHL DUP5 SLOAD AND OR DUP4 SSTORE MLOAD DUP1 MLOAD SWAP2 PUSH8 0xFFFFFFFFFFFFFFFF DUP4 GT PUSH2 0xFD5 JUMPI POP PUSH2 0xE42 PUSH1 0x1 DUP5 ADD SLOAD PUSH2 0x1299 JUMP JUMPDEST PUSH1 0x1F DUP2 GT PUSH2 0xF8E JUMPI JUMPDEST POP PUSH1 0x20 SWAP1 PUSH1 0x1F DUP4 GT PUSH1 0x1 EQ PUSH2 0xF16 JUMPI SWAP3 DUP3 PUSH1 0xC0 SWAP4 PUSH1 0x5 SWAP4 PUSH2 0xEC1 SWAP8 SWAP7 PUSH1 0x0 SWAP3 PUSH2 0xF0B JUMPI POP POP DUP2 PUSH1 0x1 SHL SWAP2 PUSH1 0x0 NOT SWAP1 PUSH1 0x3 SHL SHR NOT AND OR PUSH1 0x1 DUP3 ADD SSTORE PUSH1 0x40 DUP5 ADD MLOAD PUSH1 0x2 DUP3 ADD SSTORE PUSH1 0x60 DUP5 ADD MLOAD PUSH1 0x3 DUP3 ADD SSTORE PUSH1 0x80 DUP5 ADD MLOAD PUSH1 0x4 DUP3 ADD SSTORE ADD SWAP2 PUSH2 0x64E PUSH1 0xA0 DUP3 ADD MLOAD ISZERO ISZERO DUP5 SWAP1 PUSH1 0xFF DUP1 NOT DUP4 SLOAD AND SWAP2 ISZERO ISZERO AND OR SWAP1 SSTORE JUMP JUMPDEST DUP2 PUSH1 0x40 MLOAD SWAP3 DUP4 SWAP3 DUP4 CALLDATACOPY DUP2 ADD PUSH1 0x0 DUP2 MSTORE SUB SWAP1 KECCAK256 SWAP1 PUSH1 0x40 MLOAD SWAP1 DUP2 MSTORE CALLER SWAP1 PUSH32 0x2A241314F1721916D74A645F65E364F43169E7AA07961DC76AE071F3B911CF59 PUSH1 0x20 PUSH1 0x4 CALLDATALOAD SWAP3 LOG4 PUSH1 0x1 PUSH1 0x0 SSTORE STOP JUMPDEST ADD MLOAD SWAP1 POP DUP11 DUP1 PUSH2 0x5FA JUMP JUMPDEST SWAP1 PUSH1 0x1 DUP5 ADD PUSH1 0x0 MSTORE PUSH1 0x20 PUSH1 0x0 KECCAK256 SWAP2 PUSH1 0x0 JUMPDEST PUSH1 0x1F NOT DUP6 AND DUP2 LT PUSH2 0xF76 JUMPI POP DUP4 PUSH1 0x5 SWAP4 PUSH2 0xEC1 SWAP8 SWAP7 SWAP4 PUSH1 0x1 SWAP4 PUSH1 0xC0 SWAP8 PUSH1 0x1F NOT DUP2 AND LT PUSH2 0xF5D JUMPI POP POP POP DUP2 SHL ADD PUSH1 0x1 DUP3 ADD SSTORE PUSH2 0x612 JUMP JUMPDEST ADD MLOAD PUSH1 0x0 NOT PUSH1 0xF8 DUP5 PUSH1 0x3 SHL AND SHR NOT AND SWAP1 SSTORE DUP11 DUP1 DUP1 PUSH2 0x6E6 JUMP JUMPDEST SWAP2 SWAP3 PUSH1 0x20 PUSH1 0x1 DUP2 SWAP3 DUP7 DUP6 ADD MLOAD DUP2 SSTORE ADD SWAP5 ADD SWAP3 ADD PUSH2 0xF27 JUMP JUMPDEST PUSH1 0x1 DUP5 ADD PUSH1 0x0 MSTORE PUSH1 0x20 PUSH1 0x0 KECCAK256 PUSH1 0x1F DUP5 ADD PUSH1 0x5 SHR DUP2 ADD PUSH1 0x20 DUP6 LT PUSH2 0xFCE JUMPI JUMPDEST PUSH1 0x1F DUP4 ADD PUSH1 0x5 SHR DUP3 ADD DUP2 LT PUSH2 0xFC2 JUMPI POP POP PUSH2 0xE4B JUMP JUMPDEST PUSH1 0x0 DUP2 SSTORE PUSH1 0x1 ADD PUSH2 0xFAC JUMP JUMPDEST POP DUP1 PUSH2 0xFAC JUMP JUMPDEST PUSH4 0x4E487B71 PUSH1 0xE0 SHL PUSH1 0x0 SWAP1 DUP2 MSTORE PUSH1 0x41 PUSH1 0x4 MSTORE REVERT JUMPDEST DUP3 PUSH4 0x4E487B71 PUSH1 0xE0 SHL PUSH1 0x0 MSTORE PUSH1 0x41 PUSH1 0x4 MSTORE PUSH1 0x0 REVERT JUMPDEST POP PUSH4 0x4E487B71 PUSH1 0xE0 SHL PUSH1 0x0 SWAP1 DUP2 MSTORE PUSH1 0x11 PUSH1 0x4 MSTORE REVERT JUMPDEST PUSH1 0x84 SWAP1 PUSH1 0x40 MLOAD SWAP1 PUSH3 0x461BCD PUSH1 0xE5 SHL DUP3 MSTORE PUSH1 0x20 PUSH1 0x4 DUP4 ADD MSTORE DUP1 DUP3 ADD MSTORE PUSH32 0x536F6C616E614272696467653A20696E76616C696420536F6C616E6120616464 PUSH1 0x44 DUP3 ADD MSTORE PUSH4 0x72657373 PUSH1 0xE0 SHL PUSH1 0x64 DUP3 ADD MSTORE REVERT JUMPDEST CALLVALUE PUSH2 0x39A JUMPI PUSH1 0x0 CALLDATASIZE PUSH1 0x3 NOT ADD SLT PUSH2 0x39A JUMPI PUSH2 0x19 PUSH2 0x13CD JUMP JUMPDEST CALLVALUE PUSH2 0x39A JUMPI PUSH1 0x0 CALLDATASIZE PUSH1 0x3 NOT ADD SLT PUSH2 0x39A JUMPI PUSH1 0x40 MLOAD PUSH32 0x0 PUSH1 0x1 PUSH1 0x1 PUSH1 0xA0 SHL SUB AND DUP2 MSTORE PUSH1 0x20 SWAP1 RETURN JUMPDEST CALLVALUE PUSH2 0x39A JUMPI PUSH1 0x0 CALLDATASIZE PUSH1 0x3 NOT ADD SLT PUSH2 0x39A JUMPI PUSH2 0x10DA PUSH2 0x13CD JUMP JUMPDEST SELFBALANCE DUP1 ISZERO PUSH2 0x10FF JUMPI PUSH1 0x1 SLOAD PUSH1 0x0 SWAP2 DUP3 SWAP2 DUP3 SWAP2 DUP3 SWAP2 PUSH1 0x1 PUSH1 0x1 PUSH1 0xA0 SHL SUB AND DUP3 CALL ISZERO PUSH2 0x230 JUMPI STOP JUMPDEST PUSH1 0x40 MLOAD PUSH3 0x461BCD PUSH1 0xE5 SHL DUP2 MSTORE PUSH1 0x20 PUSH1 0x4 DUP3 ADD MSTORE PUSH1 0x21 PUSH1 0x24 DUP3 ADD MSTORE PUSH32 0x536F6C616E614272696467653A206E6F206665657320746F2077697468647261 PUSH1 0x44 DUP3 ADD MSTORE PUSH1 0x77 PUSH1 0xF8 SHL PUSH1 0x64 DUP3 ADD MSTORE PUSH1 0x84 SWAP1 REVERT JUMPDEST CALLVALUE PUSH2 0x39A JUMPI PUSH1 0x20 CALLDATASIZE PUSH1 0x3 NOT ADD SLT PUSH2 0x39A JUMPI PUSH1 0x4 CALLDATALOAD PUSH1 0x0 MSTORE PUSH1 0x2 PUSH1 0x20 MSTORE PUSH1 0x20 PUSH1 0x40 PUSH1 0x0 KECCAK256 PUSH1 0x1 DUP1 PUSH1 0xA0 SHL SUB DUP2 SLOAD AND ISZERO ISZERO SWAP1 DUP2 PUSH2 0x11A8 JUMPI JUMPDEST DUP2 PUSH2 0x1195 JUMPI JUMPDEST POP PUSH1 0x40 MLOAD SWAP1 ISZERO ISZERO DUP2 MSTORE RETURN JUMPDEST PUSH1 0xFF SWAP2 POP PUSH1 0x5 ADD SLOAD PUSH1 0x8 SHR AND ISZERO DUP3 PUSH2 0x118A JUMP JUMPDEST PUSH1 0x5 DUP2 ADD SLOAD PUSH1 0xFF AND ISZERO SWAP2 POP PUSH2 0x1184 JUMP JUMPDEST CALLVALUE PUSH2 0x39A JUMPI PUSH1 0x20 CALLDATASIZE PUSH1 0x3 NOT ADD SLT PUSH2 0x39A JUMPI PUSH1 0x4 CALLDATALOAD PUSH1 0x0 MSTORE PUSH1 0x2 PUSH1 0x20 MSTORE PUSH1 0x40 PUSH1 0x0 KECCAK256 PUSH1 0x1 DUP1 PUSH1 0xA0 SHL SUB DUP2 SLOAD AND PUSH1 0x2 DUP3 ADD SLOAD PUSH1 0xFF PUSH1 0x3 DUP5 ADD SLOAD SWAP4 PUSH1 0x4 DUP2 ADD SLOAD PUSH2 0x1206 PUSH1 0x1 PUSH1 0x5 DUP5 ADD SLOAD SWAP4 ADD PUSH2 0x1311 JUMP JUMPDEST SWAP6 PUSH2 0x928 PUSH1 0x40 MLOAD SWAP8 DUP9 SWAP8 DUP9 MSTORE PUSH1 0xE0 PUSH1 0x20 DUP10 ADD MSTORE PUSH1 0xE0 DUP9 ADD SWAP1 PUSH2 0x1246 JUMP JUMPDEST PUSH1 0x0 JUMPDEST DUP4 DUP2 LT PUSH2 0x1236 JUMPI POP POP PUSH1 0x0 SWAP2 ADD MSTORE JUMP JUMPDEST DUP2 DUP2 ADD MLOAD DUP4 DUP3 ADD MSTORE PUSH1 0x20 ADD PUSH2 0x1226 JUMP JUMPDEST SWAP1 PUSH1 0x20 SWAP2 PUSH2 0x125F DUP2 MLOAD DUP1 SWAP3 DUP2 DUP6 MSTORE DUP6 DUP1 DUP7 ADD SWAP2 ADD PUSH2 0x1223 JUMP JUMPDEST PUSH1 0x1F ADD PUSH1 0x1F NOT AND ADD ADD SWAP1 JUMP JUMPDEST SWAP2 DUP2 PUSH1 0x1F DUP5 ADD SLT ISZERO PUSH2 0x39A JUMPI DUP3 CALLDATALOAD SWAP2 PUSH8 0xFFFFFFFFFFFFFFFF DUP4 GT PUSH2 0x39A JUMPI PUSH1 0x20 DUP4 DUP2 DUP7 ADD SWAP6 ADD ADD GT PUSH2 0x39A JUMPI JUMP JUMPDEST SWAP1 PUSH1 0x1 DUP3 DUP2 SHR SWAP3 AND DUP1 ISZERO PUSH2 0x12C9 JUMPI JUMPDEST PUSH1 0x20 DUP4 LT EQ PUSH2 0x12B3 JUMPI JUMP JUMPDEST PUSH4 0x4E487B71 PUSH1 0xE0 SHL PUSH1 0x0 MSTORE PUSH1 0x22 PUSH1 0x4 MSTORE PUSH1 0x24 PUSH1 0x0 REVERT JUMPDEST SWAP2 PUSH1 0x7F AND SWAP2 PUSH2 0x12A8 JUMP JUMPDEST PUSH1 0xE0 DUP2 ADD SWAP1 DUP2 LT PUSH8 0xFFFFFFFFFFFFFFFF DUP3 GT OR PUSH2 0x76E JUMPI PUSH1 0x40 MSTORE JUMP JUMPDEST SWAP1 PUSH1 0x1F DUP1 NOT SWAP2 ADD AND DUP2 ADD SWAP1 DUP2 LT PUSH8 0xFFFFFFFFFFFFFFFF DUP3 GT OR PUSH2 0x76E JUMPI PUSH1 0x40 MSTORE JUMP JUMPDEST SWAP1 PUSH1 0x40 MLOAD SWAP2 DUP3 PUSH1 0x0 DUP3 SLOAD SWAP3 PUSH2 0x1325 DUP5 PUSH2 0x1299 JUMP JUMPDEST SWAP1 DUP2 DUP5 MSTORE PUSH1 0x1 SWAP5 DUP6 DUP2 AND SWAP1 DUP2 PUSH1 0x0 EQ PUSH2 0x1394 JUMPI POP PUSH1 0x1 EQ PUSH2 0x1351 JUMPI JUMPDEST POP POP PUSH2 0x134F SWAP3 POP SUB DUP4 PUSH2 0x12EF JUMP JUMPDEST JUMP JUMPDEST SWAP1 SWAP4 SWAP2 POP PUSH1 0x0 MSTORE PUSH1 0x20 SWAP1 DUP2 PUSH1 0x0 KECCAK256 SWAP4 PUSH1 0x0 SWAP2 JUMPDEST DUP2 DUP4 LT PUSH2 0x137C JUMPI POP POP PUSH2 0x134F SWAP4 POP DUP3 ADD ADD CODESIZE DUP1 PUSH2 0x1341 JUMP JUMPDEST DUP6 SLOAD DUP9 DUP5 ADD DUP6 ADD MSTORE SWAP5 DUP6 ADD SWAP5 DUP8 SWAP5 POP SWAP2 DUP4 ADD SWAP2 PUSH2 0x1364 JUMP JUMPDEST SWAP2 POP POP PUSH2 0x134F SWAP5 POP PUSH1 0x20 SWAP3 POP PUSH1 0xFF NOT AND DUP3 DUP5 ADD MSTORE ISZERO ISZERO PUSH1 0x5 SHL DUP3 ADD ADD CODESIZE DUP1 PUSH2 0x1341 JUMP JUMPDEST PUSH1 0x4 CALLDATALOAD SWAP1 PUSH1 0x1 PUSH1 0x1 PUSH1 0xA0 SHL SUB DUP3 AND DUP3 SUB PUSH2 0x39A JUMPI JUMP JUMPDEST PUSH1 0x1 SLOAD PUSH1 0x1 PUSH1 0x1 PUSH1 0xA0 SHL SUB AND CALLER SUB PUSH2 0x13E1 JUMPI JUMP JUMPDEST PUSH1 0x40 MLOAD PUSH4 0x118CDAA7 PUSH1 0xE0 SHL DUP2 MSTORE CALLER PUSH1 0x4 DUP3 ADD MSTORE PUSH1 0x24 SWAP1 REVERT JUMPDEST ISZERO PUSH2 0x1400 JUMPI JUMP JUMPDEST PUSH1 0x40 MLOAD PUSH3 0x461BCD PUSH1 0xE5 SHL DUP2 MSTORE PUSH1 0x20 PUSH1 0x4 DUP3 ADD MSTORE PUSH1 0x2E PUSH1 0x24 DUP3 ADD MSTORE PUSH32 0x536F6C616E614272696467653A20737761702077697468207468697320696420 PUSH1 0x44 DUP3 ADD MSTORE PUSH14 0x616C726561647920657869737473 PUSH1 0x90 SHL PUSH1 0x64 DUP3 ADD MSTORE PUSH1 0x84 SWAP1 REVERT JUMPDEST ISZERO PUSH2 0x1463 JUMPI JUMP JUMPDEST PUSH1 0x40 MLOAD PUSH3 0x461BCD PUSH1 0xE5 SHL DUP2 MSTORE PUSH1 0x20 PUSH1 0x4 DUP3 ADD MSTORE PUSH1 0x1C PUSH1 0x24 DUP3 ADD MSTORE PUSH32 0x536F6C616E614272696467653A20616D6F756E7420746F6F206C6F7700000000 PUSH1 0x44 DUP3 ADD MSTORE PUSH1 0x64 SWAP1 REVERT JUMPDEST ISZERO PUSH2 0x14AF JUMPI JUMP JUMPDEST PUSH1 0x40 MLOAD PUSH3 0x461BCD PUSH1 0xE5 SHL DUP2 MSTORE PUSH1 0x20 PUSH1 0x4 DUP3 ADD MSTORE PUSH1 0x1D PUSH1 0x24 DUP3 ADD MSTORE PUSH32 0x536F6C616E614272696467653A20616D6F756E7420746F6F2068696768000000 PUSH1 0x44 DUP3 ADD MSTORE PUSH1 0x64 SWAP1 REVERT JUMPDEST ISZERO PUSH2 0x14FB JUMPI JUMP JUMPDEST PUSH1 0x40 MLOAD PUSH3 0x461BCD PUSH1 0xE5 SHL DUP2 MSTORE PUSH1 0x20 PUSH1 0x4 DUP3 ADD MSTORE PUSH1 0x1A PUSH1 0x24 DUP3 ADD MSTORE PUSH32 0x536F6C616E614272696467653A20696E76616C69642068617368000000000000 PUSH1 0x44 DUP3 ADD MSTORE PUSH1 0x64 SWAP1 REVERT JUMPDEST ISZERO PUSH2 0x1547 JUMPI JUMP JUMPDEST PUSH1 0x40 MLOAD PUSH3 0x461BCD PUSH1 0xE5 SHL DUP2 MSTORE PUSH1 0x20 PUSH1 0x4 DUP3 ADD MSTORE PUSH1 0x32 PUSH1 0x24 DUP3 ADD MSTORE PUSH32 0x536F6C616E614272696467653A2074696D656C6F636B206D7573742062652067 PUSH1 0x44 DUP3 ADD MSTORE PUSH18 0x3932B0BA32B9103A3430B71018903437BAB9 PUSH1 0x71 SHL PUSH1 0x64 DUP3 ADD MSTORE PUSH1 0x84 SWAP1 REVERT JUMPDEST SWAP2 SWAP1 DUP3 ADD DUP1 SWAP3 GT PUSH2 0x15B4 JUMPI JUMP JUMPDEST PUSH4 0x4E487B71 PUSH1 0xE0 SHL PUSH1 0x0 MSTORE PUSH1 0x11 PUSH1 0x4 MSTORE PUSH1 0x24 PUSH1 0x0 REVERT JUMPDEST PUSH1 0x2 PUSH1 0x0 SLOAD EQ PUSH2 0x15DB JUMPI PUSH1 0x2 PUSH1 0x0 SSTORE JUMP JUMPDEST PUSH1 0x40 MLOAD PUSH4 0x3EE5AEB5 PUSH1 0xE0 SHL DUP2 MSTORE PUSH1 0x4 SWAP1 REVERT JUMPDEST SWAP1 DUP2 PUSH1 0x20 SWAP2 SUB SLT PUSH2 0x39A JUMPI MLOAD DUP1 ISZERO ISZERO DUP2 SUB PUSH2 0x39A JUMPI SWAP1 JUMP JUMPDEST ISZERO PUSH2 0x160C JUMPI JUMP JUMPDEST PUSH1 0x40 MLOAD PUSH3 0x461BCD PUSH1 0xE5 SHL DUP2 MSTORE PUSH1 0x20 PUSH1 0x4 DUP3 ADD MSTORE PUSH1 0x1D PUSH1 0x24 DUP3 ADD MSTORE PUSH32 0x536F6C616E614272696467653A207472616E73666572206661696C6564000000 PUSH1 0x44 DUP3 ADD MSTORE PUSH1 0x64 SWAP1 REVERT JUMPDEST ISZERO PUSH2 0x1658 JUMPI JUMP JUMPDEST PUSH1 0x40 MLOAD PUSH3 0x461BCD PUSH1 0xE5 SHL DUP2 MSTORE PUSH1 0x20 PUSH1 0x4 DUP3 ADD MSTORE PUSH1 0x23 PUSH1 0x24 DUP3 ADD MSTORE PUSH32 0x536F6C616E614272696467653A207377617020616C7265616479206578656375 PUSH1 0x44 DUP3 ADD MSTORE PUSH3 0x1D1959 PUSH1 0xEA SHL PUSH1 0x64 DUP3 ADD MSTORE PUSH1 0x84 SWAP1 REVERT JUMPDEST ISZERO PUSH2 0x16B0 JUMPI JUMP JUMPDEST PUSH1 0x40 MLOAD PUSH3 0x461BCD PUSH1 0xE5 SHL DUP2 MSTORE PUSH1 0x20 PUSH1 0x4 DUP3 ADD MSTORE PUSH1 0x23 PUSH1 0x24 DUP3 ADD MSTORE PUSH32 0x536F6C616E614272696467653A207377617020616C726561647920726566756E PUSH1 0x44 DUP3 ADD MSTORE PUSH3 0x191959 PUSH1 0xEA SHL PUSH1 0x64 DUP3 ADD MSTORE PUSH1 0x84 SWAP1 REVERT INVALID LOG2 PUSH5 0x6970667358 0x22 SLT KECCAK256 0xE0 RETURNDATASIZE SELFDESTRUCT PUSH27 0x339890F9A22E47CC415A52F2C79A3AB270DE542FF647278CCE9C71 0xBC PUSH5 0x736F6C6343 STOP ADDMOD EQ STOP CALLER "},"methodIdentifiers":{"MAX_BRIDGE_AMOUNT()":"7fce0002","MIN_BRIDGE_AMOUNT()":"886688c1","bridgeFee()":"82b12dd7","emergencyPause()":"51858e27","emergencyWithdraw(address,uint256)":"95ccea67","getHtlc(bytes32)":"089c0aa4","htlcs(bytes32)":"91edd8f2","initiateFromSolana(bytes32,address,uint256,bytes32,uint256)":"ab2875d0","initiateToSolana(bytes32,string,bytes32,uint256)":"55d42bb4","isValidHtlc(bytes32)":"19304e25","owner()":"8da5cb5b","redeem(bytes32,bytes)":"f7ff7207","refund(bytes32)":"7249fbb6","renounceOwnership()":"715018a6","transferOwnership(address)":"f2fde38b","updateBridgeFee(uint256)":"5a1c0366","wethToken()":"4b57b0be","withdrawFees()":"476343ee","wsolToken()":"92827585"}}}}}