{"contracts/HTLC1inchEscrow.sol":{"HTLC1inchEscrow":{"abi":[{"inputs":[{"internalType":"address","name":"_fusionRelayer","type":"address"},{"internalType":"address","name":"_feeCollector","type":"address"}],"stateMutability":"nonpayable","type":"constructor"},{"inputs":[{"internalType":"address","name":"owner","type":"address"}],"name":"OwnableInvalidOwner","type":"error"},{"inputs":[{"internalType":"address","name":"account","type":"address"}],"name":"OwnableUnauthorizedAccount","type":"error"},{"inputs":[],"name":"ReentrancyGuardReentrantCall","type":"error"},{"inputs":[{"internalType":"address","name":"token","type":"address"}],"name":"SafeERC20FailedOperation","type":"error"},{"anonymous":false,"inputs":[{"indexed":true,"internalType":"bytes32","name":"htlcId","type":"bytes32"},{"indexed":true,"internalType":"address","name":"initiator","type":"address"},{"indexed":true,"internalType":"address","name":"resolver","type":"address"},{"indexed":false,"internalType":"address","name":"fromToken","type":"address"},{"indexed":false,"internalType":"address","name":"toToken","type":"address"},{"indexed":false,"internalType":"uint256","name":"amount","type":"uint256"},{"indexed":false,"internalType":"uint256","name":"expectedAmount","type":"uint256"},{"indexed":false,"internalType":"bytes32","name":"secretHash","type":"bytes32"},{"indexed":false,"internalType":"uint256","name":"timelock","type":"uint256"}],"name":"HTLCCreated","type":"event"},{"anonymous":false,"inputs":[{"indexed":true,"internalType":"bytes32","name":"htlcId","type":"bytes32"},{"indexed":true,"internalType":"address","name":"resolver","type":"address"},{"indexed":false,"internalType":"bytes32","name":"secret","type":"bytes32"},{"indexed":false,"internalType":"uint256","name":"actualAmount","type":"uint256"}],"name":"HTLCExecuted","type":"event"},{"anonymous":false,"inputs":[{"indexed":true,"internalType":"bytes32","name":"htlcId","type":"bytes32"},{"indexed":true,"internalType":"address","name":"initiator","type":"address"}],"name":"HTLCRefunded","type":"event"},{"anonymous":false,"inputs":[{"indexed":true,"internalType":"bytes32","name":"htlcId","type":"bytes32"},{"indexed":false,"internalType":"string","name":"orderId","type":"string"},{"indexed":false,"internalType":"uint256","name":"actualAmount","type":"uint256"}],"name":"OrderExecuted","type":"event"},{"anonymous":false,"inputs":[{"indexed":true,"internalType":"bytes32","name":"htlcId","type":"bytes32"},{"indexed":false,"internalType":"string","name":"orderId","type":"string"},{"indexed":true,"internalType":"address","name":"initiator","type":"address"}],"name":"OrderSubmitted","type":"event"},{"anonymous":false,"inputs":[{"indexed":true,"internalType":"address","name":"previousOwner","type":"address"},{"indexed":true,"internalType":"address","name":"newOwner","type":"address"}],"name":"OwnershipTransferred","type":"event"},{"inputs":[],"name":"FEE_DENOMINATOR","outputs":[{"internalType":"uint256","name":"","type":"uint256"}],"stateMutability":"view","type":"function"},{"inputs":[{"internalType":"address","name":"","type":"address"}],"name":"collectedFees","outputs":[{"internalType":"uint256","name":"","type":"uint256"}],"stateMutability":"view","type":"function"},{"inputs":[{"internalType":"address","name":"resolver","type":"address"},{"internalType":"address","name":"fromToken","type":"address"},{"internalType":"address","name":"toToken","type":"address"},{"internalType":"uint256","name":"amount","type":"uint256"},{"internalType":"uint256","name":"expectedAmount","type":"uint256"},{"internalType":"bytes32","name":"secretHash","type":"bytes32"},{"internalType":"uint256","name":"timelock","type":"uint256"}],"name":"createHTLC","outputs":[],"stateMutability":"nonpayable","type":"function"},{"inputs":[{"internalType":"address","name":"token","type":"address"},{"internalType":"address","name":"to","type":"address"},{"internalType":"uint256","name":"amount","type":"uint256"}],"name":"emergencyRecover","outputs":[],"stateMutability":"nonpayable","type":"function"},{"inputs":[{"internalType":"bytes32","name":"htlcId","type":"bytes32"},{"internalType":"bytes32","name":"secret","type":"bytes32"}],"name":"executeHTLC","outputs":[],"stateMutability":"nonpayable","type":"function"},{"inputs":[{"internalType":"bytes32","name":"htlcId","type":"bytes32"},{"internalType":"bytes32","name":"secret","type":"bytes32"},{"internalType":"uint256","name":"actualAmount","type":"uint256"}],"name":"executeHTLCWithSwap","outputs":[],"stateMutability":"nonpayable","type":"function"},{"inputs":[],"name":"feeCollector","outputs":[{"internalType":"address","name":"","type":"address"}],"stateMutability":"view","type":"function"},{"inputs":[],"name":"fusionRelayer","outputs":[{"internalType":"address","name":"","type":"address"}],"stateMutability":"view","type":"function"},{"inputs":[{"internalType":"bytes32","name":"htlcId","type":"bytes32"}],"name":"getHTLC","outputs":[{"components":[{"internalType":"address","name":"initiator","type":"address"},{"internalType":"address","name":"resolver","type":"address"},{"internalType":"address","name":"fromToken","type":"address"},{"internalType":"address","name":"toToken","type":"address"},{"internalType":"uint256","name":"amount","type":"uint256"},{"internalType":"uint256","name":"expectedAmount","type":"uint256"},{"internalType":"bytes32","name":"secretHash","type":"bytes32"},{"internalType":"uint256","name":"timelock","type":"uint256"},{"internalType":"bool","name":"executed","type":"bool"},{"internalType":"bool","name":"refunded","type":"bool"},{"internalType":"string","name":"orderId","type":"string"},{"internalType":"bool","name":"orderSubmitted","type":"bool"}],"internalType":"struct HTLC1inchEscrow.HTLC","name":"","type":"tuple"}],"stateMutability":"view","type":"function"},{"inputs":[{"internalType":"bytes32","name":"","type":"bytes32"}],"name":"htlcContracts","outputs":[{"internalType":"address","name":"initiator","type":"address"},{"internalType":"address","name":"resolver","type":"address"},{"internalType":"address","name":"fromToken","type":"address"},{"internalType":"address","name":"toToken","type":"address"},{"internalType":"uint256","name":"amount","type":"uint256"},{"internalType":"uint256","name":"expectedAmount","type":"uint256"},{"internalType":"bytes32","name":"secretHash","type":"bytes32"},{"internalType":"uint256","name":"timelock","type":"uint256"},{"internalType":"bool","name":"executed","type":"bool"},{"internalType":"bool","name":"refunded","type":"bool"},{"internalType":"string","name":"orderId","type":"string"},{"internalType":"bool","name":"orderSubmitted","type":"bool"}],"stateMutability":"view","type":"function"},{"inputs":[{"internalType":"bytes32","name":"","type":"bytes32"}],"name":"htlcExistsMap","outputs":[{"internalType":"bool","name":"","type":"bool"}],"stateMutability":"view","type":"function"},{"inputs":[],"name":"maxTimelock","outputs":[{"internalType":"uint256","name":"","type":"uint256"}],"stateMutability":"view","type":"function"},{"inputs":[],"name":"minTimelock","outputs":[{"internalType":"uint256","name":"","type":"uint256"}],"stateMutability":"view","type":"function"},{"inputs":[],"name":"owner","outputs":[{"internalType":"address","name":"","type":"address"}],"stateMutability":"view","type":"function"},{"inputs":[],"name":"protocolFee","outputs":[{"internalType":"uint256","name":"","type":"uint256"}],"stateMutability":"view","type":"function"},{"inputs":[{"internalType":"bytes32","name":"htlcId","type":"bytes32"}],"name":"refundHTLC","outputs":[],"stateMutability":"nonpayable","type":"function"},{"inputs":[],"name":"renounceOwnership","outputs":[],"stateMutability":"nonpayable","type":"function"},{"inputs":[{"internalType":"address","name":"_feeCollector","type":"address"}],"name":"setFeeCollector","outputs":[],"stateMutability":"nonpayable","type":"function"},{"inputs":[{"internalType":"address","name":"_fusionRelayer","type":"address"}],"name":"setFusionRelayer","outputs":[],"stateMutability":"nonpayable","type":"function"},{"inputs":[{"internalType":"uint256","name":"_protocolFee","type":"uint256"}],"name":"setProtocolFee","outputs":[],"stateMutability":"nonpayable","type":"function"},{"inputs":[{"internalType":"uint256","name":"_minTimelock","type":"uint256"},{"internalType":"uint256","name":"_maxTimelock","type":"uint256"}],"name":"setTimelockLimits","outputs":[],"stateMutability":"nonpayable","type":"function"},{"inputs":[{"internalType":"bytes32","name":"htlcId","type":"bytes32"},{"internalType":"string","name":"orderId","type":"string"}],"name":"submitOrder","outputs":[],"stateMutability":"nonpayable","type":"function"},{"inputs":[{"internalType":"address","name":"newOwner","type":"address"}],"name":"transferOwnership","outputs":[],"stateMutability":"nonpayable","type":"function"},{"inputs":[{"internalType":"address","name":"token","type":"address"},{"internalType":"uint256","name":"amount","type":"uint256"}],"name":"withdrawFees","outputs":[],"stateMutability":"nonpayable","type":"function"}],"evm":{"bytecode":{"linkReferences":{},"object":"6080346200019a5762001f5890601f38839003908101601f19168201906001600160401b038211838310176200019f57808391604095869485528339810103126200019a576200005d60206200005583620001b5565b9201620001b5565b3315620001825760008054336001600160a01b03198083168217845586519590946001600160a01b03949093859391908416907f8be0079c531659141344cd1fd0a4f28419497f9722a3daafe3b4186f6b6457e09080a360018055610e1060055562093a8060065560056007551693841562000140575016918215620000fc57816004541617600455600854161760085551611d8d9081620001cb8239f35b835162461bcd60e51b815260206004820152601d60248201527f496e76616c69642066656520636f6c6c6563746f7220616464726573730000006044820152606490fd5b62461bcd60e51b815260206004820152601e60248201527f496e76616c696420667573696f6e2072656c61796572206164647265737300006044820152606490fd5b8251631e4fbdf760e01b815260006004820152602490fd5b600080fd5b634e487b7160e01b600052604160045260246000fd5b51906001600160a01b03821682036200019a5756fe608080604052600436101561001357600080fd5b60003560e01c90816303c1751d146118b15750806308a5b9291461183d5780631cead9a71461180357806325429e7d146117e55780632cbc004f1461175857806343b920c5146115d857806344f8667a1461142d5780634962130b146113fc57806367e90c3b146111fa578063715018a6146111a1578063787dce3d1461113b5780638da5cb5b1461111257806390c2683814610f09578063a42dce8014610e7c578063ad1329d114610dee578063ad3b1b4714610d3a578063b0e21e8a14610d1c578063b19d8865146105ef578063bc1fd34b146105d1578063c377104a146102e3578063c415b95c146102ba578063d73792a91461029d578063f2fde38b146102145763fd396aec1461012757600080fd5b3461020f57602036600319011261020f576004356000526002602052604060002060018060a01b038082541690610202816001850154169360ff83600283015416936003830154166004830154600584015460068501549060078601549260088701549486600a604051996101aa8b6101a3816009850161197b565b038c611a4a565b015416996040519c8d9c8d5260208d015260408c015260608b015260808a015260a089015260c088015260e0870152818116151561010087015260081c16151561012085015261018080610140860152840190611901565b9015156101608301520390f35b600080fd5b3461020f57602036600319011261020f5761022d6118d5565b610235611a6c565b6001600160a01b0390811690811561028457600054826001600160601b0360a01b821617600055167f8be0079c531659141344cd1fd0a4f28419497f9722a3daafe3b4186f6b6457e0600080a3005b604051631e4fbdf760e01b815260006004820152602490fd5b3461020f57600036600319011261020f5760206040516127108152f35b3461020f57600036600319011261020f576008546040516001600160a01b039091168152602090f35b3461020f57604036600319011261020f5767ffffffffffffffff600435602480359083821161020f573660238301121561020f57816004013593841161020f573681858401011161020f57826000526020906003825261034a60ff60406000205416611b61565b836000526002825261036760ff6008604060002001541615611ba3565b836000526002825261038760ff60086040600020015460081c1615611be7565b83600052600282526103a26007604060002001544210611c2b565b6000848152600283526040902080549093906001600160a01b0316330361058d57600a84019360ff8554166105495786156105125790600987939201946103f3846103ed8854611941565b88611aa5565b600095601f85116001146104885784847f6207bdd983b0dfecdec0bb7277cee99619359c19e90e11bb86193670c9417a999860009261047b575b50508560011b906000198760031b1c19161790555b600160ff1982541617905582604051948086528501520160408301376000604085830101526040813395601f80199101168101030190a3005b850101359050848b61042d565b601f1985169681600052866000209060005b8981106104f65750867f6207bdd983b0dfecdec0bb7277cee99619359c19e90e11bb86193670c9417a9999106104da575b5050600185811b019055610442565b8401850135600019600388901b60f8161c1916905589806104cb565b85820187013583558b975060019092019190880190880161049a565b60405162461bcd60e51b8152600481018590526010818501526f125b9d985b1a59081bdc99195c88125160821b6044820152606490fd5b60405162461bcd60e51b8152600481018590526017818501527f4f7264657220616c7265616479207375626d69747465640000000000000000006044820152606490fd5b60405162461bcd60e51b815260048101849052601f818401527f4f6e6c7920696e69746961746f722063616e207375626d6974206f72646572006044820152606490fd5b3461020f57600036600319011261020f576020600654604051908152f35b3461020f5760e036600319011261020f576106086118d5565b6106106118eb565b604435916001600160a01b038316830361020f57600260015414610d0a5760026001556001600160a01b03811615610cc5576001600160a01b03821615610c80576001600160a01b03831615610c3b5760643515610bf65760843515610ba25761067c60055442611a98565b60c43510610b685761069060065442611a98565b60c43511610b2f5760a43515610af457604051923360601b60208501526001600160601b0319808360601b166034860152808460601b1660488601528160601b16605c8501526064356070850152608435609085015260a43560b085015260c43560d08501524260f085015260f084528361012081011067ffffffffffffffff61012086011117610a9d576101208401604052835160208501209384600052600360205260ff60406000205416610ab357506040516323b872dd60e01b60208201523360248201523060448201526064803581830152815267ffffffffffffffff60a0820190811190821117610a9d5760a0810160405261079a906001600160a01b038516611af9565b6040516107a681611a11565b33815260018060a01b038316602082015260018060a01b038416604082015260018060a01b0382166060820152606435608082015260843560a082015260a43560c082015260c43560e08201526000610100820152600061012082015260405180602081011067ffffffffffffffff602083011117610a9d576020810160405260008152610140820152600061016082015284600052600260205260406000209060018060a01b038151166001600160601b0360a01b90818454161783556001830160018060a01b03602084015116828254161790556002830160018060a01b0360408401511682825416179055600383019060018060a01b03606084015116908254161790556080810151600483015560a0810151600583015560c0810151600683015560e08101516007830155600882016108f66101008301511515829060ff801983541691151516179055565b610120820151815461ff00191690151560081b61ff001617905561014081015180519067ffffffffffffffff8211610a9d57610942826109396009870154611941565b60098701611aa5565b602090601f8311600114610a23579282600a93610160936109959796600092610a18575b50508160011b916000199060031b1c19161760098501555b0151151591019060ff801983541691151516179055565b600084815260036020908152604091829020805460ff1916600117905581516001600160a01b0395861681529285169083015260643590820152608435606082015260a435608082015260c43560a082015291169133917f4b5c104ca934d371410330f1cd6a99b9d510b1c1bd6f5e0faf20d6c7e7e5ce469060c090a460018055005b015190508b80610966565b906009850160005260206000209160005b601f1985168110610a8557508361016093610995979693600193600a97601f19811610610a6c575b505050811b01600985015561097e565b015160001960f88460031b161c191690558b8080610a5c565b91926020600181928685015181550194019201610a34565b634e487b7160e01b600052604160045260246000fd5b61012060649162461bcd60e51b82820152602061012482015260136101448201527248544c4320616c72656164792065786973747360681b61016482015201fd5b60405162461bcd60e51b8152602060048201526013602482015272092dcecc2d8d2c840e6cac6e4cae840d0c2e6d606b1b6044820152606490fd5b60405162461bcd60e51b815260206004820152601160248201527054696d656c6f636b20746f6f206c6f6e6760781b6044820152606490fd5b60405162461bcd60e51b8152602060048201526012602482015271151a5b595b1bd8dac81d1bdbc81cda1bdc9d60721b6044820152606490fd5b60405162461bcd60e51b815260206004820152602660248201527f457870656374656420616d6f756e74206d75737420626520677265617465722060448201526507468616e20360d41b6064820152608490fd5b60405162461bcd60e51b815260206004820152601d60248201527f416d6f756e74206d7573742062652067726561746572207468616e20300000006044820152606490fd5b60405162461bcd60e51b815260206004820152601760248201527f496e76616c696420746f546f6b656e20616464726573730000000000000000006044820152606490fd5b60405162461bcd60e51b815260206004820152601960248201527f496e76616c69642066726f6d546f6b656e2061646472657373000000000000006044820152606490fd5b60405162461bcd60e51b815260206004820152601860248201527f496e76616c6964207265736f6c766572206164647265737300000000000000006044820152606490fd5b604051633ee5aeb560e01b8152600490fd5b3461020f57600036600319011261020f576020600754604051908152f35b3461020f57604036600319011261020f57610d536118d5565b602435610d5e611a6c565b6001600160a01b039182166000818152600960205260409020548211610da957610da7928160005260096020526040600020610d9b848254611cf8565b90556008541690611d05565b005b60405162461bcd60e51b815260206004820152601b60248201527f496e73756666696369656e7420636f6c6c6563746564206665657300000000006044820152606490fd5b3461020f57606036600319011261020f57610e076118d5565b610e0f6118eb565b90610e18611a6c565b6001600160a01b039180831615610e3757610da7926044359216611d05565b60405162461bcd60e51b815260206004820152601960248201527f496e76616c696420726563697069656e742061646472657373000000000000006044820152606490fd5b3461020f57602036600319011261020f57610e956118d5565b610e9d611a6c565b6001600160a01b03168015610ec4576001600160601b0360a01b6008541617600855600080f35b60405162461bcd60e51b815260206004820152601d60248201527f496e76616c69642066656520636f6c6c6563746f7220616464726573730000006044820152606490fd5b3461020f57602036600319011261020f576004356000610160604051610f2e81611a11565b8281528260208201528260408201528260608201528260808201528260a08201528260c08201528260e0820152826101008201528261012082015260606101408201520152806000526003602052610f8d60ff60406000205416611b61565b6000526002602052604060002060ff600a60405192610fab84611a11565b80546001600160a01b039081168552600182015481166020860152600282015481166040808701919091526003830154909116606086015260048201546080860152600582015460a0860152600682015460c0860152600782015460e08601526008808301548086161515610100880152901c84161515610120860152516110418161103a816009860161197b565b0382611a4a565b610140850152015416151561016082015260405180916020825260018060a01b03815116602083015260018060a01b03602082015116604083015260018060a01b03604082015116606083015260018060a01b036060820151166080830152608081015160a083015260a081015160c083015260c081015160e083015260e0810151610100830152610100810151151561012083015261012081015115156101408301526101408101516101606111056101809283838701526101a0860190611901565b9201511515908301520390f35b3461020f57600036600319011261020f576000546040516001600160a01b039091168152602090f35b3461020f57602036600319011261020f57600435611157611a6c565b6064811161116457600755005b60405162461bcd60e51b81526020600482015260156024820152740a0e4dee8dec6ded840cccaca40e8dede40d0d2ced605b1b6044820152606490fd5b3461020f57600036600319011261020f576111ba611a6c565b600080546001600160a01b0319811682556001600160a01b03167f8be0079c531659141344cd1fd0a4f28419497f9722a3daafe3b4186f6b6457e08280a3005b3461020f57606036600319011261020f57600435602435604435826000526020906003825261123060ff60406000205416611b61565b836000526002825261124d60ff6008604060002001541615611ba3565b836000526002825261126d60ff60086040600020015460081c1615611be7565b83600052600282526112886007604060002001544210611c2b565b836000526002825260406000209260018060a01b0380600186015416906112b0823314611c6f565b6112d7604051868101908582528781526112c981611a2e565b519020600688015414611cbb565b60ff600a87015416156113c157831561138457916113328487959361137b979560087f6cd26694047116012014e60ee2f27031595f74cd673aa07f6ef7736d5807d9cf9a01600160ff19825416179055600388015416611d05565b6040519081528183820152867ff8f56560a186eced64c07031f656150ab7aeafa29f2223ae3421b53fb687f19360403393a360405193849360408552600960408601910161197b565b918301520390a2005b60405162461bcd60e51b8152600481018690526015602482015274125b9d985b1a59081858dd1d585b08185b5bdd5b9d605a1b6044820152606490fd5b60405162461bcd60e51b815260048101869052601360248201527213dc99195c881b9bdd081cdd589b5a5d1d1959606a1b6044820152606490fd5b3461020f57602036600319011261020f576004356000526003602052602060ff604060002054166040519015158152f35b3461020f57604036600319011261020f57600435602435908060005260206003815261146060ff60406000205416611b61565b816000526002815261147d60ff6008604060002001541615611ba3565b816000526002815261149d60ff60086040600020015460081c1615611be7565b81600052600281526114b86007604060002001544210611c2b565b816000526002815260406000209060018060a01b0380600184015416906114e0823314611c6f565b611507604051848101908882528581526114f981611a2e565b519020600686015414611cbb565b60088401600160ff198254161790556004840154916007548084029084820414841517156115c25760029561154461271061155293048096611cf8565b968791019284845416611d05565b8261158c575b5050506040519384528301527ff8f56560a186eced64c07031f656150ab7aeafa29f2223ae3421b53fb687f19360403393a3005b61159f8383835416846008541690611d05565b5416600052600982526115b86040600020918254611a98565b9055848080611558565b634e487b7160e01b600052601160045260246000fd5b3461020f5760208060031936011261020f57600435806000526003825261160660ff60406000205416611b61565b806000526002825261162360ff6008604060002001541615611ba3565b806000526002825261164360ff60086040600020015460081c1615611be7565b80600052600282526007604060002001544210611713576000818152600283526040902080546001600160a01b039390841690338290036116cf575060046116a693946008840161010061ff001982541617905560028401541692015491611d05565b33907f19438ba24f558efe29e176888dc45d354fa6ca8f049af37592767f6534f32eb0600080a3005b6064906040519062461bcd60e51b82526004820152601e60248201527f4f6e6c7920696e69746961746f722063616e20726566756e642048544c4300006044820152fd5b60405162461bcd60e51b815260048101839052601960248201527f48544c432074696d656c6f636b206e6f742065787069726564000000000000006044820152606490fd5b3461020f57602036600319011261020f576117716118d5565b611779611a6c565b6001600160a01b031680156117a0576001600160601b0360a01b6004541617600455600080f35b60405162461bcd60e51b815260206004820152601e60248201527f496e76616c696420667573696f6e2072656c61796572206164647265737300006044820152606490fd5b3461020f57600036600319011261020f576020600554604051908152f35b3461020f57602036600319011261020f576001600160a01b036118246118d5565b1660005260096020526020604060002054604051908152f35b3461020f57604036600319011261020f5760243560043561185c611a6c565b8181101561186c57600555600655005b60405162461bcd60e51b815260206004820152601760248201527f496e76616c69642074696d656c6f636b206c696d6974730000000000000000006044820152606490fd5b3461020f57600036600319011261020f576004546001600160a01b03168152602090f35b600435906001600160a01b038216820361020f57565b602435906001600160a01b038216820361020f57565b919082519283825260005b84811061192d575050826000602080949584010152601f8019910116010190565b60208183018101518483018201520161190c565b90600182811c92168015611971575b602083101461195b57565b634e487b7160e01b600052602260045260246000fd5b91607f1691611950565b906000929180549161198c83611941565b9182825260019384811690816000146119ee57506001146119ae575b50505050565b90919394506000526020928360002092846000945b8386106119da5750505050010190388080806119a8565b8054858701830152940193859082016119c3565b9294505050602093945060ff191683830152151560051b010190388080806119a8565b610180810190811067ffffffffffffffff821117610a9d57604052565b6040810190811067ffffffffffffffff821117610a9d57604052565b90601f8019910116810190811067ffffffffffffffff821117610a9d57604052565b6000546001600160a01b03163303611a8057565b60405163118cdaa760e01b8152336004820152602490fd5b919082018092116115c257565b90601f8111611ab357505050565b600091825260208220906020601f850160051c83019410611aef575b601f0160051c01915b828110611ae457505050565b818155600101611ad8565b9092508290611acf565b906000602091828151910182855af115611b55576000513d611b4c57506001600160a01b0381163b155b611b2a5750565b604051635274afe760e01b81526001600160a01b039091166004820152602490fd5b60011415611b23565b6040513d6000823e3d90fd5b15611b6857565b60405162461bcd60e51b815260206004820152601360248201527212151310c8191bd95cc81b9bdd08195e1a5cdd606a1b6044820152606490fd5b15611baa57565b60405162461bcd60e51b815260206004820152601560248201527412151310c8185b1c9958591e48195e1958dd5d1959605a1b6044820152606490fd5b15611bee57565b60405162461bcd60e51b815260206004820152601560248201527412151310c8185b1c9958591e481c99599d5b991959605a1b6044820152606490fd5b15611c3257565b60405162461bcd60e51b815260206004820152601560248201527412151310c81d1a5b595b1bd8dac8195e1c1a5c9959605a1b6044820152606490fd5b15611c7657565b60405162461bcd60e51b815260206004820152601e60248201527f4f6e6c79207265736f6c7665722063616e20657865637574652048544c4300006044820152606490fd5b15611cc257565b60405162461bcd60e51b815260206004820152600e60248201526d125b9d985b1a59081cd958dc995d60921b6044820152606490fd5b919082039182116115c257565b60405163a9059cbb60e01b60208201526001600160a01b039092166024830152604480830193909352918152608081019167ffffffffffffffff831182841017610a9d57611d5592604052611af9565b56fea2646970667358221220cdb55ee7d35d3d5a99d35dec86b20a4b8d7b340ba7def27e505990e8398707bc64736f6c63430008140033","opcodes":"PUSH1 0x80 CALLVALUE PUSH3 0x19A JUMPI PUSH3 0x1F58 SWAP1 PUSH1 0x1F CODESIZE DUP4 SWAP1 SUB SWAP1 DUP2 ADD PUSH1 0x1F NOT AND DUP3 ADD SWAP1 PUSH1 0x1 PUSH1 0x1 PUSH1 0x40 SHL SUB DUP3 GT DUP4 DUP4 LT OR PUSH3 0x19F JUMPI DUP1 DUP4 SWAP2 PUSH1 0x40 SWAP6 DUP7 SWAP5 DUP6 MSTORE DUP4 CODECOPY DUP2 ADD SUB SLT PUSH3 0x19A JUMPI PUSH3 0x5D PUSH1 0x20 PUSH3 0x55 DUP4 PUSH3 0x1B5 JUMP JUMPDEST SWAP3 ADD PUSH3 0x1B5 JUMP JUMPDEST CALLER ISZERO PUSH3 0x182 JUMPI PUSH1 0x0 DUP1 SLOAD CALLER PUSH1 0x1 PUSH1 0x1 PUSH1 0xA0 SHL SUB NOT DUP1 DUP4 AND DUP3 OR DUP5 SSTORE DUP7 MLOAD SWAP6 SWAP1 SWAP5 PUSH1 0x1 PUSH1 0x1 PUSH1 0xA0 SHL SUB SWAP5 SWAP1 SWAP4 DUP6 SWAP4 SWAP2 SWAP1 DUP5 AND SWAP1 PUSH32 0x8BE0079C531659141344CD1FD0A4F28419497F9722A3DAAFE3B4186F6B6457E0 SWAP1 DUP1 LOG3 PUSH1 0x1 DUP1 SSTORE PUSH2 0xE10 PUSH1 0x5 SSTORE PUSH3 0x93A80 PUSH1 0x6 SSTORE PUSH1 0x5 PUSH1 0x7 SSTORE AND SWAP4 DUP5 ISZERO PUSH3 0x140 JUMPI POP AND SWAP2 DUP3 ISZERO PUSH3 0xFC JUMPI DUP2 PUSH1 0x4 SLOAD AND OR PUSH1 0x4 SSTORE PUSH1 0x8 SLOAD AND OR PUSH1 0x8 SSTORE MLOAD PUSH2 0x1D8D SWAP1 DUP2 PUSH3 0x1CB DUP3 CODECOPY RETURN JUMPDEST DUP4 MLOAD PUSH3 0x461BCD PUSH1 0xE5 SHL DUP2 MSTORE PUSH1 0x20 PUSH1 0x4 DUP3 ADD MSTORE PUSH1 0x1D PUSH1 0x24 DUP3 ADD MSTORE PUSH32 0x496E76616C69642066656520636F6C6C6563746F722061646472657373000000 PUSH1 0x44 DUP3 ADD MSTORE PUSH1 0x64 SWAP1 REVERT JUMPDEST PUSH3 0x461BCD PUSH1 0xE5 SHL DUP2 MSTORE PUSH1 0x20 PUSH1 0x4 DUP3 ADD MSTORE PUSH1 0x1E PUSH1 0x24 DUP3 ADD MSTORE PUSH32 0x496E76616C696420667573696F6E2072656C6179657220616464726573730000 PUSH1 0x44 DUP3 ADD MSTORE PUSH1 0x64 SWAP1 REVERT JUMPDEST DUP3 MLOAD PUSH4 0x1E4FBDF7 PUSH1 0xE0 SHL DUP2 MSTORE PUSH1 0x0 PUSH1 0x4 DUP3 ADD MSTORE PUSH1 0x24 SWAP1 REVERT JUMPDEST PUSH1 0x0 DUP1 REVERT JUMPDEST PUSH4 0x4E487B71 PUSH1 0xE0 SHL PUSH1 0x0 MSTORE PUSH1 0x41 PUSH1 0x4 MSTORE PUSH1 0x24 PUSH1 0x0 REVERT JUMPDEST MLOAD SWAP1 PUSH1 0x1 PUSH1 0x1 PUSH1 0xA0 SHL SUB DUP3 AND DUP3 SUB PUSH3 0x19A JUMPI JUMP INVALID PUSH1 0x80 DUP1 PUSH1 0x40 MSTORE PUSH1 0x4 CALLDATASIZE LT ISZERO PUSH2 0x13 JUMPI PUSH1 0x0 DUP1 REVERT JUMPDEST PUSH1 0x0 CALLDATALOAD PUSH1 0xE0 SHR SWAP1 DUP2 PUSH4 0x3C1751D EQ PUSH2 0x18B1 JUMPI POP DUP1 PUSH4 0x8A5B929 EQ PUSH2 0x183D JUMPI DUP1 PUSH4 0x1CEAD9A7 EQ PUSH2 0x1803 JUMPI DUP1 PUSH4 0x25429E7D EQ PUSH2 0x17E5 JUMPI DUP1 PUSH4 0x2CBC004F EQ PUSH2 0x1758 JUMPI DUP1 PUSH4 0x43B920C5 EQ PUSH2 0x15D8 JUMPI DUP1 PUSH4 0x44F8667A EQ PUSH2 0x142D JUMPI DUP1 PUSH4 0x4962130B EQ PUSH2 0x13FC JUMPI DUP1 PUSH4 0x67E90C3B EQ PUSH2 0x11FA JUMPI DUP1 PUSH4 0x715018A6 EQ PUSH2 0x11A1 JUMPI DUP1 PUSH4 0x787DCE3D EQ PUSH2 0x113B JUMPI DUP1 PUSH4 0x8DA5CB5B EQ PUSH2 0x1112 JUMPI DUP1 PUSH4 0x90C26838 EQ PUSH2 0xF09 JUMPI DUP1 PUSH4 0xA42DCE80 EQ PUSH2 0xE7C JUMPI DUP1 PUSH4 0xAD1329D1 EQ PUSH2 0xDEE JUMPI DUP1 PUSH4 0xAD3B1B47 EQ PUSH2 0xD3A JUMPI DUP1 PUSH4 0xB0E21E8A EQ PUSH2 0xD1C JUMPI DUP1 PUSH4 0xB19D8865 EQ PUSH2 0x5EF JUMPI DUP1 PUSH4 0xBC1FD34B EQ PUSH2 0x5D1 JUMPI DUP1 PUSH4 0xC377104A EQ PUSH2 0x2E3 JUMPI DUP1 PUSH4 0xC415B95C EQ PUSH2 0x2BA JUMPI DUP1 PUSH4 0xD73792A9 EQ PUSH2 0x29D JUMPI DUP1 PUSH4 0xF2FDE38B EQ PUSH2 0x214 JUMPI PUSH4 0xFD396AEC EQ PUSH2 0x127 JUMPI PUSH1 0x0 DUP1 REVERT JUMPDEST CALLVALUE PUSH2 0x20F JUMPI PUSH1 0x20 CALLDATASIZE PUSH1 0x3 NOT ADD SLT PUSH2 0x20F JUMPI PUSH1 0x4 CALLDATALOAD PUSH1 0x0 MSTORE PUSH1 0x2 PUSH1 0x20 MSTORE PUSH1 0x40 PUSH1 0x0 KECCAK256 PUSH1 0x1 DUP1 PUSH1 0xA0 SHL SUB DUP1 DUP3 SLOAD AND SWAP1 PUSH2 0x202 DUP2 PUSH1 0x1 DUP6 ADD SLOAD AND SWAP4 PUSH1 0xFF DUP4 PUSH1 0x2 DUP4 ADD SLOAD AND SWAP4 PUSH1 0x3 DUP4 ADD SLOAD AND PUSH1 0x4 DUP4 ADD SLOAD PUSH1 0x5 DUP5 ADD SLOAD PUSH1 0x6 DUP6 ADD SLOAD SWAP1 PUSH1 0x7 DUP7 ADD SLOAD SWAP3 PUSH1 0x8 DUP8 ADD SLOAD SWAP5 DUP7 PUSH1 0xA PUSH1 0x40 MLOAD SWAP10 PUSH2 0x1AA DUP12 PUSH2 0x1A3 DUP2 PUSH1 0x9 DUP6 ADD PUSH2 0x197B JUMP JUMPDEST SUB DUP13 PUSH2 0x1A4A JUMP JUMPDEST ADD SLOAD AND SWAP10 PUSH1 0x40 MLOAD SWAP13 DUP14 SWAP13 DUP14 MSTORE PUSH1 0x20 DUP14 ADD MSTORE PUSH1 0x40 DUP13 ADD MSTORE PUSH1 0x60 DUP12 ADD MSTORE PUSH1 0x80 DUP11 ADD MSTORE PUSH1 0xA0 DUP10 ADD MSTORE PUSH1 0xC0 DUP9 ADD MSTORE PUSH1 0xE0 DUP8 ADD MSTORE DUP2 DUP2 AND ISZERO ISZERO PUSH2 0x100 DUP8 ADD MSTORE PUSH1 0x8 SHR AND ISZERO ISZERO PUSH2 0x120 DUP6 ADD MSTORE PUSH2 0x180 DUP1 PUSH2 0x140 DUP7 ADD MSTORE DUP5 ADD SWAP1 PUSH2 0x1901 JUMP JUMPDEST SWAP1 ISZERO ISZERO PUSH2 0x160 DUP4 ADD MSTORE SUB SWAP1 RETURN JUMPDEST PUSH1 0x0 DUP1 REVERT JUMPDEST CALLVALUE PUSH2 0x20F JUMPI PUSH1 0x20 CALLDATASIZE PUSH1 0x3 NOT ADD SLT PUSH2 0x20F JUMPI PUSH2 0x22D PUSH2 0x18D5 JUMP JUMPDEST PUSH2 0x235 PUSH2 0x1A6C JUMP JUMPDEST PUSH1 0x1 PUSH1 0x1 PUSH1 0xA0 SHL SUB SWAP1 DUP2 AND SWAP1 DUP2 ISZERO PUSH2 0x284 JUMPI PUSH1 0x0 SLOAD DUP3 PUSH1 0x1 PUSH1 0x1 PUSH1 0x60 SHL SUB PUSH1 0xA0 SHL DUP3 AND OR PUSH1 0x0 SSTORE AND PUSH32 0x8BE0079C531659141344CD1FD0A4F28419497F9722A3DAAFE3B4186F6B6457E0 PUSH1 0x0 DUP1 LOG3 STOP JUMPDEST PUSH1 0x40 MLOAD PUSH4 0x1E4FBDF7 PUSH1 0xE0 SHL DUP2 MSTORE PUSH1 0x0 PUSH1 0x4 DUP3 ADD MSTORE PUSH1 0x24 SWAP1 REVERT JUMPDEST CALLVALUE PUSH2 0x20F JUMPI PUSH1 0x0 CALLDATASIZE PUSH1 0x3 NOT ADD SLT PUSH2 0x20F JUMPI PUSH1 0x20 PUSH1 0x40 MLOAD PUSH2 0x2710 DUP2 MSTORE RETURN JUMPDEST CALLVALUE PUSH2 0x20F JUMPI PUSH1 0x0 CALLDATASIZE PUSH1 0x3 NOT ADD SLT PUSH2 0x20F JUMPI PUSH1 0x8 SLOAD PUSH1 0x40 MLOAD PUSH1 0x1 PUSH1 0x1 PUSH1 0xA0 SHL SUB SWAP1 SWAP2 AND DUP2 MSTORE PUSH1 0x20 SWAP1 RETURN JUMPDEST CALLVALUE PUSH2 0x20F JUMPI PUSH1 0x40 CALLDATASIZE PUSH1 0x3 NOT ADD SLT PUSH2 0x20F JUMPI PUSH8 0xFFFFFFFFFFFFFFFF PUSH1 0x4 CALLDATALOAD PUSH1 0x24 DUP1 CALLDATALOAD SWAP1 DUP4 DUP3 GT PUSH2 0x20F JUMPI CALLDATASIZE PUSH1 0x23 DUP4 ADD SLT ISZERO PUSH2 0x20F JUMPI DUP2 PUSH1 0x4 ADD CALLDATALOAD SWAP4 DUP5 GT PUSH2 0x20F JUMPI CALLDATASIZE DUP2 DUP6 DUP5 ADD ADD GT PUSH2 0x20F JUMPI DUP3 PUSH1 0x0 MSTORE PUSH1 0x20 SWAP1 PUSH1 0x3 DUP3 MSTORE PUSH2 0x34A PUSH1 0xFF PUSH1 0x40 PUSH1 0x0 KECCAK256 SLOAD AND PUSH2 0x1B61 JUMP JUMPDEST DUP4 PUSH1 0x0 MSTORE PUSH1 0x2 DUP3 MSTORE PUSH2 0x367 PUSH1 0xFF PUSH1 0x8 PUSH1 0x40 PUSH1 0x0 KECCAK256 ADD SLOAD AND ISZERO PUSH2 0x1BA3 JUMP JUMPDEST DUP4 PUSH1 0x0 MSTORE PUSH1 0x2 DUP3 MSTORE PUSH2 0x387 PUSH1 0xFF PUSH1 0x8 PUSH1 0x40 PUSH1 0x0 KECCAK256 ADD SLOAD PUSH1 0x8 SHR AND ISZERO PUSH2 0x1BE7 JUMP JUMPDEST DUP4 PUSH1 0x0 MSTORE PUSH1 0x2 DUP3 MSTORE PUSH2 0x3A2 PUSH1 0x7 PUSH1 0x40 PUSH1 0x0 KECCAK256 ADD SLOAD TIMESTAMP LT PUSH2 0x1C2B JUMP JUMPDEST PUSH1 0x0 DUP5 DUP2 MSTORE PUSH1 0x2 DUP4 MSTORE PUSH1 0x40 SWAP1 KECCAK256 DUP1 SLOAD SWAP1 SWAP4 SWAP1 PUSH1 0x1 PUSH1 0x1 PUSH1 0xA0 SHL SUB AND CALLER SUB PUSH2 0x58D JUMPI PUSH1 0xA DUP5 ADD SWAP4 PUSH1 0xFF DUP6 SLOAD AND PUSH2 0x549 JUMPI DUP7 ISZERO PUSH2 0x512 JUMPI SWAP1 PUSH1 0x9 DUP8 SWAP4 SWAP3 ADD SWAP5 PUSH2 0x3F3 DUP5 PUSH2 0x3ED DUP9 SLOAD PUSH2 0x1941 JUMP JUMPDEST DUP9 PUSH2 0x1AA5 JUMP JUMPDEST PUSH1 0x0 SWAP6 PUSH1 0x1F DUP6 GT PUSH1 0x1 EQ PUSH2 0x488 JUMPI DUP5 DUP5 PUSH32 0x6207BDD983B0DFECDEC0BB7277CEE99619359C19E90E11BB86193670C9417A99 SWAP9 PUSH1 0x0 SWAP3 PUSH2 0x47B JUMPI JUMPDEST POP POP DUP6 PUSH1 0x1 SHL SWAP1 PUSH1 0x0 NOT DUP8 PUSH1 0x3 SHL SHR NOT AND OR SWAP1 SSTORE JUMPDEST PUSH1 0x1 PUSH1 0xFF NOT DUP3 SLOAD AND OR SWAP1 SSTORE DUP3 PUSH1 0x40 MLOAD SWAP5 DUP1 DUP7 MSTORE DUP6 ADD MSTORE ADD PUSH1 0x40 DUP4 ADD CALLDATACOPY PUSH1 0x0 PUSH1 0x40 DUP6 DUP4 ADD ADD MSTORE PUSH1 0x40 DUP2 CALLER SWAP6 PUSH1 0x1F DUP1 NOT SWAP2 ADD AND DUP2 ADD SUB ADD SWAP1 LOG3 STOP JUMPDEST DUP6 ADD ADD CALLDATALOAD SWAP1 POP DUP5 DUP12 PUSH2 0x42D JUMP JUMPDEST PUSH1 0x1F NOT DUP6 AND SWAP7 DUP2 PUSH1 0x0 MSTORE DUP7 PUSH1 0x0 KECCAK256 SWAP1 PUSH1 0x0 JUMPDEST DUP10 DUP2 LT PUSH2 0x4F6 JUMPI POP DUP7 PUSH32 0x6207BDD983B0DFECDEC0BB7277CEE99619359C19E90E11BB86193670C9417A99 SWAP10 LT PUSH2 0x4DA JUMPI JUMPDEST POP POP PUSH1 0x1 DUP6 DUP2 SHL ADD SWAP1 SSTORE PUSH2 0x442 JUMP JUMPDEST DUP5 ADD DUP6 ADD CALLDATALOAD PUSH1 0x0 NOT PUSH1 0x3 DUP9 SWAP1 SHL PUSH1 0xF8 AND SHR NOT AND SWAP1 SSTORE DUP10 DUP1 PUSH2 0x4CB JUMP JUMPDEST DUP6 DUP3 ADD DUP8 ADD CALLDATALOAD DUP4 SSTORE DUP12 SWAP8 POP PUSH1 0x1 SWAP1 SWAP3 ADD SWAP2 SWAP1 DUP9 ADD SWAP1 DUP9 ADD PUSH2 0x49A JUMP JUMPDEST PUSH1 0x40 MLOAD PUSH3 0x461BCD PUSH1 0xE5 SHL DUP2 MSTORE PUSH1 0x4 DUP2 ADD DUP6 SWAP1 MSTORE PUSH1 0x10 DUP2 DUP6 ADD MSTORE PUSH16 0x125B9D985B1A59081BDC99195C881251 PUSH1 0x82 SHL PUSH1 0x44 DUP3 ADD MSTORE PUSH1 0x64 SWAP1 REVERT JUMPDEST PUSH1 0x40 MLOAD PUSH3 0x461BCD PUSH1 0xE5 SHL DUP2 MSTORE PUSH1 0x4 DUP2 ADD DUP6 SWAP1 MSTORE PUSH1 0x17 DUP2 DUP6 ADD MSTORE PUSH32 0x4F7264657220616C7265616479207375626D6974746564000000000000000000 PUSH1 0x44 DUP3 ADD MSTORE PUSH1 0x64 SWAP1 REVERT JUMPDEST PUSH1 0x40 MLOAD PUSH3 0x461BCD PUSH1 0xE5 SHL DUP2 MSTORE PUSH1 0x4 DUP2 ADD DUP5 SWAP1 MSTORE PUSH1 0x1F DUP2 DUP5 ADD MSTORE PUSH32 0x4F6E6C7920696E69746961746F722063616E207375626D6974206F7264657200 PUSH1 0x44 DUP3 ADD MSTORE PUSH1 0x64 SWAP1 REVERT JUMPDEST CALLVALUE PUSH2 0x20F JUMPI PUSH1 0x0 CALLDATASIZE PUSH1 0x3 NOT ADD SLT PUSH2 0x20F JUMPI PUSH1 0x20 PUSH1 0x6 SLOAD PUSH1 0x40 MLOAD SWAP1 DUP2 MSTORE RETURN JUMPDEST CALLVALUE PUSH2 0x20F JUMPI PUSH1 0xE0 CALLDATASIZE PUSH1 0x3 NOT ADD SLT PUSH2 0x20F JUMPI PUSH2 0x608 PUSH2 0x18D5 JUMP JUMPDEST PUSH2 0x610 PUSH2 0x18EB JUMP JUMPDEST PUSH1 0x44 CALLDATALOAD SWAP2 PUSH1 0x1 PUSH1 0x1 PUSH1 0xA0 SHL SUB DUP4 AND DUP4 SUB PUSH2 0x20F JUMPI PUSH1 0x2 PUSH1 0x1 SLOAD EQ PUSH2 0xD0A JUMPI PUSH1 0x2 PUSH1 0x1 SSTORE PUSH1 0x1 PUSH1 0x1 PUSH1 0xA0 SHL SUB DUP2 AND ISZERO PUSH2 0xCC5 JUMPI PUSH1 0x1 PUSH1 0x1 PUSH1 0xA0 SHL SUB DUP3 AND ISZERO PUSH2 0xC80 JUMPI PUSH1 0x1 PUSH1 0x1 PUSH1 0xA0 SHL SUB DUP4 AND ISZERO PUSH2 0xC3B JUMPI PUSH1 0x64 CALLDATALOAD ISZERO PUSH2 0xBF6 JUMPI PUSH1 0x84 CALLDATALOAD ISZERO PUSH2 0xBA2 JUMPI PUSH2 0x67C PUSH1 0x5 SLOAD TIMESTAMP PUSH2 0x1A98 JUMP JUMPDEST PUSH1 0xC4 CALLDATALOAD LT PUSH2 0xB68 JUMPI PUSH2 0x690 PUSH1 0x6 SLOAD TIMESTAMP PUSH2 0x1A98 JUMP JUMPDEST PUSH1 0xC4 CALLDATALOAD GT PUSH2 0xB2F JUMPI PUSH1 0xA4 CALLDATALOAD ISZERO PUSH2 0xAF4 JUMPI PUSH1 0x40 MLOAD SWAP3 CALLER PUSH1 0x60 SHL PUSH1 0x20 DUP6 ADD MSTORE PUSH1 0x1 PUSH1 0x1 PUSH1 0x60 SHL SUB NOT DUP1 DUP4 PUSH1 0x60 SHL AND PUSH1 0x34 DUP7 ADD MSTORE DUP1 DUP5 PUSH1 0x60 SHL AND PUSH1 0x48 DUP7 ADD MSTORE DUP2 PUSH1 0x60 SHL AND PUSH1 0x5C DUP6 ADD MSTORE PUSH1 0x64 CALLDATALOAD PUSH1 0x70 DUP6 ADD MSTORE PUSH1 0x84 CALLDATALOAD PUSH1 0x90 DUP6 ADD MSTORE PUSH1 0xA4 CALLDATALOAD PUSH1 0xB0 DUP6 ADD MSTORE PUSH1 0xC4 CALLDATALOAD PUSH1 0xD0 DUP6 ADD MSTORE TIMESTAMP PUSH1 0xF0 DUP6 ADD MSTORE PUSH1 0xF0 DUP5 MSTORE DUP4 PUSH2 0x120 DUP2 ADD LT PUSH8 0xFFFFFFFFFFFFFFFF PUSH2 0x120 DUP7 ADD GT OR PUSH2 0xA9D JUMPI PUSH2 0x120 DUP5 ADD PUSH1 0x40 MSTORE DUP4 MLOAD PUSH1 0x20 DUP6 ADD KECCAK256 SWAP4 DUP5 PUSH1 0x0 MSTORE PUSH1 0x3 PUSH1 0x20 MSTORE PUSH1 0xFF PUSH1 0x40 PUSH1 0x0 KECCAK256 SLOAD AND PUSH2 0xAB3 JUMPI POP PUSH1 0x40 MLOAD PUSH4 0x23B872DD PUSH1 0xE0 SHL PUSH1 0x20 DUP3 ADD MSTORE CALLER PUSH1 0x24 DUP3 ADD MSTORE ADDRESS PUSH1 0x44 DUP3 ADD MSTORE PUSH1 0x64 DUP1 CALLDATALOAD DUP2 DUP4 ADD MSTORE DUP2 MSTORE PUSH8 0xFFFFFFFFFFFFFFFF PUSH1 0xA0 DUP3 ADD SWAP1 DUP2 GT SWAP1 DUP3 GT OR PUSH2 0xA9D JUMPI PUSH1 0xA0 DUP2 ADD PUSH1 0x40 MSTORE PUSH2 0x79A SWAP1 PUSH1 0x1 PUSH1 0x1 PUSH1 0xA0 SHL SUB DUP6 AND PUSH2 0x1AF9 JUMP JUMPDEST PUSH1 0x40 MLOAD PUSH2 0x7A6 DUP2 PUSH2 0x1A11 JUMP JUMPDEST CALLER DUP2 MSTORE PUSH1 0x1 DUP1 PUSH1 0xA0 SHL SUB DUP4 AND PUSH1 0x20 DUP3 ADD MSTORE PUSH1 0x1 DUP1 PUSH1 0xA0 SHL SUB DUP5 AND PUSH1 0x40 DUP3 ADD MSTORE PUSH1 0x1 DUP1 PUSH1 0xA0 SHL SUB DUP3 AND PUSH1 0x60 DUP3 ADD MSTORE PUSH1 0x64 CALLDATALOAD PUSH1 0x80 DUP3 ADD MSTORE PUSH1 0x84 CALLDATALOAD PUSH1 0xA0 DUP3 ADD MSTORE PUSH1 0xA4 CALLDATALOAD PUSH1 0xC0 DUP3 ADD MSTORE PUSH1 0xC4 CALLDATALOAD PUSH1 0xE0 DUP3 ADD MSTORE PUSH1 0x0 PUSH2 0x100 DUP3 ADD MSTORE PUSH1 0x0 PUSH2 0x120 DUP3 ADD MSTORE PUSH1 0x40 MLOAD DUP1 PUSH1 0x20 DUP2 ADD LT PUSH8 0xFFFFFFFFFFFFFFFF PUSH1 0x20 DUP4 ADD GT OR PUSH2 0xA9D JUMPI PUSH1 0x20 DUP2 ADD PUSH1 0x40 MSTORE PUSH1 0x0 DUP2 MSTORE PUSH2 0x140 DUP3 ADD MSTORE PUSH1 0x0 PUSH2 0x160 DUP3 ADD MSTORE DUP5 PUSH1 0x0 MSTORE PUSH1 0x2 PUSH1 0x20 MSTORE PUSH1 0x40 PUSH1 0x0 KECCAK256 SWAP1 PUSH1 0x1 DUP1 PUSH1 0xA0 SHL SUB DUP2 MLOAD AND PUSH1 0x1 PUSH1 0x1 PUSH1 0x60 SHL SUB PUSH1 0xA0 SHL SWAP1 DUP2 DUP5 SLOAD AND OR DUP4 SSTORE PUSH1 0x1 DUP4 ADD PUSH1 0x1 DUP1 PUSH1 0xA0 SHL SUB PUSH1 0x20 DUP5 ADD MLOAD AND DUP3 DUP3 SLOAD AND OR SWAP1 SSTORE PUSH1 0x2 DUP4 ADD PUSH1 0x1 DUP1 PUSH1 0xA0 SHL SUB PUSH1 0x40 DUP5 ADD MLOAD AND DUP3 DUP3 SLOAD AND OR SWAP1 SSTORE PUSH1 0x3 DUP4 ADD SWAP1 PUSH1 0x1 DUP1 PUSH1 0xA0 SHL SUB PUSH1 0x60 DUP5 ADD MLOAD AND SWAP1 DUP3 SLOAD AND OR SWAP1 SSTORE PUSH1 0x80 DUP2 ADD MLOAD PUSH1 0x4 DUP4 ADD SSTORE PUSH1 0xA0 DUP2 ADD MLOAD PUSH1 0x5 DUP4 ADD SSTORE PUSH1 0xC0 DUP2 ADD MLOAD PUSH1 0x6 DUP4 ADD SSTORE PUSH1 0xE0 DUP2 ADD MLOAD PUSH1 0x7 DUP4 ADD SSTORE PUSH1 0x8 DUP3 ADD PUSH2 0x8F6 PUSH2 0x100 DUP4 ADD MLOAD ISZERO ISZERO DUP3 SWAP1 PUSH1 0xFF DUP1 NOT DUP4 SLOAD AND SWAP2 ISZERO ISZERO AND OR SWAP1 SSTORE JUMP JUMPDEST PUSH2 0x120 DUP3 ADD MLOAD DUP2 SLOAD PUSH2 0xFF00 NOT AND SWAP1 ISZERO ISZERO PUSH1 0x8 SHL PUSH2 0xFF00 AND OR SWAP1 SSTORE PUSH2 0x140 DUP2 ADD MLOAD DUP1 MLOAD SWAP1 PUSH8 0xFFFFFFFFFFFFFFFF DUP3 GT PUSH2 0xA9D JUMPI PUSH2 0x942 DUP3 PUSH2 0x939 PUSH1 0x9 DUP8 ADD SLOAD PUSH2 0x1941 JUMP JUMPDEST PUSH1 0x9 DUP8 ADD PUSH2 0x1AA5 JUMP JUMPDEST PUSH1 0x20 SWAP1 PUSH1 0x1F DUP4 GT PUSH1 0x1 EQ PUSH2 0xA23 JUMPI SWAP3 DUP3 PUSH1 0xA SWAP4 PUSH2 0x160 SWAP4 PUSH2 0x995 SWAP8 SWAP7 PUSH1 0x0 SWAP3 PUSH2 0xA18 JUMPI JUMPDEST POP POP DUP2 PUSH1 0x1 SHL SWAP2 PUSH1 0x0 NOT SWAP1 PUSH1 0x3 SHL SHR NOT AND OR PUSH1 0x9 DUP6 ADD SSTORE JUMPDEST ADD MLOAD ISZERO ISZERO SWAP2 ADD SWAP1 PUSH1 0xFF DUP1 NOT DUP4 SLOAD AND SWAP2 ISZERO ISZERO AND OR SWAP1 SSTORE JUMP JUMPDEST PUSH1 0x0 DUP5 DUP2 MSTORE PUSH1 0x3 PUSH1 0x20 SWAP1 DUP2 MSTORE PUSH1 0x40 SWAP2 DUP3 SWAP1 KECCAK256 DUP1 SLOAD PUSH1 0xFF NOT AND PUSH1 0x1 OR SWAP1 SSTORE DUP2 MLOAD PUSH1 0x1 PUSH1 0x1 PUSH1 0xA0 SHL SUB SWAP6 DUP7 AND DUP2 MSTORE SWAP3 DUP6 AND SWAP1 DUP4 ADD MSTORE PUSH1 0x64 CALLDATALOAD SWAP1 DUP3 ADD MSTORE PUSH1 0x84 CALLDATALOAD PUSH1 0x60 DUP3 ADD MSTORE PUSH1 0xA4 CALLDATALOAD PUSH1 0x80 DUP3 ADD MSTORE PUSH1 0xC4 CALLDATALOAD PUSH1 0xA0 DUP3 ADD MSTORE SWAP2 AND SWAP2 CALLER SWAP2 PUSH32 0x4B5C104CA934D371410330F1CD6A99B9D510B1C1BD6F5E0FAF20D6C7E7E5CE46 SWAP1 PUSH1 0xC0 SWAP1 LOG4 PUSH1 0x1 DUP1 SSTORE STOP JUMPDEST ADD MLOAD SWAP1 POP DUP12 DUP1 PUSH2 0x966 JUMP JUMPDEST SWAP1 PUSH1 0x9 DUP6 ADD PUSH1 0x0 MSTORE PUSH1 0x20 PUSH1 0x0 KECCAK256 SWAP2 PUSH1 0x0 JUMPDEST PUSH1 0x1F NOT DUP6 AND DUP2 LT PUSH2 0xA85 JUMPI POP DUP4 PUSH2 0x160 SWAP4 PUSH2 0x995 SWAP8 SWAP7 SWAP4 PUSH1 0x1 SWAP4 PUSH1 0xA SWAP8 PUSH1 0x1F NOT DUP2 AND LT PUSH2 0xA6C JUMPI JUMPDEST POP POP POP DUP2 SHL ADD PUSH1 0x9 DUP6 ADD SSTORE PUSH2 0x97E JUMP JUMPDEST ADD MLOAD PUSH1 0x0 NOT PUSH1 0xF8 DUP5 PUSH1 0x3 SHL AND SHR NOT AND SWAP1 SSTORE DUP12 DUP1 DUP1 PUSH2 0xA5C JUMP JUMPDEST SWAP2 SWAP3 PUSH1 0x20 PUSH1 0x1 DUP2 SWAP3 DUP7 DUP6 ADD MLOAD DUP2 SSTORE ADD SWAP5 ADD SWAP3 ADD PUSH2 0xA34 JUMP JUMPDEST PUSH4 0x4E487B71 PUSH1 0xE0 SHL PUSH1 0x0 MSTORE PUSH1 0x41 PUSH1 0x4 MSTORE PUSH1 0x24 PUSH1 0x0 REVERT JUMPDEST PUSH2 0x120 PUSH1 0x64 SWAP2 PUSH3 0x461BCD PUSH1 0xE5 SHL DUP3 DUP3 ADD MSTORE PUSH1 0x20 PUSH2 0x124 DUP3 ADD MSTORE PUSH1 0x13 PUSH2 0x144 DUP3 ADD MSTORE PUSH19 0x48544C4320616C726561647920657869737473 PUSH1 0x68 SHL PUSH2 0x164 DUP3 ADD MSTORE ADD REVERT JUMPDEST PUSH1 0x40 MLOAD PUSH3 0x461BCD PUSH1 0xE5 SHL DUP2 MSTORE PUSH1 0x20 PUSH1 0x4 DUP3 ADD MSTORE PUSH1 0x13 PUSH1 0x24 DUP3 ADD MSTORE PUSH19 0x92DCECC2D8D2C840E6CAC6E4CAE840D0C2E6D PUSH1 0x6B SHL PUSH1 0x44 DUP3 ADD MSTORE PUSH1 0x64 SWAP1 REVERT JUMPDEST PUSH1 0x40 MLOAD PUSH3 0x461BCD PUSH1 0xE5 SHL DUP2 MSTORE PUSH1 0x20 PUSH1 0x4 DUP3 ADD MSTORE PUSH1 0x11 PUSH1 0x24 DUP3 ADD MSTORE PUSH17 0x54696D656C6F636B20746F6F206C6F6E67 PUSH1 0x78 SHL PUSH1 0x44 DUP3 ADD MSTORE PUSH1 0x64 SWAP1 REVERT JUMPDEST PUSH1 0x40 MLOAD PUSH3 0x461BCD PUSH1 0xE5 SHL DUP2 MSTORE PUSH1 0x20 PUSH1 0x4 DUP3 ADD MSTORE PUSH1 0x12 PUSH1 0x24 DUP3 ADD MSTORE PUSH18 0x151A5B595B1BD8DAC81D1BDBC81CDA1BDC9D PUSH1 0x72 SHL PUSH1 0x44 DUP3 ADD MSTORE PUSH1 0x64 SWAP1 REVERT JUMPDEST PUSH1 0x40 MLOAD PUSH3 0x461BCD PUSH1 0xE5 SHL DUP2 MSTORE PUSH1 0x20 PUSH1 0x4 DUP3 ADD MSTORE PUSH1 0x26 PUSH1 0x24 DUP3 ADD MSTORE PUSH32 0x457870656374656420616D6F756E74206D757374206265206772656174657220 PUSH1 0x44 DUP3 ADD MSTORE PUSH6 0x7468616E203 PUSH1 0xD4 SHL PUSH1 0x64 DUP3 ADD MSTORE PUSH1 0x84 SWAP1 REVERT JUMPDEST PUSH1 0x40 MLOAD PUSH3 0x461BCD PUSH1 0xE5 SHL DUP2 MSTORE PUSH1 0x20 PUSH1 0x4 DUP3 ADD MSTORE PUSH1 0x1D PUSH1 0x24 DUP3 ADD MSTORE PUSH32 0x416D6F756E74206D7573742062652067726561746572207468616E2030000000 PUSH1 0x44 DUP3 ADD MSTORE PUSH1 0x64 SWAP1 REVERT JUMPDEST PUSH1 0x40 MLOAD PUSH3 0x461BCD PUSH1 0xE5 SHL DUP2 MSTORE PUSH1 0x20 PUSH1 0x4 DUP3 ADD MSTORE PUSH1 0x17 PUSH1 0x24 DUP3 ADD MSTORE PUSH32 0x496E76616C696420746F546F6B656E2061646472657373000000000000000000 PUSH1 0x44 DUP3 ADD MSTORE PUSH1 0x64 SWAP1 REVERT JUMPDEST PUSH1 0x40 MLOAD PUSH3 0x461BCD PUSH1 0xE5 SHL DUP2 MSTORE PUSH1 0x20 PUSH1 0x4 DUP3 ADD MSTORE PUSH1 0x19 PUSH1 0x24 DUP3 ADD MSTORE PUSH32 0x496E76616C69642066726F6D546F6B656E206164647265737300000000000000 PUSH1 0x44 DUP3 ADD MSTORE PUSH1 0x64 SWAP1 REVERT JUMPDEST PUSH1 0x40 MLOAD PUSH3 0x461BCD PUSH1 0xE5 SHL DUP2 MSTORE PUSH1 0x20 PUSH1 0x4 DUP3 ADD MSTORE PUSH1 0x18 PUSH1 0x24 DUP3 ADD MSTORE PUSH32 0x496E76616C6964207265736F6C76657220616464726573730000000000000000 PUSH1 0x44 DUP3 ADD MSTORE PUSH1 0x64 SWAP1 REVERT JUMPDEST PUSH1 0x40 MLOAD PUSH4 0x3EE5AEB5 PUSH1 0xE0 SHL DUP2 MSTORE PUSH1 0x4 SWAP1 REVERT JUMPDEST CALLVALUE PUSH2 0x20F JUMPI PUSH1 0x0 CALLDATASIZE PUSH1 0x3 NOT ADD SLT PUSH2 0x20F JUMPI PUSH1 0x20 PUSH1 0x7 SLOAD PUSH1 0x40 MLOAD SWAP1 DUP2 MSTORE RETURN JUMPDEST CALLVALUE PUSH2 0x20F JUMPI PUSH1 0x40 CALLDATASIZE PUSH1 0x3 NOT ADD SLT PUSH2 0x20F JUMPI PUSH2 0xD53 PUSH2 0x18D5 JUMP JUMPDEST PUSH1 0x24 CALLDATALOAD PUSH2 0xD5E PUSH2 0x1A6C JUMP JUMPDEST PUSH1 0x1 PUSH1 0x1 PUSH1 0xA0 SHL SUB SWAP2 DUP3 AND PUSH1 0x0 DUP2 DUP2 MSTORE PUSH1 0x9 PUSH1 0x20 MSTORE PUSH1 0x40 SWAP1 KECCAK256 SLOAD DUP3 GT PUSH2 0xDA9 JUMPI PUSH2 0xDA7 SWAP3 DUP2 PUSH1 0x0 MSTORE PUSH1 0x9 PUSH1 0x20 MSTORE PUSH1 0x40 PUSH1 0x0 KECCAK256 PUSH2 0xD9B DUP5 DUP3 SLOAD PUSH2 0x1CF8 JUMP JUMPDEST SWAP1 SSTORE PUSH1 0x8 SLOAD AND SWAP1 PUSH2 0x1D05 JUMP JUMPDEST STOP JUMPDEST PUSH1 0x40 MLOAD PUSH3 0x461BCD PUSH1 0xE5 SHL DUP2 MSTORE PUSH1 0x20 PUSH1 0x4 DUP3 ADD MSTORE PUSH1 0x1B PUSH1 0x24 DUP3 ADD MSTORE PUSH32 0x496E73756666696369656E7420636F6C6C656374656420666565730000000000 PUSH1 0x44 DUP3 ADD MSTORE PUSH1 0x64 SWAP1 REVERT JUMPDEST CALLVALUE PUSH2 0x20F JUMPI PUSH1 0x60 CALLDATASIZE PUSH1 0x3 NOT ADD SLT PUSH2 0x20F JUMPI PUSH2 0xE07 PUSH2 0x18D5 JUMP JUMPDEST PUSH2 0xE0F PUSH2 0x18EB JUMP JUMPDEST SWAP1 PUSH2 0xE18 PUSH2 0x1A6C JUMP JUMPDEST PUSH1 0x1 PUSH1 0x1 PUSH1 0xA0 SHL SUB SWAP2 DUP1 DUP4 AND ISZERO PUSH2 0xE37 JUMPI PUSH2 0xDA7 SWAP3 PUSH1 0x44 CALLDATALOAD SWAP3 AND PUSH2 0x1D05 JUMP JUMPDEST PUSH1 0x40 MLOAD PUSH3 0x461BCD PUSH1 0xE5 SHL DUP2 MSTORE PUSH1 0x20 PUSH1 0x4 DUP3 ADD MSTORE PUSH1 0x19 PUSH1 0x24 DUP3 ADD MSTORE PUSH32 0x496E76616C696420726563697069656E74206164647265737300000000000000 PUSH1 0x44 DUP3 ADD MSTORE PUSH1 0x64 SWAP1 REVERT JUMPDEST CALLVALUE PUSH2 0x20F JUMPI PUSH1 0x20 CALLDATASIZE PUSH1 0x3 NOT ADD SLT PUSH2 0x20F JUMPI PUSH2 0xE95 PUSH2 0x18D5 JUMP JUMPDEST PUSH2 0xE9D PUSH2 0x1A6C JUMP JUMPDEST PUSH1 0x1 PUSH1 0x1 PUSH1 0xA0 SHL SUB AND DUP1 ISZERO PUSH2 0xEC4 JUMPI PUSH1 0x1 PUSH1 0x1 PUSH1 0x60 SHL SUB PUSH1 0xA0 SHL PUSH1 0x8 SLOAD AND OR PUSH1 0x8 SSTORE PUSH1 0x0 DUP1 RETURN JUMPDEST PUSH1 0x40 MLOAD PUSH3 0x461BCD PUSH1 0xE5 SHL DUP2 MSTORE PUSH1 0x20 PUSH1 0x4 DUP3 ADD MSTORE PUSH1 0x1D PUSH1 0x24 DUP3 ADD MSTORE PUSH32 0x496E76616C69642066656520636F6C6C6563746F722061646472657373000000 PUSH1 0x44 DUP3 ADD MSTORE PUSH1 0x64 SWAP1 REVERT JUMPDEST CALLVALUE PUSH2 0x20F JUMPI PUSH1 0x20 CALLDATASIZE PUSH1 0x3 NOT ADD SLT PUSH2 0x20F JUMPI PUSH1 0x4 CALLDATALOAD PUSH1 0x0 PUSH2 0x160 PUSH1 0x40 MLOAD PUSH2 0xF2E DUP2 PUSH2 0x1A11 JUMP JUMPDEST DUP3 DUP2 MSTORE DUP3 PUSH1 0x20 DUP3 ADD MSTORE DUP3 PUSH1 0x40 DUP3 ADD MSTORE DUP3 PUSH1 0x60 DUP3 ADD MSTORE DUP3 PUSH1 0x80 DUP3 ADD MSTORE DUP3 PUSH1 0xA0 DUP3 ADD MSTORE DUP3 PUSH1 0xC0 DUP3 ADD MSTORE DUP3 PUSH1 0xE0 DUP3 ADD MSTORE DUP3 PUSH2 0x100 DUP3 ADD MSTORE DUP3 PUSH2 0x120 DUP3 ADD MSTORE PUSH1 0x60 PUSH2 0x140 DUP3 ADD MSTORE ADD MSTORE DUP1 PUSH1 0x0 MSTORE PUSH1 0x3 PUSH1 0x20 MSTORE PUSH2 0xF8D PUSH1 0xFF PUSH1 0x40 PUSH1 0x0 KECCAK256 SLOAD AND PUSH2 0x1B61 JUMP JUMPDEST PUSH1 0x0 MSTORE PUSH1 0x2 PUSH1 0x20 MSTORE PUSH1 0x40 PUSH1 0x0 KECCAK256 PUSH1 0xFF PUSH1 0xA PUSH1 0x40 MLOAD SWAP3 PUSH2 0xFAB DUP5 PUSH2 0x1A11 JUMP JUMPDEST DUP1 SLOAD PUSH1 0x1 PUSH1 0x1 PUSH1 0xA0 SHL SUB SWAP1 DUP2 AND DUP6 MSTORE PUSH1 0x1 DUP3 ADD SLOAD DUP2 AND PUSH1 0x20 DUP7 ADD MSTORE PUSH1 0x2 DUP3 ADD SLOAD DUP2 AND PUSH1 0x40 DUP1 DUP8 ADD SWAP2 SWAP1 SWAP2 MSTORE PUSH1 0x3 DUP4 ADD SLOAD SWAP1 SWAP2 AND PUSH1 0x60 DUP7 ADD MSTORE PUSH1 0x4 DUP3 ADD SLOAD PUSH1 0x80 DUP7 ADD MSTORE PUSH1 0x5 DUP3 ADD SLOAD PUSH1 0xA0 DUP7 ADD MSTORE PUSH1 0x6 DUP3 ADD SLOAD PUSH1 0xC0 DUP7 ADD MSTORE PUSH1 0x7 DUP3 ADD SLOAD PUSH1 0xE0 DUP7 ADD MSTORE PUSH1 0x8 DUP1 DUP4 ADD SLOAD DUP1 DUP7 AND ISZERO ISZERO PUSH2 0x100 DUP9 ADD MSTORE SWAP1 SHR DUP5 AND ISZERO ISZERO PUSH2 0x120 DUP7 ADD MSTORE MLOAD PUSH2 0x1041 DUP2 PUSH2 0x103A DUP2 PUSH1 0x9 DUP7 ADD PUSH2 0x197B JUMP JUMPDEST SUB DUP3 PUSH2 0x1A4A JUMP JUMPDEST PUSH2 0x140 DUP6 ADD MSTORE ADD SLOAD AND ISZERO ISZERO PUSH2 0x160 DUP3 ADD MSTORE PUSH1 0x40 MLOAD DUP1 SWAP2 PUSH1 0x20 DUP3 MSTORE PUSH1 0x1 DUP1 PUSH1 0xA0 SHL SUB DUP2 MLOAD AND PUSH1 0x20 DUP4 ADD MSTORE PUSH1 0x1 DUP1 PUSH1 0xA0 SHL SUB PUSH1 0x20 DUP3 ADD MLOAD AND PUSH1 0x40 DUP4 ADD MSTORE PUSH1 0x1 DUP1 PUSH1 0xA0 SHL SUB PUSH1 0x40 DUP3 ADD MLOAD AND PUSH1 0x60 DUP4 ADD MSTORE PUSH1 0x1 DUP1 PUSH1 0xA0 SHL SUB PUSH1 0x60 DUP3 ADD MLOAD AND PUSH1 0x80 DUP4 ADD MSTORE PUSH1 0x80 DUP2 ADD MLOAD PUSH1 0xA0 DUP4 ADD MSTORE PUSH1 0xA0 DUP2 ADD MLOAD PUSH1 0xC0 DUP4 ADD MSTORE PUSH1 0xC0 DUP2 ADD MLOAD PUSH1 0xE0 DUP4 ADD MSTORE PUSH1 0xE0 DUP2 ADD MLOAD PUSH2 0x100 DUP4 ADD MSTORE PUSH2 0x100 DUP2 ADD MLOAD ISZERO ISZERO PUSH2 0x120 DUP4 ADD MSTORE PUSH2 0x120 DUP2 ADD MLOAD ISZERO ISZERO PUSH2 0x140 DUP4 ADD MSTORE PUSH2 0x140 DUP2 ADD MLOAD PUSH2 0x160 PUSH2 0x1105 PUSH2 0x180 SWAP3 DUP4 DUP4 DUP8 ADD MSTORE PUSH2 0x1A0 DUP7 ADD SWAP1 PUSH2 0x1901 JUMP JUMPDEST SWAP3 ADD MLOAD ISZERO ISZERO SWAP1 DUP4 ADD MSTORE SUB SWAP1 RETURN JUMPDEST CALLVALUE PUSH2 0x20F JUMPI PUSH1 0x0 CALLDATASIZE PUSH1 0x3 NOT ADD SLT PUSH2 0x20F JUMPI PUSH1 0x0 SLOAD PUSH1 0x40 MLOAD PUSH1 0x1 PUSH1 0x1 PUSH1 0xA0 SHL SUB SWAP1 SWAP2 AND DUP2 MSTORE PUSH1 0x20 SWAP1 RETURN JUMPDEST CALLVALUE PUSH2 0x20F JUMPI PUSH1 0x20 CALLDATASIZE PUSH1 0x3 NOT ADD SLT PUSH2 0x20F JUMPI PUSH1 0x4 CALLDATALOAD PUSH2 0x1157 PUSH2 0x1A6C JUMP JUMPDEST PUSH1 0x64 DUP2 GT PUSH2 0x1164 JUMPI PUSH1 0x7 SSTORE STOP JUMPDEST PUSH1 0x40 MLOAD PUSH3 0x461BCD PUSH1 0xE5 SHL DUP2 MSTORE PUSH1 0x20 PUSH1 0x4 DUP3 ADD MSTORE PUSH1 0x15 PUSH1 0x24 DUP3 ADD MSTORE PUSH21 0xA0E4DEE8DEC6DED840CCCACA40E8DEDE40D0D2CED PUSH1 0x5B SHL PUSH1 0x44 DUP3 ADD MSTORE PUSH1 0x64 SWAP1 REVERT JUMPDEST CALLVALUE PUSH2 0x20F JUMPI PUSH1 0x0 CALLDATASIZE PUSH1 0x3 NOT ADD SLT PUSH2 0x20F JUMPI PUSH2 0x11BA PUSH2 0x1A6C JUMP JUMPDEST PUSH1 0x0 DUP1 SLOAD PUSH1 0x1 PUSH1 0x1 PUSH1 0xA0 SHL SUB NOT DUP2 AND DUP3 SSTORE PUSH1 0x1 PUSH1 0x1 PUSH1 0xA0 SHL SUB AND PUSH32 0x8BE0079C531659141344CD1FD0A4F28419497F9722A3DAAFE3B4186F6B6457E0 DUP3 DUP1 LOG3 STOP JUMPDEST CALLVALUE PUSH2 0x20F JUMPI PUSH1 0x60 CALLDATASIZE PUSH1 0x3 NOT ADD SLT PUSH2 0x20F JUMPI PUSH1 0x4 CALLDATALOAD PUSH1 0x24 CALLDATALOAD PUSH1 0x44 CALLDATALOAD DUP3 PUSH1 0x0 MSTORE PUSH1 0x20 SWAP1 PUSH1 0x3 DUP3 MSTORE PUSH2 0x1230 PUSH1 0xFF PUSH1 0x40 PUSH1 0x0 KECCAK256 SLOAD AND PUSH2 0x1B61 JUMP JUMPDEST DUP4 PUSH1 0x0 MSTORE PUSH1 0x2 DUP3 MSTORE PUSH2 0x124D PUSH1 0xFF PUSH1 0x8 PUSH1 0x40 PUSH1 0x0 KECCAK256 ADD SLOAD AND ISZERO PUSH2 0x1BA3 JUMP JUMPDEST DUP4 PUSH1 0x0 MSTORE PUSH1 0x2 DUP3 MSTORE PUSH2 0x126D PUSH1 0xFF PUSH1 0x8 PUSH1 0x40 PUSH1 0x0 KECCAK256 ADD SLOAD PUSH1 0x8 SHR AND ISZERO PUSH2 0x1BE7 JUMP JUMPDEST DUP4 PUSH1 0x0 MSTORE PUSH1 0x2 DUP3 MSTORE PUSH2 0x1288 PUSH1 0x7 PUSH1 0x40 PUSH1 0x0 KECCAK256 ADD SLOAD TIMESTAMP LT PUSH2 0x1C2B JUMP JUMPDEST DUP4 PUSH1 0x0 MSTORE PUSH1 0x2 DUP3 MSTORE PUSH1 0x40 PUSH1 0x0 KECCAK256 SWAP3 PUSH1 0x1 DUP1 PUSH1 0xA0 SHL SUB DUP1 PUSH1 0x1 DUP7 ADD SLOAD AND SWAP1 PUSH2 0x12B0 DUP3 CALLER EQ PUSH2 0x1C6F JUMP JUMPDEST PUSH2 0x12D7 PUSH1 0x40 MLOAD DUP7 DUP2 ADD SWAP1 DUP6 DUP3 MSTORE DUP8 DUP2 MSTORE PUSH2 0x12C9 DUP2 PUSH2 0x1A2E JUMP JUMPDEST MLOAD SWAP1 KECCAK256 PUSH1 0x6 DUP9 ADD SLOAD EQ PUSH2 0x1CBB JUMP JUMPDEST PUSH1 0xFF PUSH1 0xA DUP8 ADD SLOAD AND ISZERO PUSH2 0x13C1 JUMPI DUP4 ISZERO PUSH2 0x1384 JUMPI SWAP2 PUSH2 0x1332 DUP5 DUP8 SWAP6 SWAP4 PUSH2 0x137B SWAP8 SWAP6 PUSH1 0x8 PUSH32 0x6CD26694047116012014E60EE2F27031595F74CD673AA07F6EF7736D5807D9CF SWAP11 ADD PUSH1 0x1 PUSH1 0xFF NOT DUP3 SLOAD AND OR SWAP1 SSTORE PUSH1 0x3 DUP9 ADD SLOAD AND PUSH2 0x1D05 JUMP JUMPDEST PUSH1 0x40 MLOAD SWAP1 DUP2 MSTORE DUP2 DUP4 DUP3 ADD MSTORE DUP7 PUSH32 0xF8F56560A186ECED64C07031F656150AB7AEAFA29F2223AE3421B53FB687F193 PUSH1 0x40 CALLER SWAP4 LOG3 PUSH1 0x40 MLOAD SWAP4 DUP5 SWAP4 PUSH1 0x40 DUP6 MSTORE PUSH1 0x9 PUSH1 0x40 DUP7 ADD SWAP2 ADD PUSH2 0x197B JUMP JUMPDEST SWAP2 DUP4 ADD MSTORE SUB SWAP1 LOG2 STOP JUMPDEST PUSH1 0x40 MLOAD PUSH3 0x461BCD PUSH1 0xE5 SHL DUP2 MSTORE PUSH1 0x4 DUP2 ADD DUP7 SWAP1 MSTORE PUSH1 0x15 PUSH1 0x24 DUP3 ADD MSTORE PUSH21 0x125B9D985B1A59081858DD1D585B08185B5BDD5B9D PUSH1 0x5A SHL PUSH1 0x44 DUP3 ADD MSTORE PUSH1 0x64 SWAP1 REVERT JUMPDEST PUSH1 0x40 MLOAD PUSH3 0x461BCD PUSH1 0xE5 SHL DUP2 MSTORE PUSH1 0x4 DUP2 ADD DUP7 SWAP1 MSTORE PUSH1 0x13 PUSH1 0x24 DUP3 ADD MSTORE PUSH19 0x13DC99195C881B9BDD081CDD589B5A5D1D1959 PUSH1 0x6A SHL PUSH1 0x44 DUP3 ADD MSTORE PUSH1 0x64 SWAP1 REVERT JUMPDEST CALLVALUE PUSH2 0x20F JUMPI PUSH1 0x20 CALLDATASIZE PUSH1 0x3 NOT ADD SLT PUSH2 0x20F JUMPI PUSH1 0x4 CALLDATALOAD PUSH1 0x0 MSTORE PUSH1 0x3 PUSH1 0x20 MSTORE PUSH1 0x20 PUSH1 0xFF PUSH1 0x40 PUSH1 0x0 KECCAK256 SLOAD AND PUSH1 0x40 MLOAD SWAP1 ISZERO ISZERO DUP2 MSTORE RETURN JUMPDEST CALLVALUE PUSH2 0x20F JUMPI PUSH1 0x40 CALLDATASIZE PUSH1 0x3 NOT ADD SLT PUSH2 0x20F JUMPI PUSH1 0x4 CALLDATALOAD PUSH1 0x24 CALLDATALOAD SWAP1 DUP1 PUSH1 0x0 MSTORE PUSH1 0x20 PUSH1 0x3 DUP2 MSTORE PUSH2 0x1460 PUSH1 0xFF PUSH1 0x40 PUSH1 0x0 KECCAK256 SLOAD AND PUSH2 0x1B61 JUMP JUMPDEST DUP2 PUSH1 0x0 MSTORE PUSH1 0x2 DUP2 MSTORE PUSH2 0x147D PUSH1 0xFF PUSH1 0x8 PUSH1 0x40 PUSH1 0x0 KECCAK256 ADD SLOAD AND ISZERO PUSH2 0x1BA3 JUMP JUMPDEST DUP2 PUSH1 0x0 MSTORE PUSH1 0x2 DUP2 MSTORE PUSH2 0x149D PUSH1 0xFF PUSH1 0x8 PUSH1 0x40 PUSH1 0x0 KECCAK256 ADD SLOAD PUSH1 0x8 SHR AND ISZERO PUSH2 0x1BE7 JUMP JUMPDEST DUP2 PUSH1 0x0 MSTORE PUSH1 0x2 DUP2 MSTORE PUSH2 0x14B8 PUSH1 0x7 PUSH1 0x40 PUSH1 0x0 KECCAK256 ADD SLOAD TIMESTAMP LT PUSH2 0x1C2B JUMP JUMPDEST DUP2 PUSH1 0x0 MSTORE PUSH1 0x2 DUP2 MSTORE PUSH1 0x40 PUSH1 0x0 KECCAK256 SWAP1 PUSH1 0x1 DUP1 PUSH1 0xA0 SHL SUB DUP1 PUSH1 0x1 DUP5 ADD SLOAD AND SWAP1 PUSH2 0x14E0 DUP3 CALLER EQ PUSH2 0x1C6F JUMP JUMPDEST PUSH2 0x1507 PUSH1 0x40 MLOAD DUP5 DUP2 ADD SWAP1 DUP9 DUP3 MSTORE DUP6 DUP2 MSTORE PUSH2 0x14F9 DUP2 PUSH2 0x1A2E JUMP JUMPDEST MLOAD SWAP1 KECCAK256 PUSH1 0x6 DUP7 ADD SLOAD EQ PUSH2 0x1CBB JUMP JUMPDEST PUSH1 0x8 DUP5 ADD PUSH1 0x1 PUSH1 0xFF NOT DUP3 SLOAD AND OR SWAP1 SSTORE PUSH1 0x4 DUP5 ADD SLOAD SWAP2 PUSH1 0x7 SLOAD DUP1 DUP5 MUL SWAP1 DUP5 DUP3 DIV EQ DUP5 ISZERO OR ISZERO PUSH2 0x15C2 JUMPI PUSH1 0x2 SWAP6 PUSH2 0x1544 PUSH2 0x2710 PUSH2 0x1552 SWAP4 DIV DUP1 SWAP7 PUSH2 0x1CF8 JUMP JUMPDEST SWAP7 DUP8 SWAP2 ADD SWAP3 DUP5 DUP5 SLOAD AND PUSH2 0x1D05 JUMP JUMPDEST DUP3 PUSH2 0x158C JUMPI JUMPDEST POP POP POP PUSH1 0x40 MLOAD SWAP4 DUP5 MSTORE DUP4 ADD MSTORE PUSH32 0xF8F56560A186ECED64C07031F656150AB7AEAFA29F2223AE3421B53FB687F193 PUSH1 0x40 CALLER SWAP4 LOG3 STOP JUMPDEST PUSH2 0x159F DUP4 DUP4 DUP4 SLOAD AND DUP5 PUSH1 0x8 SLOAD AND SWAP1 PUSH2 0x1D05 JUMP JUMPDEST SLOAD AND PUSH1 0x0 MSTORE PUSH1 0x9 DUP3 MSTORE PUSH2 0x15B8 PUSH1 0x40 PUSH1 0x0 KECCAK256 SWAP2 DUP3 SLOAD PUSH2 0x1A98 JUMP JUMPDEST SWAP1 SSTORE DUP5 DUP1 DUP1 PUSH2 0x1558 JUMP JUMPDEST PUSH4 0x4E487B71 PUSH1 0xE0 SHL PUSH1 0x0 MSTORE PUSH1 0x11 PUSH1 0x4 MSTORE PUSH1 0x24 PUSH1 0x0 REVERT JUMPDEST CALLVALUE PUSH2 0x20F JUMPI PUSH1 0x20 DUP1 PUSH1 0x3 NOT CALLDATASIZE ADD SLT PUSH2 0x20F JUMPI PUSH1 0x4 CALLDATALOAD DUP1 PUSH1 0x0 MSTORE PUSH1 0x3 DUP3 MSTORE PUSH2 0x1606 PUSH1 0xFF PUSH1 0x40 PUSH1 0x0 KECCAK256 SLOAD AND PUSH2 0x1B61 JUMP JUMPDEST DUP1 PUSH1 0x0 MSTORE PUSH1 0x2 DUP3 MSTORE PUSH2 0x1623 PUSH1 0xFF PUSH1 0x8 PUSH1 0x40 PUSH1 0x0 KECCAK256 ADD SLOAD AND ISZERO PUSH2 0x1BA3 JUMP JUMPDEST DUP1 PUSH1 0x0 MSTORE PUSH1 0x2 DUP3 MSTORE PUSH2 0x1643 PUSH1 0xFF PUSH1 0x8 PUSH1 0x40 PUSH1 0x0 KECCAK256 ADD SLOAD PUSH1 0x8 SHR AND ISZERO PUSH2 0x1BE7 JUMP JUMPDEST DUP1 PUSH1 0x0 MSTORE PUSH1 0x2 DUP3 MSTORE PUSH1 0x7 PUSH1 0x40 PUSH1 0x0 KECCAK256 ADD SLOAD TIMESTAMP LT PUSH2 0x1713 JUMPI PUSH1 0x0 DUP2 DUP2 MSTORE PUSH1 0x2 DUP4 MSTORE PUSH1 0x40 SWAP1 KECCAK256 DUP1 SLOAD PUSH1 0x1 PUSH1 0x1 PUSH1 0xA0 SHL SUB SWAP4 SWAP1 DUP5 AND SWAP1 CALLER DUP3 SWAP1 SUB PUSH2 0x16CF JUMPI POP PUSH1 0x4 PUSH2 0x16A6 SWAP4 SWAP5 PUSH1 0x8 DUP5 ADD PUSH2 0x100 PUSH2 0xFF00 NOT DUP3 SLOAD AND OR SWAP1 SSTORE PUSH1 0x2 DUP5 ADD SLOAD AND SWAP3 ADD SLOAD SWAP2 PUSH2 0x1D05 JUMP JUMPDEST CALLER SWAP1 PUSH32 0x19438BA24F558EFE29E176888DC45D354FA6CA8F049AF37592767F6534F32EB0 PUSH1 0x0 DUP1 LOG3 STOP JUMPDEST PUSH1 0x64 SWAP1 PUSH1 0x40 MLOAD SWAP1 PUSH3 0x461BCD PUSH1 0xE5 SHL DUP3 MSTORE PUSH1 0x4 DUP3 ADD MSTORE PUSH1 0x1E PUSH1 0x24 DUP3 ADD MSTORE PUSH32 0x4F6E6C7920696E69746961746F722063616E20726566756E642048544C430000 PUSH1 0x44 DUP3 ADD MSTORE REVERT JUMPDEST PUSH1 0x40 MLOAD PUSH3 0x461BCD PUSH1 0xE5 SHL DUP2 MSTORE PUSH1 0x4 DUP2 ADD DUP4 SWAP1 MSTORE PUSH1 0x19 PUSH1 0x24 DUP3 ADD MSTORE PUSH32 0x48544C432074696D656C6F636B206E6F74206578706972656400000000000000 PUSH1 0x44 DUP3 ADD MSTORE PUSH1 0x64 SWAP1 REVERT JUMPDEST CALLVALUE PUSH2 0x20F JUMPI PUSH1 0x20 CALLDATASIZE PUSH1 0x3 NOT ADD SLT PUSH2 0x20F JUMPI PUSH2 0x1771 PUSH2 0x18D5 JUMP JUMPDEST PUSH2 0x1779 PUSH2 0x1A6C JUMP JUMPDEST PUSH1 0x1 PUSH1 0x1 PUSH1 0xA0 SHL SUB AND DUP1 ISZERO PUSH2 0x17A0 JUMPI PUSH1 0x1 PUSH1 0x1 PUSH1 0x60 SHL SUB PUSH1 0xA0 SHL PUSH1 0x4 SLOAD AND OR PUSH1 0x4 SSTORE PUSH1 0x0 DUP1 RETURN JUMPDEST PUSH1 0x40 MLOAD PUSH3 0x461BCD PUSH1 0xE5 SHL DUP2 MSTORE PUSH1 0x20 PUSH1 0x4 DUP3 ADD MSTORE PUSH1 0x1E PUSH1 0x24 DUP3 ADD MSTORE PUSH32 0x496E76616C696420667573696F6E2072656C6179657220616464726573730000 PUSH1 0x44 DUP3 ADD MSTORE PUSH1 0x64 SWAP1 REVERT JUMPDEST CALLVALUE PUSH2 0x20F JUMPI PUSH1 0x0 CALLDATASIZE PUSH1 0x3 NOT ADD SLT PUSH2 0x20F JUMPI PUSH1 0x20 PUSH1 0x5 SLOAD PUSH1 0x40 MLOAD SWAP1 DUP2 MSTORE RETURN JUMPDEST CALLVALUE PUSH2 0x20F JUMPI PUSH1 0x20 CALLDATASIZE PUSH1 0x3 NOT ADD SLT PUSH2 0x20F JUMPI PUSH1 0x1 PUSH1 0x1 PUSH1 0xA0 SHL SUB PUSH2 0x1824 PUSH2 0x18D5 JUMP JUMPDEST AND PUSH1 0x0 MSTORE PUSH1 0x9 PUSH1 0x20 MSTORE PUSH1 0x20 PUSH1 0x40 PUSH1 0x0 KECCAK256 SLOAD PUSH1 0x40 MLOAD SWAP1 DUP2 MSTORE RETURN JUMPDEST CALLVALUE PUSH2 0x20F JUMPI PUSH1 0x40 CALLDATASIZE PUSH1 0x3 NOT ADD SLT PUSH2 0x20F JUMPI PUSH1 0x24 CALLDATALOAD PUSH1 0x4 CALLDATALOAD PUSH2 0x185C PUSH2 0x1A6C JUMP JUMPDEST DUP2 DUP2 LT ISZERO PUSH2 0x186C JUMPI PUSH1 0x5 SSTORE PUSH1 0x6 SSTORE STOP JUMPDEST PUSH1 0x40 MLOAD PUSH3 0x461BCD PUSH1 0xE5 SHL DUP2 MSTORE PUSH1 0x20 PUSH1 0x4 DUP3 ADD MSTORE PUSH1 0x17 PUSH1 0x24 DUP3 ADD MSTORE PUSH32 0x496E76616C69642074696D656C6F636B206C696D697473000000000000000000 PUSH1 0x44 DUP3 ADD MSTORE PUSH1 0x64 SWAP1 REVERT JUMPDEST CALLVALUE PUSH2 0x20F JUMPI PUSH1 0x0 CALLDATASIZE PUSH1 0x3 NOT ADD SLT PUSH2 0x20F JUMPI PUSH1 0x4 SLOAD PUSH1 0x1 PUSH1 0x1 PUSH1 0xA0 SHL SUB AND DUP2 MSTORE PUSH1 0x20 SWAP1 RETURN JUMPDEST PUSH1 0x4 CALLDATALOAD SWAP1 PUSH1 0x1 PUSH1 0x1 PUSH1 0xA0 SHL SUB DUP3 AND DUP3 SUB PUSH2 0x20F JUMPI JUMP JUMPDEST PUSH1 0x24 CALLDATALOAD SWAP1 PUSH1 0x1 PUSH1 0x1 PUSH1 0xA0 SHL SUB DUP3 AND DUP3 SUB PUSH2 0x20F JUMPI JUMP JUMPDEST SWAP2 SWAP1 DUP3 MLOAD SWAP3 DUP4 DUP3 MSTORE PUSH1 0x0 JUMPDEST DUP5 DUP2 LT PUSH2 0x192D JUMPI POP POP DUP3 PUSH1 0x0 PUSH1 0x20 DUP1 SWAP5 SWAP6 DUP5 ADD ADD MSTORE PUSH1 0x1F DUP1 NOT SWAP2 ADD AND ADD ADD SWAP1 JUMP JUMPDEST PUSH1 0x20 DUP2 DUP4 ADD DUP2 ADD MLOAD DUP5 DUP4 ADD DUP3 ADD MSTORE ADD PUSH2 0x190C JUMP JUMPDEST SWAP1 PUSH1 0x1 DUP3 DUP2 SHR SWAP3 AND DUP1 ISZERO PUSH2 0x1971 JUMPI JUMPDEST PUSH1 0x20 DUP4 LT EQ PUSH2 0x195B JUMPI JUMP JUMPDEST PUSH4 0x4E487B71 PUSH1 0xE0 SHL PUSH1 0x0 MSTORE PUSH1 0x22 PUSH1 0x4 MSTORE PUSH1 0x24 PUSH1 0x0 REVERT JUMPDEST SWAP2 PUSH1 0x7F AND SWAP2 PUSH2 0x1950 JUMP JUMPDEST SWAP1 PUSH1 0x0 SWAP3 SWAP2 DUP1 SLOAD SWAP2 PUSH2 0x198C DUP4 PUSH2 0x1941 JUMP JUMPDEST SWAP2 DUP3 DUP3 MSTORE PUSH1 0x1 SWAP4 DUP5 DUP2 AND SWAP1 DUP2 PUSH1 0x0 EQ PUSH2 0x19EE JUMPI POP PUSH1 0x1 EQ PUSH2 0x19AE JUMPI JUMPDEST POP POP POP POP JUMP JUMPDEST SWAP1 SWAP2 SWAP4 SWAP5 POP PUSH1 0x0 MSTORE PUSH1 0x20 SWAP3 DUP4 PUSH1 0x0 KECCAK256 SWAP3 DUP5 PUSH1 0x0 SWAP5 JUMPDEST DUP4 DUP7 LT PUSH2 0x19DA JUMPI POP POP POP POP ADD ADD SWAP1 CODESIZE DUP1 DUP1 DUP1 PUSH2 0x19A8 JUMP JUMPDEST DUP1 SLOAD DUP6 DUP8 ADD DUP4 ADD MSTORE SWAP5 ADD SWAP4 DUP6 SWAP1 DUP3 ADD PUSH2 0x19C3 JUMP JUMPDEST SWAP3 SWAP5 POP POP POP PUSH1 0x20 SWAP4 SWAP5 POP PUSH1 0xFF NOT AND DUP4 DUP4 ADD MSTORE ISZERO ISZERO PUSH1 0x5 SHL ADD ADD SWAP1 CODESIZE DUP1 DUP1 DUP1 PUSH2 0x19A8 JUMP JUMPDEST PUSH2 0x180 DUP2 ADD SWAP1 DUP2 LT PUSH8 0xFFFFFFFFFFFFFFFF DUP3 GT OR PUSH2 0xA9D JUMPI PUSH1 0x40 MSTORE JUMP JUMPDEST PUSH1 0x40 DUP2 ADD SWAP1 DUP2 LT PUSH8 0xFFFFFFFFFFFFFFFF DUP3 GT OR PUSH2 0xA9D JUMPI PUSH1 0x40 MSTORE JUMP JUMPDEST SWAP1 PUSH1 0x1F DUP1 NOT SWAP2 ADD AND DUP2 ADD SWAP1 DUP2 LT PUSH8 0xFFFFFFFFFFFFFFFF DUP3 GT OR PUSH2 0xA9D JUMPI PUSH1 0x40 MSTORE JUMP JUMPDEST PUSH1 0x0 SLOAD PUSH1 0x1 PUSH1 0x1 PUSH1 0xA0 SHL SUB AND CALLER SUB PUSH2 0x1A80 JUMPI JUMP JUMPDEST PUSH1 0x40 MLOAD PUSH4 0x118CDAA7 PUSH1 0xE0 SHL DUP2 MSTORE CALLER PUSH1 0x4 DUP3 ADD MSTORE PUSH1 0x24 SWAP1 REVERT JUMPDEST SWAP2 SWAP1 DUP3 ADD DUP1 SWAP3 GT PUSH2 0x15C2 JUMPI JUMP JUMPDEST SWAP1 PUSH1 0x1F DUP2 GT PUSH2 0x1AB3 JUMPI POP POP POP JUMP JUMPDEST PUSH1 0x0 SWAP2 DUP3 MSTORE PUSH1 0x20 DUP3 KECCAK256 SWAP1 PUSH1 0x20 PUSH1 0x1F DUP6 ADD PUSH1 0x5 SHR DUP4 ADD SWAP5 LT PUSH2 0x1AEF JUMPI JUMPDEST PUSH1 0x1F ADD PUSH1 0x5 SHR ADD SWAP2 JUMPDEST DUP3 DUP2 LT PUSH2 0x1AE4 JUMPI POP POP POP JUMP JUMPDEST DUP2 DUP2 SSTORE PUSH1 0x1 ADD PUSH2 0x1AD8 JUMP JUMPDEST SWAP1 SWAP3 POP DUP3 SWAP1 PUSH2 0x1ACF JUMP JUMPDEST SWAP1 PUSH1 0x0 PUSH1 0x20 SWAP2 DUP3 DUP2 MLOAD SWAP2 ADD DUP3 DUP6 GAS CALL ISZERO PUSH2 0x1B55 JUMPI PUSH1 0x0 MLOAD RETURNDATASIZE PUSH2 0x1B4C JUMPI POP PUSH1 0x1 PUSH1 0x1 PUSH1 0xA0 SHL SUB DUP2 AND EXTCODESIZE ISZERO JUMPDEST PUSH2 0x1B2A JUMPI POP JUMP JUMPDEST PUSH1 0x40 MLOAD PUSH4 0x5274AFE7 PUSH1 0xE0 SHL DUP2 MSTORE PUSH1 0x1 PUSH1 0x1 PUSH1 0xA0 SHL SUB SWAP1 SWAP2 AND PUSH1 0x4 DUP3 ADD MSTORE PUSH1 0x24 SWAP1 REVERT JUMPDEST PUSH1 0x1 EQ ISZERO PUSH2 0x1B23 JUMP JUMPDEST PUSH1 0x40 MLOAD RETURNDATASIZE PUSH1 0x0 DUP3 RETURNDATACOPY RETURNDATASIZE SWAP1 REVERT JUMPDEST ISZERO PUSH2 0x1B68 JUMPI JUMP JUMPDEST PUSH1 0x40 MLOAD PUSH3 0x461BCD PUSH1 0xE5 SHL DUP2 MSTORE PUSH1 0x20 PUSH1 0x4 DUP3 ADD MSTORE PUSH1 0x13 PUSH1 0x24 DUP3 ADD MSTORE PUSH19 0x12151310C8191BD95CC81B9BDD08195E1A5CDD PUSH1 0x6A SHL PUSH1 0x44 DUP3 ADD MSTORE PUSH1 0x64 SWAP1 REVERT JUMPDEST ISZERO PUSH2 0x1BAA JUMPI JUMP JUMPDEST PUSH1 0x40 MLOAD PUSH3 0x461BCD PUSH1 0xE5 SHL DUP2 MSTORE PUSH1 0x20 PUSH1 0x4 DUP3 ADD MSTORE PUSH1 0x15 PUSH1 0x24 DUP3 ADD MSTORE PUSH21 0x12151310C8185B1C9958591E48195E1958DD5D1959 PUSH1 0x5A SHL PUSH1 0x44 DUP3 ADD MSTORE PUSH1 0x64 SWAP1 REVERT JUMPDEST ISZERO PUSH2 0x1BEE JUMPI JUMP JUMPDEST PUSH1 0x40 MLOAD PUSH3 0x461BCD PUSH1 0xE5 SHL DUP2 MSTORE PUSH1 0x20 PUSH1 0x4 DUP3 ADD MSTORE PUSH1 0x15 PUSH1 0x24 DUP3 ADD MSTORE PUSH21 0x12151310C8185B1C9958591E481C99599D5B991959 PUSH1 0x5A SHL PUSH1 0x44 DUP3 ADD MSTORE PUSH1 0x64 SWAP1 REVERT JUMPDEST ISZERO PUSH2 0x1C32 JUMPI JUMP JUMPDEST PUSH1 0x40 MLOAD PUSH3 0x461BCD PUSH1 0xE5 SHL DUP2 MSTORE PUSH1 0x20 PUSH1 0x4 DUP3 ADD MSTORE PUSH1 0x15 PUSH1 0x24 DUP3 ADD MSTORE PUSH21 0x12151310C81D1A5B595B1BD8DAC8195E1C1A5C9959 PUSH1 0x5A SHL PUSH1 0x44 DUP3 ADD MSTORE PUSH1 0x64 SWAP1 REVERT JUMPDEST ISZERO PUSH2 0x1C76 JUMPI JUMP JUMPDEST PUSH1 0x40 MLOAD PUSH3 0x461BCD PUSH1 0xE5 SHL DUP2 MSTORE PUSH1 0x20 PUSH1 0x4 DUP3 ADD MSTORE PUSH1 0x1E PUSH1 0x24 DUP3 ADD MSTORE PUSH32 0x4F6E6C79207265736F6C7665722063616E20657865637574652048544C430000 PUSH1 0x44 DUP3 ADD MSTORE PUSH1 0x64 SWAP1 REVERT JUMPDEST ISZERO PUSH2 0x1CC2 JUMPI JUMP JUMPDEST PUSH1 0x40 MLOAD PUSH3 0x461BCD PUSH1 0xE5 SHL DUP2 MSTORE PUSH1 0x20 PUSH1 0x4 DUP3 ADD MSTORE PUSH1 0xE PUSH1 0x24 DUP3 ADD MSTORE PUSH14 0x125B9D985B1A59081CD958DC995D PUSH1 0x92 SHL PUSH1 0x44 DUP3 ADD MSTORE PUSH1 0x64 SWAP1 REVERT JUMPDEST SWAP2 SWAP1 DUP3 SUB SWAP2 DUP3 GT PUSH2 0x15C2 JUMPI JUMP JUMPDEST PUSH1 0x40 MLOAD PUSH4 0xA9059CBB PUSH1 0xE0 SHL PUSH1 0x20 DUP3 ADD MSTORE PUSH1 0x1 PUSH1 0x1 PUSH1 0xA0 SHL SUB SWAP1 SWAP3 AND PUSH1 0x24 DUP4 ADD MSTORE PUSH1 0x44 DUP1 DUP4 ADD SWAP4 SWAP1 SWAP4 MSTORE SWAP2 DUP2 MSTORE PUSH1 0x80 DUP2 ADD SWAP2 PUSH8 0xFFFFFFFFFFFFFFFF DUP4 GT DUP3 DUP5 LT OR PUSH2 0xA9D JUMPI PUSH2 0x1D55 SWAP3 PUSH1 0x40 MSTORE PUSH2 0x1AF9 JUMP JUMPDEST JUMP INVALID LOG2 PUSH5 0x6970667358 0x22 SLT KECCAK256 0xCD 0xB5 0x5E 0xE7 0xD3 0x5D RETURNDATASIZE GAS SWAP10 0xD3 0x5D 0xEC DUP7 0xB2 EXP 0x4B DUP14 PUSH28 0x340BA7DEF27E505990E8398707BC64736F6C63430008140033000000 "},"methodIdentifiers":{"FEE_DENOMINATOR()":"d73792a9","collectedFees(address)":"1cead9a7","createHTLC(address,address,address,uint256,uint256,bytes32,uint256)":"b19d8865","emergencyRecover(address,address,uint256)":"ad1329d1","executeHTLC(bytes32,bytes32)":"44f8667a","executeHTLCWithSwap(bytes32,bytes32,uint256)":"67e90c3b","feeCollector()":"c415b95c","fusionRelayer()":"03c1751d","getHTLC(bytes32)":"90c26838","htlcContracts(bytes32)":"fd396aec","htlcExistsMap(bytes32)":"4962130b","maxTimelock()":"bc1fd34b","minTimelock()":"25429e7d","owner()":"8da5cb5b","protocolFee()":"b0e21e8a","refundHTLC(bytes32)":"43b920c5","renounceOwnership()":"715018a6","setFeeCollector(address)":"a42dce80","setFusionRelayer(address)":"2cbc004f","setProtocolFee(uint256)":"787dce3d","setTimelockLimits(uint256,uint256)":"08a5b929","submitOrder(bytes32,string)":"c377104a","transferOwnership(address)":"f2fde38b","withdrawFees(address,uint256)":"ad3b1b47"}}}}}