{"contracts/Fusion1inchBitcoinBridge.sol":{"Fusion1inchBitcoinBridge":{"abi":[{"inputs":[{"internalType":"address","name":"_fusionProtocol","type":"address"}],"stateMutability":"nonpayable","type":"constructor"},{"inputs":[],"name":"EnforcedPause","type":"error"},{"inputs":[],"name":"ExpectedPause","type":"error"},{"inputs":[{"internalType":"address","name":"owner","type":"address"}],"name":"OwnableInvalidOwner","type":"error"},{"inputs":[{"internalType":"address","name":"account","type":"address"}],"name":"OwnableUnauthorizedAccount","type":"error"},{"inputs":[],"name":"ReentrancyGuardReentrantCall","type":"error"},{"inputs":[{"internalType":"address","name":"token","type":"address"}],"name":"SafeERC20FailedOperation","type":"error"},{"anonymous":false,"inputs":[{"indexed":true,"internalType":"bytes32","name":"htlcId","type":"bytes32"},{"indexed":true,"internalType":"bytes32","name":"fusionOrderId","type":"bytes32"},{"indexed":false,"internalType":"address","name":"fromToken","type":"address"},{"indexed":false,"internalType":"address","name":"toToken","type":"address"},{"indexed":false,"internalType":"uint256","name":"fromAmount","type":"uint256"},{"indexed":false,"internalType":"uint256","name":"minToAmount","type":"uint256"}],"name":"FusionOrderCreated","type":"event"},{"anonymous":false,"inputs":[{"indexed":true,"internalType":"bytes32","name":"id","type":"bytes32"},{"indexed":true,"internalType":"address","name":"initiator","type":"address"},{"indexed":true,"internalType":"address","name":"resolver","type":"address"},{"indexed":false,"internalType":"uint256","name":"amount","type":"uint256"},{"indexed":false,"internalType":"bytes32","name":"secretHash","type":"bytes32"},{"indexed":false,"internalType":"uint256","name":"timelock","type":"uint256"},{"indexed":false,"internalType":"bool","name":"partialFillsEnabled","type":"bool"},{"indexed":false,"internalType":"string","name":"bitcoinHTLCAddress","type":"string"}],"name":"HTLCInitiated","type":"event"},{"anonymous":false,"inputs":[{"indexed":true,"internalType":"bytes32","name":"id","type":"bytes32"},{"indexed":false,"internalType":"bytes32","name":"secretHash","type":"bytes32"},{"indexed":false,"internalType":"bytes32","name":"preimage","type":"bytes32"},{"indexed":false,"internalType":"uint256","name":"amount","type":"uint256"},{"indexed":false,"internalType":"address","name":"resolver","type":"address"}],"name":"HTLCRedeemed","type":"event"},{"anonymous":false,"inputs":[{"indexed":true,"internalType":"bytes32","name":"id","type":"bytes32"},{"indexed":false,"internalType":"uint256","name":"amount","type":"uint256"},{"indexed":false,"internalType":"address","name":"initiator","type":"address"}],"name":"HTLCRefunded","type":"event"},{"anonymous":false,"inputs":[{"indexed":true,"internalType":"address","name":"previousOwner","type":"address"},{"indexed":true,"internalType":"address","name":"newOwner","type":"address"}],"name":"OwnershipTransferred","type":"event"},{"anonymous":false,"inputs":[{"indexed":true,"internalType":"bytes32","name":"id","type":"bytes32"},{"indexed":false,"internalType":"uint256","name":"fillAmount","type":"uint256"},{"indexed":false,"internalType":"uint256","name":"remainingAmount","type":"uint256"},{"indexed":false,"internalType":"address","name":"filler","type":"address"},{"indexed":false,"internalType":"bytes32","name":"fillHash","type":"bytes32"}],"name":"PartialFill","type":"event"},{"anonymous":false,"inputs":[{"indexed":false,"internalType":"address","name":"account","type":"address"}],"name":"Paused","type":"event"},{"anonymous":false,"inputs":[{"indexed":true,"internalType":"address","name":"relayer","type":"address"},{"indexed":false,"internalType":"uint256","name":"reward","type":"uint256"}],"name":"RelayerReward","type":"event"},{"anonymous":false,"inputs":[{"indexed":true,"internalType":"address","name":"resolver","type":"address"},{"indexed":false,"internalType":"bool","name":"active","type":"bool"}],"name":"ResolverRegistered","type":"event"},{"anonymous":false,"inputs":[{"indexed":false,"internalType":"address","name":"account","type":"address"}],"name":"Unpaused","type":"event"},{"inputs":[{"internalType":"address","name":"resolver","type":"address"}],"name":"authorizeResolver","outputs":[],"stateMutability":"nonpayable","type":"function"},{"inputs":[{"internalType":"address","name":"","type":"address"}],"name":"authorizedResolvers","outputs":[{"internalType":"bool","name":"","type":"bool"}],"stateMutability":"view","type":"function"},{"inputs":[{"internalType":"bytes32","name":"","type":"bytes32"}],"name":"bitcoinHTLCAddresses","outputs":[{"internalType":"string","name":"","type":"string"}],"stateMutability":"view","type":"function"},{"inputs":[{"internalType":"address","name":"relayer","type":"address"}],"name":"deactivateRelayer","outputs":[],"stateMutability":"nonpayable","type":"function"},{"inputs":[{"internalType":"address","name":"resolver","type":"address"}],"name":"deauthorizeResolver","outputs":[],"stateMutability":"nonpayable","type":"function"},{"inputs":[{"internalType":"bytes32","name":"id","type":"bytes32"},{"internalType":"uint256","name":"amount","type":"uint256"}],"name":"depositTokens","outputs":[],"stateMutability":"nonpayable","type":"function"},{"inputs":[{"internalType":"address","name":"token","type":"address"},{"internalType":"uint256","name":"amount","type":"uint256"}],"name":"emergencyWithdraw","outputs":[],"stateMutability":"nonpayable","type":"function"},{"inputs":[{"internalType":"bytes32","name":"","type":"bytes32"}],"name":"fillCounts","outputs":[{"internalType":"uint256","name":"","type":"uint256"}],"stateMutability":"view","type":"function"},{"inputs":[],"name":"fusionProtocol","outputs":[{"internalType":"address","name":"","type":"address"}],"stateMutability":"view","type":"function"},{"inputs":[{"internalType":"bytes32","name":"id","type":"bytes32"}],"name":"getBitcoinHTLCAddress","outputs":[{"internalType":"string","name":"","type":"string"}],"stateMutability":"view","type":"function"},{"inputs":[{"internalType":"bytes32","name":"id","type":"bytes32"}],"name":"getFillPercentage","outputs":[{"internalType":"uint256","name":"","type":"uint256"}],"stateMutability":"view","type":"function"},{"inputs":[{"internalType":"bytes32","name":"id","type":"bytes32"}],"name":"getHTLC","outputs":[{"components":[{"internalType":"address payable","name":"initiator","type":"address"},{"internalType":"address payable","name":"resolver","type":"address"},{"internalType":"uint256","name":"totalAmount","type":"uint256"},{"internalType":"uint256","name":"filledAmount","type":"uint256"},{"internalType":"bytes32","name":"secretHash","type":"bytes32"},{"internalType":"uint256","name":"timelock","type":"uint256"},{"internalType":"bool","name":"executed","type":"bool"},{"internalType":"bool","name":"refunded","type":"bool"},{"internalType":"bool","name":"partialFillsEnabled","type":"bool"},{"internalType":"address","name":"fromToken","type":"address"},{"internalType":"address","name":"toToken","type":"address"},{"internalType":"uint256","name":"minToAmount","type":"uint256"},{"internalType":"bytes32","name":"fusionOrderId","type":"bytes32"},{"internalType":"uint256","name":"createdAt","type":"uint256"},{"internalType":"bytes32[]","name":"fillHashes","type":"bytes32[]"}],"internalType":"struct Fusion1inchBitcoinBridge.FusionHTLC","name":"","type":"tuple"}],"stateMutability":"view","type":"function"},{"inputs":[{"internalType":"bytes32","name":"id","type":"bytes32"}],"name":"getHTLCFills","outputs":[{"internalType":"bytes32[]","name":"","type":"bytes32[]"}],"stateMutability":"view","type":"function"},{"inputs":[{"internalType":"bytes32","name":"id","type":"bytes32"}],"name":"getRemainingAmount","outputs":[{"internalType":"uint256","name":"","type":"uint256"}],"stateMutability":"view","type":"function"},{"inputs":[{"internalType":"bytes32","name":"","type":"bytes32"}],"name":"htlcs","outputs":[{"internalType":"address payable","name":"initiator","type":"address"},{"internalType":"address payable","name":"resolver","type":"address"},{"internalType":"uint256","name":"totalAmount","type":"uint256"},{"internalType":"uint256","name":"filledAmount","type":"uint256"},{"internalType":"bytes32","name":"secretHash","type":"bytes32"},{"internalType":"uint256","name":"timelock","type":"uint256"},{"internalType":"bool","name":"executed","type":"bool"},{"internalType":"bool","name":"refunded","type":"bool"},{"internalType":"bool","name":"partialFillsEnabled","type":"bool"},{"internalType":"address","name":"fromToken","type":"address"},{"internalType":"address","name":"toToken","type":"address"},{"internalType":"uint256","name":"minToAmount","type":"uint256"},{"internalType":"bytes32","name":"fusionOrderId","type":"bytes32"},{"internalType":"uint256","name":"createdAt","type":"uint256"}],"stateMutability":"view","type":"function"},{"inputs":[{"internalType":"bytes32","name":"id","type":"bytes32"},{"internalType":"address payable","name":"_resolver","type":"address"},{"internalType":"bytes32","name":"_secretHash","type":"bytes32"},{"internalType":"uint256","name":"_timelock","type":"uint256"},{"internalType":"address","name":"_fromToken","type":"address"},{"internalType":"address","name":"_toToken","type":"address"},{"internalType":"uint256","name":"_minToAmount","type":"uint256"},{"internalType":"bool","name":"_partialFillsEnabled","type":"bool"},{"internalType":"bytes32","name":"_fusionOrderId","type":"bytes32"},{"internalType":"string","name":"_bitcoinHTLCAddress","type":"string"}],"name":"initiateFusionHTLC","outputs":[],"stateMutability":"payable","type":"function"},{"inputs":[{"internalType":"bytes32","name":"id","type":"bytes32"}],"name":"isHTLCActive","outputs":[{"internalType":"bool","name":"","type":"bool"}],"stateMutability":"view","type":"function"},{"inputs":[],"name":"maxPartialFills","outputs":[{"internalType":"uint256","name":"","type":"uint256"}],"stateMutability":"view","type":"function"},{"inputs":[],"name":"maxTimelock","outputs":[{"internalType":"uint256","name":"","type":"uint256"}],"stateMutability":"view","type":"function"},{"inputs":[],"name":"minStakeAmount","outputs":[{"internalType":"uint256","name":"","type":"uint256"}],"stateMutability":"view","type":"function"},{"inputs":[],"name":"minTimelock","outputs":[{"internalType":"uint256","name":"","type":"uint256"}],"stateMutability":"view","type":"function"},{"inputs":[],"name":"owner","outputs":[{"internalType":"address","name":"","type":"address"}],"stateMutability":"view","type":"function"},{"inputs":[],"name":"pause","outputs":[],"stateMutability":"nonpayable","type":"function"},{"inputs":[],"name":"paused","outputs":[{"internalType":"bool","name":"","type":"bool"}],"stateMutability":"view","type":"function"},{"inputs":[{"internalType":"bytes32","name":"id","type":"bytes32"},{"internalType":"bytes","name":"_preimage","type":"bytes"},{"internalType":"uint256","name":"fillAmount","type":"uint256"}],"name":"redeemHTLC","outputs":[],"stateMutability":"nonpayable","type":"function"},{"inputs":[{"internalType":"bytes32","name":"id","type":"bytes32"}],"name":"refundHTLC","outputs":[],"stateMutability":"nonpayable","type":"function"},{"inputs":[],"name":"registerRelayer","outputs":[],"stateMutability":"payable","type":"function"},{"inputs":[{"internalType":"bytes32","name":"id","type":"bytes32"},{"internalType":"bytes","name":"_preimage","type":"bytes"},{"internalType":"uint256","name":"fillAmount","type":"uint256"}],"name":"relayerRedeem","outputs":[],"stateMutability":"nonpayable","type":"function"},{"inputs":[],"name":"relayerRewardRate","outputs":[{"internalType":"uint256","name":"","type":"uint256"}],"stateMutability":"view","type":"function"},{"inputs":[{"internalType":"address","name":"","type":"address"}],"name":"relayers","outputs":[{"internalType":"bool","name":"active","type":"bool"},{"internalType":"uint256","name":"stake","type":"uint256"},{"internalType":"uint256","name":"successCount","type":"uint256"},{"internalType":"uint256","name":"failureCount","type":"uint256"},{"internalType":"uint256","name":"lastActiveTime","type":"uint256"}],"stateMutability":"view","type":"function"},{"inputs":[],"name":"renounceOwnership","outputs":[],"stateMutability":"nonpayable","type":"function"},{"inputs":[{"internalType":"address","name":"_fusionProtocol","type":"address"}],"name":"setFusionProtocol","outputs":[],"stateMutability":"nonpayable","type":"function"},{"inputs":[{"internalType":"uint256","name":"_max","type":"uint256"}],"name":"setMaxPartialFills","outputs":[],"stateMutability":"nonpayable","type":"function"},{"inputs":[{"internalType":"uint256","name":"_amount","type":"uint256"}],"name":"setMinStakeAmount","outputs":[],"stateMutability":"nonpayable","type":"function"},{"inputs":[{"internalType":"uint256","name":"_rate","type":"uint256"}],"name":"setRelayerRewardRate","outputs":[],"stateMutability":"nonpayable","type":"function"},{"inputs":[{"internalType":"uint256","name":"_min","type":"uint256"},{"internalType":"uint256","name":"_max","type":"uint256"}],"name":"setTimelockLimits","outputs":[],"stateMutability":"nonpayable","type":"function"},{"inputs":[{"internalType":"address","name":"newOwner","type":"address"}],"name":"transferOwnership","outputs":[],"stateMutability":"nonpayable","type":"function"},{"inputs":[],"name":"unpause","outputs":[],"stateMutability":"nonpayable","type":"function"},{"inputs":[{"internalType":"bytes32","name":"","type":"bytes32"}],"name":"usedSecrets","outputs":[{"internalType":"bool","name":"","type":"bool"}],"stateMutability":"view","type":"function"},{"stateMutability":"payable","type":"receive"}],"evm":{"bytecode":{"linkReferences":{},"object":"6080346100f257601f6200299938819003918201601f19168301916001600160401b038311848410176100f7578084926020946040528339810103126100f257516001600160a01b0390818116908190036100f257600160005533156100d95760018054336001600160a01b03198083168217909355604051949091167f8be0079c531659141344cd1fd0a4f28419497f9722a3daafe3b4186f6b6457e0600080a3606460085567016345785d8a000060095562093a80600a55610e10600b55600a600d55600754161760075561288b90816200010e8239f35b604051631e4fbdf760e01b815260006004820152602490fd5b600080fd5b634e487b7160e01b600052604160045260246000fdfe6080604052600436101561001b575b361561001957600080fd5b005b6000803560e01c806308a5b9291461229a57806317df526d1461227c57806318a6d63a1461225d5780631d28329e146121dc578063222b89471461204857806325429e7d1461202a57806329d37dfe14611f0e57806330bf0f0014611aac5780633f4ba83a14611e9b578063438af4f214611e7d57806343b920c514611c995780635300f84114611c2e5780635c975abb14611c08578063665aeee614611be5578063715018a614611b8857806371c8ccd214611b465780638456cb5914611ae357806389d4ca4514611aac5780638da5cb5b14611a8357806390c268381461185357806391edd8f21461177c57806395ccea671461170257806399fddc09146116d8578063a4516c48146116a9578063aaaf65511461112c578063ad5bdc4e146107ad578063af7b718a14610750578063b06a2ca9146106f5578063bc1fd34b146106d7578063bee9fb46146106ae578063c618d0ec14610672578063c7fd823014610632578063d794d2d9146105f3578063e4f920b814610598578063eb4af04514610575578063ecf3c739146102e1578063f1887684146102c3578063f2fde38b146102385763faf9f851146101d4575061000e565b346102355760203660031901126102355760406020916004358152600283522060068101549060ff8216159182610226575b5081610218575b506040519015158152f35b60059150015442103861020d565b60081c60ff1615915038610206565b80fd5b50346102355760203660031901126102355761025261235e565b61025a61255f565b6001600160a01b039081169081156102aa57600154826001600160601b0360a01b821617600155167f8be0079c531659141344cd1fd0a4f28419497f9722a3daafe3b4186f6b6457e0600080a380f35b604051631e4fbdf760e01b815260048101849052602490fd5b50346102355780600319360112610235576020600954604051908152f35b5034610235576102f036612528565b9190923385526020936003855260ff6040872054161561051b576103126125b9565b61031a612598565b8186526002855260408620600581015461012c4201908142116105075711156104a85760010192868454926001600160601b0360a01b9433868616178755303b156104a45761038a604051948593849363aaaf655160e01b855260048501526060602485015260648401916125dc565b886044830152038183305af180156104995761046a575b5060018060a01b03169082541617905533835260038252600260408420016103c9815461272c565b9055338352600382524260046040852001556008549081810291818304149015171561045457612710900490828083801561044a575b8280929181923390f11561043f577f04d1de9ae0331892f2dd9bf9875efe6be7ce406fde9450bd808dcc91f3b0874b906040519283523392a26001815580f35b6040513d84823e3d90fd5b6108fc91506103ff565b634e487b7160e01b600052601160045260246000fd5b6001600160401b0381979297116104855760405294386103a1565b634e487b7160e01b82526041600452602482fd5b6040513d89823e3d90fd5b8280fd5b60405162461bcd60e51b815260048101879052603160248201527f467573696f6e31696e6368426974636f696e4272696467653a20746f6f20636c60448201527037b9b2903a379032bc3834b930ba34b7b760791b6064820152608490fd5b634e487b7160e01b89526011600452602489fd5b60405162461bcd60e51b815260048101869052602c60248201527f467573696f6e31696e6368426974636f696e4272696467653a2072656c61796560448201526b72206e6f742061637469766560a01b6064820152608490fd5b50346102355760203660031901126102355761058f61255f565b60043560095580f35b5034610235576020366003190112610235576105b261235e565b6105ba61255f565b6001600160a01b0316808252600360209081526040808420805460ff19169055518381526000805160206128368339815191529190a280f35b50346102355760203660031901126102355760209060ff906040906001600160a01b0361061e61235e565b168152600584522054166040519015158152f35b50346102355760203660031901126102355761064c61235e565b61065461255f565b60018060a01b03166001600160601b0360a01b600754161760075580f35b5034610235576020366003190112610235576106a6604060209260043581526002845220600360028201549101549061271f565b604051908152f35b50346102355780600319360112610235576007546040516001600160a01b039091168152602090f35b50346102355780600319360112610235576020600a54604051908152f35b50346102355760203660031901126102355761070f61235e565b61071761255f565b6001600160a01b0316808252600560209081526040808420805460ff19169055518381526000805160206128368339815191529190a280f35b50346102355760203660031901126102355761076a61235e565b61077261255f565b60018060a01b0316808252600560205260408220600160ff19825416179055600080516020612836833981519152602060405160018152a280f35b50610140366003190112610235576024356001600160a01b038116810361112857608435906001600160a01b03821682036104a45760a4356001600160a01b03811681036111245760e435801515810361112057610124356001600160401b03811161111c576108219036906004016124fb565b6108296125b9565b610831612598565b600b54606435106110c257600a5460643511611069576004358752600260205260408720546001600160a01b031661100e576001600160a01b03851615610fc85760443515610f7f576044358752600460205260ff604088205416610f1f576001600160a01b03851687526005602052604087205460ff1615610ec0578015610e6e576001600160a01b038616610df7573415610d9c5734945b6108d76064354261258b565b906040518060208101106001600160401b03602083011117610d8857602081016040528981526040519161090a836123e7565b33835260018060a01b0316602083015287604083015289606083015260443560808301528260a08301528960c08301528960e083015285151561010083015260018060a01b03891661012083015260018060a01b03871661014083015260c43561016083015261010435610180830152426101a08301526101c0820152600435895260026020526101c060408a209160018060a01b038151166001600160601b0360a01b8454161783556001830160018060a01b036020830151166001600160601b0360a01b82541617905560408101516002840155606081015160038401556080810151600484015560a0810151600584015560068301610a1e60c08301511515829060ff801983541691151516179055565b60e08201511515815462ff0000610100850151151560101b169061ff006301000000600160b81b0361012087015160181b169360081b1690610100600160b81b03191617171790556007830160018060a01b03610140830151166001600160601b0360a01b825416179055610160810151600884015561018081015160098401556101a0810151600a8401550151908151916001600160401b038311610d7457600160401b8311610d7457600b82015483600b840155808410610d49575b506020600b910191018a5260208a208a5b838110610d3557505050506004358852600660205260408820906001600160401b038311610d2157610b1f82546123ad565b601f8111610ce0575b50889183601f8111600114610c5a577f9a4098f19f5ff554843eed4924d1d370545595b1e21645b5bac690c1954e9c8c938b91610c4f575b508460011b906000198660031b1c19161790555b6044358952600460205260408920600160ff198254161790556004358952600260205260018060a01b03600160408b200154169460405191888352604435602084015260408301521515606082015260a0608082015280610bde33956004359560a08401916125dc565b0390a461010435610bf2575b836001815580f35b604080516001600160a01b0394851681529190931660208201529182015260c43560608201526101043590600435907f7df538d8d84ef9ca2274280225bfe87a7d970fc5da744805787a7f3e2f0b1cd790608090a3388080610bea565b905085013538610b60565b50808a5260208a208a935b601f1986168510610cc8577f9a4098f19f5ff554843eed4924d1d370545595b1e21645b5bac690c1954e9c8c945085601f19811610610cae575b5050600184811b019055610b74565b860135600019600387901b60f8161c191690553880610c9f565b86810135825560209485019460019092019101610c65565b828a5260208a20601f850160051c810160208610610d1a575b601f830160051c82018110610d0f575050610b28565b8b8155600101610cf9565b5080610cf9565b634e487b7160e01b89526041600452602489fd5b600190602084519401938184015501610aed565b600b83018c5260208c20908482015b8d8284018210610d6a57505050610adc565b8155600101610d58565b634e487b7160e01b8b52604160045260248bfd5b634e487b7160e01b8a52604160045260248afd5b60405162461bcd60e51b815260206004820152602d60248201527f467573696f6e31696e6368426974636f696e4272696467653a2045544820616d60448201526c1bdd5b9d081c995c5d5a5c9959609a1b6064820152608490fd5b34610e035786946108cb565b60405162461bcd60e51b815260206004820152603960248201527f467573696f6e31696e6368426974636f696e4272696467653a20455448206e6f60448201527f7420616c6c6f77656420666f72204552433230207377617073000000000000006064820152608490fd5b60405162461bcd60e51b815260206004820152603660248201526000805160206128168339815191526044820152756420426974636f696e2048544c43206164647265737360501b6064820152608490fd5b60405162461bcd60e51b815260206004820152603160248201527f467573696f6e31696e6368426974636f696e4272696467653a207265736f6c76604482015270195c881b9bdd08185d5d1a1bdc9a5e9959607a1b6064820152608490fd5b60405162461bcd60e51b815260206004820152603260248201527f467573696f6e31696e6368426974636f696e4272696467653a20736563726574604482015271081a185cda08185b1c9958591e481d5cd95960721b6064820152608490fd5b60405162461bcd60e51b815260206004820152602d602482015260008051602061281683398151915260448201526c0c840e6cac6e4cae840d0c2e6d609b1b6064820152608490fd5b60405162461bcd60e51b815260206004820152602a602482015260008051602061281683398151915260448201526932103932b9b7b63b32b960b11b6064820152608490fd5b60405162461bcd60e51b815260206004820152602d60248201527f467573696f6e31696e6368426974636f696e4272696467653a2048544c43206160448201526c6c72656164792065786973747360981b6064820152608490fd5b60405162461bcd60e51b815260206004820152602b60248201527f467573696f6e31696e6368426974636f696e4272696467653a2074696d656c6f60448201526a636b20746f6f206c6f6e6760a81b6064820152608490fd5b60405162461bcd60e51b815260206004820152602c60248201527f467573696f6e31696e6368426974636f696e4272696467653a2074696d656c6f60448201526b18dac81d1bdbc81cda1bdc9d60a21b6064820152608490fd5b8580fd5b8480fd5b8380fd5b5080fd5b50346102355761113b36612528565b6111469291926125b9565b61114e612598565b83855260026020526040852060018101549092906001600160a01b031633036116555760068301549160ff83161580611646575b61118b906126c1565b60058401544210156115f7576020876111d160405183810190898783376111c085828c81018783820152038084520182612434565b60405192839283925192839161230f565b8101039060025afa156114255786516004850154036115b1576111fd600285015460038601549061271f565b90811561155d5780158015611553575b1561146c575060ff1990921660011760068401555b61123082600385015461258b565b6003840155848652600c6020526040862061124b815461272c565b9055848652600c6020526040862054604051602081019187835284604083015242606083015260808201526080815261128381612419565b51902093600b840154600160401b811015611411576001810180600b87015581101561145857600b850188526020882001859055600684015460181c6001600160a01b03168381611439576001860154899250829182918291906001600160a01b0316828215611430575bf115611425575b60048401546001600160401b03821161141157908792916040516113236020601f19601f8601160182612434565b8281526020810190368486011161111c5789956020856080967fd3e8321600bbd1a60ba41611fa97369cbea694355074f1ae6d8fb38f853d85739886378301015251902060018060a01b036001880154169060405192835260208301528560408301526060820152a2600682015460ff8160101c169081611405575b506113ad575b846001815580f35b7fb6634431f92bb8f06eabf1181a0096537ccec375cb6a16933eb37c34f75a99bc926113e5836003600260809601549101549061271f565b60405192835260208301523360408301526060820152a2388080806113a5565b60ff915016153861139f565b634e487b7160e01b88526041600452602488fd5b6040513d88823e3d90fd5b506108fc6112ee565b6001860154611453926001600160a01b039091169061273b565b6112f5565b634e487b7160e01b88526032600452602488fd5b919260ff915060101c16156114f557848652600c6020526040862054600d5411156114975790611222565b60405162461bcd60e51b815260206004820152603060248201527f467573696f6e31696e6368426974636f696e4272696467653a20746f6f206d6160448201526f6e79207061727469616c2066696c6c7360801b6064820152608490fd5b60405162461bcd60e51b815260206004820152603060248201527f467573696f6e31696e6368426974636f696e4272696467653a2070617274696160448201526f1b08199a5b1b1cc8191a5cd8589b195960821b6064820152608490fd5b508181101561120d565b60405162461bcd60e51b815260206004820152602660248201527f467573696f6e31696e6368426974636f696e4272696467653a2066756c6c7920604482015265199a5b1b195960d21b6064820152608490fd5b60405162461bcd60e51b815260206004820152602a60248201526000805160206128168339815191526044820152696420707265696d61676560b01b6064820152608490fd5b60405162461bcd60e51b815260206004820152602160248201527f467573696f6e31696e6368426974636f696e4272696467653a206578706972656044820152601960fa1b6064820152608490fd5b50600883901c60ff1615611182565b60405162461bcd60e51b815260206004820152602660248201527f467573696f6e31696e6368426974636f696e4272696467653a20756e617574686044820152651bdc9a5e995960d21b6064820152608490fd5b50346102355760203660031901126102355760ff60406020926004358152600484522054166040519015158152f35b50346102355760203660031901126102355760406020916004358152600c83522054604051908152f35b5034610235576040366003190112610235578061171d61235e565b6024359061172961255f565b6001600160a01b03908116806117695750828092819260015416828215611760575bf1156117545780f35b604051903d90823e3d90fd5b506108fc61174b565b906117799350600154169061273b565b80f35b50346102355760203660031901126102355760406101c091600435815260026020522060018060a01b0380825416918160018201541691600282015490600383015490600484015460058501546006860154918360078801541694600888015496600a60098a0154990154996040519b8c5260208c015260408b015260608a0152608089015260a088015260ff8116151560c088015260ff8160081c16151560e088015260ff8160101c16151561010088015260181c166101208601526101408501526101608401526101808301526101a0820152f35b50346102355760203660031901126102355760406101c0916060838351611879816123e7565b838152836020820152838582015283838201528360808201528360a08201528360c08201528360e08201528361010082015283610120820152836101408201528361016082015283610180820152836101a0820152015260043581526002602052206119a0600b604051926118ed846123e7565b80546001600160a01b039081168552600182015481166020860152600282015460408601526003820154606086015260048201546080860152600582015460a0860152600682015460ff808216151560c0880152600882811c8216151560e0890152601083901c909116151561010088015260189190911c821661012087015260078301549091166101408601528101546101608501526009810154610180850152600a8101546101a08501520161278a565b82820152611a7f6040519283926020845260018060a01b03815116602085015260018060a01b0360208201511660408501526040810151606085015260608101516080850152608081015160a085015260a081015160c085015260c0810151151560e085015260e08101511515610100850152610100810151151561012085015260018060a01b036101208201511661014085015260018060a01b03610140820151166101608501526101608101516101808501526101808101516101a08501526101a08101518285015201516101e080840152610200830190612379565b0390f35b50346102355780600319360112610235576001546040516001600160a01b039091168152602090f35b503461023557602036600319011261023557611ad76040611a7f926004358152600660205220612455565b60405191829182612332565b5034610235578060031936011261023557611afc61255f565b611b04612598565b6001805460ff60a01b1916600160a01b1790556040513381527f62e78cea01bee320cd4e420270b5ea74000d11b0c9f74754ebdbfc544b05a25890602090a180f35b503461023557602036600319011261023557611b74600b6040611a7f9360043581526002602052200161278a565b604051918291602083526020830190612379565b5034610235578060031936011261023557611ba161255f565b600180546001600160a01b0319811690915581906001600160a01b03167f8be0079c531659141344cd1fd0a4f28419497f9722a3daafe3b4186f6b6457e08280a380f35b503461023557602036600319011261023557611bff61255f565b600435600d5580f35b5034610235578060031936011261023557602060ff60015460a01c166040519015158152f35b50346102355760203660031901126102355760a0906040906001600160a01b03611c5661235e565b16815260036020522060ff815416906001810154906002810154600460038301549201549260405194151585526020850152604084015260608301526080820152f35b503461023557602036600319011261023557600435611cb66125b9565b80825260026020526040822080546001600160a01b0391908216611cdb3382146125fd565b6006820190815460ff81161580611e6e575b611cf6906126c1565b60058401544210611e1b57611d14600285015460038601549061271f565b928315611dc257610100869261ff0019161780915560181c168015600014611d8d57505084808080848787541682f115611d82577f4a3556ef2b039f17a91c71e4f371f01d12184cfecc5ec146cb420d4b19caadb6926040925b541682519182526020820152a26001815580f35b6040513d86823e3d90fd5b92611dbd837f4a3556ef2b039f17a91c71e4f371f01d12184cfecc5ec146cb420d4b19caadb6969360409661273b565b611d6e565b60405162461bcd60e51b815260206004820152602b60248201527f467573696f6e31696e6368426974636f696e4272696467653a206e6f7468696e60448201526a19c81d1bc81c99599d5b9960aa1b6064820152608490fd5b60405162461bcd60e51b815260206004820152602560248201527f467573696f6e31696e6368426974636f696e4272696467653a206e6f742065786044820152641c1a5c995960da1b6064820152608490fd5b50600881901c60ff1615611ced565b50346102355780600319360112610235576020600d54604051908152f35b5034610235578060031936011261023557611eb461255f565b60015460ff8160a01c1615611efc5760ff60a01b19166001556040513381527f5db9ee0a495bf2e6ff9c91a7834c1ba4fdd244a5e8aa4e537bd38aeae4b073aa90602090a180f35b604051638dfc202b60e01b8152600490fd5b5080600319360112610235576009543410611fd05760405160a081018181106001600160401b03821117611fbc576040526001815260046020820134815260408301848152606084019085825260808501924284523387526003602052611f886040882096511515879060ff801983541691151516179055565b516001860155516002850155516003840155519101556040516001815260008051602061283683398151915260203392a280f35b634e487b7160e01b83526041600452602483fd5b60405162461bcd60e51b815260206004820152602c60248201527f467573696f6e31696e6368426974636f696e4272696467653a20696e7375666660448201526b696369656e74207374616b6560a01b6064820152608490fd5b50346102355780600319360112610235576020600b54604051908152f35b5034610235576040366003190112610235576024356120656125b9565b61206d612598565b60043582526002602052604082209060018060a01b036120918184541633146125fd565b600683015460181c1691821561218c576002019182546121365781156120f257816120eb9355604051916323b872dd60e01b60208401523360248401523060448401526064830152606482526120e682612419565b612659565b6001815580f35b60405162461bcd60e51b815260206004820152602860248201526000805160206128168339815191526044820152671908185b5bdd5b9d60c21b6064820152608490fd5b60405162461bcd60e51b815260206004820152602860248201527f467573696f6e31696e6368426974636f696e4272696467653a20616c726561646044820152671e48199d5b99195960c21b6064820152608490fd5b60405162461bcd60e51b815260206004820152602260248201527f467573696f6e31696e6368426974636f696e4272696467653a204554482048546044820152614c4360f01b6064820152608490fd5b5034610235576020366003190112610235576004356121f961255f565b6103e881116122085760085580f35b60405162461bcd60e51b815260206004820152602760248201527f467573696f6e31696e6368426974636f696e4272696467653a207261746520746044820152660dede40d0d2ced60cb1b6064820152608490fd5b50346102355760203660031901126102355760206106a66004356127d9565b50346102355780600319360112610235576020600854604051908152f35b5034610235576040366003190112610235576024356004356122ba61255f565b818110156122cb57600b55600a5580f35b60405162461bcd60e51b8152602060048201526028602482015260008051602061281683398151915260448201526764206c696d69747360c01b6064820152608490fd5b60005b8381106123225750506000910152565b8181015183820152602001612312565b60409160208252612352815180928160208601526020868601910161230f565b601f01601f1916010190565b600435906001600160a01b038216820361237457565b600080fd5b90815180825260208080930193019160005b828110612399575050505090565b83518552938101939281019260010161238b565b90600182811c921680156123dd575b60208310146123c757565b634e487b7160e01b600052602260045260246000fd5b91607f16916123bc565b6101e081019081106001600160401b0382111761240357604052565b634e487b7160e01b600052604160045260246000fd5b60a081019081106001600160401b0382111761240357604052565b90601f801991011681019081106001600160401b0382111761240357604052565b9060405191826000825492612469846123ad565b9081845260019485811690816000146124d85750600114612495575b505061249392500383612434565b565b9093915060005260209081600020936000915b8183106124c057505061249393508201013880612485565b855488840185015294850194879450918301916124a8565b91505061249394506020925060ff191682840152151560051b8201013880612485565b9181601f84011215612374578235916001600160401b038311612374576020838186019501011161237457565b9060606003198301126123745760043591602435906001600160401b03821161237457612557916004016124fb565b909160443590565b6001546001600160a01b0316330361257357565b60405163118cdaa760e01b8152336004820152602490fd5b9190820180921161045457565b60ff60015460a01c166125a757565b60405163d93c066560e01b8152600490fd5b6002600054146125ca576002600055565b604051633ee5aeb560e01b8152600490fd5b908060209392818452848401376000828201840152601f01601f1916010190565b1561260457565b60405162461bcd60e51b815260206004820152602760248201527f467573696f6e31696e6368426974636f696e4272696467653a206e6f7420696e60448201526634ba34b0ba37b960c91b6064820152608490fd5b906000602091828151910182855af1156126b5576000513d6126ac57506001600160a01b0381163b155b61268a5750565b604051635274afe760e01b81526001600160a01b039091166004820152602490fd5b60011415612683565b6040513d6000823e3d90fd5b156126c857565b60405162461bcd60e51b815260206004820152602960248201527f467573696f6e31696e6368426974636f696e4272696467653a2048544c43206e6044820152686f742061637469766560b81b6064820152608490fd5b9190820391821161045457565b60001981146104545760010190565b60405163a9059cbb60e01b60208201526001600160a01b03909216602483015260448083019390935291815260808101916001600160401b038311828410176124035761249392604052612659565b9060405191828154918282526020928383019160005283600020936000905b8282106127bf5750505061249392500383612434565b8554845260019586019588955093810193909101906127a9565b60005260026020526040600020600281015490811561280e576003015461271090818102918183041490151715610454570490565b505060009056fe467573696f6e31696e6368426974636f696e4272696467653a20696e76616c6958fbedaec29d75e04c2ce6fbd0eae86142a167515d4a7df538321935066b6c9ea2646970667358221220685a1bd8b89f3b29ecc562c7952967fd23e33ceb36506f762fc241c59ff9765b64736f6c63430008140033","opcodes":"PUSH1 0x80 CALLVALUE PUSH2 0xF2 JUMPI PUSH1 0x1F PUSH3 0x2999 CODESIZE DUP2 SWAP1 SUB SWAP2 DUP3 ADD PUSH1 0x1F NOT AND DUP4 ADD SWAP2 PUSH1 0x1 PUSH1 0x1 PUSH1 0x40 SHL SUB DUP4 GT DUP5 DUP5 LT OR PUSH2 0xF7 JUMPI DUP1 DUP5 SWAP3 PUSH1 0x20 SWAP5 PUSH1 0x40 MSTORE DUP4 CODECOPY DUP2 ADD SUB SLT PUSH2 0xF2 JUMPI MLOAD PUSH1 0x1 PUSH1 0x1 PUSH1 0xA0 SHL SUB SWAP1 DUP2 DUP2 AND SWAP1 DUP2 SWAP1 SUB PUSH2 0xF2 JUMPI PUSH1 0x1 PUSH1 0x0 SSTORE CALLER ISZERO PUSH2 0xD9 JUMPI PUSH1 0x1 DUP1 SLOAD CALLER PUSH1 0x1 PUSH1 0x1 PUSH1 0xA0 SHL SUB NOT DUP1 DUP4 AND DUP3 OR SWAP1 SWAP4 SSTORE PUSH1 0x40 MLOAD SWAP5 SWAP1 SWAP2 AND PUSH32 0x8BE0079C531659141344CD1FD0A4F28419497F9722A3DAAFE3B4186F6B6457E0 PUSH1 0x0 DUP1 LOG3 PUSH1 0x64 PUSH1 0x8 SSTORE PUSH8 0x16345785D8A0000 PUSH1 0x9 SSTORE PUSH3 0x93A80 PUSH1 0xA SSTORE PUSH2 0xE10 PUSH1 0xB SSTORE PUSH1 0xA PUSH1 0xD SSTORE PUSH1 0x7 SLOAD AND OR PUSH1 0x7 SSTORE PUSH2 0x288B SWAP1 DUP2 PUSH3 0x10E DUP3 CODECOPY RETURN JUMPDEST PUSH1 0x40 MLOAD PUSH4 0x1E4FBDF7 PUSH1 0xE0 SHL DUP2 MSTORE PUSH1 0x0 PUSH1 0x4 DUP3 ADD MSTORE PUSH1 0x24 SWAP1 REVERT JUMPDEST PUSH1 0x0 DUP1 REVERT JUMPDEST PUSH4 0x4E487B71 PUSH1 0xE0 SHL PUSH1 0x0 MSTORE PUSH1 0x41 PUSH1 0x4 MSTORE PUSH1 0x24 PUSH1 0x0 REVERT INVALID PUSH1 0x80 PUSH1 0x40 MSTORE PUSH1 0x4 CALLDATASIZE LT ISZERO PUSH2 0x1B JUMPI JUMPDEST CALLDATASIZE ISZERO PUSH2 0x19 JUMPI PUSH1 0x0 DUP1 REVERT JUMPDEST STOP JUMPDEST PUSH1 0x0 DUP1 CALLDATALOAD PUSH1 0xE0 SHR DUP1 PUSH4 0x8A5B929 EQ PUSH2 0x229A JUMPI DUP1 PUSH4 0x17DF526D EQ PUSH2 0x227C JUMPI DUP1 PUSH4 0x18A6D63A EQ PUSH2 0x225D JUMPI DUP1 PUSH4 0x1D28329E EQ PUSH2 0x21DC JUMPI DUP1 PUSH4 0x222B8947 EQ PUSH2 0x2048 JUMPI DUP1 PUSH4 0x25429E7D EQ PUSH2 0x202A JUMPI DUP1 PUSH4 0x29D37DFE EQ PUSH2 0x1F0E JUMPI DUP1 PUSH4 0x30BF0F00 EQ PUSH2 0x1AAC JUMPI DUP1 PUSH4 0x3F4BA83A EQ PUSH2 0x1E9B JUMPI DUP1 PUSH4 0x438AF4F2 EQ PUSH2 0x1E7D JUMPI DUP1 PUSH4 0x43B920C5 EQ PUSH2 0x1C99 JUMPI DUP1 PUSH4 0x5300F841 EQ PUSH2 0x1C2E JUMPI DUP1 PUSH4 0x5C975ABB EQ PUSH2 0x1C08 JUMPI DUP1 PUSH4 0x665AEEE6 EQ PUSH2 0x1BE5 JUMPI DUP1 PUSH4 0x715018A6 EQ PUSH2 0x1B88 JUMPI DUP1 PUSH4 0x71C8CCD2 EQ PUSH2 0x1B46 JUMPI DUP1 PUSH4 0x8456CB59 EQ PUSH2 0x1AE3 JUMPI DUP1 PUSH4 0x89D4CA45 EQ PUSH2 0x1AAC JUMPI DUP1 PUSH4 0x8DA5CB5B EQ PUSH2 0x1A83 JUMPI DUP1 PUSH4 0x90C26838 EQ PUSH2 0x1853 JUMPI DUP1 PUSH4 0x91EDD8F2 EQ PUSH2 0x177C JUMPI DUP1 PUSH4 0x95CCEA67 EQ PUSH2 0x1702 JUMPI DUP1 PUSH4 0x99FDDC09 EQ PUSH2 0x16D8 JUMPI DUP1 PUSH4 0xA4516C48 EQ PUSH2 0x16A9 JUMPI DUP1 PUSH4 0xAAAF6551 EQ PUSH2 0x112C JUMPI DUP1 PUSH4 0xAD5BDC4E EQ PUSH2 0x7AD JUMPI DUP1 PUSH4 0xAF7B718A EQ PUSH2 0x750 JUMPI DUP1 PUSH4 0xB06A2CA9 EQ PUSH2 0x6F5 JUMPI DUP1 PUSH4 0xBC1FD34B EQ PUSH2 0x6D7 JUMPI DUP1 PUSH4 0xBEE9FB46 EQ PUSH2 0x6AE JUMPI DUP1 PUSH4 0xC618D0EC EQ PUSH2 0x672 JUMPI DUP1 PUSH4 0xC7FD8230 EQ PUSH2 0x632 JUMPI DUP1 PUSH4 0xD794D2D9 EQ PUSH2 0x5F3 JUMPI DUP1 PUSH4 0xE4F920B8 EQ PUSH2 0x598 JUMPI DUP1 PUSH4 0xEB4AF045 EQ PUSH2 0x575 JUMPI DUP1 PUSH4 0xECF3C739 EQ PUSH2 0x2E1 JUMPI DUP1 PUSH4 0xF1887684 EQ PUSH2 0x2C3 JUMPI DUP1 PUSH4 0xF2FDE38B EQ PUSH2 0x238 JUMPI PUSH4 0xFAF9F851 EQ PUSH2 0x1D4 JUMPI POP PUSH2 0xE JUMP JUMPDEST CALLVALUE PUSH2 0x235 JUMPI PUSH1 0x20 CALLDATASIZE PUSH1 0x3 NOT ADD SLT PUSH2 0x235 JUMPI PUSH1 0x40 PUSH1 0x20 SWAP2 PUSH1 0x4 CALLDATALOAD DUP2 MSTORE PUSH1 0x2 DUP4 MSTORE KECCAK256 PUSH1 0x6 DUP2 ADD SLOAD SWAP1 PUSH1 0xFF DUP3 AND ISZERO SWAP2 DUP3 PUSH2 0x226 JUMPI JUMPDEST POP DUP2 PUSH2 0x218 JUMPI JUMPDEST POP PUSH1 0x40 MLOAD SWAP1 ISZERO ISZERO DUP2 MSTORE RETURN JUMPDEST PUSH1 0x5 SWAP2 POP ADD SLOAD TIMESTAMP LT CODESIZE PUSH2 0x20D JUMP JUMPDEST PUSH1 0x8 SHR PUSH1 0xFF AND ISZERO SWAP2 POP CODESIZE PUSH2 0x206 JUMP JUMPDEST DUP1 REVERT JUMPDEST POP CALLVALUE PUSH2 0x235 JUMPI PUSH1 0x20 CALLDATASIZE PUSH1 0x3 NOT ADD SLT PUSH2 0x235 JUMPI PUSH2 0x252 PUSH2 0x235E JUMP JUMPDEST PUSH2 0x25A PUSH2 0x255F JUMP JUMPDEST PUSH1 0x1 PUSH1 0x1 PUSH1 0xA0 SHL SUB SWAP1 DUP2 AND SWAP1 DUP2 ISZERO PUSH2 0x2AA JUMPI PUSH1 0x1 SLOAD DUP3 PUSH1 0x1 PUSH1 0x1 PUSH1 0x60 SHL SUB PUSH1 0xA0 SHL DUP3 AND OR PUSH1 0x1 SSTORE AND PUSH32 0x8BE0079C531659141344CD1FD0A4F28419497F9722A3DAAFE3B4186F6B6457E0 PUSH1 0x0 DUP1 LOG3 DUP1 RETURN JUMPDEST PUSH1 0x40 MLOAD PUSH4 0x1E4FBDF7 PUSH1 0xE0 SHL DUP2 MSTORE PUSH1 0x4 DUP2 ADD DUP5 SWAP1 MSTORE PUSH1 0x24 SWAP1 REVERT JUMPDEST POP CALLVALUE PUSH2 0x235 JUMPI DUP1 PUSH1 0x3 NOT CALLDATASIZE ADD SLT PUSH2 0x235 JUMPI PUSH1 0x20 PUSH1 0x9 SLOAD PUSH1 0x40 MLOAD SWAP1 DUP2 MSTORE RETURN JUMPDEST POP CALLVALUE PUSH2 0x235 JUMPI PUSH2 0x2F0 CALLDATASIZE PUSH2 0x2528 JUMP JUMPDEST SWAP2 SWAP1 SWAP3 CALLER DUP6 MSTORE PUSH1 0x20 SWAP4 PUSH1 0x3 DUP6 MSTORE PUSH1 0xFF PUSH1 0x40 DUP8 KECCAK256 SLOAD AND ISZERO PUSH2 0x51B JUMPI PUSH2 0x312 PUSH2 0x25B9 JUMP JUMPDEST PUSH2 0x31A PUSH2 0x2598 JUMP JUMPDEST DUP2 DUP7 MSTORE PUSH1 0x2 DUP6 MSTORE PUSH1 0x40 DUP7 KECCAK256 PUSH1 0x5 DUP2 ADD SLOAD PUSH2 0x12C TIMESTAMP ADD SWAP1 DUP2 TIMESTAMP GT PUSH2 0x507 JUMPI GT ISZERO PUSH2 0x4A8 JUMPI PUSH1 0x1 ADD SWAP3 DUP7 DUP5 SLOAD SWAP3 PUSH1 0x1 PUSH1 0x1 PUSH1 0x60 SHL SUB PUSH1 0xA0 SHL SWAP5 CALLER DUP7 DUP7 AND OR DUP8 SSTORE ADDRESS EXTCODESIZE ISZERO PUSH2 0x4A4 JUMPI PUSH2 0x38A PUSH1 0x40 MLOAD SWAP5 DUP6 SWAP4 DUP5 SWAP4 PUSH4 0xAAAF6551 PUSH1 0xE0 SHL DUP6 MSTORE PUSH1 0x4 DUP6 ADD MSTORE PUSH1 0x60 PUSH1 0x24 DUP6 ADD MSTORE PUSH1 0x64 DUP5 ADD SWAP2 PUSH2 0x25DC JUMP JUMPDEST DUP9 PUSH1 0x44 DUP4 ADD MSTORE SUB DUP2 DUP4 ADDRESS GAS CALL DUP1 ISZERO PUSH2 0x499 JUMPI PUSH2 0x46A JUMPI JUMPDEST POP PUSH1 0x1 DUP1 PUSH1 0xA0 SHL SUB AND SWAP1 DUP3 SLOAD AND OR SWAP1 SSTORE CALLER DUP4 MSTORE PUSH1 0x3 DUP3 MSTORE PUSH1 0x2 PUSH1 0x40 DUP5 KECCAK256 ADD PUSH2 0x3C9 DUP2 SLOAD PUSH2 0x272C JUMP JUMPDEST SWAP1 SSTORE CALLER DUP4 MSTORE PUSH1 0x3 DUP3 MSTORE TIMESTAMP PUSH1 0x4 PUSH1 0x40 DUP6 KECCAK256 ADD SSTORE PUSH1 0x8 SLOAD SWAP1 DUP2 DUP2 MUL SWAP2 DUP2 DUP4 DIV EQ SWAP1 ISZERO OR ISZERO PUSH2 0x454 JUMPI PUSH2 0x2710 SWAP1 DIV SWAP1 DUP3 DUP1 DUP4 DUP1 ISZERO PUSH2 0x44A JUMPI JUMPDEST DUP3 DUP1 SWAP3 SWAP2 DUP2 SWAP3 CALLER SWAP1 CALL ISZERO PUSH2 0x43F JUMPI PUSH32 0x4D1DE9AE0331892F2DD9BF9875EFE6BE7CE406FDE9450BD808DCC91F3B0874B SWAP1 PUSH1 0x40 MLOAD SWAP3 DUP4 MSTORE CALLER SWAP3 LOG2 PUSH1 0x1 DUP2 SSTORE DUP1 RETURN JUMPDEST PUSH1 0x40 MLOAD RETURNDATASIZE DUP5 DUP3 RETURNDATACOPY RETURNDATASIZE SWAP1 REVERT JUMPDEST PUSH2 0x8FC SWAP2 POP PUSH2 0x3FF JUMP JUMPDEST PUSH4 0x4E487B71 PUSH1 0xE0 SHL PUSH1 0x0 MSTORE PUSH1 0x11 PUSH1 0x4 MSTORE PUSH1 0x24 PUSH1 0x0 REVERT JUMPDEST PUSH1 0x1 PUSH1 0x1 PUSH1 0x40 SHL SUB DUP2 SWAP8 SWAP3 SWAP8 GT PUSH2 0x485 JUMPI PUSH1 0x40 MSTORE SWAP5 CODESIZE PUSH2 0x3A1 JUMP JUMPDEST PUSH4 0x4E487B71 PUSH1 0xE0 SHL DUP3 MSTORE PUSH1 0x41 PUSH1 0x4 MSTORE PUSH1 0x24 DUP3 REVERT JUMPDEST PUSH1 0x40 MLOAD RETURNDATASIZE DUP10 DUP3 RETURNDATACOPY RETURNDATASIZE SWAP1 REVERT JUMPDEST DUP3 DUP1 REVERT JUMPDEST PUSH1 0x40 MLOAD PUSH3 0x461BCD PUSH1 0xE5 SHL DUP2 MSTORE PUSH1 0x4 DUP2 ADD DUP8 SWAP1 MSTORE PUSH1 0x31 PUSH1 0x24 DUP3 ADD MSTORE PUSH32 0x467573696F6E31696E6368426974636F696E4272696467653A20746F6F20636C PUSH1 0x44 DUP3 ADD MSTORE PUSH17 0x37B9B2903A379032BC3834B930BA34B7B7 PUSH1 0x79 SHL PUSH1 0x64 DUP3 ADD MSTORE PUSH1 0x84 SWAP1 REVERT JUMPDEST PUSH4 0x4E487B71 PUSH1 0xE0 SHL DUP10 MSTORE PUSH1 0x11 PUSH1 0x4 MSTORE PUSH1 0x24 DUP10 REVERT JUMPDEST PUSH1 0x40 MLOAD PUSH3 0x461BCD PUSH1 0xE5 SHL DUP2 MSTORE PUSH1 0x4 DUP2 ADD DUP7 SWAP1 MSTORE PUSH1 0x2C PUSH1 0x24 DUP3 ADD MSTORE PUSH32 0x467573696F6E31696E6368426974636F696E4272696467653A2072656C617965 PUSH1 0x44 DUP3 ADD MSTORE PUSH12 0x72206E6F7420616374697665 PUSH1 0xA0 SHL PUSH1 0x64 DUP3 ADD MSTORE PUSH1 0x84 SWAP1 REVERT JUMPDEST POP CALLVALUE PUSH2 0x235 JUMPI PUSH1 0x20 CALLDATASIZE PUSH1 0x3 NOT ADD SLT PUSH2 0x235 JUMPI PUSH2 0x58F PUSH2 0x255F JUMP JUMPDEST PUSH1 0x4 CALLDATALOAD PUSH1 0x9 SSTORE DUP1 RETURN JUMPDEST POP CALLVALUE PUSH2 0x235 JUMPI PUSH1 0x20 CALLDATASIZE PUSH1 0x3 NOT ADD SLT PUSH2 0x235 JUMPI PUSH2 0x5B2 PUSH2 0x235E JUMP JUMPDEST PUSH2 0x5BA PUSH2 0x255F JUMP JUMPDEST PUSH1 0x1 PUSH1 0x1 PUSH1 0xA0 SHL SUB AND DUP1 DUP3 MSTORE PUSH1 0x3 PUSH1 0x20 SWAP1 DUP2 MSTORE PUSH1 0x40 DUP1 DUP5 KECCAK256 DUP1 SLOAD PUSH1 0xFF NOT AND SWAP1 SSTORE MLOAD DUP4 DUP2 MSTORE PUSH1 0x0 DUP1 MLOAD PUSH1 0x20 PUSH2 0x2836 DUP4 CODECOPY DUP2 MLOAD SWAP2 MSTORE SWAP2 SWAP1 LOG2 DUP1 RETURN JUMPDEST POP CALLVALUE PUSH2 0x235 JUMPI PUSH1 0x20 CALLDATASIZE PUSH1 0x3 NOT ADD SLT PUSH2 0x235 JUMPI PUSH1 0x20 SWAP1 PUSH1 0xFF SWAP1 PUSH1 0x40 SWAP1 PUSH1 0x1 PUSH1 0x1 PUSH1 0xA0 SHL SUB PUSH2 0x61E PUSH2 0x235E JUMP JUMPDEST AND DUP2 MSTORE PUSH1 0x5 DUP5 MSTORE KECCAK256 SLOAD AND PUSH1 0x40 MLOAD SWAP1 ISZERO ISZERO DUP2 MSTORE RETURN JUMPDEST POP CALLVALUE PUSH2 0x235 JUMPI PUSH1 0x20 CALLDATASIZE PUSH1 0x3 NOT ADD SLT PUSH2 0x235 JUMPI PUSH2 0x64C PUSH2 0x235E JUMP JUMPDEST PUSH2 0x654 PUSH2 0x255F JUMP JUMPDEST PUSH1 0x1 DUP1 PUSH1 0xA0 SHL SUB AND PUSH1 0x1 PUSH1 0x1 PUSH1 0x60 SHL SUB PUSH1 0xA0 SHL PUSH1 0x7 SLOAD AND OR PUSH1 0x7 SSTORE DUP1 RETURN JUMPDEST POP CALLVALUE PUSH2 0x235 JUMPI PUSH1 0x20 CALLDATASIZE PUSH1 0x3 NOT ADD SLT PUSH2 0x235 JUMPI PUSH2 0x6A6 PUSH1 0x40 PUSH1 0x20 SWAP3 PUSH1 0x4 CALLDATALOAD DUP2 MSTORE PUSH1 0x2 DUP5 MSTORE KECCAK256 PUSH1 0x3 PUSH1 0x2 DUP3 ADD SLOAD SWAP2 ADD SLOAD SWAP1 PUSH2 0x271F JUMP JUMPDEST PUSH1 0x40 MLOAD SWAP1 DUP2 MSTORE RETURN JUMPDEST POP CALLVALUE PUSH2 0x235 JUMPI DUP1 PUSH1 0x3 NOT CALLDATASIZE ADD SLT PUSH2 0x235 JUMPI PUSH1 0x7 SLOAD PUSH1 0x40 MLOAD PUSH1 0x1 PUSH1 0x1 PUSH1 0xA0 SHL SUB SWAP1 SWAP2 AND DUP2 MSTORE PUSH1 0x20 SWAP1 RETURN JUMPDEST POP CALLVALUE PUSH2 0x235 JUMPI DUP1 PUSH1 0x3 NOT CALLDATASIZE ADD SLT PUSH2 0x235 JUMPI PUSH1 0x20 PUSH1 0xA SLOAD PUSH1 0x40 MLOAD SWAP1 DUP2 MSTORE RETURN JUMPDEST POP CALLVALUE PUSH2 0x235 JUMPI PUSH1 0x20 CALLDATASIZE PUSH1 0x3 NOT ADD SLT PUSH2 0x235 JUMPI PUSH2 0x70F PUSH2 0x235E JUMP JUMPDEST PUSH2 0x717 PUSH2 0x255F JUMP JUMPDEST PUSH1 0x1 PUSH1 0x1 PUSH1 0xA0 SHL SUB AND DUP1 DUP3 MSTORE PUSH1 0x5 PUSH1 0x20 SWAP1 DUP2 MSTORE PUSH1 0x40 DUP1 DUP5 KECCAK256 DUP1 SLOAD PUSH1 0xFF NOT AND SWAP1 SSTORE MLOAD DUP4 DUP2 MSTORE PUSH1 0x0 DUP1 MLOAD PUSH1 0x20 PUSH2 0x2836 DUP4 CODECOPY DUP2 MLOAD SWAP2 MSTORE SWAP2 SWAP1 LOG2 DUP1 RETURN JUMPDEST POP CALLVALUE PUSH2 0x235 JUMPI PUSH1 0x20 CALLDATASIZE PUSH1 0x3 NOT ADD SLT PUSH2 0x235 JUMPI PUSH2 0x76A PUSH2 0x235E JUMP JUMPDEST PUSH2 0x772 PUSH2 0x255F JUMP JUMPDEST PUSH1 0x1 DUP1 PUSH1 0xA0 SHL SUB AND DUP1 DUP3 MSTORE PUSH1 0x5 PUSH1 0x20 MSTORE PUSH1 0x40 DUP3 KECCAK256 PUSH1 0x1 PUSH1 0xFF NOT DUP3 SLOAD AND OR SWAP1 SSTORE PUSH1 0x0 DUP1 MLOAD PUSH1 0x20 PUSH2 0x2836 DUP4 CODECOPY DUP2 MLOAD SWAP2 MSTORE PUSH1 0x20 PUSH1 0x40 MLOAD PUSH1 0x1 DUP2 MSTORE LOG2 DUP1 RETURN JUMPDEST POP PUSH2 0x140 CALLDATASIZE PUSH1 0x3 NOT ADD SLT PUSH2 0x235 JUMPI PUSH1 0x24 CALLDATALOAD PUSH1 0x1 PUSH1 0x1 PUSH1 0xA0 SHL SUB DUP2 AND DUP2 SUB PUSH2 0x1128 JUMPI PUSH1 0x84 CALLDATALOAD SWAP1 PUSH1 0x1 PUSH1 0x1 PUSH1 0xA0 SHL SUB DUP3 AND DUP3 SUB PUSH2 0x4A4 JUMPI PUSH1 0xA4 CALLDATALOAD PUSH1 0x1 PUSH1 0x1 PUSH1 0xA0 SHL SUB DUP2 AND DUP2 SUB PUSH2 0x1124 JUMPI PUSH1 0xE4 CALLDATALOAD DUP1 ISZERO ISZERO DUP2 SUB PUSH2 0x1120 JUMPI PUSH2 0x124 CALLDATALOAD PUSH1 0x1 PUSH1 0x1 PUSH1 0x40 SHL SUB DUP2 GT PUSH2 0x111C JUMPI PUSH2 0x821 SWAP1 CALLDATASIZE SWAP1 PUSH1 0x4 ADD PUSH2 0x24FB JUMP JUMPDEST PUSH2 0x829 PUSH2 0x25B9 JUMP JUMPDEST PUSH2 0x831 PUSH2 0x2598 JUMP JUMPDEST PUSH1 0xB SLOAD PUSH1 0x64 CALLDATALOAD LT PUSH2 0x10C2 JUMPI PUSH1 0xA SLOAD PUSH1 0x64 CALLDATALOAD GT PUSH2 0x1069 JUMPI PUSH1 0x4 CALLDATALOAD DUP8 MSTORE PUSH1 0x2 PUSH1 0x20 MSTORE PUSH1 0x40 DUP8 KECCAK256 SLOAD PUSH1 0x1 PUSH1 0x1 PUSH1 0xA0 SHL SUB AND PUSH2 0x100E JUMPI PUSH1 0x1 PUSH1 0x1 PUSH1 0xA0 SHL SUB DUP6 AND ISZERO PUSH2 0xFC8 JUMPI PUSH1 0x44 CALLDATALOAD ISZERO PUSH2 0xF7F JUMPI PUSH1 0x44 CALLDATALOAD DUP8 MSTORE PUSH1 0x4 PUSH1 0x20 MSTORE PUSH1 0xFF PUSH1 0x40 DUP9 KECCAK256 SLOAD AND PUSH2 0xF1F JUMPI PUSH1 0x1 PUSH1 0x1 PUSH1 0xA0 SHL SUB DUP6 AND DUP8 MSTORE PUSH1 0x5 PUSH1 0x20 MSTORE PUSH1 0x40 DUP8 KECCAK256 SLOAD PUSH1 0xFF AND ISZERO PUSH2 0xEC0 JUMPI DUP1 ISZERO PUSH2 0xE6E JUMPI PUSH1 0x1 PUSH1 0x1 PUSH1 0xA0 SHL SUB DUP7 AND PUSH2 0xDF7 JUMPI CALLVALUE ISZERO PUSH2 0xD9C JUMPI CALLVALUE SWAP5 JUMPDEST PUSH2 0x8D7 PUSH1 0x64 CALLDATALOAD TIMESTAMP PUSH2 0x258B JUMP JUMPDEST SWAP1 PUSH1 0x40 MLOAD DUP1 PUSH1 0x20 DUP2 ADD LT PUSH1 0x1 PUSH1 0x1 PUSH1 0x40 SHL SUB PUSH1 0x20 DUP4 ADD GT OR PUSH2 0xD88 JUMPI PUSH1 0x20 DUP2 ADD PUSH1 0x40 MSTORE DUP10 DUP2 MSTORE PUSH1 0x40 MLOAD SWAP2 PUSH2 0x90A DUP4 PUSH2 0x23E7 JUMP JUMPDEST CALLER DUP4 MSTORE PUSH1 0x1 DUP1 PUSH1 0xA0 SHL SUB AND PUSH1 0x20 DUP4 ADD MSTORE DUP8 PUSH1 0x40 DUP4 ADD MSTORE DUP10 PUSH1 0x60 DUP4 ADD MSTORE PUSH1 0x44 CALLDATALOAD PUSH1 0x80 DUP4 ADD MSTORE DUP3 PUSH1 0xA0 DUP4 ADD MSTORE DUP10 PUSH1 0xC0 DUP4 ADD MSTORE DUP10 PUSH1 0xE0 DUP4 ADD MSTORE DUP6 ISZERO ISZERO PUSH2 0x100 DUP4 ADD MSTORE PUSH1 0x1 DUP1 PUSH1 0xA0 SHL SUB DUP10 AND PUSH2 0x120 DUP4 ADD MSTORE PUSH1 0x1 DUP1 PUSH1 0xA0 SHL SUB DUP8 AND PUSH2 0x140 DUP4 ADD MSTORE PUSH1 0xC4 CALLDATALOAD PUSH2 0x160 DUP4 ADD MSTORE PUSH2 0x104 CALLDATALOAD PUSH2 0x180 DUP4 ADD MSTORE TIMESTAMP PUSH2 0x1A0 DUP4 ADD MSTORE PUSH2 0x1C0 DUP3 ADD MSTORE PUSH1 0x4 CALLDATALOAD DUP10 MSTORE PUSH1 0x2 PUSH1 0x20 MSTORE PUSH2 0x1C0 PUSH1 0x40 DUP11 KECCAK256 SWAP2 PUSH1 0x1 DUP1 PUSH1 0xA0 SHL SUB DUP2 MLOAD AND PUSH1 0x1 PUSH1 0x1 PUSH1 0x60 SHL SUB PUSH1 0xA0 SHL DUP5 SLOAD AND OR DUP4 SSTORE PUSH1 0x1 DUP4 ADD PUSH1 0x1 DUP1 PUSH1 0xA0 SHL SUB PUSH1 0x20 DUP4 ADD MLOAD AND PUSH1 0x1 PUSH1 0x1 PUSH1 0x60 SHL SUB PUSH1 0xA0 SHL DUP3 SLOAD AND OR SWAP1 SSTORE PUSH1 0x40 DUP2 ADD MLOAD PUSH1 0x2 DUP5 ADD SSTORE PUSH1 0x60 DUP2 ADD MLOAD PUSH1 0x3 DUP5 ADD SSTORE PUSH1 0x80 DUP2 ADD MLOAD PUSH1 0x4 DUP5 ADD SSTORE PUSH1 0xA0 DUP2 ADD MLOAD PUSH1 0x5 DUP5 ADD SSTORE PUSH1 0x6 DUP4 ADD PUSH2 0xA1E PUSH1 0xC0 DUP4 ADD MLOAD ISZERO ISZERO DUP3 SWAP1 PUSH1 0xFF DUP1 NOT DUP4 SLOAD AND SWAP2 ISZERO ISZERO AND OR SWAP1 SSTORE JUMP JUMPDEST PUSH1 0xE0 DUP3 ADD MLOAD ISZERO ISZERO DUP2 SLOAD PUSH3 0xFF0000 PUSH2 0x100 DUP6 ADD MLOAD ISZERO ISZERO PUSH1 0x10 SHL AND SWAP1 PUSH2 0xFF00 PUSH4 0x1000000 PUSH1 0x1 PUSH1 0xB8 SHL SUB PUSH2 0x120 DUP8 ADD MLOAD PUSH1 0x18 SHL AND SWAP4 PUSH1 0x8 SHL AND SWAP1 PUSH2 0x100 PUSH1 0x1 PUSH1 0xB8 SHL SUB NOT AND OR OR OR SWAP1 SSTORE PUSH1 0x7 DUP4 ADD PUSH1 0x1 DUP1 PUSH1 0xA0 SHL SUB PUSH2 0x140 DUP4 ADD MLOAD AND PUSH1 0x1 PUSH1 0x1 PUSH1 0x60 SHL SUB PUSH1 0xA0 SHL DUP3 SLOAD AND OR SWAP1 SSTORE PUSH2 0x160 DUP2 ADD MLOAD PUSH1 0x8 DUP5 ADD SSTORE PUSH2 0x180 DUP2 ADD MLOAD PUSH1 0x9 DUP5 ADD SSTORE PUSH2 0x1A0 DUP2 ADD MLOAD PUSH1 0xA DUP5 ADD SSTORE ADD MLOAD SWAP1 DUP2 MLOAD SWAP2 PUSH1 0x1 PUSH1 0x1 PUSH1 0x40 SHL SUB DUP4 GT PUSH2 0xD74 JUMPI PUSH1 0x1 PUSH1 0x40 SHL DUP4 GT PUSH2 0xD74 JUMPI PUSH1 0xB DUP3 ADD SLOAD DUP4 PUSH1 0xB DUP5 ADD SSTORE DUP1 DUP5 LT PUSH2 0xD49 JUMPI JUMPDEST POP PUSH1 0x20 PUSH1 0xB SWAP2 ADD SWAP2 ADD DUP11 MSTORE PUSH1 0x20 DUP11 KECCAK256 DUP11 JUMPDEST DUP4 DUP2 LT PUSH2 0xD35 JUMPI POP POP POP POP PUSH1 0x4 CALLDATALOAD DUP9 MSTORE PUSH1 0x6 PUSH1 0x20 MSTORE PUSH1 0x40 DUP9 KECCAK256 SWAP1 PUSH1 0x1 PUSH1 0x1 PUSH1 0x40 SHL SUB DUP4 GT PUSH2 0xD21 JUMPI PUSH2 0xB1F DUP3 SLOAD PUSH2 0x23AD JUMP JUMPDEST PUSH1 0x1F DUP2 GT PUSH2 0xCE0 JUMPI JUMPDEST POP DUP9 SWAP2 DUP4 PUSH1 0x1F DUP2 GT PUSH1 0x1 EQ PUSH2 0xC5A JUMPI PUSH32 0x9A4098F19F5FF554843EED4924D1D370545595B1E21645B5BAC690C1954E9C8C SWAP4 DUP12 SWAP2 PUSH2 0xC4F JUMPI JUMPDEST POP DUP5 PUSH1 0x1 SHL SWAP1 PUSH1 0x0 NOT DUP7 PUSH1 0x3 SHL SHR NOT AND OR SWAP1 SSTORE JUMPDEST PUSH1 0x44 CALLDATALOAD DUP10 MSTORE PUSH1 0x4 PUSH1 0x20 MSTORE PUSH1 0x40 DUP10 KECCAK256 PUSH1 0x1 PUSH1 0xFF NOT DUP3 SLOAD AND OR SWAP1 SSTORE PUSH1 0x4 CALLDATALOAD DUP10 MSTORE PUSH1 0x2 PUSH1 0x20 MSTORE PUSH1 0x1 DUP1 PUSH1 0xA0 SHL SUB PUSH1 0x1 PUSH1 0x40 DUP12 KECCAK256 ADD SLOAD AND SWAP5 PUSH1 0x40 MLOAD SWAP2 DUP9 DUP4 MSTORE PUSH1 0x44 CALLDATALOAD PUSH1 0x20 DUP5 ADD MSTORE PUSH1 0x40 DUP4 ADD MSTORE ISZERO ISZERO PUSH1 0x60 DUP3 ADD MSTORE PUSH1 0xA0 PUSH1 0x80 DUP3 ADD MSTORE DUP1 PUSH2 0xBDE CALLER SWAP6 PUSH1 0x4 CALLDATALOAD SWAP6 PUSH1 0xA0 DUP5 ADD SWAP2 PUSH2 0x25DC JUMP JUMPDEST SUB SWAP1 LOG4 PUSH2 0x104 CALLDATALOAD PUSH2 0xBF2 JUMPI JUMPDEST DUP4 PUSH1 0x1 DUP2 SSTORE DUP1 RETURN JUMPDEST PUSH1 0x40 DUP1 MLOAD PUSH1 0x1 PUSH1 0x1 PUSH1 0xA0 SHL SUB SWAP5 DUP6 AND DUP2 MSTORE SWAP2 SWAP1 SWAP4 AND PUSH1 0x20 DUP3 ADD MSTORE SWAP2 DUP3 ADD MSTORE PUSH1 0xC4 CALLDATALOAD PUSH1 0x60 DUP3 ADD MSTORE PUSH2 0x104 CALLDATALOAD SWAP1 PUSH1 0x4 CALLDATALOAD SWAP1 PUSH32 0x7DF538D8D84EF9CA2274280225BFE87A7D970FC5DA744805787A7F3E2F0B1CD7 SWAP1 PUSH1 0x80 SWAP1 LOG3 CODESIZE DUP1 DUP1 PUSH2 0xBEA JUMP JUMPDEST SWAP1 POP DUP6 ADD CALLDATALOAD CODESIZE PUSH2 0xB60 JUMP JUMPDEST POP DUP1 DUP11 MSTORE PUSH1 0x20 DUP11 KECCAK256 DUP11 SWAP4 JUMPDEST PUSH1 0x1F NOT DUP7 AND DUP6 LT PUSH2 0xCC8 JUMPI PUSH32 0x9A4098F19F5FF554843EED4924D1D370545595B1E21645B5BAC690C1954E9C8C SWAP5 POP DUP6 PUSH1 0x1F NOT DUP2 AND LT PUSH2 0xCAE JUMPI JUMPDEST POP POP PUSH1 0x1 DUP5 DUP2 SHL ADD SWAP1 SSTORE PUSH2 0xB74 JUMP JUMPDEST DUP7 ADD CALLDATALOAD PUSH1 0x0 NOT PUSH1 0x3 DUP8 SWAP1 SHL PUSH1 0xF8 AND SHR NOT AND SWAP1 SSTORE CODESIZE DUP1 PUSH2 0xC9F JUMP JUMPDEST DUP7 DUP2 ADD CALLDATALOAD DUP3 SSTORE PUSH1 0x20 SWAP5 DUP6 ADD SWAP5 PUSH1 0x1 SWAP1 SWAP3 ADD SWAP2 ADD PUSH2 0xC65 JUMP JUMPDEST DUP3 DUP11 MSTORE PUSH1 0x20 DUP11 KECCAK256 PUSH1 0x1F DUP6 ADD PUSH1 0x5 SHR DUP2 ADD PUSH1 0x20 DUP7 LT PUSH2 0xD1A JUMPI JUMPDEST PUSH1 0x1F DUP4 ADD PUSH1 0x5 SHR DUP3 ADD DUP2 LT PUSH2 0xD0F JUMPI POP POP PUSH2 0xB28 JUMP JUMPDEST DUP12 DUP2 SSTORE PUSH1 0x1 ADD PUSH2 0xCF9 JUMP JUMPDEST POP DUP1 PUSH2 0xCF9 JUMP JUMPDEST PUSH4 0x4E487B71 PUSH1 0xE0 SHL DUP10 MSTORE PUSH1 0x41 PUSH1 0x4 MSTORE PUSH1 0x24 DUP10 REVERT JUMPDEST PUSH1 0x1 SWAP1 PUSH1 0x20 DUP5 MLOAD SWAP5 ADD SWAP4 DUP2 DUP5 ADD SSTORE ADD PUSH2 0xAED JUMP JUMPDEST PUSH1 0xB DUP4 ADD DUP13 MSTORE PUSH1 0x20 DUP13 KECCAK256 SWAP1 DUP5 DUP3 ADD JUMPDEST DUP14 DUP3 DUP5 ADD DUP3 LT PUSH2 0xD6A JUMPI POP POP POP PUSH2 0xADC JUMP JUMPDEST DUP2 SSTORE PUSH1 0x1 ADD PUSH2 0xD58 JUMP JUMPDEST PUSH4 0x4E487B71 PUSH1 0xE0 SHL DUP12 MSTORE PUSH1 0x41 PUSH1 0x4 MSTORE PUSH1 0x24 DUP12 REVERT JUMPDEST PUSH4 0x4E487B71 PUSH1 0xE0 SHL DUP11 MSTORE PUSH1 0x41 PUSH1 0x4 MSTORE PUSH1 0x24 DUP11 REVERT JUMPDEST PUSH1 0x40 MLOAD PUSH3 0x461BCD PUSH1 0xE5 SHL DUP2 MSTORE PUSH1 0x20 PUSH1 0x4 DUP3 ADD MSTORE PUSH1 0x2D PUSH1 0x24 DUP3 ADD MSTORE PUSH32 0x467573696F6E31696E6368426974636F696E4272696467653A2045544820616D PUSH1 0x44 DUP3 ADD MSTORE PUSH13 0x1BDD5B9D081C995C5D5A5C9959 PUSH1 0x9A SHL PUSH1 0x64 DUP3 ADD MSTORE PUSH1 0x84 SWAP1 REVERT JUMPDEST CALLVALUE PUSH2 0xE03 JUMPI DUP7 SWAP5 PUSH2 0x8CB JUMP JUMPDEST PUSH1 0x40 MLOAD PUSH3 0x461BCD PUSH1 0xE5 SHL DUP2 MSTORE PUSH1 0x20 PUSH1 0x4 DUP3 ADD MSTORE PUSH1 0x39 PUSH1 0x24 DUP3 ADD MSTORE PUSH32 0x467573696F6E31696E6368426974636F696E4272696467653A20455448206E6F PUSH1 0x44 DUP3 ADD MSTORE PUSH32 0x7420616C6C6F77656420666F7220455243323020737761707300000000000000 PUSH1 0x64 DUP3 ADD MSTORE PUSH1 0x84 SWAP1 REVERT JUMPDEST PUSH1 0x40 MLOAD PUSH3 0x461BCD PUSH1 0xE5 SHL DUP2 MSTORE PUSH1 0x20 PUSH1 0x4 DUP3 ADD MSTORE PUSH1 0x36 PUSH1 0x24 DUP3 ADD MSTORE PUSH1 0x0 DUP1 MLOAD PUSH1 0x20 PUSH2 0x2816 DUP4 CODECOPY DUP2 MLOAD SWAP2 MSTORE PUSH1 0x44 DUP3 ADD MSTORE PUSH22 0x6420426974636F696E2048544C432061646472657373 PUSH1 0x50 SHL PUSH1 0x64 DUP3 ADD MSTORE PUSH1 0x84 SWAP1 REVERT JUMPDEST PUSH1 0x40 MLOAD PUSH3 0x461BCD PUSH1 0xE5 SHL DUP2 MSTORE PUSH1 0x20 PUSH1 0x4 DUP3 ADD MSTORE PUSH1 0x31 PUSH1 0x24 DUP3 ADD MSTORE PUSH32 0x467573696F6E31696E6368426974636F696E4272696467653A207265736F6C76 PUSH1 0x44 DUP3 ADD MSTORE PUSH17 0x195C881B9BDD08185D5D1A1BDC9A5E9959 PUSH1 0x7A SHL PUSH1 0x64 DUP3 ADD MSTORE PUSH1 0x84 SWAP1 REVERT JUMPDEST PUSH1 0x40 MLOAD PUSH3 0x461BCD PUSH1 0xE5 SHL DUP2 MSTORE PUSH1 0x20 PUSH1 0x4 DUP3 ADD MSTORE PUSH1 0x32 PUSH1 0x24 DUP3 ADD MSTORE PUSH32 0x467573696F6E31696E6368426974636F696E4272696467653A20736563726574 PUSH1 0x44 DUP3 ADD MSTORE PUSH18 0x81A185CDA08185B1C9958591E481D5CD959 PUSH1 0x72 SHL PUSH1 0x64 DUP3 ADD MSTORE PUSH1 0x84 SWAP1 REVERT JUMPDEST PUSH1 0x40 MLOAD PUSH3 0x461BCD PUSH1 0xE5 SHL DUP2 MSTORE PUSH1 0x20 PUSH1 0x4 DUP3 ADD MSTORE PUSH1 0x2D PUSH1 0x24 DUP3 ADD MSTORE PUSH1 0x0 DUP1 MLOAD PUSH1 0x20 PUSH2 0x2816 DUP4 CODECOPY DUP2 MLOAD SWAP2 MSTORE PUSH1 0x44 DUP3 ADD MSTORE PUSH13 0xC840E6CAC6E4CAE840D0C2E6D PUSH1 0x9B SHL PUSH1 0x64 DUP3 ADD MSTORE PUSH1 0x84 SWAP1 REVERT JUMPDEST PUSH1 0x40 MLOAD PUSH3 0x461BCD PUSH1 0xE5 SHL DUP2 MSTORE PUSH1 0x20 PUSH1 0x4 DUP3 ADD MSTORE PUSH1 0x2A PUSH1 0x24 DUP3 ADD MSTORE PUSH1 0x0 DUP1 MLOAD PUSH1 0x20 PUSH2 0x2816 DUP4 CODECOPY DUP2 MLOAD SWAP2 MSTORE PUSH1 0x44 DUP3 ADD MSTORE PUSH10 0x32103932B9B7B63B32B9 PUSH1 0xB1 SHL PUSH1 0x64 DUP3 ADD MSTORE PUSH1 0x84 SWAP1 REVERT JUMPDEST PUSH1 0x40 MLOAD PUSH3 0x461BCD PUSH1 0xE5 SHL DUP2 MSTORE PUSH1 0x20 PUSH1 0x4 DUP3 ADD MSTORE PUSH1 0x2D PUSH1 0x24 DUP3 ADD MSTORE PUSH32 0x467573696F6E31696E6368426974636F696E4272696467653A2048544C432061 PUSH1 0x44 DUP3 ADD MSTORE PUSH13 0x6C726561647920657869737473 PUSH1 0x98 SHL PUSH1 0x64 DUP3 ADD MSTORE PUSH1 0x84 SWAP1 REVERT JUMPDEST PUSH1 0x40 MLOAD PUSH3 0x461BCD PUSH1 0xE5 SHL DUP2 MSTORE PUSH1 0x20 PUSH1 0x4 DUP3 ADD MSTORE PUSH1 0x2B PUSH1 0x24 DUP3 ADD MSTORE PUSH32 0x467573696F6E31696E6368426974636F696E4272696467653A2074696D656C6F PUSH1 0x44 DUP3 ADD MSTORE PUSH11 0x636B20746F6F206C6F6E67 PUSH1 0xA8 SHL PUSH1 0x64 DUP3 ADD MSTORE PUSH1 0x84 SWAP1 REVERT JUMPDEST PUSH1 0x40 MLOAD PUSH3 0x461BCD PUSH1 0xE5 SHL DUP2 MSTORE PUSH1 0x20 PUSH1 0x4 DUP3 ADD MSTORE PUSH1 0x2C PUSH1 0x24 DUP3 ADD MSTORE PUSH32 0x467573696F6E31696E6368426974636F696E4272696467653A2074696D656C6F PUSH1 0x44 DUP3 ADD MSTORE PUSH12 0x18DAC81D1BDBC81CDA1BDC9D PUSH1 0xA2 SHL PUSH1 0x64 DUP3 ADD MSTORE PUSH1 0x84 SWAP1 REVERT JUMPDEST DUP6 DUP1 REVERT JUMPDEST DUP5 DUP1 REVERT JUMPDEST DUP4 DUP1 REVERT JUMPDEST POP DUP1 REVERT JUMPDEST POP CALLVALUE PUSH2 0x235 JUMPI PUSH2 0x113B CALLDATASIZE PUSH2 0x2528 JUMP JUMPDEST PUSH2 0x1146 SWAP3 SWAP2 SWAP3 PUSH2 0x25B9 JUMP JUMPDEST PUSH2 0x114E PUSH2 0x2598 JUMP JUMPDEST DUP4 DUP6 MSTORE PUSH1 0x2 PUSH1 0x20 MSTORE PUSH1 0x40 DUP6 KECCAK256 PUSH1 0x1 DUP2 ADD SLOAD SWAP1 SWAP3 SWAP1 PUSH1 0x1 PUSH1 0x1 PUSH1 0xA0 SHL SUB AND CALLER SUB PUSH2 0x1655 JUMPI PUSH1 0x6 DUP4 ADD SLOAD SWAP2 PUSH1 0xFF DUP4 AND ISZERO DUP1 PUSH2 0x1646 JUMPI JUMPDEST PUSH2 0x118B SWAP1 PUSH2 0x26C1 JUMP JUMPDEST PUSH1 0x5 DUP5 ADD SLOAD TIMESTAMP LT ISZERO PUSH2 0x15F7 JUMPI PUSH1 0x20 DUP8 PUSH2 0x11D1 PUSH1 0x40 MLOAD DUP4 DUP2 ADD SWAP1 DUP10 DUP8 DUP4 CALLDATACOPY PUSH2 0x11C0 DUP6 DUP3 DUP13 DUP2 ADD DUP8 DUP4 DUP3 ADD MSTORE SUB DUP1 DUP5 MSTORE ADD DUP3 PUSH2 0x2434 JUMP JUMPDEST PUSH1 0x40 MLOAD SWAP3 DUP4 SWAP3 DUP4 SWAP3 MLOAD SWAP3 DUP4 SWAP2 PUSH2 0x230F JUMP JUMPDEST DUP2 ADD SUB SWAP1 PUSH1 0x2 GAS STATICCALL ISZERO PUSH2 0x1425 JUMPI DUP7 MLOAD PUSH1 0x4 DUP6 ADD SLOAD SUB PUSH2 0x15B1 JUMPI PUSH2 0x11FD PUSH1 0x2 DUP6 ADD SLOAD PUSH1 0x3 DUP7 ADD SLOAD SWAP1 PUSH2 0x271F JUMP JUMPDEST SWAP1 DUP2 ISZERO PUSH2 0x155D JUMPI DUP1 ISZERO DUP1 ISZERO PUSH2 0x1553 JUMPI JUMPDEST ISZERO PUSH2 0x146C JUMPI POP PUSH1 0xFF NOT SWAP1 SWAP3 AND PUSH1 0x1 OR PUSH1 0x6 DUP5 ADD SSTORE JUMPDEST PUSH2 0x1230 DUP3 PUSH1 0x3 DUP6 ADD SLOAD PUSH2 0x258B JUMP JUMPDEST PUSH1 0x3 DUP5 ADD SSTORE DUP5 DUP7 MSTORE PUSH1 0xC PUSH1 0x20 MSTORE PUSH1 0x40 DUP7 KECCAK256 PUSH2 0x124B DUP2 SLOAD PUSH2 0x272C JUMP JUMPDEST SWAP1 SSTORE DUP5 DUP7 MSTORE PUSH1 0xC PUSH1 0x20 MSTORE PUSH1 0x40 DUP7 KECCAK256 SLOAD PUSH1 0x40 MLOAD PUSH1 0x20 DUP2 ADD SWAP2 DUP8 DUP4 MSTORE DUP5 PUSH1 0x40 DUP4 ADD MSTORE TIMESTAMP PUSH1 0x60 DUP4 ADD MSTORE PUSH1 0x80 DUP3 ADD MSTORE PUSH1 0x80 DUP2 MSTORE PUSH2 0x1283 DUP2 PUSH2 0x2419 JUMP JUMPDEST MLOAD SWAP1 KECCAK256 SWAP4 PUSH1 0xB DUP5 ADD SLOAD PUSH1 0x1 PUSH1 0x40 SHL DUP2 LT ISZERO PUSH2 0x1411 JUMPI PUSH1 0x1 DUP2 ADD DUP1 PUSH1 0xB DUP8 ADD SSTORE DUP2 LT ISZERO PUSH2 0x1458 JUMPI PUSH1 0xB DUP6 ADD DUP9 MSTORE PUSH1 0x20 DUP9 KECCAK256 ADD DUP6 SWAP1 SSTORE PUSH1 0x6 DUP5 ADD SLOAD PUSH1 0x18 SHR PUSH1 0x1 PUSH1 0x1 PUSH1 0xA0 SHL SUB AND DUP4 DUP2 PUSH2 0x1439 JUMPI PUSH1 0x1 DUP7 ADD SLOAD DUP10 SWAP3 POP DUP3 SWAP2 DUP3 SWAP2 DUP3 SWAP2 SWAP1 PUSH1 0x1 PUSH1 0x1 PUSH1 0xA0 SHL SUB AND DUP3 DUP3 ISZERO PUSH2 0x1430 JUMPI JUMPDEST CALL ISZERO PUSH2 0x1425 JUMPI JUMPDEST PUSH1 0x4 DUP5 ADD SLOAD PUSH1 0x1 PUSH1 0x1 PUSH1 0x40 SHL SUB DUP3 GT PUSH2 0x1411 JUMPI SWAP1 DUP8 SWAP3 SWAP2 PUSH1 0x40 MLOAD PUSH2 0x1323 PUSH1 0x20 PUSH1 0x1F NOT PUSH1 0x1F DUP7 ADD AND ADD DUP3 PUSH2 0x2434 JUMP JUMPDEST DUP3 DUP2 MSTORE PUSH1 0x20 DUP2 ADD SWAP1 CALLDATASIZE DUP5 DUP7 ADD GT PUSH2 0x111C JUMPI DUP10 SWAP6 PUSH1 0x20 DUP6 PUSH1 0x80 SWAP7 PUSH32 0xD3E8321600BBD1A60BA41611FA97369CBEA694355074F1AE6D8FB38F853D8573 SWAP9 DUP7 CALLDATACOPY DUP4 ADD ADD MSTORE MLOAD SWAP1 KECCAK256 PUSH1 0x1 DUP1 PUSH1 0xA0 SHL SUB PUSH1 0x1 DUP9 ADD SLOAD AND SWAP1 PUSH1 0x40 MLOAD SWAP3 DUP4 MSTORE PUSH1 0x20 DUP4 ADD MSTORE DUP6 PUSH1 0x40 DUP4 ADD MSTORE PUSH1 0x60 DUP3 ADD MSTORE LOG2 PUSH1 0x6 DUP3 ADD SLOAD PUSH1 0xFF DUP2 PUSH1 0x10 SHR AND SWAP1 DUP2 PUSH2 0x1405 JUMPI JUMPDEST POP PUSH2 0x13AD JUMPI JUMPDEST DUP5 PUSH1 0x1 DUP2 SSTORE DUP1 RETURN JUMPDEST PUSH32 0xB6634431F92BB8F06EABF1181A0096537CCEC375CB6A16933EB37C34F75A99BC SWAP3 PUSH2 0x13E5 DUP4 PUSH1 0x3 PUSH1 0x2 PUSH1 0x80 SWAP7 ADD SLOAD SWAP2 ADD SLOAD SWAP1 PUSH2 0x271F JUMP JUMPDEST PUSH1 0x40 MLOAD SWAP3 DUP4 MSTORE PUSH1 0x20 DUP4 ADD MSTORE CALLER PUSH1 0x40 DUP4 ADD MSTORE PUSH1 0x60 DUP3 ADD MSTORE LOG2 CODESIZE DUP1 DUP1 DUP1 PUSH2 0x13A5 JUMP JUMPDEST PUSH1 0xFF SWAP2 POP AND ISZERO CODESIZE PUSH2 0x139F JUMP JUMPDEST PUSH4 0x4E487B71 PUSH1 0xE0 SHL DUP9 MSTORE PUSH1 0x41 PUSH1 0x4 MSTORE PUSH1 0x24 DUP9 REVERT JUMPDEST PUSH1 0x40 MLOAD RETURNDATASIZE DUP9 DUP3 RETURNDATACOPY RETURNDATASIZE SWAP1 REVERT JUMPDEST POP PUSH2 0x8FC PUSH2 0x12EE JUMP JUMPDEST PUSH1 0x1 DUP7 ADD SLOAD PUSH2 0x1453 SWAP3 PUSH1 0x1 PUSH1 0x1 PUSH1 0xA0 SHL SUB SWAP1 SWAP2 AND SWAP1 PUSH2 0x273B JUMP JUMPDEST PUSH2 0x12F5 JUMP JUMPDEST PUSH4 0x4E487B71 PUSH1 0xE0 SHL DUP9 MSTORE PUSH1 0x32 PUSH1 0x4 MSTORE PUSH1 0x24 DUP9 REVERT JUMPDEST SWAP2 SWAP3 PUSH1 0xFF SWAP2 POP PUSH1 0x10 SHR AND ISZERO PUSH2 0x14F5 JUMPI DUP5 DUP7 MSTORE PUSH1 0xC PUSH1 0x20 MSTORE PUSH1 0x40 DUP7 KECCAK256 SLOAD PUSH1 0xD SLOAD GT ISZERO PUSH2 0x1497 JUMPI SWAP1 PUSH2 0x1222 JUMP JUMPDEST PUSH1 0x40 MLOAD PUSH3 0x461BCD PUSH1 0xE5 SHL DUP2 MSTORE PUSH1 0x20 PUSH1 0x4 DUP3 ADD MSTORE PUSH1 0x30 PUSH1 0x24 DUP3 ADD MSTORE PUSH32 0x467573696F6E31696E6368426974636F696E4272696467653A20746F6F206D61 PUSH1 0x44 DUP3 ADD MSTORE PUSH16 0x6E79207061727469616C2066696C6C73 PUSH1 0x80 SHL PUSH1 0x64 DUP3 ADD MSTORE PUSH1 0x84 SWAP1 REVERT JUMPDEST PUSH1 0x40 MLOAD PUSH3 0x461BCD PUSH1 0xE5 SHL DUP2 MSTORE PUSH1 0x20 PUSH1 0x4 DUP3 ADD MSTORE PUSH1 0x30 PUSH1 0x24 DUP3 ADD MSTORE PUSH32 0x467573696F6E31696E6368426974636F696E4272696467653A20706172746961 PUSH1 0x44 DUP3 ADD MSTORE PUSH16 0x1B08199A5B1B1CC8191A5CD8589B1959 PUSH1 0x82 SHL PUSH1 0x64 DUP3 ADD MSTORE PUSH1 0x84 SWAP1 REVERT JUMPDEST POP DUP2 DUP2 LT ISZERO PUSH2 0x120D JUMP JUMPDEST PUSH1 0x40 MLOAD PUSH3 0x461BCD PUSH1 0xE5 SHL DUP2 MSTORE PUSH1 0x20 PUSH1 0x4 DUP3 ADD MSTORE PUSH1 0x26 PUSH1 0x24 DUP3 ADD MSTORE PUSH32 0x467573696F6E31696E6368426974636F696E4272696467653A2066756C6C7920 PUSH1 0x44 DUP3 ADD MSTORE PUSH6 0x199A5B1B1959 PUSH1 0xD2 SHL PUSH1 0x64 DUP3 ADD MSTORE PUSH1 0x84 SWAP1 REVERT JUMPDEST PUSH1 0x40 MLOAD PUSH3 0x461BCD PUSH1 0xE5 SHL DUP2 MSTORE PUSH1 0x20 PUSH1 0x4 DUP3 ADD MSTORE PUSH1 0x2A PUSH1 0x24 DUP3 ADD MSTORE PUSH1 0x0 DUP1 MLOAD PUSH1 0x20 PUSH2 0x2816 DUP4 CODECOPY DUP2 MLOAD SWAP2 MSTORE PUSH1 0x44 DUP3 ADD MSTORE PUSH10 0x6420707265696D616765 PUSH1 0xB0 SHL PUSH1 0x64 DUP3 ADD MSTORE PUSH1 0x84 SWAP1 REVERT JUMPDEST PUSH1 0x40 MLOAD PUSH3 0x461BCD PUSH1 0xE5 SHL DUP2 MSTORE PUSH1 0x20 PUSH1 0x4 DUP3 ADD MSTORE PUSH1 0x21 PUSH1 0x24 DUP3 ADD MSTORE PUSH32 0x467573696F6E31696E6368426974636F696E4272696467653A20657870697265 PUSH1 0x44 DUP3 ADD MSTORE PUSH1 0x19 PUSH1 0xFA SHL PUSH1 0x64 DUP3 ADD MSTORE PUSH1 0x84 SWAP1 REVERT JUMPDEST POP PUSH1 0x8 DUP4 SWAP1 SHR PUSH1 0xFF AND ISZERO PUSH2 0x1182 JUMP JUMPDEST PUSH1 0x40 MLOAD PUSH3 0x461BCD PUSH1 0xE5 SHL DUP2 MSTORE PUSH1 0x20 PUSH1 0x4 DUP3 ADD MSTORE PUSH1 0x26 PUSH1 0x24 DUP3 ADD MSTORE PUSH32 0x467573696F6E31696E6368426974636F696E4272696467653A20756E61757468 PUSH1 0x44 DUP3 ADD MSTORE PUSH6 0x1BDC9A5E9959 PUSH1 0xD2 SHL PUSH1 0x64 DUP3 ADD MSTORE PUSH1 0x84 SWAP1 REVERT JUMPDEST POP CALLVALUE PUSH2 0x235 JUMPI PUSH1 0x20 CALLDATASIZE PUSH1 0x3 NOT ADD SLT PUSH2 0x235 JUMPI PUSH1 0xFF PUSH1 0x40 PUSH1 0x20 SWAP3 PUSH1 0x4 CALLDATALOAD DUP2 MSTORE PUSH1 0x4 DUP5 MSTORE KECCAK256 SLOAD AND PUSH1 0x40 MLOAD SWAP1 ISZERO ISZERO DUP2 MSTORE RETURN JUMPDEST POP CALLVALUE PUSH2 0x235 JUMPI PUSH1 0x20 CALLDATASIZE PUSH1 0x3 NOT ADD SLT PUSH2 0x235 JUMPI PUSH1 0x40 PUSH1 0x20 SWAP2 PUSH1 0x4 CALLDATALOAD DUP2 MSTORE PUSH1 0xC DUP4 MSTORE KECCAK256 SLOAD PUSH1 0x40 MLOAD SWAP1 DUP2 MSTORE RETURN JUMPDEST POP CALLVALUE PUSH2 0x235 JUMPI PUSH1 0x40 CALLDATASIZE PUSH1 0x3 NOT ADD SLT PUSH2 0x235 JUMPI DUP1 PUSH2 0x171D PUSH2 0x235E JUMP JUMPDEST PUSH1 0x24 CALLDATALOAD SWAP1 PUSH2 0x1729 PUSH2 0x255F JUMP JUMPDEST PUSH1 0x1 PUSH1 0x1 PUSH1 0xA0 SHL SUB SWAP1 DUP2 AND DUP1 PUSH2 0x1769 JUMPI POP DUP3 DUP1 SWAP3 DUP2 SWAP3 PUSH1 0x1 SLOAD AND DUP3 DUP3 ISZERO PUSH2 0x1760 JUMPI JUMPDEST CALL ISZERO PUSH2 0x1754 JUMPI DUP1 RETURN JUMPDEST PUSH1 0x40 MLOAD SWAP1 RETURNDATASIZE SWAP1 DUP3 RETURNDATACOPY RETURNDATASIZE SWAP1 REVERT JUMPDEST POP PUSH2 0x8FC PUSH2 0x174B JUMP JUMPDEST SWAP1 PUSH2 0x1779 SWAP4 POP PUSH1 0x1 SLOAD AND SWAP1 PUSH2 0x273B JUMP JUMPDEST DUP1 RETURN JUMPDEST POP CALLVALUE PUSH2 0x235 JUMPI PUSH1 0x20 CALLDATASIZE PUSH1 0x3 NOT ADD SLT PUSH2 0x235 JUMPI PUSH1 0x40 PUSH2 0x1C0 SWAP2 PUSH1 0x4 CALLDATALOAD DUP2 MSTORE PUSH1 0x2 PUSH1 0x20 MSTORE KECCAK256 PUSH1 0x1 DUP1 PUSH1 0xA0 SHL SUB DUP1 DUP3 SLOAD AND SWAP2 DUP2 PUSH1 0x1 DUP3 ADD SLOAD AND SWAP2 PUSH1 0x2 DUP3 ADD SLOAD SWAP1 PUSH1 0x3 DUP4 ADD SLOAD SWAP1 PUSH1 0x4 DUP5 ADD SLOAD PUSH1 0x5 DUP6 ADD SLOAD PUSH1 0x6 DUP7 ADD SLOAD SWAP2 DUP4 PUSH1 0x7 DUP9 ADD SLOAD AND SWAP5 PUSH1 0x8 DUP9 ADD SLOAD SWAP7 PUSH1 0xA PUSH1 0x9 DUP11 ADD SLOAD SWAP10 ADD SLOAD SWAP10 PUSH1 0x40 MLOAD SWAP12 DUP13 MSTORE PUSH1 0x20 DUP13 ADD MSTORE PUSH1 0x40 DUP12 ADD MSTORE PUSH1 0x60 DUP11 ADD MSTORE PUSH1 0x80 DUP10 ADD MSTORE PUSH1 0xA0 DUP9 ADD MSTORE PUSH1 0xFF DUP2 AND ISZERO ISZERO PUSH1 0xC0 DUP9 ADD MSTORE PUSH1 0xFF DUP2 PUSH1 0x8 SHR AND ISZERO ISZERO PUSH1 0xE0 DUP9 ADD MSTORE PUSH1 0xFF DUP2 PUSH1 0x10 SHR AND ISZERO ISZERO PUSH2 0x100 DUP9 ADD MSTORE PUSH1 0x18 SHR AND PUSH2 0x120 DUP7 ADD MSTORE PUSH2 0x140 DUP6 ADD MSTORE PUSH2 0x160 DUP5 ADD MSTORE PUSH2 0x180 DUP4 ADD MSTORE PUSH2 0x1A0 DUP3 ADD MSTORE RETURN JUMPDEST POP CALLVALUE PUSH2 0x235 JUMPI PUSH1 0x20 CALLDATASIZE PUSH1 0x3 NOT ADD SLT PUSH2 0x235 JUMPI PUSH1 0x40 PUSH2 0x1C0 SWAP2 PUSH1 0x60 DUP4 DUP4 MLOAD PUSH2 0x1879 DUP2 PUSH2 0x23E7 JUMP JUMPDEST DUP4 DUP2 MSTORE DUP4 PUSH1 0x20 DUP3 ADD MSTORE DUP4 DUP6 DUP3 ADD MSTORE DUP4 DUP4 DUP3 ADD MSTORE DUP4 PUSH1 0x80 DUP3 ADD MSTORE DUP4 PUSH1 0xA0 DUP3 ADD MSTORE DUP4 PUSH1 0xC0 DUP3 ADD MSTORE DUP4 PUSH1 0xE0 DUP3 ADD MSTORE DUP4 PUSH2 0x100 DUP3 ADD MSTORE DUP4 PUSH2 0x120 DUP3 ADD MSTORE DUP4 PUSH2 0x140 DUP3 ADD MSTORE DUP4 PUSH2 0x160 DUP3 ADD MSTORE DUP4 PUSH2 0x180 DUP3 ADD MSTORE DUP4 PUSH2 0x1A0 DUP3 ADD MSTORE ADD MSTORE PUSH1 0x4 CALLDATALOAD DUP2 MSTORE PUSH1 0x2 PUSH1 0x20 MSTORE KECCAK256 PUSH2 0x19A0 PUSH1 0xB PUSH1 0x40 MLOAD SWAP3 PUSH2 0x18ED DUP5 PUSH2 0x23E7 JUMP JUMPDEST DUP1 SLOAD PUSH1 0x1 PUSH1 0x1 PUSH1 0xA0 SHL SUB SWAP1 DUP2 AND DUP6 MSTORE PUSH1 0x1 DUP3 ADD SLOAD DUP2 AND PUSH1 0x20 DUP7 ADD MSTORE PUSH1 0x2 DUP3 ADD SLOAD PUSH1 0x40 DUP7 ADD MSTORE PUSH1 0x3 DUP3 ADD SLOAD PUSH1 0x60 DUP7 ADD MSTORE PUSH1 0x4 DUP3 ADD SLOAD PUSH1 0x80 DUP7 ADD MSTORE PUSH1 0x5 DUP3 ADD SLOAD PUSH1 0xA0 DUP7 ADD MSTORE PUSH1 0x6 DUP3 ADD SLOAD PUSH1 0xFF DUP1 DUP3 AND ISZERO ISZERO PUSH1 0xC0 DUP9 ADD MSTORE PUSH1 0x8 DUP3 DUP2 SHR DUP3 AND ISZERO ISZERO PUSH1 0xE0 DUP10 ADD MSTORE PUSH1 0x10 DUP4 SWAP1 SHR SWAP1 SWAP2 AND ISZERO ISZERO PUSH2 0x100 DUP9 ADD MSTORE PUSH1 0x18 SWAP2 SWAP1 SWAP2 SHR DUP3 AND PUSH2 0x120 DUP8 ADD MSTORE PUSH1 0x7 DUP4 ADD SLOAD SWAP1 SWAP2 AND PUSH2 0x140 DUP7 ADD MSTORE DUP2 ADD SLOAD PUSH2 0x160 DUP6 ADD MSTORE PUSH1 0x9 DUP2 ADD SLOAD PUSH2 0x180 DUP6 ADD MSTORE PUSH1 0xA DUP2 ADD SLOAD PUSH2 0x1A0 DUP6 ADD MSTORE ADD PUSH2 0x278A JUMP JUMPDEST DUP3 DUP3 ADD MSTORE PUSH2 0x1A7F PUSH1 0x40 MLOAD SWAP3 DUP4 SWAP3 PUSH1 0x20 DUP5 MSTORE PUSH1 0x1 DUP1 PUSH1 0xA0 SHL SUB DUP2 MLOAD AND PUSH1 0x20 DUP6 ADD MSTORE PUSH1 0x1 DUP1 PUSH1 0xA0 SHL SUB PUSH1 0x20 DUP3 ADD MLOAD AND PUSH1 0x40 DUP6 ADD MSTORE PUSH1 0x40 DUP2 ADD MLOAD PUSH1 0x60 DUP6 ADD MSTORE PUSH1 0x60 DUP2 ADD MLOAD PUSH1 0x80 DUP6 ADD MSTORE PUSH1 0x80 DUP2 ADD MLOAD PUSH1 0xA0 DUP6 ADD MSTORE PUSH1 0xA0 DUP2 ADD MLOAD PUSH1 0xC0 DUP6 ADD MSTORE PUSH1 0xC0 DUP2 ADD MLOAD ISZERO ISZERO PUSH1 0xE0 DUP6 ADD MSTORE PUSH1 0xE0 DUP2 ADD MLOAD ISZERO ISZERO PUSH2 0x100 DUP6 ADD MSTORE PUSH2 0x100 DUP2 ADD MLOAD ISZERO ISZERO PUSH2 0x120 DUP6 ADD MSTORE PUSH1 0x1 DUP1 PUSH1 0xA0 SHL SUB PUSH2 0x120 DUP3 ADD MLOAD AND PUSH2 0x140 DUP6 ADD MSTORE PUSH1 0x1 DUP1 PUSH1 0xA0 SHL SUB PUSH2 0x140 DUP3 ADD MLOAD AND PUSH2 0x160 DUP6 ADD MSTORE PUSH2 0x160 DUP2 ADD MLOAD PUSH2 0x180 DUP6 ADD MSTORE PUSH2 0x180 DUP2 ADD MLOAD PUSH2 0x1A0 DUP6 ADD MSTORE PUSH2 0x1A0 DUP2 ADD MLOAD DUP3 DUP6 ADD MSTORE ADD MLOAD PUSH2 0x1E0 DUP1 DUP5 ADD MSTORE PUSH2 0x200 DUP4 ADD SWAP1 PUSH2 0x2379 JUMP JUMPDEST SUB SWAP1 RETURN JUMPDEST POP CALLVALUE PUSH2 0x235 JUMPI DUP1 PUSH1 0x3 NOT CALLDATASIZE ADD SLT PUSH2 0x235 JUMPI PUSH1 0x1 SLOAD PUSH1 0x40 MLOAD PUSH1 0x1 PUSH1 0x1 PUSH1 0xA0 SHL SUB SWAP1 SWAP2 AND DUP2 MSTORE PUSH1 0x20 SWAP1 RETURN JUMPDEST POP CALLVALUE PUSH2 0x235 JUMPI PUSH1 0x20 CALLDATASIZE PUSH1 0x3 NOT ADD SLT PUSH2 0x235 JUMPI PUSH2 0x1AD7 PUSH1 0x40 PUSH2 0x1A7F SWAP3 PUSH1 0x4 CALLDATALOAD DUP2 MSTORE PUSH1 0x6 PUSH1 0x20 MSTORE KECCAK256 PUSH2 0x2455 JUMP JUMPDEST PUSH1 0x40 MLOAD SWAP2 DUP3 SWAP2 DUP3 PUSH2 0x2332 JUMP JUMPDEST POP CALLVALUE PUSH2 0x235 JUMPI DUP1 PUSH1 0x3 NOT CALLDATASIZE ADD SLT PUSH2 0x235 JUMPI PUSH2 0x1AFC PUSH2 0x255F JUMP JUMPDEST PUSH2 0x1B04 PUSH2 0x2598 JUMP JUMPDEST PUSH1 0x1 DUP1 SLOAD PUSH1 0xFF PUSH1 0xA0 SHL NOT AND PUSH1 0x1 PUSH1 0xA0 SHL OR SWAP1 SSTORE PUSH1 0x40 MLOAD CALLER DUP2 MSTORE PUSH32 0x62E78CEA01BEE320CD4E420270B5EA74000D11B0C9F74754EBDBFC544B05A258 SWAP1 PUSH1 0x20 SWAP1 LOG1 DUP1 RETURN JUMPDEST POP CALLVALUE PUSH2 0x235 JUMPI PUSH1 0x20 CALLDATASIZE PUSH1 0x3 NOT ADD SLT PUSH2 0x235 JUMPI PUSH2 0x1B74 PUSH1 0xB PUSH1 0x40 PUSH2 0x1A7F SWAP4 PUSH1 0x4 CALLDATALOAD DUP2 MSTORE PUSH1 0x2 PUSH1 0x20 MSTORE KECCAK256 ADD PUSH2 0x278A JUMP JUMPDEST PUSH1 0x40 MLOAD SWAP2 DUP3 SWAP2 PUSH1 0x20 DUP4 MSTORE PUSH1 0x20 DUP4 ADD SWAP1 PUSH2 0x2379 JUMP JUMPDEST POP CALLVALUE PUSH2 0x235 JUMPI DUP1 PUSH1 0x3 NOT CALLDATASIZE ADD SLT PUSH2 0x235 JUMPI PUSH2 0x1BA1 PUSH2 0x255F JUMP JUMPDEST PUSH1 0x1 DUP1 SLOAD PUSH1 0x1 PUSH1 0x1 PUSH1 0xA0 SHL SUB NOT DUP2 AND SWAP1 SWAP2 SSTORE DUP2 SWAP1 PUSH1 0x1 PUSH1 0x1 PUSH1 0xA0 SHL SUB AND PUSH32 0x8BE0079C531659141344CD1FD0A4F28419497F9722A3DAAFE3B4186F6B6457E0 DUP3 DUP1 LOG3 DUP1 RETURN JUMPDEST POP CALLVALUE PUSH2 0x235 JUMPI PUSH1 0x20 CALLDATASIZE PUSH1 0x3 NOT ADD SLT PUSH2 0x235 JUMPI PUSH2 0x1BFF PUSH2 0x255F JUMP JUMPDEST PUSH1 0x4 CALLDATALOAD PUSH1 0xD SSTORE DUP1 RETURN JUMPDEST POP CALLVALUE PUSH2 0x235 JUMPI DUP1 PUSH1 0x3 NOT CALLDATASIZE ADD SLT PUSH2 0x235 JUMPI PUSH1 0x20 PUSH1 0xFF PUSH1 0x1 SLOAD PUSH1 0xA0 SHR AND PUSH1 0x40 MLOAD SWAP1 ISZERO ISZERO DUP2 MSTORE RETURN JUMPDEST POP CALLVALUE PUSH2 0x235 JUMPI PUSH1 0x20 CALLDATASIZE PUSH1 0x3 NOT ADD SLT PUSH2 0x235 JUMPI PUSH1 0xA0 SWAP1 PUSH1 0x40 SWAP1 PUSH1 0x1 PUSH1 0x1 PUSH1 0xA0 SHL SUB PUSH2 0x1C56 PUSH2 0x235E JUMP JUMPDEST AND DUP2 MSTORE PUSH1 0x3 PUSH1 0x20 MSTORE KECCAK256 PUSH1 0xFF DUP2 SLOAD AND SWAP1 PUSH1 0x1 DUP2 ADD SLOAD SWAP1 PUSH1 0x2 DUP2 ADD SLOAD PUSH1 0x4 PUSH1 0x3 DUP4 ADD SLOAD SWAP3 ADD SLOAD SWAP3 PUSH1 0x40 MLOAD SWAP5 ISZERO ISZERO DUP6 MSTORE PUSH1 0x20 DUP6 ADD MSTORE PUSH1 0x40 DUP5 ADD MSTORE PUSH1 0x60 DUP4 ADD MSTORE PUSH1 0x80 DUP3 ADD MSTORE RETURN JUMPDEST POP CALLVALUE PUSH2 0x235 JUMPI PUSH1 0x20 CALLDATASIZE PUSH1 0x3 NOT ADD SLT PUSH2 0x235 JUMPI PUSH1 0x4 CALLDATALOAD PUSH2 0x1CB6 PUSH2 0x25B9 JUMP JUMPDEST DUP1 DUP3 MSTORE PUSH1 0x2 PUSH1 0x20 MSTORE PUSH1 0x40 DUP3 KECCAK256 DUP1 SLOAD PUSH1 0x1 PUSH1 0x1 PUSH1 0xA0 SHL SUB SWAP2 SWAP1 DUP3 AND PUSH2 0x1CDB CALLER DUP3 EQ PUSH2 0x25FD JUMP JUMPDEST PUSH1 0x6 DUP3 ADD SWAP1 DUP2 SLOAD PUSH1 0xFF DUP2 AND ISZERO DUP1 PUSH2 0x1E6E JUMPI JUMPDEST PUSH2 0x1CF6 SWAP1 PUSH2 0x26C1 JUMP JUMPDEST PUSH1 0x5 DUP5 ADD SLOAD TIMESTAMP LT PUSH2 0x1E1B JUMPI PUSH2 0x1D14 PUSH1 0x2 DUP6 ADD SLOAD PUSH1 0x3 DUP7 ADD SLOAD SWAP1 PUSH2 0x271F JUMP JUMPDEST SWAP3 DUP4 ISZERO PUSH2 0x1DC2 JUMPI PUSH2 0x100 DUP7 SWAP3 PUSH2 0xFF00 NOT AND OR DUP1 SWAP2 SSTORE PUSH1 0x18 SHR AND DUP1 ISZERO PUSH1 0x0 EQ PUSH2 0x1D8D JUMPI POP POP DUP5 DUP1 DUP1 DUP1 DUP5 DUP8 DUP8 SLOAD AND DUP3 CALL ISZERO PUSH2 0x1D82 JUMPI PUSH32 0x4A3556EF2B039F17A91C71E4F371F01D12184CFECC5EC146CB420D4B19CAADB6 SWAP3 PUSH1 0x40 SWAP3 JUMPDEST SLOAD AND DUP3 MLOAD SWAP2 DUP3 MSTORE PUSH1 0x20 DUP3 ADD MSTORE LOG2 PUSH1 0x1 DUP2 SSTORE DUP1 RETURN JUMPDEST PUSH1 0x40 MLOAD RETURNDATASIZE DUP7 DUP3 RETURNDATACOPY RETURNDATASIZE SWAP1 REVERT JUMPDEST SWAP3 PUSH2 0x1DBD DUP4 PUSH32 0x4A3556EF2B039F17A91C71E4F371F01D12184CFECC5EC146CB420D4B19CAADB6 SWAP7 SWAP4 PUSH1 0x40 SWAP7 PUSH2 0x273B JUMP JUMPDEST PUSH2 0x1D6E JUMP JUMPDEST PUSH1 0x40 MLOAD PUSH3 0x461BCD PUSH1 0xE5 SHL DUP2 MSTORE PUSH1 0x20 PUSH1 0x4 DUP3 ADD MSTORE PUSH1 0x2B PUSH1 0x24 DUP3 ADD MSTORE PUSH32 0x467573696F6E31696E6368426974636F696E4272696467653A206E6F7468696E PUSH1 0x44 DUP3 ADD MSTORE PUSH11 0x19C81D1BC81C99599D5B99 PUSH1 0xAA SHL PUSH1 0x64 DUP3 ADD MSTORE PUSH1 0x84 SWAP1 REVERT JUMPDEST PUSH1 0x40 MLOAD PUSH3 0x461BCD PUSH1 0xE5 SHL DUP2 MSTORE PUSH1 0x20 PUSH1 0x4 DUP3 ADD MSTORE PUSH1 0x25 PUSH1 0x24 DUP3 ADD MSTORE PUSH32 0x467573696F6E31696E6368426974636F696E4272696467653A206E6F74206578 PUSH1 0x44 DUP3 ADD MSTORE PUSH5 0x1C1A5C9959 PUSH1 0xDA SHL PUSH1 0x64 DUP3 ADD MSTORE PUSH1 0x84 SWAP1 REVERT JUMPDEST POP PUSH1 0x8 DUP2 SWAP1 SHR PUSH1 0xFF AND ISZERO PUSH2 0x1CED JUMP JUMPDEST POP CALLVALUE PUSH2 0x235 JUMPI DUP1 PUSH1 0x3 NOT CALLDATASIZE ADD SLT PUSH2 0x235 JUMPI PUSH1 0x20 PUSH1 0xD SLOAD PUSH1 0x40 MLOAD SWAP1 DUP2 MSTORE RETURN JUMPDEST POP CALLVALUE PUSH2 0x235 JUMPI DUP1 PUSH1 0x3 NOT CALLDATASIZE ADD SLT PUSH2 0x235 JUMPI PUSH2 0x1EB4 PUSH2 0x255F JUMP JUMPDEST PUSH1 0x1 SLOAD PUSH1 0xFF DUP2 PUSH1 0xA0 SHR AND ISZERO PUSH2 0x1EFC JUMPI PUSH1 0xFF PUSH1 0xA0 SHL NOT AND PUSH1 0x1 SSTORE PUSH1 0x40 MLOAD CALLER DUP2 MSTORE PUSH32 0x5DB9EE0A495BF2E6FF9C91A7834C1BA4FDD244A5E8AA4E537BD38AEAE4B073AA SWAP1 PUSH1 0x20 SWAP1 LOG1 DUP1 RETURN JUMPDEST PUSH1 0x40 MLOAD PUSH4 0x8DFC202B PUSH1 0xE0 SHL DUP2 MSTORE PUSH1 0x4 SWAP1 REVERT JUMPDEST POP DUP1 PUSH1 0x3 NOT CALLDATASIZE ADD SLT PUSH2 0x235 JUMPI PUSH1 0x9 SLOAD CALLVALUE LT PUSH2 0x1FD0 JUMPI PUSH1 0x40 MLOAD PUSH1 0xA0 DUP2 ADD DUP2 DUP2 LT PUSH1 0x1 PUSH1 0x1 PUSH1 0x40 SHL SUB DUP3 GT OR PUSH2 0x1FBC JUMPI PUSH1 0x40 MSTORE PUSH1 0x1 DUP2 MSTORE PUSH1 0x4 PUSH1 0x20 DUP3 ADD CALLVALUE DUP2 MSTORE PUSH1 0x40 DUP4 ADD DUP5 DUP2 MSTORE PUSH1 0x60 DUP5 ADD SWAP1 DUP6 DUP3 MSTORE PUSH1 0x80 DUP6 ADD SWAP3 TIMESTAMP DUP5 MSTORE CALLER DUP8 MSTORE PUSH1 0x3 PUSH1 0x20 MSTORE PUSH2 0x1F88 PUSH1 0x40 DUP9 KECCAK256 SWAP7 MLOAD ISZERO ISZERO DUP8 SWAP1 PUSH1 0xFF DUP1 NOT DUP4 SLOAD AND SWAP2 ISZERO ISZERO AND OR SWAP1 SSTORE JUMP JUMPDEST MLOAD PUSH1 0x1 DUP7 ADD SSTORE MLOAD PUSH1 0x2 DUP6 ADD SSTORE MLOAD PUSH1 0x3 DUP5 ADD SSTORE MLOAD SWAP2 ADD SSTORE PUSH1 0x40 MLOAD PUSH1 0x1 DUP2 MSTORE PUSH1 0x0 DUP1 MLOAD PUSH1 0x20 PUSH2 0x2836 DUP4 CODECOPY DUP2 MLOAD SWAP2 MSTORE PUSH1 0x20 CALLER SWAP3 LOG2 DUP1 RETURN JUMPDEST PUSH4 0x4E487B71 PUSH1 0xE0 SHL DUP4 MSTORE PUSH1 0x41 PUSH1 0x4 MSTORE PUSH1 0x24 DUP4 REVERT JUMPDEST PUSH1 0x40 MLOAD PUSH3 0x461BCD PUSH1 0xE5 SHL DUP2 MSTORE PUSH1 0x20 PUSH1 0x4 DUP3 ADD MSTORE PUSH1 0x2C PUSH1 0x24 DUP3 ADD MSTORE PUSH32 0x467573696F6E31696E6368426974636F696E4272696467653A20696E73756666 PUSH1 0x44 DUP3 ADD MSTORE PUSH12 0x696369656E74207374616B65 PUSH1 0xA0 SHL PUSH1 0x64 DUP3 ADD MSTORE PUSH1 0x84 SWAP1 REVERT JUMPDEST POP CALLVALUE PUSH2 0x235 JUMPI DUP1 PUSH1 0x3 NOT CALLDATASIZE ADD SLT PUSH2 0x235 JUMPI PUSH1 0x20 PUSH1 0xB SLOAD PUSH1 0x40 MLOAD SWAP1 DUP2 MSTORE RETURN JUMPDEST POP CALLVALUE PUSH2 0x235 JUMPI PUSH1 0x40 CALLDATASIZE PUSH1 0x3 NOT ADD SLT PUSH2 0x235 JUMPI PUSH1 0x24 CALLDATALOAD PUSH2 0x2065 PUSH2 0x25B9 JUMP JUMPDEST PUSH2 0x206D PUSH2 0x2598 JUMP JUMPDEST PUSH1 0x4 CALLDATALOAD DUP3 MSTORE PUSH1 0x2 PUSH1 0x20 MSTORE PUSH1 0x40 DUP3 KECCAK256 SWAP1 PUSH1 0x1 DUP1 PUSH1 0xA0 SHL SUB PUSH2 0x2091 DUP2 DUP5 SLOAD AND CALLER EQ PUSH2 0x25FD JUMP JUMPDEST PUSH1 0x6 DUP4 ADD SLOAD PUSH1 0x18 SHR AND SWAP2 DUP3 ISZERO PUSH2 0x218C JUMPI PUSH1 0x2 ADD SWAP2 DUP3 SLOAD PUSH2 0x2136 JUMPI DUP2 ISZERO PUSH2 0x20F2 JUMPI DUP2 PUSH2 0x20EB SWAP4 SSTORE PUSH1 0x40 MLOAD SWAP2 PUSH4 0x23B872DD PUSH1 0xE0 SHL PUSH1 0x20 DUP5 ADD MSTORE CALLER PUSH1 0x24 DUP5 ADD MSTORE ADDRESS PUSH1 0x44 DUP5 ADD MSTORE PUSH1 0x64 DUP4 ADD MSTORE PUSH1 0x64 DUP3 MSTORE PUSH2 0x20E6 DUP3 PUSH2 0x2419 JUMP JUMPDEST PUSH2 0x2659 JUMP JUMPDEST PUSH1 0x1 DUP2 SSTORE DUP1 RETURN JUMPDEST PUSH1 0x40 MLOAD PUSH3 0x461BCD PUSH1 0xE5 SHL DUP2 MSTORE PUSH1 0x20 PUSH1 0x4 DUP3 ADD MSTORE PUSH1 0x28 PUSH1 0x24 DUP3 ADD MSTORE PUSH1 0x0 DUP1 MLOAD PUSH1 0x20 PUSH2 0x2816 DUP4 CODECOPY DUP2 MLOAD SWAP2 MSTORE PUSH1 0x44 DUP3 ADD MSTORE PUSH8 0x1908185B5BDD5B9D PUSH1 0xC2 SHL PUSH1 0x64 DUP3 ADD MSTORE PUSH1 0x84 SWAP1 REVERT JUMPDEST PUSH1 0x40 MLOAD PUSH3 0x461BCD PUSH1 0xE5 SHL DUP2 MSTORE PUSH1 0x20 PUSH1 0x4 DUP3 ADD MSTORE PUSH1 0x28 PUSH1 0x24 DUP3 ADD MSTORE PUSH32 0x467573696F6E31696E6368426974636F696E4272696467653A20616C72656164 PUSH1 0x44 DUP3 ADD MSTORE PUSH8 0x1E48199D5B991959 PUSH1 0xC2 SHL PUSH1 0x64 DUP3 ADD MSTORE PUSH1 0x84 SWAP1 REVERT JUMPDEST PUSH1 0x40 MLOAD PUSH3 0x461BCD PUSH1 0xE5 SHL DUP2 MSTORE PUSH1 0x20 PUSH1 0x4 DUP3 ADD MSTORE PUSH1 0x22 PUSH1 0x24 DUP3 ADD MSTORE PUSH32 0x467573696F6E31696E6368426974636F696E4272696467653A20455448204854 PUSH1 0x44 DUP3 ADD MSTORE PUSH2 0x4C43 PUSH1 0xF0 SHL PUSH1 0x64 DUP3 ADD MSTORE PUSH1 0x84 SWAP1 REVERT JUMPDEST POP CALLVALUE PUSH2 0x235 JUMPI PUSH1 0x20 CALLDATASIZE PUSH1 0x3 NOT ADD SLT PUSH2 0x235 JUMPI PUSH1 0x4 CALLDATALOAD PUSH2 0x21F9 PUSH2 0x255F JUMP JUMPDEST PUSH2 0x3E8 DUP2 GT PUSH2 0x2208 JUMPI PUSH1 0x8 SSTORE DUP1 RETURN JUMPDEST PUSH1 0x40 MLOAD PUSH3 0x461BCD PUSH1 0xE5 SHL DUP2 MSTORE PUSH1 0x20 PUSH1 0x4 DUP3 ADD MSTORE PUSH1 0x27 PUSH1 0x24 DUP3 ADD MSTORE PUSH32 0x467573696F6E31696E6368426974636F696E4272696467653A20726174652074 PUSH1 0x44 DUP3 ADD MSTORE PUSH7 0xDEDE40D0D2CED PUSH1 0xCB SHL PUSH1 0x64 DUP3 ADD MSTORE PUSH1 0x84 SWAP1 REVERT JUMPDEST POP CALLVALUE PUSH2 0x235 JUMPI PUSH1 0x20 CALLDATASIZE PUSH1 0x3 NOT ADD SLT PUSH2 0x235 JUMPI PUSH1 0x20 PUSH2 0x6A6 PUSH1 0x4 CALLDATALOAD PUSH2 0x27D9 JUMP JUMPDEST POP CALLVALUE PUSH2 0x235 JUMPI DUP1 PUSH1 0x3 NOT CALLDATASIZE ADD SLT PUSH2 0x235 JUMPI PUSH1 0x20 PUSH1 0x8 SLOAD PUSH1 0x40 MLOAD SWAP1 DUP2 MSTORE RETURN JUMPDEST POP CALLVALUE PUSH2 0x235 JUMPI PUSH1 0x40 CALLDATASIZE PUSH1 0x3 NOT ADD SLT PUSH2 0x235 JUMPI PUSH1 0x24 CALLDATALOAD PUSH1 0x4 CALLDATALOAD PUSH2 0x22BA PUSH2 0x255F JUMP JUMPDEST DUP2 DUP2 LT ISZERO PUSH2 0x22CB JUMPI PUSH1 0xB SSTORE PUSH1 0xA SSTORE DUP1 RETURN JUMPDEST PUSH1 0x40 MLOAD PUSH3 0x461BCD PUSH1 0xE5 SHL DUP2 MSTORE PUSH1 0x20 PUSH1 0x4 DUP3 ADD MSTORE PUSH1 0x28 PUSH1 0x24 DUP3 ADD MSTORE PUSH1 0x0 DUP1 MLOAD PUSH1 0x20 PUSH2 0x2816 DUP4 CODECOPY DUP2 MLOAD SWAP2 MSTORE PUSH1 0x44 DUP3 ADD MSTORE PUSH8 0x64206C696D697473 PUSH1 0xC0 SHL PUSH1 0x64 DUP3 ADD MSTORE PUSH1 0x84 SWAP1 REVERT JUMPDEST PUSH1 0x0 JUMPDEST DUP4 DUP2 LT PUSH2 0x2322 JUMPI POP POP PUSH1 0x0 SWAP2 ADD MSTORE JUMP JUMPDEST DUP2 DUP2 ADD MLOAD DUP4 DUP3 ADD MSTORE PUSH1 0x20 ADD PUSH2 0x2312 JUMP JUMPDEST PUSH1 0x40 SWAP2 PUSH1 0x20 DUP3 MSTORE PUSH2 0x2352 DUP2 MLOAD DUP1 SWAP3 DUP2 PUSH1 0x20 DUP7 ADD MSTORE PUSH1 0x20 DUP7 DUP7 ADD SWAP2 ADD PUSH2 0x230F JUMP JUMPDEST PUSH1 0x1F ADD PUSH1 0x1F NOT AND ADD ADD SWAP1 JUMP JUMPDEST PUSH1 0x4 CALLDATALOAD SWAP1 PUSH1 0x1 PUSH1 0x1 PUSH1 0xA0 SHL SUB DUP3 AND DUP3 SUB PUSH2 0x2374 JUMPI JUMP JUMPDEST PUSH1 0x0 DUP1 REVERT JUMPDEST SWAP1 DUP2 MLOAD DUP1 DUP3 MSTORE PUSH1 0x20 DUP1 DUP1 SWAP4 ADD SWAP4 ADD SWAP2 PUSH1 0x0 JUMPDEST DUP3 DUP2 LT PUSH2 0x2399 JUMPI POP POP POP POP SWAP1 JUMP JUMPDEST DUP4 MLOAD DUP6 MSTORE SWAP4 DUP2 ADD SWAP4 SWAP3 DUP2 ADD SWAP3 PUSH1 0x1 ADD PUSH2 0x238B JUMP JUMPDEST SWAP1 PUSH1 0x1 DUP3 DUP2 SHR SWAP3 AND DUP1 ISZERO PUSH2 0x23DD JUMPI JUMPDEST PUSH1 0x20 DUP4 LT EQ PUSH2 0x23C7 JUMPI JUMP JUMPDEST PUSH4 0x4E487B71 PUSH1 0xE0 SHL PUSH1 0x0 MSTORE PUSH1 0x22 PUSH1 0x4 MSTORE PUSH1 0x24 PUSH1 0x0 REVERT JUMPDEST SWAP2 PUSH1 0x7F AND SWAP2 PUSH2 0x23BC JUMP JUMPDEST PUSH2 0x1E0 DUP2 ADD SWAP1 DUP2 LT PUSH1 0x1 PUSH1 0x1 PUSH1 0x40 SHL SUB DUP3 GT OR PUSH2 0x2403 JUMPI PUSH1 0x40 MSTORE JUMP JUMPDEST PUSH4 0x4E487B71 PUSH1 0xE0 SHL PUSH1 0x0 MSTORE PUSH1 0x41 PUSH1 0x4 MSTORE PUSH1 0x24 PUSH1 0x0 REVERT JUMPDEST PUSH1 0xA0 DUP2 ADD SWAP1 DUP2 LT PUSH1 0x1 PUSH1 0x1 PUSH1 0x40 SHL SUB DUP3 GT OR PUSH2 0x2403 JUMPI PUSH1 0x40 MSTORE JUMP JUMPDEST SWAP1 PUSH1 0x1F DUP1 NOT SWAP2 ADD AND DUP2 ADD SWAP1 DUP2 LT PUSH1 0x1 PUSH1 0x1 PUSH1 0x40 SHL SUB DUP3 GT OR PUSH2 0x2403 JUMPI PUSH1 0x40 MSTORE JUMP JUMPDEST SWAP1 PUSH1 0x40 MLOAD SWAP2 DUP3 PUSH1 0x0 DUP3 SLOAD SWAP3 PUSH2 0x2469 DUP5 PUSH2 0x23AD JUMP JUMPDEST SWAP1 DUP2 DUP5 MSTORE PUSH1 0x1 SWAP5 DUP6 DUP2 AND SWAP1 DUP2 PUSH1 0x0 EQ PUSH2 0x24D8 JUMPI POP PUSH1 0x1 EQ PUSH2 0x2495 JUMPI JUMPDEST POP POP PUSH2 0x2493 SWAP3 POP SUB DUP4 PUSH2 0x2434 JUMP JUMPDEST JUMP JUMPDEST SWAP1 SWAP4 SWAP2 POP PUSH1 0x0 MSTORE PUSH1 0x20 SWAP1 DUP2 PUSH1 0x0 KECCAK256 SWAP4 PUSH1 0x0 SWAP2 JUMPDEST DUP2 DUP4 LT PUSH2 0x24C0 JUMPI POP POP PUSH2 0x2493 SWAP4 POP DUP3 ADD ADD CODESIZE DUP1 PUSH2 0x2485 JUMP JUMPDEST DUP6 SLOAD DUP9 DUP5 ADD DUP6 ADD MSTORE SWAP5 DUP6 ADD SWAP5 DUP8 SWAP5 POP SWAP2 DUP4 ADD SWAP2 PUSH2 0x24A8 JUMP JUMPDEST SWAP2 POP POP PUSH2 0x2493 SWAP5 POP PUSH1 0x20 SWAP3 POP PUSH1 0xFF NOT AND DUP3 DUP5 ADD MSTORE ISZERO ISZERO PUSH1 0x5 SHL DUP3 ADD ADD CODESIZE DUP1 PUSH2 0x2485 JUMP JUMPDEST SWAP2 DUP2 PUSH1 0x1F DUP5 ADD SLT ISZERO PUSH2 0x2374 JUMPI DUP3 CALLDATALOAD SWAP2 PUSH1 0x1 PUSH1 0x1 PUSH1 0x40 SHL SUB DUP4 GT PUSH2 0x2374 JUMPI PUSH1 0x20 DUP4 DUP2 DUP7 ADD SWAP6 ADD ADD GT PUSH2 0x2374 JUMPI JUMP JUMPDEST SWAP1 PUSH1 0x60 PUSH1 0x3 NOT DUP4 ADD SLT PUSH2 0x2374 JUMPI PUSH1 0x4 CALLDATALOAD SWAP2 PUSH1 0x24 CALLDATALOAD SWAP1 PUSH1 0x1 PUSH1 0x1 PUSH1 0x40 SHL SUB DUP3 GT PUSH2 0x2374 JUMPI PUSH2 0x2557 SWAP2 PUSH1 0x4 ADD PUSH2 0x24FB JUMP JUMPDEST SWAP1 SWAP2 PUSH1 0x44 CALLDATALOAD SWAP1 JUMP JUMPDEST PUSH1 0x1 SLOAD PUSH1 0x1 PUSH1 0x1 PUSH1 0xA0 SHL SUB AND CALLER SUB PUSH2 0x2573 JUMPI JUMP JUMPDEST PUSH1 0x40 MLOAD PUSH4 0x118CDAA7 PUSH1 0xE0 SHL DUP2 MSTORE CALLER PUSH1 0x4 DUP3 ADD MSTORE PUSH1 0x24 SWAP1 REVERT JUMPDEST SWAP2 SWAP1 DUP3 ADD DUP1 SWAP3 GT PUSH2 0x454 JUMPI JUMP JUMPDEST PUSH1 0xFF PUSH1 0x1 SLOAD PUSH1 0xA0 SHR AND PUSH2 0x25A7 JUMPI JUMP JUMPDEST PUSH1 0x40 MLOAD PUSH4 0xD93C0665 PUSH1 0xE0 SHL DUP2 MSTORE PUSH1 0x4 SWAP1 REVERT JUMPDEST PUSH1 0x2 PUSH1 0x0 SLOAD EQ PUSH2 0x25CA JUMPI PUSH1 0x2 PUSH1 0x0 SSTORE JUMP JUMPDEST PUSH1 0x40 MLOAD PUSH4 0x3EE5AEB5 PUSH1 0xE0 SHL DUP2 MSTORE PUSH1 0x4 SWAP1 REVERT JUMPDEST SWAP1 DUP1 PUSH1 0x20 SWAP4 SWAP3 DUP2 DUP5 MSTORE DUP5 DUP5 ADD CALLDATACOPY PUSH1 0x0 DUP3 DUP3 ADD DUP5 ADD MSTORE PUSH1 0x1F ADD PUSH1 0x1F NOT AND ADD ADD SWAP1 JUMP JUMPDEST ISZERO PUSH2 0x2604 JUMPI JUMP JUMPDEST PUSH1 0x40 MLOAD PUSH3 0x461BCD PUSH1 0xE5 SHL DUP2 MSTORE PUSH1 0x20 PUSH1 0x4 DUP3 ADD MSTORE PUSH1 0x27 PUSH1 0x24 DUP3 ADD MSTORE PUSH32 0x467573696F6E31696E6368426974636F696E4272696467653A206E6F7420696E PUSH1 0x44 DUP3 ADD MSTORE PUSH7 0x34BA34B0BA37B9 PUSH1 0xC9 SHL PUSH1 0x64 DUP3 ADD MSTORE PUSH1 0x84 SWAP1 REVERT JUMPDEST SWAP1 PUSH1 0x0 PUSH1 0x20 SWAP2 DUP3 DUP2 MLOAD SWAP2 ADD DUP3 DUP6 GAS CALL ISZERO PUSH2 0x26B5 JUMPI PUSH1 0x0 MLOAD RETURNDATASIZE PUSH2 0x26AC JUMPI POP PUSH1 0x1 PUSH1 0x1 PUSH1 0xA0 SHL SUB DUP2 AND EXTCODESIZE ISZERO JUMPDEST PUSH2 0x268A JUMPI POP JUMP JUMPDEST PUSH1 0x40 MLOAD PUSH4 0x5274AFE7 PUSH1 0xE0 SHL DUP2 MSTORE PUSH1 0x1 PUSH1 0x1 PUSH1 0xA0 SHL SUB SWAP1 SWAP2 AND PUSH1 0x4 DUP3 ADD MSTORE PUSH1 0x24 SWAP1 REVERT JUMPDEST PUSH1 0x1 EQ ISZERO PUSH2 0x2683 JUMP JUMPDEST PUSH1 0x40 MLOAD RETURNDATASIZE PUSH1 0x0 DUP3 RETURNDATACOPY RETURNDATASIZE SWAP1 REVERT JUMPDEST ISZERO PUSH2 0x26C8 JUMPI JUMP JUMPDEST PUSH1 0x40 MLOAD PUSH3 0x461BCD PUSH1 0xE5 SHL DUP2 MSTORE PUSH1 0x20 PUSH1 0x4 DUP3 ADD MSTORE PUSH1 0x29 PUSH1 0x24 DUP3 ADD MSTORE PUSH32 0x467573696F6E31696E6368426974636F696E4272696467653A2048544C43206E PUSH1 0x44 DUP3 ADD MSTORE PUSH9 0x6F7420616374697665 PUSH1 0xB8 SHL PUSH1 0x64 DUP3 ADD MSTORE PUSH1 0x84 SWAP1 REVERT JUMPDEST SWAP2 SWAP1 DUP3 SUB SWAP2 DUP3 GT PUSH2 0x454 JUMPI JUMP JUMPDEST PUSH1 0x0 NOT DUP2 EQ PUSH2 0x454 JUMPI PUSH1 0x1 ADD SWAP1 JUMP JUMPDEST PUSH1 0x40 MLOAD PUSH4 0xA9059CBB PUSH1 0xE0 SHL PUSH1 0x20 DUP3 ADD MSTORE PUSH1 0x1 PUSH1 0x1 PUSH1 0xA0 SHL SUB SWAP1 SWAP3 AND PUSH1 0x24 DUP4 ADD MSTORE PUSH1 0x44 DUP1 DUP4 ADD SWAP4 SWAP1 SWAP4 MSTORE SWAP2 DUP2 MSTORE PUSH1 0x80 DUP2 ADD SWAP2 PUSH1 0x1 PUSH1 0x1 PUSH1 0x40 SHL SUB DUP4 GT DUP3 DUP5 LT OR PUSH2 0x2403 JUMPI PUSH2 0x2493 SWAP3 PUSH1 0x40 MSTORE PUSH2 0x2659 JUMP JUMPDEST SWAP1 PUSH1 0x40 MLOAD SWAP2 DUP3 DUP2 SLOAD SWAP2 DUP3 DUP3 MSTORE PUSH1 0x20 SWAP3 DUP4 DUP4 ADD SWAP2 PUSH1 0x0 MSTORE DUP4 PUSH1 0x0 KECCAK256 SWAP4 PUSH1 0x0 SWAP1 JUMPDEST DUP3 DUP3 LT PUSH2 0x27BF JUMPI POP POP POP PUSH2 0x2493 SWAP3 POP SUB DUP4 PUSH2 0x2434 JUMP JUMPDEST DUP6 SLOAD DUP5 MSTORE PUSH1 0x1 SWAP6 DUP7 ADD SWAP6 DUP9 SWAP6 POP SWAP4 DUP2 ADD SWAP4 SWAP1 SWAP2 ADD SWAP1 PUSH2 0x27A9 JUMP JUMPDEST PUSH1 0x0 MSTORE PUSH1 0x2 PUSH1 0x20 MSTORE PUSH1 0x40 PUSH1 0x0 KECCAK256 PUSH1 0x2 DUP2 ADD SLOAD SWAP1 DUP2 ISZERO PUSH2 0x280E JUMPI PUSH1 0x3 ADD SLOAD PUSH2 0x2710 SWAP1 DUP2 DUP2 MUL SWAP2 DUP2 DUP4 DIV EQ SWAP1 ISZERO OR ISZERO PUSH2 0x454 JUMPI DIV SWAP1 JUMP JUMPDEST POP POP PUSH1 0x0 SWAP1 JUMP INVALID CHAINID PUSH22 0x73696F6E31696E6368426974636F696E427269646765 GASPRICE KECCAK256 PUSH10 0x6E76616C6958FBEDAEC2 SWAP14 PUSH22 0xE04C2CE6FBD0EAE86142A167515D4A7DF53832193506 PUSH12 0x6C9EA2646970667358221220 PUSH9 0x5A1BD8B89F3B29ECC5 PUSH3 0xC79529 PUSH8 0xFD23E33CEB36506F PUSH23 0x2FC241C59FF9765B64736F6C6343000814003300000000 "},"methodIdentifiers":{"authorizeResolver(address)":"af7b718a","authorizedResolvers(address)":"d794d2d9","bitcoinHTLCAddresses(bytes32)":"89d4ca45","deactivateRelayer(address)":"e4f920b8","deauthorizeResolver(address)":"b06a2ca9","depositTokens(bytes32,uint256)":"222b8947","emergencyWithdraw(address,uint256)":"95ccea67","fillCounts(bytes32)":"99fddc09","fusionProtocol()":"bee9fb46","getBitcoinHTLCAddress(bytes32)":"30bf0f00","getFillPercentage(bytes32)":"18a6d63a","getHTLC(bytes32)":"90c26838","getHTLCFills(bytes32)":"71c8ccd2","getRemainingAmount(bytes32)":"c618d0ec","htlcs(bytes32)":"91edd8f2","initiateFusionHTLC(bytes32,address,bytes32,uint256,address,address,uint256,bool,bytes32,string)":"ad5bdc4e","isHTLCActive(bytes32)":"faf9f851","maxPartialFills()":"438af4f2","maxTimelock()":"bc1fd34b","minStakeAmount()":"f1887684","minTimelock()":"25429e7d","owner()":"8da5cb5b","pause()":"8456cb59","paused()":"5c975abb","redeemHTLC(bytes32,bytes,uint256)":"aaaf6551","refundHTLC(bytes32)":"43b920c5","registerRelayer()":"29d37dfe","relayerRedeem(bytes32,bytes,uint256)":"ecf3c739","relayerRewardRate()":"17df526d","relayers(address)":"5300f841","renounceOwnership()":"715018a6","setFusionProtocol(address)":"c7fd8230","setMaxPartialFills(uint256)":"665aeee6","setMinStakeAmount(uint256)":"eb4af045","setRelayerRewardRate(uint256)":"1d28329e","setTimelockLimits(uint256,uint256)":"08a5b929","transferOwnership(address)":"f2fde38b","unpause()":"3f4ba83a","usedSecrets(bytes32)":"a4516c48"}}}}}