{"abi":[{"type":"constructor","inputs":[{"name":"_fusionRelayer","type":"address","internalType":"address"},{"name":"_feeCollector","type":"address","internalType":"address"}],"stateMutability":"nonpayable"},{"type":"function","name":"FEE_DENOMINATOR","inputs":[],"outputs":[{"name":"","type":"uint256","internalType":"uint256"}],"stateMutability":"view"},{"type":"function","name":"collectedFees","inputs":[{"name":"","type":"address","internalType":"address"}],"outputs":[{"name":"","type":"uint256","internalType":"uint256"}],"stateMutability":"view"},{"type":"function","name":"createHTLC","inputs":[{"name":"resolver","type":"address","internalType":"address"},{"name":"fromToken","type":"address","internalType":"address"},{"name":"toToken","type":"address","internalType":"address"},{"name":"amount","type":"uint256","internalType":"uint256"},{"name":"expectedAmount","type":"uint256","internalType":"uint256"},{"name":"secretHash","type":"bytes32","internalType":"bytes32"},{"name":"timelock","type":"uint256","internalType":"uint256"}],"outputs":[],"stateMutability":"nonpayable"},{"type":"function","name":"emergencyRecover","inputs":[{"name":"token","type":"address","internalType":"address"},{"name":"to","type":"address","internalType":"address"},{"name":"amount","type":"uint256","internalType":"uint256"}],"outputs":[],"stateMutability":"nonpayable"},{"type":"function","name":"executeHTLC","inputs":[{"name":"htlcId","type":"bytes32","internalType":"bytes32"},{"name":"secret","type":"bytes32","internalType":"bytes32"}],"outputs":[],"stateMutability":"nonpayable"},{"type":"function","name":"executeHTLCWithSwap","inputs":[{"name":"htlcId","type":"bytes32","internalType":"bytes32"},{"name":"secret","type":"bytes32","internalType":"bytes32"},{"name":"actualAmount","type":"uint256","internalType":"uint256"}],"outputs":[],"stateMutability":"nonpayable"},{"type":"function","name":"feeCollector","inputs":[],"outputs":[{"name":"","type":"address","internalType":"address"}],"stateMutability":"view"},{"type":"function","name":"fusionRelayer","inputs":[],"outputs":[{"name":"","type":"address","internalType":"address"}],"stateMutability":"view"},{"type":"function","name":"getHTLC","inputs":[{"name":"htlcId","type":"bytes32","internalType":"bytes32"}],"outputs":[{"name":"","type":"tuple","internalType":"struct HTLC1inchEscrow.HTLC","components":[{"name":"initiator","type":"address","internalType":"address"},{"name":"resolver","type":"address","internalType":"address"},{"name":"fromToken","type":"address","internalType":"address"},{"name":"toToken","type":"address","internalType":"address"},{"name":"amount","type":"uint256","internalType":"uint256"},{"name":"expectedAmount","type":"uint256","internalType":"uint256"},{"name":"secretHash","type":"bytes32","internalType":"bytes32"},{"name":"timelock","type":"uint256","internalType":"uint256"},{"name":"executed","type":"bool","internalType":"bool"},{"name":"refunded","type":"bool","internalType":"bool"},{"name":"orderId","type":"string","internalType":"string"},{"name":"orderSubmitted","type":"bool","internalType":"bool"}]}],"stateMutability":"view"},{"type":"function","name":"htlcContracts","inputs":[{"name":"","type":"bytes32","internalType":"bytes32"}],"outputs":[{"name":"initiator","type":"address","internalType":"address"},{"name":"resolver","type":"address","internalType":"address"},{"name":"fromToken","type":"address","internalType":"address"},{"name":"toToken","type":"address","internalType":"address"},{"name":"amount","type":"uint256","internalType":"uint256"},{"name":"expectedAmount","type":"uint256","internalType":"uint256"},{"name":"secretHash","type":"bytes32","internalType":"bytes32"},{"name":"timelock","type":"uint256","internalType":"uint256"},{"name":"executed","type":"bool","internalType":"bool"},{"name":"refunded","type":"bool","internalType":"bool"},{"name":"orderId","type":"string","internalType":"string"},{"name":"orderSubmitted","type":"bool","internalType":"bool"}],"stateMutability":"view"},{"type":"function","name":"htlcExistsMap","inputs":[{"name":"","type":"bytes32","internalType":"bytes32"}],"outputs":[{"name":"","type":"bool","internalType":"bool"}],"stateMutability":"view"},{"type":"function","name":"maxTimelock","inputs":[],"outputs":[{"name":"","type":"uint256","internalType":"uint256"}],"stateMutability":"view"},{"type":"function","name":"minTimelock","inputs":[],"outputs":[{"name":"","type":"uint256","internalType":"uint256"}],"stateMutability":"view"},{"type":"function","name":"owner","inputs":[],"outputs":[{"name":"","type":"address","internalType":"address"}],"stateMutability":"view"},{"type":"function","name":"protocolFee","inputs":[],"outputs":[{"name":"","type":"uint256","internalType":"uint256"}],"stateMutability":"view"},{"type":"function","name":"refundHTLC","inputs":[{"name":"htlcId","type":"bytes32","internalType":"bytes32"}],"outputs":[],"stateMutability":"nonpayable"},{"type":"function","name":"renounceOwnership","inputs":[],"outputs":[],"stateMutability":"nonpayable"},{"type":"function","name":"setFeeCollector","inputs":[{"name":"_feeCollector","type":"address","internalType":"address"}],"outputs":[],"stateMutability":"nonpayable"},{"type":"function","name":"setFusionRelayer","inputs":[{"name":"_fusionRelayer","type":"address","internalType":"address"}],"outputs":[],"stateMutability":"nonpayable"},{"type":"function","name":"setProtocolFee","inputs":[{"name":"_protocolFee","type":"uint256","internalType":"uint256"}],"outputs":[],"stateMutability":"nonpayable"},{"type":"function","name":"setTimelockLimits","inputs":[{"name":"_minTimelock","type":"uint256","internalType":"uint256"},{"name":"_maxTimelock","type":"uint256","internalType":"uint256"}],"outputs":[],"stateMutability":"nonpayable"},{"type":"function","name":"submitOrder","inputs":[{"name":"htlcId","type":"bytes32","internalType":"bytes32"},{"name":"orderId","type":"string","internalType":"string"}],"outputs":[],"stateMutability":"nonpayable"},{"type":"function","name":"transferOwnership","inputs":[{"name":"newOwner","type":"address","internalType":"address"}],"outputs":[],"stateMutability":"nonpayable"},{"type":"function","name":"withdrawFees","inputs":[{"name":"token","type":"address","internalType":"address"},{"name":"amount","type":"uint256","internalType":"uint256"}],"outputs":[],"stateMutability":"nonpayable"},{"type":"event","name":"HTLCCreated","inputs":[{"name":"htlcId","type":"bytes32","indexed":true,"internalType":"bytes32"},{"name":"initiator","type":"address","indexed":true,"internalType":"address"},{"name":"resolver","type":"address","indexed":true,"internalType":"address"},{"name":"fromToken","type":"address","indexed":false,"internalType":"address"},{"name":"toToken","type":"address","indexed":false,"internalType":"address"},{"name":"amount","type":"uint256","indexed":false,"internalType":"uint256"},{"name":"expectedAmount","type":"uint256","indexed":false,"internalType":"uint256"},{"name":"secretHash","type":"bytes32","indexed":false,"internalType":"bytes32"},{"name":"timelock","type":"uint256","indexed":false,"internalType":"uint256"}],"anonymous":false},{"type":"event","name":"HTLCExecuted","inputs":[{"name":"htlcId","type":"bytes32","indexed":true,"internalType":"bytes32"},{"name":"resolver","type":"address","indexed":true,"internalType":"address"},{"name":"secret","type":"bytes32","indexed":false,"internalType":"bytes32"},{"name":"actualAmount","type":"uint256","indexed":false,"internalType":"uint256"}],"anonymous":false},{"type":"event","name":"HTLCRefunded","inputs":[{"name":"htlcId","type":"bytes32","indexed":true,"internalType":"bytes32"},{"name":"initiator","type":"address","indexed":true,"internalType":"address"}],"anonymous":false},{"type":"event","name":"OrderExecuted","inputs":[{"name":"htlcId","type":"bytes32","indexed":true,"internalType":"bytes32"},{"name":"orderId","type":"string","indexed":false,"internalType":"string"},{"name":"actualAmount","type":"uint256","indexed":false,"internalType":"uint256"}],"anonymous":false},{"type":"event","name":"OrderSubmitted","inputs":[{"name":"htlcId","type":"bytes32","indexed":true,"internalType":"bytes32"},{"name":"orderId","type":"string","indexed":false,"internalType":"string"},{"name":"initiator","type":"address","indexed":true,"internalType":"address"}],"anonymous":false},{"type":"event","name":"OwnershipTransferred","inputs":[{"name":"previousOwner","type":"address","indexed":true,"internalType":"address"},{"name":"newOwner","type":"address","indexed":true,"internalType":"address"}],"anonymous":false},{"type":"error","name":"OwnableInvalidOwner","inputs":[{"name":"owner","type":"address","internalType":"address"}]},{"type":"error","name":"OwnableUnauthorizedAccount","inputs":[{"name":"account","type":"address","internalType":"address"}]},{"type":"error","name":"ReentrancyGuardReentrantCall","inputs":[]},{"type":"error","name":"SafeERC20FailedOperation","inputs":[{"name":"token","type":"address","internalType":"address"}]}],"bytecode":{"object":"0x6080346101a057601f611f0438819003918201601f19168301916001600160401b038311848410176101a45780849260409485528339810103126101a057610052602061004b836101b8565b92016101b8565b331561018d575f8054336001600160a01b0319821681178355604051949290916001600160a01b0316907f8be0079c531659141344cd1fd0a4f28419497f9722a3daafe3b4186f6b6457e09080a360018055610e10600590815562093a806006556007556001600160a01b031691821561014b57506001600160a01b03169081156101065760018060a01b0319600454161760045560018060a01b03196008541617600855604051611d3790816101cd8239f35b60405162461bcd60e51b815260206004820152601d60248201527f496e76616c69642066656520636f6c6c6563746f7220616464726573730000006044820152606490fd5b62461bcd60e51b815260206004820152601e60248201527f496e76616c696420667573696f6e2072656c61796572206164647265737300006044820152606490fd5b631e4fbdf760e01b5f525f60045260245ffd5b5f80fd5b634e487b7160e01b5f52604160045260245ffd5b51906001600160a01b03821682036101a05756fe6080806040526004361015610012575f80fd5b5f3560e01c90816303c1751d146118b35750806308a5b9291461183f5780631cead9a71461180757806325429e7d146117ea5780632cbc004f1461175e57806343b920c5146115de57806344f8667a1461142a5780634962130b146113fb57806367e90c3b14611135578063715018a6146110de578063787dce3d146110785780638da5cb5b1461105157806390c2683814610e5f578063a42dce8014610dd3578063ad1329d114610d3f578063ad3b1b4714610c84578063b0e21e8a14610c67578063b19d8865146105ee578063bc1fd34b146105d1578063c377104a146102db578063c415b95c146102b3578063d73792a914610297578063f2fde38b146102125763fd396aec14610124575f80fd5b3461020e57602036600319011261020e576004355f52600260205260405f2060018060a01b0381541660018060a01b036001830154169161020160018060a01b036002830154169160ff60018060a01b036003830154166004830154600584015460068501549060078601549260088701549486600a6101a660098b0161199d565b99015416996040519c8d9c8d5260208d015260408c015260608b015260808a015260a089015260c088015260e0870152818116151561010087015260081c161515610120850152610180610140850152610180840190611902565b9015156101608301520390f35b5f80fd5b3461020e57602036600319011261020e5761022b6118d6565b610233611c3d565b6001600160a01b03168015610284575f80546001600160a01b03198116831782556001600160a01b0316907f8be0079c531659141344cd1fd0a4f28419497f9722a3daafe3b4186f6b6457e09080a3005b631e4fbdf760e01b5f525f60045260245ffd5b3461020e575f36600319011261020e5760206040516127108152f35b3461020e575f36600319011261020e576008546040516001600160a01b039091168152602090f35b3461020e57604036600319011261020e5760243560043567ffffffffffffffff821161020e573660238301121561020e5781600401359067ffffffffffffffff821161020e57366024838501011161020e57805f52600360205261034560ff60405f205416611a3d565b805f52600260205261036160ff600860405f2001541615611a7f565b805f52600260205261038060ff600860405f20015460081c1615611ac3565b805f52600260205261039a600760405f2001544210611b07565b5f81815260026020526040902080549093906001600160a01b0316330361058c57600a84019360ff85541661054757831561050f57600901936103e7846103e18754611926565b87611bee565b5f94601f85116001146104865761043785807f6207bdd983b0dfecdec0bb7277cee99619359c19e90e11bb86193670c9417a999697985f91610478575b508160011b915f199060031b1c19161790565b90555b600160ff1982541617905583602460405192602084528260208501520160408301375f604085830101526040813395601f80199101168101030190a3005b602491508601013589610424565b601f19851695815f5260205f20905f5b8881106104f45750867f6207bdd983b0dfecdec0bb7277cee99619359c19e90e11bb86193670c9417a99969798106104d8575b5050600186811b01905561043a565b8401602401355f19600389901b60f8161c1916905586806104c9565b90916020600181926024868a01013581550193019101610496565b60405162461bcd60e51b815260206004820152601060248201526f125b9d985b1a59081bdc99195c88125160821b6044820152606490fd5b60405162461bcd60e51b815260206004820152601760248201527f4f7264657220616c7265616479207375626d69747465640000000000000000006044820152606490fd5b60405162461bcd60e51b815260206004820152601f60248201527f4f6e6c7920696e69746961746f722063616e207375626d6974206f72646572006044820152606490fd5b3461020e575f36600319011261020e576020600654604051908152f35b3461020e5760e036600319011261020e576106076118d6565b61060f6118ec565b90604435906001600160a01b0382169081830361020e5760643560843560a4359160c43593600260015414610c585760026001556001600160a01b038116978815610c13576001600160a01b038116978815610bce578715610b89578315610b44578415610af05761068360055442611be1565b8710610ab65761069560065442611be1565b8711610a7d578515610a42576040519160208301933360601b85526001600160601b03199060601b1660348401526001600160601b03199060601b1660488301526001600160601b03199060601b16605c8201528260708201528360908201528460b08201528560d08201524260f082015260f081526107176101108261197b565b51902094855f52600360205260ff60405f205416610a07576107696040516323b872dd60e01b60208201523360248201523060448201528360648201526064815261076360848261197b565b88611c9e565b6040516107758161195e565b33815286602082018a8152604083018a815260608401908582526080850187815260a0860189815260c08701908b825260e08801928d84526101008901955f87526101208a01955f87526040519860208a018a811067ffffffffffffffff8211176109f35760409081525f808c526101408e019b8c526101608e018181529c8152600260208190529190209c518d546001600160a01b03199081166001600160a01b03928316178f55925160018f01805485169183169190911790559251908d0180548316918416919091179055915160038c0180549093169116179055516004890155516005880155516006870155516007860155905160088501805460ff9215159290921660ff19929092169190911781559051815461ff00191690151560081b61ff0016179055518051600984019167ffffffffffffffff82116109f3576108ca826108c48554611926565b85611bee565b602090601f8311600114610988578261091b969593600a9593610902935f9261097d575b50508160011b915f199060031b1c19161790565b90555b51151591019060ff801983541691151516179055565b855f52600360205260405f20600160ff19825416179055604051968752602087015260408601526060850152608084015260a08301527f4b5c104ca934d371410330f1cd6a99b9d510b1c1bd6f5e0faf20d6c7e7e5ce4660c03393a460018055005b015190505f806108ee565b90601f19831691845f52815f20925f5b8181106109db575092600192859261091b999896600a9896106109c3575b505050811b019055610905565b01515f1960f88460031b161c191690558f80806109b6565b92936020600181928786015181550195019301610998565b634e487b7160e01b5f52604160045260245ffd5b60405162461bcd60e51b815260206004820152601360248201527248544c4320616c72656164792065786973747360681b6044820152606490fd5b60405162461bcd60e51b8152602060048201526013602482015272092dcecc2d8d2c840e6cac6e4cae840d0c2e6d606b1b6044820152606490fd5b60405162461bcd60e51b815260206004820152601160248201527054696d656c6f636b20746f6f206c6f6e6760781b6044820152606490fd5b60405162461bcd60e51b8152602060048201526012602482015271151a5b595b1bd8dac81d1bdbc81cda1bdc9d60721b6044820152606490fd5b60405162461bcd60e51b815260206004820152602660248201527f457870656374656420616d6f756e74206d75737420626520677265617465722060448201526507468616e20360d41b6064820152608490fd5b60405162461bcd60e51b815260206004820152601d60248201527f416d6f756e74206d7573742062652067726561746572207468616e20300000006044820152606490fd5b60405162461bcd60e51b815260206004820152601760248201527f496e76616c696420746f546f6b656e20616464726573730000000000000000006044820152606490fd5b60405162461bcd60e51b815260206004820152601960248201527f496e76616c69642066726f6d546f6b656e2061646472657373000000000000006044820152606490fd5b60405162461bcd60e51b815260206004820152601860248201527f496e76616c6964207265736f6c766572206164647265737300000000000000006044820152606490fd5b633ee5aeb560e01b5f5260045ffd5b3461020e575f36600319011261020e576020600754604051908152f35b3461020e57604036600319011261020e57610c9d6118d6565b60243590610ca9611c3d565b6001600160a01b03165f818152600960205260409020549091908111610cfa5781610cf8925f52600960205260405f20610ce4838254611bd4565b90556008546001600160a01b031690611c63565b005b60405162461bcd60e51b815260206004820152601b60248201527f496e73756666696369656e7420636f6c6c6563746564206665657300000000006044820152606490fd5b3461020e57606036600319011261020e57610d586118d6565b610d606118ec565b90610d69611c3d565b6001600160a01b03821615610d8e57610cf891604435916001600160a01b0316611c63565b60405162461bcd60e51b815260206004820152601960248201527f496e76616c696420726563697069656e742061646472657373000000000000006044820152606490fd5b3461020e57602036600319011261020e57610dec6118d6565b610df4611c3d565b6001600160a01b03168015610e1a576001600160601b0360a01b60085416176008555f80f35b60405162461bcd60e51b815260206004820152601d60248201527f496e76616c69642066656520636f6c6c6563746f7220616464726573730000006044820152606490fd5b3461020e57602036600319011261020e576004355f610160604051610e838161195e565b8281528260208201528260408201528260608201528260808201528260a08201528260c08201528260e0820152826101008201528261012082015260606101408201520152805f526003602052610ee060ff60405f205416611a3d565b5f526002602052602060405f2060405190610efa8261195e565b80546001600160a01b039081168352600182015481168484019081526002830154821660408501908152600384015490921660608501908152600484015460808601908152600585015460a08701908152600686015460c08801908152600787015460e0890190815260088089015460ff80821615156101008d019081529190921c821615156101208c019081529799611043998c99989297949694939091600a90610140610fab6009830161199d565b9c019b8c520154169a6101608d019b15158c526040518e819f9e829f835260018060a01b0390511691015260018060a01b0390511660408d015260018060a01b0390511660608c015260018060a01b0390511660808b01525160a08a01525160c08901525160e088015251610100870152511515610120860152511515610140850152516101806101608501526101a0840190611902565b905115156101808301520390f35b3461020e575f36600319011261020e575f546040516001600160a01b039091168152602090f35b3461020e57602036600319011261020e57600435611094611c3d565b606481116110a157600755005b60405162461bcd60e51b81526020600482015260156024820152740a0e4dee8dec6ded840cccaca40e8dede40d0d2ced605b1b6044820152606490fd5b3461020e575f36600319011261020e576110f6611c3d565b5f80546001600160a01b0319811682556001600160a01b03167f8be0079c531659141344cd1fd0a4f28419497f9722a3daafe3b4186f6b6457e08280a3005b3461020e57606036600319011261020e5760043560243560443590825f52600360205261116860ff60405f205416611a3d565b825f52600260205261118460ff600860405f2001541615611a7f565b825f5260026020526111a360ff600860405f20015460081c1615611ac3565b825f5260026020526111bd600760405f2001544210611b07565b5f83815260026020526040902060018101546001600160a01b0316916111e4338414611b4b565b61120f60405160208101908382526020815261120160408261197b565b519020600684015414611b97565b60ff600a83015416156113c05783156113835760088201805460ff19166001179055600382015460099361124e918691906001600160a01b0316611c63565b604051908152836020820152847ff8f56560a186eced64c07031f656150ab7aeafa29f2223ae3421b53fb687f19360403393a30160405191604083525f9180549061129882611926565b918260408701526001811690815f1461133e57506001146112e4575b857f6cd26694047116012014e60ee2f27031595f74cd673aa07f6ef7736d5807d9cf8680878760208301520390a2005b5f90815260208120929350915b818310611327575050820160600190807f6cd26694047116012014e60ee2f27031595f74cd673aa07f6ef7736d5807d9cf6112b4565b8054606084870101526020909201916001016112f1565b60ff191660608088019190915292151560051b860190920193508291507f6cd26694047116012014e60ee2f27031595f74cd673aa07f6ef7736d5807d9cf90506112b4565b60405162461bcd60e51b8152602060048201526015602482015274125b9d985b1a59081858dd1d585b08185b5bdd5b9d605a1b6044820152606490fd5b60405162461bcd60e51b815260206004820152601360248201527213dc99195c881b9bdd081cdd589b5a5d1d1959606a1b6044820152606490fd5b3461020e57602036600319011261020e576004355f526003602052602060ff60405f2054166040519015158152f35b3461020e57604036600319011261020e5760043560243590805f52600360205261145a60ff60405f205416611a3d565b805f52600260205261147660ff600860405f2001541615611a7f565b805f52600260205261149560ff600860405f20015460081c1615611ac3565b805f5260026020526114af600760405f2001544210611b07565b5f81815260026020526040902060018101546001600160a01b03166114d5338214611b4b565b6114f260405160208101908682526020815261120160408261197b565b60088201600160ff198254161790556004820154906007548083029083820414831517156115ca5760029361152f61271061154593048095611bd4565b94018054909285916001600160a01b0316611c63565b81611580575b505060405192835260208301527ff8f56560a186eced64c07031f656150ab7aeafa29f2223ae3421b53fb687f19360403393a3005b805460085461159d9184916001600160a01b039081169116611c63565b546001600160a01b03165f908152600960205260409020805490916115c191611be1565b9055838061154b565b634e487b7160e01b5f52601160045260245ffd5b3461020e57602036600319011261020e57600435805f52600360205261160a60ff60405f205416611a3d565b805f52600260205261162660ff600860405f2001541615611a7f565b805f52600260205261164560ff600860405f20015460081c1615611ac3565b805f526002602052600760405f2001544210611719575f81815260026020526040902080546001600160a01b031690338290036116d45760088101805461ff00191661010017905560028101546004909101546116ac9290916001600160a01b0316611c63565b33907f19438ba24f558efe29e176888dc45d354fa6ca8f049af37592767f6534f32eb05f80a3005b60405162461bcd60e51b815260206004820152601e60248201527f4f6e6c7920696e69746961746f722063616e20726566756e642048544c4300006044820152606490fd5b60405162461bcd60e51b815260206004820152601960248201527f48544c432074696d656c6f636b206e6f742065787069726564000000000000006044820152606490fd5b3461020e57602036600319011261020e576117776118d6565b61177f611c3d565b6001600160a01b031680156117a5576001600160601b0360a01b60045416176004555f80f35b60405162461bcd60e51b815260206004820152601e60248201527f496e76616c696420667573696f6e2072656c61796572206164647265737300006044820152606490fd5b3461020e575f36600319011261020e576020600554604051908152f35b3461020e57602036600319011261020e576001600160a01b036118286118d6565b165f526009602052602060405f2054604051908152f35b3461020e57604036600319011261020e5760243560043561185e611c3d565b8181101561186e57600555600655005b60405162461bcd60e51b815260206004820152601760248201527f496e76616c69642074696d656c6f636b206c696d6974730000000000000000006044820152606490fd5b3461020e575f36600319011261020e576004546001600160a01b03168152602090f35b600435906001600160a01b038216820361020e57565b602435906001600160a01b038216820361020e57565b805180835260209291819084018484015e5f828201840152601f01601f1916010190565b90600182811c92168015611954575b602083101461194057565b634e487b7160e01b5f52602260045260245ffd5b91607f1691611935565b610180810190811067ffffffffffffffff8211176109f357604052565b90601f8019910116810190811067ffffffffffffffff8211176109f357604052565b9060405191825f8254926119b084611926565b8084529360018116908115611a1b57506001146119d7575b506119d59250038361197b565b565b90505f9291925260205f20905f915b8183106119ff5750509060206119d5928201015f6119c8565b60209193508060019154838589010152019101909184926119e6565b9050602092506119d594915060ff191682840152151560051b8201015f6119c8565b15611a4457565b60405162461bcd60e51b815260206004820152601360248201527212151310c8191bd95cc81b9bdd08195e1a5cdd606a1b6044820152606490fd5b15611a8657565b60405162461bcd60e51b815260206004820152601560248201527412151310c8185b1c9958591e48195e1958dd5d1959605a1b6044820152606490fd5b15611aca57565b60405162461bcd60e51b815260206004820152601560248201527412151310c8185b1c9958591e481c99599d5b991959605a1b6044820152606490fd5b15611b0e57565b60405162461bcd60e51b815260206004820152601560248201527412151310c81d1a5b595b1bd8dac8195e1c1a5c9959605a1b6044820152606490fd5b15611b5257565b60405162461bcd60e51b815260206004820152601e60248201527f4f6e6c79207265736f6c7665722063616e20657865637574652048544c4300006044820152606490fd5b15611b9e57565b60405162461bcd60e51b815260206004820152600e60248201526d125b9d985b1a59081cd958dc995d60921b6044820152606490fd5b919082039182116115ca57565b919082018092116115ca57565b601f8211611bfb57505050565b5f5260205f20906020601f840160051c83019310611c33575b601f0160051c01905b818110611c28575050565b5f8155600101611c1d565b9091508190611c14565b5f546001600160a01b03163303611c5057565b63118cdaa760e01b5f523360045260245ffd5b60405163a9059cbb60e01b60208201526001600160a01b0390921660248301526044808301939093529181526119d591611c9e60648361197b565b905f602091828151910182855af115611cf6575f513d611ced57506001600160a01b0381163b155b611ccd5750565b635274afe760e01b5f9081526001600160a01b0391909116600452602490fd5b60011415611cc6565b6040513d5f823e3d90fdfea264697066735822122039f964b47c6486879f3d1b7d9ea02291dfda598b5c83f45d2576eaed36359ce164736f6c634300081e0033","linkReferences":{}},"methodIdentifiers":{"FEE_DENOMINATOR()":"d73792a9","collectedFees(address)":"1cead9a7","createHTLC(address,address,address,uint256,uint256,bytes32,uint256)":"b19d8865","emergencyRecover(address,address,uint256)":"ad1329d1","executeHTLC(bytes32,bytes32)":"44f8667a","executeHTLCWithSwap(bytes32,bytes32,uint256)":"67e90c3b","feeCollector()":"c415b95c","fusionRelayer()":"03c1751d","getHTLC(bytes32)":"90c26838","htlcContracts(bytes32)":"fd396aec","htlcExistsMap(bytes32)":"4962130b","maxTimelock()":"bc1fd34b","minTimelock()":"25429e7d","owner()":"8da5cb5b","protocolFee()":"b0e21e8a","refundHTLC(bytes32)":"43b920c5","renounceOwnership()":"715018a6","setFeeCollector(address)":"a42dce80","setFusionRelayer(address)":"2cbc004f","setProtocolFee(uint256)":"787dce3d","setTimelockLimits(uint256,uint256)":"08a5b929","submitOrder(bytes32,string)":"c377104a","transferOwnership(address)":"f2fde38b","withdrawFees(address,uint256)":"ad3b1b47"},"id":2}