{
  "_format": "hh-sol-artifact-1",
  "contractName": "HTLC1inchEscrow",
  "sourceName": "contracts/HTLC1inchEscrow.sol",
  "abi": [
    {
      "inputs": [
        {
          "internalType": "address",
          "name": "_fusionRelayer",
          "type": "address"
        },
        {
          "internalType": "address",
          "name": "_feeCollector",
          "type": "address"
        }
      ],
      "stateMutability": "nonpayable",
      "type": "constructor"
    },
    {
      "inputs": [
        {
          "internalType": "address",
          "name": "owner",
          "type": "address"
        }
      ],
      "name": "OwnableInvalidOwner",
      "type": "error"
    },
    {
      "inputs": [
        {
          "internalType": "address",
          "name": "account",
          "type": "address"
        }
      ],
      "name": "OwnableUnauthorizedAccount",
      "type": "error"
    },
    {
      "inputs": [],
      "name": "ReentrancyGuardReentrantCall",
      "type": "error"
    },
    {
      "inputs": [
        {
          "internalType": "address",
          "name": "token",
          "type": "address"
        }
      ],
      "name": "SafeERC20FailedOperation",
      "type": "error"
    },
    {
      "anonymous": false,
      "inputs": [
        {
          "indexed": true,
          "internalType": "bytes32",
          "name": "htlcId",
          "type": "bytes32"
        },
        {
          "indexed": true,
          "internalType": "address",
          "name": "initiator",
          "type": "address"
        },
        {
          "indexed": true,
          "internalType": "address",
          "name": "resolver",
          "type": "address"
        },
        {
          "indexed": false,
          "internalType": "address",
          "name": "fromToken",
          "type": "address"
        },
        {
          "indexed": false,
          "internalType": "address",
          "name": "toToken",
          "type": "address"
        },
        {
          "indexed": false,
          "internalType": "uint256",
          "name": "amount",
          "type": "uint256"
        },
        {
          "indexed": false,
          "internalType": "uint256",
          "name": "expectedAmount",
          "type": "uint256"
        },
        {
          "indexed": false,
          "internalType": "bytes32",
          "name": "secretHash",
          "type": "bytes32"
        },
        {
          "indexed": false,
          "internalType": "uint256",
          "name": "timelock",
          "type": "uint256"
        }
      ],
      "name": "HTLCCreated",
      "type": "event"
    },
    {
      "anonymous": false,
      "inputs": [
        {
          "indexed": true,
          "internalType": "bytes32",
          "name": "htlcId",
          "type": "bytes32"
        },
        {
          "indexed": true,
          "internalType": "address",
          "name": "resolver",
          "type": "address"
        },
        {
          "indexed": false,
          "internalType": "bytes32",
          "name": "secret",
          "type": "bytes32"
        },
        {
          "indexed": false,
          "internalType": "uint256",
          "name": "actualAmount",
          "type": "uint256"
        }
      ],
      "name": "HTLCExecuted",
      "type": "event"
    },
    {
      "anonymous": false,
      "inputs": [
        {
          "indexed": true,
          "internalType": "bytes32",
          "name": "htlcId",
          "type": "bytes32"
        },
        {
          "indexed": true,
          "internalType": "address",
          "name": "initiator",
          "type": "address"
        }
      ],
      "name": "HTLCRefunded",
      "type": "event"
    },
    {
      "anonymous": false,
      "inputs": [
        {
          "indexed": true,
          "internalType": "bytes32",
          "name": "htlcId",
          "type": "bytes32"
        },
        {
          "indexed": false,
          "internalType": "string",
          "name": "orderId",
          "type": "string"
        },
        {
          "indexed": false,
          "internalType": "uint256",
          "name": "actualAmount",
          "type": "uint256"
        }
      ],
      "name": "OrderExecuted",
      "type": "event"
    },
    {
      "anonymous": false,
      "inputs": [
        {
          "indexed": true,
          "internalType": "bytes32",
          "name": "htlcId",
          "type": "bytes32"
        },
        {
          "indexed": false,
          "internalType": "string",
          "name": "orderId",
          "type": "string"
        },
        {
          "indexed": true,
          "internalType": "address",
          "name": "initiator",
          "type": "address"
        }
      ],
      "name": "OrderSubmitted",
      "type": "event"
    },
    {
      "anonymous": false,
      "inputs": [
        {
          "indexed": true,
          "internalType": "address",
          "name": "previousOwner",
          "type": "address"
        },
        {
          "indexed": true,
          "internalType": "address",
          "name": "newOwner",
          "type": "address"
        }
      ],
      "name": "OwnershipTransferred",
      "type": "event"
    },
    {
      "inputs": [],
      "name": "FEE_DENOMINATOR",
      "outputs": [
        {
          "internalType": "uint256",
          "name": "",
          "type": "uint256"
        }
      ],
      "stateMutability": "view",
      "type": "function"
    },
    {
      "inputs": [
        {
          "internalType": "address",
          "name": "",
          "type": "address"
        }
      ],
      "name": "collectedFees",
      "outputs": [
        {
          "internalType": "uint256",
          "name": "",
          "type": "uint256"
        }
      ],
      "stateMutability": "view",
      "type": "function"
    },
    {
      "inputs": [
        {
          "internalType": "address",
          "name": "resolver",
          "type": "address"
        },
        {
          "internalType": "address",
          "name": "fromToken",
          "type": "address"
        },
        {
          "internalType": "address",
          "name": "toToken",
          "type": "address"
        },
        {
          "internalType": "uint256",
          "name": "amount",
          "type": "uint256"
        },
        {
          "internalType": "uint256",
          "name": "expectedAmount",
          "type": "uint256"
        },
        {
          "internalType": "bytes32",
          "name": "secretHash",
          "type": "bytes32"
        },
        {
          "internalType": "uint256",
          "name": "timelock",
          "type": "uint256"
        }
      ],
      "name": "createHTLC",
      "outputs": [],
      "stateMutability": "nonpayable",
      "type": "function"
    },
    {
      "inputs": [
        {
          "internalType": "address",
          "name": "token",
          "type": "address"
        },
        {
          "internalType": "address",
          "name": "to",
          "type": "address"
        },
        {
          "internalType": "uint256",
          "name": "amount",
          "type": "uint256"
        }
      ],
      "name": "emergencyRecover",
      "outputs": [],
      "stateMutability": "nonpayable",
      "type": "function"
    },
    {
      "inputs": [
        {
          "internalType": "bytes32",
          "name": "htlcId",
          "type": "bytes32"
        },
        {
          "internalType": "bytes32",
          "name": "secret",
          "type": "bytes32"
        }
      ],
      "name": "executeHTLC",
      "outputs": [],
      "stateMutability": "nonpayable",
      "type": "function"
    },
    {
      "inputs": [
        {
          "internalType": "bytes32",
          "name": "htlcId",
          "type": "bytes32"
        },
        {
          "internalType": "bytes32",
          "name": "secret",
          "type": "bytes32"
        },
        {
          "internalType": "uint256",
          "name": "actualAmount",
          "type": "uint256"
        }
      ],
      "name": "executeHTLCWithSwap",
      "outputs": [],
      "stateMutability": "nonpayable",
      "type": "function"
    },
    {
      "inputs": [],
      "name": "feeCollector",
      "outputs": [
        {
          "internalType": "address",
          "name": "",
          "type": "address"
        }
      ],
      "stateMutability": "view",
      "type": "function"
    },
    {
      "inputs": [],
      "name": "fusionRelayer",
      "outputs": [
        {
          "internalType": "address",
          "name": "",
          "type": "address"
        }
      ],
      "stateMutability": "view",
      "type": "function"
    },
    {
      "inputs": [
        {
          "internalType": "bytes32",
          "name": "htlcId",
          "type": "bytes32"
        }
      ],
      "name": "getHTLC",
      "outputs": [
        {
          "components": [
            {
              "internalType": "address",
              "name": "initiator",
              "type": "address"
            },
            {
              "internalType": "address",
              "name": "resolver",
              "type": "address"
            },
            {
              "internalType": "address",
              "name": "fromToken",
              "type": "address"
            },
            {
              "internalType": "address",
              "name": "toToken",
              "type": "address"
            },
            {
              "internalType": "uint256",
              "name": "amount",
              "type": "uint256"
            },
            {
              "internalType": "uint256",
              "name": "expectedAmount",
              "type": "uint256"
            },
            {
              "internalType": "bytes32",
              "name": "secretHash",
              "type": "bytes32"
            },
            {
              "internalType": "uint256",
              "name": "timelock",
              "type": "uint256"
            },
            {
              "internalType": "bool",
              "name": "executed",
              "type": "bool"
            },
            {
              "internalType": "bool",
              "name": "refunded",
              "type": "bool"
            },
            {
              "internalType": "string",
              "name": "orderId",
              "type": "string"
            },
            {
              "internalType": "bool",
              "name": "orderSubmitted",
              "type": "bool"
            }
          ],
          "internalType": "struct HTLC1inchEscrow.HTLC",
          "name": "",
          "type": "tuple"
        }
      ],
      "stateMutability": "view",
      "type": "function"
    },
    {
      "inputs": [
        {
          "internalType": "bytes32",
          "name": "",
          "type": "bytes32"
        }
      ],
      "name": "htlcContracts",
      "outputs": [
        {
          "internalType": "address",
          "name": "initiator",
          "type": "address"
        },
        {
          "internalType": "address",
          "name": "resolver",
          "type": "address"
        },
        {
          "internalType": "address",
          "name": "fromToken",
          "type": "address"
        },
        {
          "internalType": "address",
          "name": "toToken",
          "type": "address"
        },
        {
          "internalType": "uint256",
          "name": "amount",
          "type": "uint256"
        },
        {
          "internalType": "uint256",
          "name": "expectedAmount",
          "type": "uint256"
        },
        {
          "internalType": "bytes32",
          "name": "secretHash",
          "type": "bytes32"
        },
        {
          "internalType": "uint256",
          "name": "timelock",
          "type": "uint256"
        },
        {
          "internalType": "bool",
          "name": "executed",
          "type": "bool"
        },
        {
          "internalType": "bool",
          "name": "refunded",
          "type": "bool"
        },
        {
          "internalType": "string",
          "name": "orderId",
          "type": "string"
        },
        {
          "internalType": "bool",
          "name": "orderSubmitted",
          "type": "bool"
        }
      ],
      "stateMutability": "view",
      "type": "function"
    },
    {
      "inputs": [
        {
          "internalType": "bytes32",
          "name": "",
          "type": "bytes32"
        }
      ],
      "name": "htlcExistsMap",
      "outputs": [
        {
          "internalType": "bool",
          "name": "",
          "type": "bool"
        }
      ],
      "stateMutability": "view",
      "type": "function"
    },
    {
      "inputs": [],
      "name": "maxTimelock",
      "outputs": [
        {
          "internalType": "uint256",
          "name": "",
          "type": "uint256"
        }
      ],
      "stateMutability": "view",
      "type": "function"
    },
    {
      "inputs": [],
      "name": "minTimelock",
      "outputs": [
        {
          "internalType": "uint256",
          "name": "",
          "type": "uint256"
        }
      ],
      "stateMutability": "view",
      "type": "function"
    },
    {
      "inputs": [],
      "name": "owner",
      "outputs": [
        {
          "internalType": "address",
          "name": "",
          "type": "address"
        }
      ],
      "stateMutability": "view",
      "type": "function"
    },
    {
      "inputs": [],
      "name": "protocolFee",
      "outputs": [
        {
          "internalType": "uint256",
          "name": "",
          "type": "uint256"
        }
      ],
      "stateMutability": "view",
      "type": "function"
    },
    {
      "inputs": [
        {
          "internalType": "bytes32",
          "name": "htlcId",
          "type": "bytes32"
        }
      ],
      "name": "refundHTLC",
      "outputs": [],
      "stateMutability": "nonpayable",
      "type": "function"
    },
    {
      "inputs": [],
      "name": "renounceOwnership",
      "outputs": [],
      "stateMutability": "nonpayable",
      "type": "function"
    },
    {
      "inputs": [
        {
          "internalType": "address",
          "name": "_feeCollector",
          "type": "address"
        }
      ],
      "name": "setFeeCollector",
      "outputs": [],
      "stateMutability": "nonpayable",
      "type": "function"
    },
    {
      "inputs": [
        {
          "internalType": "address",
          "name": "_fusionRelayer",
          "type": "address"
        }
      ],
      "name": "setFusionRelayer",
      "outputs": [],
      "stateMutability": "nonpayable",
      "type": "function"
    },
    {
      "inputs": [
        {
          "internalType": "uint256",
          "name": "_protocolFee",
          "type": "uint256"
        }
      ],
      "name": "setProtocolFee",
      "outputs": [],
      "stateMutability": "nonpayable",
      "type": "function"
    },
    {
      "inputs": [
        {
          "internalType": "uint256",
          "name": "_minTimelock",
          "type": "uint256"
        },
        {
          "internalType": "uint256",
          "name": "_maxTimelock",
          "type": "uint256"
        }
      ],
      "name": "setTimelockLimits",
      "outputs": [],
      "stateMutability": "nonpayable",
      "type": "function"
    },
    {
      "inputs": [
        {
          "internalType": "bytes32",
          "name": "htlcId",
          "type": "bytes32"
        },
        {
          "internalType": "string",
          "name": "orderId",
          "type": "string"
        }
      ],
      "name": "submitOrder",
      "outputs": [],
      "stateMutability": "nonpayable",
      "type": "function"
    },
    {
      "inputs": [
        {
          "internalType": "address",
          "name": "newOwner",
          "type": "address"
        }
      ],
      "name": "transferOwnership",
      "outputs": [],
      "stateMutability": "nonpayable",
      "type": "function"
    },
    {
      "inputs": [
        {
          "internalType": "address",
          "name": "token",
          "type": "address"
        },
        {
          "internalType": "uint256",
          "name": "amount",
          "type": "uint256"
        }
      ],
      "name": "withdrawFees",
      "outputs": [],
      "stateMutability": "nonpayable",
      "type": "function"
    }
  ],
  "bytecode": "0x6080346200019a5762001f5890601f38839003908101601f19168201906001600160401b038211838310176200019f57808391604095869485528339810103126200019a576200005d60206200005583620001b5565b9201620001b5565b3315620001825760008054336001600160a01b03198083168217845586519590946001600160a01b03949093859391908416907f8be0079c531659141344cd1fd0a4f28419497f9722a3daafe3b4186f6b6457e09080a360018055610e1060055562093a8060065560056007551693841562000140575016918215620000fc57816004541617600455600854161760085551611d8d9081620001cb8239f35b835162461bcd60e51b815260206004820152601d60248201527f496e76616c69642066656520636f6c6c6563746f7220616464726573730000006044820152606490fd5b62461bcd60e51b815260206004820152601e60248201527f496e76616c696420667573696f6e2072656c61796572206164647265737300006044820152606490fd5b8251631e4fbdf760e01b815260006004820152602490fd5b600080fd5b634e487b7160e01b600052604160045260246000fd5b51906001600160a01b03821682036200019a5756fe608080604052600436101561001357600080fd5b60003560e01c90816303c1751d146118b15750806308a5b9291461183d5780631cead9a71461180357806325429e7d146117e55780632cbc004f1461175857806343b920c5146115d857806344f8667a1461142d5780634962130b146113fc57806367e90c3b146111fa578063715018a6146111a1578063787dce3d1461113b5780638da5cb5b1461111257806390c2683814610f09578063a42dce8014610e7c578063ad1329d114610dee578063ad3b1b4714610d3a578063b0e21e8a14610d1c578063b19d8865146105ef578063bc1fd34b146105d1578063c377104a146102e3578063c415b95c146102ba578063d73792a91461029d578063f2fde38b146102145763fd396aec1461012757600080fd5b3461020f57602036600319011261020f576004356000526002602052604060002060018060a01b038082541690610202816001850154169360ff83600283015416936003830154166004830154600584015460068501549060078601549260088701549486600a604051996101aa8b6101a3816009850161197b565b038c611a4a565b015416996040519c8d9c8d5260208d015260408c015260608b015260808a015260a089015260c088015260e0870152818116151561010087015260081c16151561012085015261018080610140860152840190611901565b9015156101608301520390f35b600080fd5b3461020f57602036600319011261020f5761022d6118d5565b610235611a6c565b6001600160a01b0390811690811561028457600054826001600160601b0360a01b821617600055167f8be0079c531659141344cd1fd0a4f28419497f9722a3daafe3b4186f6b6457e0600080a3005b604051631e4fbdf760e01b815260006004820152602490fd5b3461020f57600036600319011261020f5760206040516127108152f35b3461020f57600036600319011261020f576008546040516001600160a01b039091168152602090f35b3461020f57604036600319011261020f5767ffffffffffffffff600435602480359083821161020f573660238301121561020f57816004013593841161020f573681858401011161020f57826000526020906003825261034a60ff60406000205416611b61565b836000526002825261036760ff6008604060002001541615611ba3565b836000526002825261038760ff60086040600020015460081c1615611be7565b83600052600282526103a26007604060002001544210611c2b565b6000848152600283526040902080549093906001600160a01b0316330361058d57600a84019360ff8554166105495786156105125790600987939201946103f3846103ed8854611941565b88611aa5565b600095601f85116001146104885784847f6207bdd983b0dfecdec0bb7277cee99619359c19e90e11bb86193670c9417a999860009261047b575b50508560011b906000198760031b1c19161790555b600160ff1982541617905582604051948086528501520160408301376000604085830101526040813395601f80199101168101030190a3005b850101359050848b61042d565b601f1985169681600052866000209060005b8981106104f65750867f6207bdd983b0dfecdec0bb7277cee99619359c19e90e11bb86193670c9417a9999106104da575b5050600185811b019055610442565b8401850135600019600388901b60f8161c1916905589806104cb565b85820187013583558b975060019092019190880190880161049a565b60405162461bcd60e51b8152600481018590526010818501526f125b9d985b1a59081bdc99195c88125160821b6044820152606490fd5b60405162461bcd60e51b8152600481018590526017818501527f4f7264657220616c7265616479207375626d69747465640000000000000000006044820152606490fd5b60405162461bcd60e51b815260048101849052601f818401527f4f6e6c7920696e69746961746f722063616e207375626d6974206f72646572006044820152606490fd5b3461020f57600036600319011261020f576020600654604051908152f35b3461020f5760e036600319011261020f576106086118d5565b6106106118eb565b604435916001600160a01b038316830361020f57600260015414610d0a5760026001556001600160a01b03811615610cc5576001600160a01b03821615610c80576001600160a01b03831615610c3b5760643515610bf65760843515610ba25761067c60055442611a98565b60c43510610b685761069060065442611a98565b60c43511610b2f5760a43515610af457604051923360601b60208501526001600160601b0319808360601b166034860152808460601b1660488601528160601b16605c8501526064356070850152608435609085015260a43560b085015260c43560d08501524260f085015260f084528361012081011067ffffffffffffffff61012086011117610a9d576101208401604052835160208501209384600052600360205260ff60406000205416610ab357506040516323b872dd60e01b60208201523360248201523060448201526064803581830152815267ffffffffffffffff60a0820190811190821117610a9d5760a0810160405261079a906001600160a01b038516611af9565b6040516107a681611a11565b33815260018060a01b038316602082015260018060a01b038416604082015260018060a01b0382166060820152606435608082015260843560a082015260a43560c082015260c43560e08201526000610100820152600061012082015260405180602081011067ffffffffffffffff602083011117610a9d576020810160405260008152610140820152600061016082015284600052600260205260406000209060018060a01b038151166001600160601b0360a01b90818454161783556001830160018060a01b03602084015116828254161790556002830160018060a01b0360408401511682825416179055600383019060018060a01b03606084015116908254161790556080810151600483015560a0810151600583015560c0810151600683015560e08101516007830155600882016108f66101008301511515829060ff801983541691151516179055565b610120820151815461ff00191690151560081b61ff001617905561014081015180519067ffffffffffffffff8211610a9d57610942826109396009870154611941565b60098701611aa5565b602090601f8311600114610a23579282600a93610160936109959796600092610a18575b50508160011b916000199060031b1c19161760098501555b0151151591019060ff801983541691151516179055565b600084815260036020908152604091829020805460ff1916600117905581516001600160a01b0395861681529285169083015260643590820152608435606082015260a435608082015260c43560a082015291169133917f4b5c104ca934d371410330f1cd6a99b9d510b1c1bd6f5e0faf20d6c7e7e5ce469060c090a460018055005b015190508b80610966565b906009850160005260206000209160005b601f1985168110610a8557508361016093610995979693600193600a97601f19811610610a6c575b505050811b01600985015561097e565b015160001960f88460031b161c191690558b8080610a5c565b91926020600181928685015181550194019201610a34565b634e487b7160e01b600052604160045260246000fd5b61012060649162461bcd60e51b82820152602061012482015260136101448201527248544c4320616c72656164792065786973747360681b61016482015201fd5b60405162461bcd60e51b8152602060048201526013602482015272092dcecc2d8d2c840e6cac6e4cae840d0c2e6d606b1b6044820152606490fd5b60405162461bcd60e51b815260206004820152601160248201527054696d656c6f636b20746f6f206c6f6e6760781b6044820152606490fd5b60405162461bcd60e51b8152602060048201526012602482015271151a5b595b1bd8dac81d1bdbc81cda1bdc9d60721b6044820152606490fd5b60405162461bcd60e51b815260206004820152602660248201527f457870656374656420616d6f756e74206d75737420626520677265617465722060448201526507468616e20360d41b6064820152608490fd5b60405162461bcd60e51b815260206004820152601d60248201527f416d6f756e74206d7573742062652067726561746572207468616e20300000006044820152606490fd5b60405162461bcd60e51b815260206004820152601760248201527f496e76616c696420746f546f6b656e20616464726573730000000000000000006044820152606490fd5b60405162461bcd60e51b815260206004820152601960248201527f496e76616c69642066726f6d546f6b656e2061646472657373000000000000006044820152606490fd5b60405162461bcd60e51b815260206004820152601860248201527f496e76616c6964207265736f6c766572206164647265737300000000000000006044820152606490fd5b604051633ee5aeb560e01b8152600490fd5b3461020f57600036600319011261020f576020600754604051908152f35b3461020f57604036600319011261020f57610d536118d5565b602435610d5e611a6c565b6001600160a01b039182166000818152600960205260409020548211610da957610da7928160005260096020526040600020610d9b848254611cf8565b90556008541690611d05565b005b60405162461bcd60e51b815260206004820152601b60248201527f496e73756666696369656e7420636f6c6c6563746564206665657300000000006044820152606490fd5b3461020f57606036600319011261020f57610e076118d5565b610e0f6118eb565b90610e18611a6c565b6001600160a01b039180831615610e3757610da7926044359216611d05565b60405162461bcd60e51b815260206004820152601960248201527f496e76616c696420726563697069656e742061646472657373000000000000006044820152606490fd5b3461020f57602036600319011261020f57610e956118d5565b610e9d611a6c565b6001600160a01b03168015610ec4576001600160601b0360a01b6008541617600855600080f35b60405162461bcd60e51b815260206004820152601d60248201527f496e76616c69642066656520636f6c6c6563746f7220616464726573730000006044820152606490fd5b3461020f57602036600319011261020f576004356000610160604051610f2e81611a11565b8281528260208201528260408201528260608201528260808201528260a08201528260c08201528260e0820152826101008201528261012082015260606101408201520152806000526003602052610f8d60ff60406000205416611b61565b6000526002602052604060002060ff600a60405192610fab84611a11565b80546001600160a01b039081168552600182015481166020860152600282015481166040808701919091526003830154909116606086015260048201546080860152600582015460a0860152600682015460c0860152600782015460e08601526008808301548086161515610100880152901c84161515610120860152516110418161103a816009860161197b565b0382611a4a565b610140850152015416151561016082015260405180916020825260018060a01b03815116602083015260018060a01b03602082015116604083015260018060a01b03604082015116606083015260018060a01b036060820151166080830152608081015160a083015260a081015160c083015260c081015160e083015260e0810151610100830152610100810151151561012083015261012081015115156101408301526101408101516101606111056101809283838701526101a0860190611901565b9201511515908301520390f35b3461020f57600036600319011261020f576000546040516001600160a01b039091168152602090f35b3461020f57602036600319011261020f57600435611157611a6c565b6064811161116457600755005b60405162461bcd60e51b81526020600482015260156024820152740a0e4dee8dec6ded840cccaca40e8dede40d0d2ced605b1b6044820152606490fd5b3461020f57600036600319011261020f576111ba611a6c565b600080546001600160a01b0319811682556001600160a01b03167f8be0079c531659141344cd1fd0a4f28419497f9722a3daafe3b4186f6b6457e08280a3005b3461020f57606036600319011261020f57600435602435604435826000526020906003825261123060ff60406000205416611b61565b836000526002825261124d60ff6008604060002001541615611ba3565b836000526002825261126d60ff60086040600020015460081c1615611be7565b83600052600282526112886007604060002001544210611c2b565b836000526002825260406000209260018060a01b0380600186015416906112b0823314611c6f565b6112d7604051868101908582528781526112c981611a2e565b519020600688015414611cbb565b60ff600a87015416156113c157831561138457916113328487959361137b979560087f6cd26694047116012014e60ee2f27031595f74cd673aa07f6ef7736d5807d9cf9a01600160ff19825416179055600388015416611d05565b6040519081528183820152867ff8f56560a186eced64c07031f656150ab7aeafa29f2223ae3421b53fb687f19360403393a360405193849360408552600960408601910161197b565b918301520390a2005b60405162461bcd60e51b8152600481018690526015602482015274125b9d985b1a59081858dd1d585b08185b5bdd5b9d605a1b6044820152606490fd5b60405162461bcd60e51b815260048101869052601360248201527213dc99195c881b9bdd081cdd589b5a5d1d1959606a1b6044820152606490fd5b3461020f57602036600319011261020f576004356000526003602052602060ff604060002054166040519015158152f35b3461020f57604036600319011261020f57600435602435908060005260206003815261146060ff60406000205416611b61565b816000526002815261147d60ff6008604060002001541615611ba3565b816000526002815261149d60ff60086040600020015460081c1615611be7565b81600052600281526114b86007604060002001544210611c2b565b816000526002815260406000209060018060a01b0380600184015416906114e0823314611c6f565b611507604051848101908882528581526114f981611a2e565b519020600686015414611cbb565b60088401600160ff198254161790556004840154916007548084029084820414841517156115c25760029561154461271061155293048096611cf8565b968791019284845416611d05565b8261158c575b5050506040519384528301527ff8f56560a186eced64c07031f656150ab7aeafa29f2223ae3421b53fb687f19360403393a3005b61159f8383835416846008541690611d05565b5416600052600982526115b86040600020918254611a98565b9055848080611558565b634e487b7160e01b600052601160045260246000fd5b3461020f5760208060031936011261020f57600435806000526003825261160660ff60406000205416611b61565b806000526002825261162360ff6008604060002001541615611ba3565b806000526002825261164360ff60086040600020015460081c1615611be7565b80600052600282526007604060002001544210611713576000818152600283526040902080546001600160a01b039390841690338290036116cf575060046116a693946008840161010061ff001982541617905560028401541692015491611d05565b33907f19438ba24f558efe29e176888dc45d354fa6ca8f049af37592767f6534f32eb0600080a3005b6064906040519062461bcd60e51b82526004820152601e60248201527f4f6e6c7920696e69746961746f722063616e20726566756e642048544c4300006044820152fd5b60405162461bcd60e51b815260048101839052601960248201527f48544c432074696d656c6f636b206e6f742065787069726564000000000000006044820152606490fd5b3461020f57602036600319011261020f576117716118d5565b611779611a6c565b6001600160a01b031680156117a0576001600160601b0360a01b6004541617600455600080f35b60405162461bcd60e51b815260206004820152601e60248201527f496e76616c696420667573696f6e2072656c61796572206164647265737300006044820152606490fd5b3461020f57600036600319011261020f576020600554604051908152f35b3461020f57602036600319011261020f576001600160a01b036118246118d5565b1660005260096020526020604060002054604051908152f35b3461020f57604036600319011261020f5760243560043561185c611a6c565b8181101561186c57600555600655005b60405162461bcd60e51b815260206004820152601760248201527f496e76616c69642074696d656c6f636b206c696d6974730000000000000000006044820152606490fd5b3461020f57600036600319011261020f576004546001600160a01b03168152602090f35b600435906001600160a01b038216820361020f57565b602435906001600160a01b038216820361020f57565b919082519283825260005b84811061192d575050826000602080949584010152601f8019910116010190565b60208183018101518483018201520161190c565b90600182811c92168015611971575b602083101461195b57565b634e487b7160e01b600052602260045260246000fd5b91607f1691611950565b906000929180549161198c83611941565b9182825260019384811690816000146119ee57506001146119ae575b50505050565b90919394506000526020928360002092846000945b8386106119da5750505050010190388080806119a8565b8054858701830152940193859082016119c3565b9294505050602093945060ff191683830152151560051b010190388080806119a8565b610180810190811067ffffffffffffffff821117610a9d57604052565b6040810190811067ffffffffffffffff821117610a9d57604052565b90601f8019910116810190811067ffffffffffffffff821117610a9d57604052565b6000546001600160a01b03163303611a8057565b60405163118cdaa760e01b8152336004820152602490fd5b919082018092116115c257565b90601f8111611ab357505050565b600091825260208220906020601f850160051c83019410611aef575b601f0160051c01915b828110611ae457505050565b818155600101611ad8565b9092508290611acf565b906000602091828151910182855af115611b55576000513d611b4c57506001600160a01b0381163b155b611b2a5750565b604051635274afe760e01b81526001600160a01b039091166004820152602490fd5b60011415611b23565b6040513d6000823e3d90fd5b15611b6857565b60405162461bcd60e51b815260206004820152601360248201527212151310c8191bd95cc81b9bdd08195e1a5cdd606a1b6044820152606490fd5b15611baa57565b60405162461bcd60e51b815260206004820152601560248201527412151310c8185b1c9958591e48195e1958dd5d1959605a1b6044820152606490fd5b15611bee57565b60405162461bcd60e51b815260206004820152601560248201527412151310c8185b1c9958591e481c99599d5b991959605a1b6044820152606490fd5b15611c3257565b60405162461bcd60e51b815260206004820152601560248201527412151310c81d1a5b595b1bd8dac8195e1c1a5c9959605a1b6044820152606490fd5b15611c7657565b60405162461bcd60e51b815260206004820152601e60248201527f4f6e6c79207265736f6c7665722063616e20657865637574652048544c4300006044820152606490fd5b15611cc257565b60405162461bcd60e51b815260206004820152600e60248201526d125b9d985b1a59081cd958dc995d60921b6044820152606490fd5b919082039182116115c257565b60405163a9059cbb60e01b60208201526001600160a01b039092166024830152604480830193909352918152608081019167ffffffffffffffff831182841017610a9d57611d5592604052611af9565b56fea264697066735822122036844ba67c7ee2907206e0b474ec3cc95eb3db2b430f75e105a8a26eab4fcc7964736f6c63430008140033",
  "linkReferences": {},
  "deployedLinkReferences": {}
}