{"abi":[{"type":"constructor","inputs":[{"name":"_wsolToken","type":"address","internalType":"address"},{"name":"_wethToken","type":"address","internalType":"address"}],"stateMutability":"nonpayable"},{"type":"receive","stateMutability":"payable"},{"type":"function","name":"MAX_BRIDGE_AMOUNT","inputs":[],"outputs":[{"name":"","type":"uint256","internalType":"uint256"}],"stateMutability":"view"},{"type":"function","name":"MIN_BRIDGE_AMOUNT","inputs":[],"outputs":[{"name":"","type":"uint256","internalType":"uint256"}],"stateMutability":"view"},{"type":"function","name":"bridgeFee","inputs":[],"outputs":[{"name":"","type":"uint256","internalType":"uint256"}],"stateMutability":"view"},{"type":"function","name":"emergencyPause","inputs":[],"outputs":[],"stateMutability":"nonpayable"},{"type":"function","name":"emergencyWithdraw","inputs":[{"name":"_token","type":"address","internalType":"address"},{"name":"_amount","type":"uint256","internalType":"uint256"}],"outputs":[],"stateMutability":"nonpayable"},{"type":"function","name":"getHtlc","inputs":[{"name":"id","type":"bytes32","internalType":"bytes32"}],"outputs":[{"name":"initiator","type":"address","internalType":"address"},{"name":"solanaAddress","type":"string","internalType":"string"},{"name":"amount","type":"uint256","internalType":"uint256"},{"name":"hash","type":"bytes32","internalType":"bytes32"},{"name":"timelock","type":"uint256","internalType":"uint256"},{"name":"executed","type":"bool","internalType":"bool"},{"name":"refunded","type":"bool","internalType":"bool"}],"stateMutability":"view"},{"type":"function","name":"htlcs","inputs":[{"name":"","type":"bytes32","internalType":"bytes32"}],"outputs":[{"name":"initiator","type":"address","internalType":"address payable"},{"name":"solanaAddress","type":"string","internalType":"string"},{"name":"amount","type":"uint256","internalType":"uint256"},{"name":"hash","type":"bytes32","internalType":"bytes32"},{"name":"timelock","type":"uint256","internalType":"uint256"},{"name":"executed","type":"bool","internalType":"bool"},{"name":"refunded","type":"bool","internalType":"bool"}],"stateMutability":"view"},{"type":"function","name":"initiateFromSolana","inputs":[{"name":"id","type":"bytes32","internalType":"bytes32"},{"name":"_ethereumAddress","type":"address","internalType":"address payable"},{"name":"_amount","type":"uint256","internalType":"uint256"},{"name":"_hash","type":"bytes32","internalType":"bytes32"},{"name":"_timelock","type":"uint256","internalType":"uint256"}],"outputs":[],"stateMutability":"nonpayable"},{"type":"function","name":"initiateToSolana","inputs":[{"name":"id","type":"bytes32","internalType":"bytes32"},{"name":"_solanaAddress","type":"string","internalType":"string"},{"name":"_hash","type":"bytes32","internalType":"bytes32"},{"name":"_timelock","type":"uint256","internalType":"uint256"}],"outputs":[],"stateMutability":"payable"},{"type":"function","name":"isValidHtlc","inputs":[{"name":"id","type":"bytes32","internalType":"bytes32"}],"outputs":[{"name":"","type":"bool","internalType":"bool"}],"stateMutability":"view"},{"type":"function","name":"owner","inputs":[],"outputs":[{"name":"","type":"address","internalType":"address"}],"stateMutability":"view"},{"type":"function","name":"redeem","inputs":[{"name":"id","type":"bytes32","internalType":"bytes32"},{"name":"_preimage","type":"bytes","internalType":"bytes"}],"outputs":[],"stateMutability":"nonpayable"},{"type":"function","name":"refund","inputs":[{"name":"id","type":"bytes32","internalType":"bytes32"}],"outputs":[],"stateMutability":"nonpayable"},{"type":"function","name":"renounceOwnership","inputs":[],"outputs":[],"stateMutability":"nonpayable"},{"type":"function","name":"transferOwnership","inputs":[{"name":"newOwner","type":"address","internalType":"address"}],"outputs":[],"stateMutability":"nonpayable"},{"type":"function","name":"updateBridgeFee","inputs":[{"name":"_newFee","type":"uint256","internalType":"uint256"}],"outputs":[],"stateMutability":"nonpayable"},{"type":"function","name":"wethToken","inputs":[],"outputs":[{"name":"","type":"address","internalType":"contract IERC20"}],"stateMutability":"view"},{"type":"function","name":"withdrawFees","inputs":[],"outputs":[],"stateMutability":"nonpayable"},{"type":"function","name":"wsolToken","inputs":[],"outputs":[{"name":"","type":"address","internalType":"contract IERC20"}],"stateMutability":"view"},{"type":"event","name":"Initiated","inputs":[{"name":"id","type":"bytes32","indexed":true,"internalType":"bytes32"},{"name":"initiator","type":"address","indexed":true,"internalType":"address"},{"name":"solanaAddress","type":"string","indexed":true,"internalType":"string"},{"name":"amount","type":"uint256","indexed":false,"internalType":"uint256"}],"anonymous":false},{"type":"event","name":"OwnershipTransferred","inputs":[{"name":"previousOwner","type":"address","indexed":true,"internalType":"address"},{"name":"newOwner","type":"address","indexed":true,"internalType":"address"}],"anonymous":false},{"type":"event","name":"Redeemed","inputs":[{"name":"id","type":"bytes32","indexed":true,"internalType":"bytes32"},{"name":"preimage","type":"bytes32","indexed":false,"internalType":"bytes32"}],"anonymous":false},{"type":"event","name":"Refunded","inputs":[{"name":"id","type":"bytes32","indexed":true,"internalType":"bytes32"}],"anonymous":false},{"type":"error","name":"OwnableInvalidOwner","inputs":[{"name":"owner","type":"address","internalType":"address"}]},{"type":"error","name":"OwnableUnauthorizedAccount","inputs":[{"name":"account","type":"address","internalType":"address"}]},{"type":"error","name":"ReentrancyGuardReentrantCall","inputs":[]}],"bytecode":{"object":"0x60c03461010757601f6117eb38819003918201601f19168301916001600160401b0383118484101761010b57808492604094855283398101031261010757610052602061004b8361011f565b920161011f565b60015f5533156100f45760018054336001600160a01b0319821681179092556040519391906001600160a01b03167f8be0079c531659141344cd1fd0a4f28419497f9722a3daafe3b4186f6b6457e05f80a366038d7ea4c680006003556001600160a01b039081166080521660a0526116b79081610134823960805181818161026c015281816104e90152818161089d0152610af4015260a051816110680152f35b631e4fbdf760e01b5f525f60045260245ffd5b5f80fd5b634e487b7160e01b5f52604160045260245ffd5b51906001600160a01b03821682036101075756fe6080604052600436101561001a575b3615610018575f80fd5b005b5f3560e01c8063089c0aa41461118a57806319304e2514611122578063476343ee146110975780634b57b0be1461105357806351858e271461103b57806355d42bb414610cd25780635a1c036614610c5e578063715018a614610c035780637249fbb6146109ec5780637fce0002146109c957806382b12dd7146109ac578063886688c11461098b5780638da5cb5b1461096357806391edd8f2146108cc578063928275851461088857806395ccea67146107f9578063ab2875d01461041b578063f2fde38b146103955763f7ff72070361000e57346103915760403660031901126103915760043560243567ffffffffffffffff811161039157610123903690600401611213565b9061012c611663565b825f52600260205260405f2090600582019081549361014e60ff861615611528565b61015e60ff8660081c1615611580565b6004840154421015610341576020915f9161019584604051838194838301968737810186838201520301601f198101835282611295565b604051918291518091835e8101838152039060025afa15610227575f519260038301938454036102fc5760019060ff19161790556101d66001820154611241565b1561023b575f8080600281940154818115610232575b3390f1156102275760207f489e9ee921192823d1aa1ef800c9ffc642993538b1e7e43a4d46a91965e894ab915b54604051908152a260015f55005b6040513d5f823e3d90fd5b506108fc6101ec565b6002015460405163a9059cbb60e01b81523360048201526024810191909152906020826044815f6001600160a01b037f0000000000000000000000000000000000000000000000000000000000000000165af1908115610227576102ca6020927f489e9ee921192823d1aa1ef800c9ffc642993538b1e7e43a4d46a91965e894ab945f916102cf575b506115f0565b610219565b6102ef9150843d86116102f5575b6102e78183611295565b8101906115d8565b5f6102c4565b503d6102dd565b60405162461bcd60e51b815260206004820152601e60248201527f536f6c616e614272696467653a20696e76616c696420707265696d61676500006044820152606490fd5b60405162461bcd60e51b815260206004820152602260248201527f536f6c616e614272696467653a2074696d656c6f636b20686173206578706972604482015261195960f21b6064820152608490fd5b5f80fd5b34610391576020366003190112610391576103ae611357565b6103b661163c565b6001600160a01b0316801561040857600180546001600160a01b0319811683179091556001600160a01b03167f8be0079c531659141344cd1fd0a4f28419497f9722a3daafe3b4186f6b6457e05f80a3005b631e4fbdf760e01b5f525f60045260245ffd5b346103915760a0366003190112610391576024356001600160a01b038116906004359082900361039157604435906064359260843590610459611663565b5f8381526002602052604090205461047a906001600160a01b03161561136d565b61048d662386f26fc100008510156113d0565b6104a2683635c9adc5dea0000085111561141c565b156107a5576104b2841515611468565b6104bf610e1082116114b4565b6040516323b872dd60e01b815233600482015230602482015260448101849052906020826064815f7f00000000000000000000000000000000000000000000000000000000000000006001600160a01b03165af1918215610227576105349261052e915f9161078657506115f0565b4261151b565b906040519361054285611279565b338552602092604051956105568588611295565b5f8088528186019788526040808301888152606084019586526080840194855260a0840183815260c0850184815288855260028a5292909320935184546001600160a01b0319166001600160a01b0391909116178455985180519099929591949290600185019067ffffffffffffffff8111610772576105d68254611241565b601f811161072f575b5089601f82116001146106b9579181600596949261064498969461065b9c9d9e9f5f926106ae575b50508160011b915f199060031b1c19161790555b5160028401555160038301555160048201550192511515839060ff801983541691151516179055565b51815461ff00191690151560081b61ff0016179055565b6040519283527fc5d2460186f7233c927e7db2dcc703c0e500b653ca82273b7bfad8045d85a4709233927f2a241314f1721916d74a645f65e364f43169e7aa07961dc76ae071f3b911cf5991a460015f55005b015190508f80610607565b601f1982169c835f528b5f209d5f5b81811061071357509261065b9b9c9d9e610644999795936001938360059b9997106106fb575b505050811b01905561061b565b01515f1960f88460031b161c191690558f80806106ee565b919e8f60018f928684930151815501940192019e91929e6106c8565b825f528a5f20601f830160051c8101918c8410610768575b601f0160051c01905b81811061075d57506105df565b5f8155600101610750565b9091508190610747565b634e487b7160e01b5f52604160045260245ffd5b61079f915060203d6020116102f5576102e78183611295565b876102c4565b60405162461bcd60e51b815260206004820152602660248201527f536f6c616e614272696467653a20696e76616c696420457468657265756d206160448201526564647265737360d01b6064820152608490fd5b34610391576040366003190112610391575f6020610857610818611357565b61082061163c565b60015460405163a9059cbb60e01b81526001600160a01b039091166004820152602480359082015293849283919082906044820190565b03926001600160a01b03165af180156102275761087057005b6100189060203d6020116102f5576102e78183611295565b34610391575f366003190112610391576040517f00000000000000000000000000000000000000000000000000000000000000006001600160a01b03168152602090f35b34610391576020366003190112610391576004355f90815260026020526040902080546001600160a01b0316610904600183016112b7565b9160ff600282015491600381015490600560048201549101549161093a604051978897885260e0602089015260e08801906111ef565b94604087015260608601526080850152818116151560a085015260081c16151560c08301520390f35b34610391575f366003190112610391576001546040516001600160a01b039091168152602090f35b34610391575f366003190112610391576020604051662386f26fc100008152f35b34610391575f366003190112610391576020600354604051908152f35b34610391575f36600319011261039157602060405168056bc75e2d631000008152f35b3461039157602036600319011261039157600435610a08611663565b5f81815260026020526040902080546001600160a01b0316338103610bac57600582018054610a3a60ff821615611528565b610a4a60ff8260081c1615611580565b60048401544210610b585761ff0019166101001790556001820154610a6e90611241565b15610acb57505f80808093600260018060a01b0382541691015490828215610ac2575bf115610227575b7ffe509803c09416b28ff3d8f690c8b0c61462a892c46d5430c8fb20abe472daf05f80a260015f55005b506108fc610a91565b60029091015460405163a9059cbb60e01b8152600481019290925260248201526020816044815f7f00000000000000000000000000000000000000000000000000000000000000006001600160a01b03165af1801561022757610b34915f91610b3957506115f0565b610a98565b610b52915060203d6020116102f5576102e78183611295565b836102c4565b60405162461bcd60e51b815260206004820152602660248201527f536f6c616e614272696467653a2074696d656c6f636b20686173206e6f7420656044820152651e1c1a5c995960d21b6064820152608490fd5b60405162461bcd60e51b815260206004820152602960248201527f536f6c616e614272696467653a2063616c6c6572206973206e6f74207468652060448201526834b734ba34b0ba37b960b91b6064820152608490fd5b34610391575f36600319011261039157610c1b61163c565b600180546001600160a01b031981169091555f906001600160a01b03167f8be0079c531659141344cd1fd0a4f28419497f9722a3daafe3b4186f6b6457e08280a3005b3461039157602036600319011261039157600435610c7a61163c565b662386f26fc100008111610c8d57600355005b60405162461bcd60e51b815260206004820152601a60248201527f536f6c616e614272696467653a2066656520746f6f20686967680000000000006044820152606490fd5b60803660031901126103915760043560243567ffffffffffffffff811161039157610d01903690600401611213565b60643591604435610d10611663565b5f85815260026020526040902054610d31906001600160a01b03161561136d565b610d44662386f26fc100003410156113d0565b610d5968056bc75e2d6310000034111561141c565b8215610fea57610d6a811515611468565b610d77610e1085116114b4565b600354340393348511610fd657610d8e904261151b565b604051610d9a81611279565b33815267ffffffffffffffff85116107725760405191610dc4601f8701601f191660200184611295565b858352368686011161039157858560208501375f60208785010152602082019283526040820193878552606083019081526080830191825260a08301945f865260c08401945f86528a5f52600260205260405f209460018060a01b039060018060a01b03905116166bffffffffffffffffffffffff60a01b86541617855560018501905180519067ffffffffffffffff821161077257610e648354611241565b601f8111610f91575b50602090601f8311600114610f2057928260059693610ed19b9a99969361064499965f92610f155750508160011b915f199060031b1c19161790555160028401555160038301555160048201550192511515839060ff801983541691151516179055565b81604051928392833781015f8152039020916040519182527f2a241314f1721916d74a645f65e364f43169e7aa07961dc76ae071f3b911cf5960203393a460015f55005b015190505f80610607565b90601f19831691845f52815f20925f5b818110610f79575093610ed19b9a9996936106449996936001938360059b9810610f6157505050811b01905561061b565b01515f1960f88460031b161c191690555f80806106ee565b92936020600181928786015181550195019301610f30565b835f5260205f20601f840160051c81019160208510610fcc575b601f0160051c01905b818110610fc15750610e6d565b5f8155600101610fb4565b9091508190610fab565b634e487b7160e01b5f52601160045260245ffd5b60405162461bcd60e51b8152602060048201526024808201527f536f6c616e614272696467653a20696e76616c696420536f6c616e61206164646044820152637265737360e01b6064820152608490fd5b34610391575f3660031901126103915761001861163c565b34610391575f366003190112610391576040517f00000000000000000000000000000000000000000000000000000000000000006001600160a01b03168152602090f35b34610391575f366003190112610391576110af61163c565b4780156110d3576001545f918291829182916001600160a01b031682f11561022757005b60405162461bcd60e51b815260206004820152602160248201527f536f6c616e614272696467653a206e6f206665657320746f20776974686472616044820152607760f81b6064820152608490fd5b34610391576020366003190112610391576004355f526002602052602060405f2060018060a01b038154161515908161117a575b81611167575b506040519015158152f35b60ff91506005015460081c16158261115c565b600581015460ff16159150611156565b34610391576020366003190112610391576004355f52600260205260405f2060018060a01b03815416600282015460ff60038401549360048101546111d66001600584015493016112b7565b9561093a604051978897885260e0602089015260e08801905b805180835260209291819084018484015e5f828201840152601f01601f1916010190565b9181601f840112156103915782359167ffffffffffffffff8311610391576020838186019501011161039157565b90600182811c9216801561126f575b602083101461125b57565b634e487b7160e01b5f52602260045260245ffd5b91607f1691611250565b60e0810190811067ffffffffffffffff82111761077257604052565b90601f8019910116810190811067ffffffffffffffff82111761077257604052565b9060405191825f8254926112ca84611241565b808452936001811690811561133557506001146112f1575b506112ef92500383611295565b565b90505f9291925260205f20905f915b8183106113195750509060206112ef928201015f6112e2565b6020919350806001915483858901015201910190918492611300565b9050602092506112ef94915060ff191682840152151560051b8201015f6112e2565b600435906001600160a01b038216820361039157565b1561137457565b60405162461bcd60e51b815260206004820152602e60248201527f536f6c616e614272696467653a2073776170207769746820746869732069642060448201526d616c72656164792065786973747360901b6064820152608490fd5b156113d757565b60405162461bcd60e51b815260206004820152601c60248201527f536f6c616e614272696467653a20616d6f756e7420746f6f206c6f77000000006044820152606490fd5b1561142357565b60405162461bcd60e51b815260206004820152601d60248201527f536f6c616e614272696467653a20616d6f756e7420746f6f20686967680000006044820152606490fd5b1561146f57565b60405162461bcd60e51b815260206004820152601a60248201527f536f6c616e614272696467653a20696e76616c696420686173680000000000006044820152606490fd5b156114bb57565b60405162461bcd60e51b815260206004820152603260248201527f536f6c616e614272696467653a2074696d656c6f636b206d75737420626520676044820152713932b0ba32b9103a3430b71018903437bab960711b6064820152608490fd5b91908201809211610fd657565b1561152f57565b60405162461bcd60e51b815260206004820152602360248201527f536f6c616e614272696467653a207377617020616c72656164792065786563756044820152621d195960ea1b6064820152608490fd5b1561158757565b60405162461bcd60e51b815260206004820152602360248201527f536f6c616e614272696467653a207377617020616c726561647920726566756e60448201526219195960ea1b6064820152608490fd5b90816020910312610391575180151581036103915790565b156115f757565b60405162461bcd60e51b815260206004820152601d60248201527f536f6c616e614272696467653a207472616e73666572206661696c65640000006044820152606490fd5b6001546001600160a01b0316330361165057565b63118cdaa760e01b5f523360045260245ffd5b60025f54146116725760025f55565b633ee5aeb560e01b5f5260045ffdfea26469706673582212206598cb0fd6fdae11fc834a50c1ccbc212e7ac380dd4a1f090153d440ed09771164736f6c634300081e0033","linkReferences":{}},"methodIdentifiers":{"MAX_BRIDGE_AMOUNT()":"7fce0002","MIN_BRIDGE_AMOUNT()":"886688c1","bridgeFee()":"82b12dd7","emergencyPause()":"51858e27","emergencyWithdraw(address,uint256)":"95ccea67","getHtlc(bytes32)":"089c0aa4","htlcs(bytes32)":"91edd8f2","initiateFromSolana(bytes32,address,uint256,bytes32,uint256)":"ab2875d0","initiateToSolana(bytes32,string,bytes32,uint256)":"55d42bb4","isValidHtlc(bytes32)":"19304e25","owner()":"8da5cb5b","redeem(bytes32,bytes)":"f7ff7207","refund(bytes32)":"7249fbb6","renounceOwnership()":"715018a6","transferOwnership(address)":"f2fde38b","updateBridgeFee(uint256)":"5a1c0366","wethToken()":"4b57b0be","withdrawFees()":"476343ee","wsolToken()":"92827585"},"id":3}