{"abi":[{"type":"constructor","inputs":[{"name":"_fusionProtocol","type":"address","internalType":"address"}],"stateMutability":"nonpayable"},{"type":"receive","stateMutability":"payable"},{"type":"function","name":"authorizeResolver","inputs":[{"name":"resolver","type":"address","internalType":"address"}],"outputs":[],"stateMutability":"nonpayable"},{"type":"function","name":"authorizedResolvers","inputs":[{"name":"","type":"address","internalType":"address"}],"outputs":[{"name":"","type":"bool","internalType":"bool"}],"stateMutability":"view"},{"type":"function","name":"bitcoinHTLCAddresses","inputs":[{"name":"","type":"bytes32","internalType":"bytes32"}],"outputs":[{"name":"","type":"string","internalType":"string"}],"stateMutability":"view"},{"type":"function","name":"deactivateRelayer","inputs":[{"name":"relayer","type":"address","internalType":"address"}],"outputs":[],"stateMutability":"nonpayable"},{"type":"function","name":"deauthorizeResolver","inputs":[{"name":"resolver","type":"address","internalType":"address"}],"outputs":[],"stateMutability":"nonpayable"},{"type":"function","name":"depositTokens","inputs":[{"name":"id","type":"bytes32","internalType":"bytes32"},{"name":"amount","type":"uint256","internalType":"uint256"}],"outputs":[],"stateMutability":"nonpayable"},{"type":"function","name":"emergencyWithdraw","inputs":[{"name":"token","type":"address","internalType":"address"},{"name":"amount","type":"uint256","internalType":"uint256"}],"outputs":[],"stateMutability":"nonpayable"},{"type":"function","name":"fillCounts","inputs":[{"name":"","type":"bytes32","internalType":"bytes32"}],"outputs":[{"name":"","type":"uint256","internalType":"uint256"}],"stateMutability":"view"},{"type":"function","name":"fusionProtocol","inputs":[],"outputs":[{"name":"","type":"address","internalType":"address"}],"stateMutability":"view"},{"type":"function","name":"getBitcoinHTLCAddress","inputs":[{"name":"id","type":"bytes32","internalType":"bytes32"}],"outputs":[{"name":"","type":"string","internalType":"string"}],"stateMutability":"view"},{"type":"function","name":"getFillPercentage","inputs":[{"name":"id","type":"bytes32","internalType":"bytes32"}],"outputs":[{"name":"","type":"uint256","internalType":"uint256"}],"stateMutability":"view"},{"type":"function","name":"getHTLC","inputs":[{"name":"id","type":"bytes32","internalType":"bytes32"}],"outputs":[{"name":"","type":"tuple","internalType":"struct Fusion1inchBitcoinBridge.FusionHTLC","components":[{"name":"initiator","type":"address","internalType":"address payable"},{"name":"resolver","type":"address","internalType":"address payable"},{"name":"totalAmount","type":"uint256","internalType":"uint256"},{"name":"filledAmount","type":"uint256","internalType":"uint256"},{"name":"secretHash","type":"bytes32","internalType":"bytes32"},{"name":"timelock","type":"uint256","internalType":"uint256"},{"name":"executed","type":"bool","internalType":"bool"},{"name":"refunded","type":"bool","internalType":"bool"},{"name":"partialFillsEnabled","type":"bool","internalType":"bool"},{"name":"fromToken","type":"address","internalType":"address"},{"name":"toToken","type":"address","internalType":"address"},{"name":"minToAmount","type":"uint256","internalType":"uint256"},{"name":"fusionOrderId","type":"bytes32","internalType":"bytes32"},{"name":"createdAt","type":"uint256","internalType":"uint256"},{"name":"fillHashes","type":"bytes32[]","internalType":"bytes32[]"}]}],"stateMutability":"view"},{"type":"function","name":"getHTLCFills","inputs":[{"name":"id","type":"bytes32","internalType":"bytes32"}],"outputs":[{"name":"","type":"bytes32[]","internalType":"bytes32[]"}],"stateMutability":"view"},{"type":"function","name":"getRemainingAmount","inputs":[{"name":"id","type":"bytes32","internalType":"bytes32"}],"outputs":[{"name":"","type":"uint256","internalType":"uint256"}],"stateMutability":"view"},{"type":"function","name":"htlcs","inputs":[{"name":"","type":"bytes32","internalType":"bytes32"}],"outputs":[{"name":"initiator","type":"address","internalType":"address payable"},{"name":"resolver","type":"address","internalType":"address payable"},{"name":"totalAmount","type":"uint256","internalType":"uint256"},{"name":"filledAmount","type":"uint256","internalType":"uint256"},{"name":"secretHash","type":"bytes32","internalType":"bytes32"},{"name":"timelock","type":"uint256","internalType":"uint256"},{"name":"executed","type":"bool","internalType":"bool"},{"name":"refunded","type":"bool","internalType":"bool"},{"name":"partialFillsEnabled","type":"bool","internalType":"bool"},{"name":"fromToken","type":"address","internalType":"address"},{"name":"toToken","type":"address","internalType":"address"},{"name":"minToAmount","type":"uint256","internalType":"uint256"},{"name":"fusionOrderId","type":"bytes32","internalType":"bytes32"},{"name":"createdAt","type":"uint256","internalType":"uint256"}],"stateMutability":"view"},{"type":"function","name":"initiateFusionHTLC","inputs":[{"name":"id","type":"bytes32","internalType":"bytes32"},{"name":"_resolver","type":"address","internalType":"address payable"},{"name":"_secretHash","type":"bytes32","internalType":"bytes32"},{"name":"_timelock","type":"uint256","internalType":"uint256"},{"name":"_fromToken","type":"address","internalType":"address"},{"name":"_toToken","type":"address","internalType":"address"},{"name":"_minToAmount","type":"uint256","internalType":"uint256"},{"name":"_partialFillsEnabled","type":"bool","internalType":"bool"},{"name":"_fusionOrderId","type":"bytes32","internalType":"bytes32"},{"name":"_bitcoinHTLCAddress","type":"string","internalType":"string"}],"outputs":[],"stateMutability":"payable"},{"type":"function","name":"isHTLCActive","inputs":[{"name":"id","type":"bytes32","internalType":"bytes32"}],"outputs":[{"name":"","type":"bool","internalType":"bool"}],"stateMutability":"view"},{"type":"function","name":"maxPartialFills","inputs":[],"outputs":[{"name":"","type":"uint256","internalType":"uint256"}],"stateMutability":"view"},{"type":"function","name":"maxTimelock","inputs":[],"outputs":[{"name":"","type":"uint256","internalType":"uint256"}],"stateMutability":"view"},{"type":"function","name":"minStakeAmount","inputs":[],"outputs":[{"name":"","type":"uint256","internalType":"uint256"}],"stateMutability":"view"},{"type":"function","name":"minTimelock","inputs":[],"outputs":[{"name":"","type":"uint256","internalType":"uint256"}],"stateMutability":"view"},{"type":"function","name":"owner","inputs":[],"outputs":[{"name":"","type":"address","internalType":"address"}],"stateMutability":"view"},{"type":"function","name":"pause","inputs":[],"outputs":[],"stateMutability":"nonpayable"},{"type":"function","name":"paused","inputs":[],"outputs":[{"name":"","type":"bool","internalType":"bool"}],"stateMutability":"view"},{"type":"function","name":"redeemHTLC","inputs":[{"name":"id","type":"bytes32","internalType":"bytes32"},{"name":"_preimage","type":"bytes","internalType":"bytes"},{"name":"fillAmount","type":"uint256","internalType":"uint256"}],"outputs":[],"stateMutability":"nonpayable"},{"type":"function","name":"refundHTLC","inputs":[{"name":"id","type":"bytes32","internalType":"bytes32"}],"outputs":[],"stateMutability":"nonpayable"},{"type":"function","name":"registerRelayer","inputs":[],"outputs":[],"stateMutability":"payable"},{"type":"function","name":"relayerRedeem","inputs":[{"name":"id","type":"bytes32","internalType":"bytes32"},{"name":"_preimage","type":"bytes","internalType":"bytes"},{"name":"fillAmount","type":"uint256","internalType":"uint256"}],"outputs":[],"stateMutability":"nonpayable"},{"type":"function","name":"relayerRewardRate","inputs":[],"outputs":[{"name":"","type":"uint256","internalType":"uint256"}],"stateMutability":"view"},{"type":"function","name":"relayers","inputs":[{"name":"","type":"address","internalType":"address"}],"outputs":[{"name":"active","type":"bool","internalType":"bool"},{"name":"stake","type":"uint256","internalType":"uint256"},{"name":"successCount","type":"uint256","internalType":"uint256"},{"name":"failureCount","type":"uint256","internalType":"uint256"},{"name":"lastActiveTime","type":"uint256","internalType":"uint256"}],"stateMutability":"view"},{"type":"function","name":"renounceOwnership","inputs":[],"outputs":[],"stateMutability":"nonpayable"},{"type":"function","name":"setFusionProtocol","inputs":[{"name":"_fusionProtocol","type":"address","internalType":"address"}],"outputs":[],"stateMutability":"nonpayable"},{"type":"function","name":"setMaxPartialFills","inputs":[{"name":"_max","type":"uint256","internalType":"uint256"}],"outputs":[],"stateMutability":"nonpayable"},{"type":"function","name":"setMinStakeAmount","inputs":[{"name":"_amount","type":"uint256","internalType":"uint256"}],"outputs":[],"stateMutability":"nonpayable"},{"type":"function","name":"setRelayerRewardRate","inputs":[{"name":"_rate","type":"uint256","internalType":"uint256"}],"outputs":[],"stateMutability":"nonpayable"},{"type":"function","name":"setTimelockLimits","inputs":[{"name":"_min","type":"uint256","internalType":"uint256"},{"name":"_max","type":"uint256","internalType":"uint256"}],"outputs":[],"stateMutability":"nonpayable"},{"type":"function","name":"transferOwnership","inputs":[{"name":"newOwner","type":"address","internalType":"address"}],"outputs":[],"stateMutability":"nonpayable"},{"type":"function","name":"unpause","inputs":[],"outputs":[],"stateMutability":"nonpayable"},{"type":"function","name":"usedSecrets","inputs":[{"name":"","type":"bytes32","internalType":"bytes32"}],"outputs":[{"name":"","type":"bool","internalType":"bool"}],"stateMutability":"view"},{"type":"event","name":"FusionOrderCreated","inputs":[{"name":"htlcId","type":"bytes32","indexed":true,"internalType":"bytes32"},{"name":"fusionOrderId","type":"bytes32","indexed":true,"internalType":"bytes32"},{"name":"fromToken","type":"address","indexed":false,"internalType":"address"},{"name":"toToken","type":"address","indexed":false,"internalType":"address"},{"name":"fromAmount","type":"uint256","indexed":false,"internalType":"uint256"},{"name":"minToAmount","type":"uint256","indexed":false,"internalType":"uint256"}],"anonymous":false},{"type":"event","name":"HTLCInitiated","inputs":[{"name":"id","type":"bytes32","indexed":true,"internalType":"bytes32"},{"name":"initiator","type":"address","indexed":true,"internalType":"address"},{"name":"resolver","type":"address","indexed":true,"internalType":"address"},{"name":"amount","type":"uint256","indexed":false,"internalType":"uint256"},{"name":"secretHash","type":"bytes32","indexed":false,"internalType":"bytes32"},{"name":"timelock","type":"uint256","indexed":false,"internalType":"uint256"},{"name":"partialFillsEnabled","type":"bool","indexed":false,"internalType":"bool"},{"name":"bitcoinHTLCAddress","type":"string","indexed":false,"internalType":"string"}],"anonymous":false},{"type":"event","name":"HTLCRedeemed","inputs":[{"name":"id","type":"bytes32","indexed":true,"internalType":"bytes32"},{"name":"secretHash","type":"bytes32","indexed":false,"internalType":"bytes32"},{"name":"preimage","type":"bytes32","indexed":false,"internalType":"bytes32"},{"name":"amount","type":"uint256","indexed":false,"internalType":"uint256"},{"name":"resolver","type":"address","indexed":false,"internalType":"address"}],"anonymous":false},{"type":"event","name":"HTLCRefunded","inputs":[{"name":"id","type":"bytes32","indexed":true,"internalType":"bytes32"},{"name":"amount","type":"uint256","indexed":false,"internalType":"uint256"},{"name":"initiator","type":"address","indexed":false,"internalType":"address"}],"anonymous":false},{"type":"event","name":"OwnershipTransferred","inputs":[{"name":"previousOwner","type":"address","indexed":true,"internalType":"address"},{"name":"newOwner","type":"address","indexed":true,"internalType":"address"}],"anonymous":false},{"type":"event","name":"PartialFill","inputs":[{"name":"id","type":"bytes32","indexed":true,"internalType":"bytes32"},{"name":"fillAmount","type":"uint256","indexed":false,"internalType":"uint256"},{"name":"remainingAmount","type":"uint256","indexed":false,"internalType":"uint256"},{"name":"filler","type":"address","indexed":false,"internalType":"address"},{"name":"fillHash","type":"bytes32","indexed":false,"internalType":"bytes32"}],"anonymous":false},{"type":"event","name":"Paused","inputs":[{"name":"account","type":"address","indexed":false,"internalType":"address"}],"anonymous":false},{"type":"event","name":"RelayerReward","inputs":[{"name":"relayer","type":"address","indexed":true,"internalType":"address"},{"name":"reward","type":"uint256","indexed":false,"internalType":"uint256"}],"anonymous":false},{"type":"event","name":"ResolverRegistered","inputs":[{"name":"resolver","type":"address","indexed":true,"internalType":"address"},{"name":"active","type":"bool","indexed":false,"internalType":"bool"}],"anonymous":false},{"type":"event","name":"Unpaused","inputs":[{"name":"account","type":"address","indexed":false,"internalType":"address"}],"anonymous":false},{"type":"error","name":"EnforcedPause","inputs":[]},{"type":"error","name":"ExpectedPause","inputs":[]},{"type":"error","name":"OwnableInvalidOwner","inputs":[{"name":"owner","type":"address","internalType":"address"}]},{"type":"error","name":"OwnableUnauthorizedAccount","inputs":[{"name":"account","type":"address","internalType":"address"}]},{"type":"error","name":"ReentrancyGuardReentrantCall","inputs":[]},{"type":"error","name":"SafeERC20FailedOperation","inputs":[{"name":"token","type":"address","internalType":"address"}]}],"bytecode":{"object":"0x6080346100f557601f61286438819003918201601f19168301916001600160401b038311848410176100f9578084926020946040528339810103126100f557516001600160a01b038116908190036100f55760015f5533156100e25760018054336001600160a01b0319821681179092556040519291906001600160a01b03167f8be0079c531659141344cd1fd0a4f28419497f9722a3daafe3b4186f6b6457e05f80a3606460085567016345785d8a000060095562093a80600a55610e10600b55600a600d5560018060a01b03196007541617600755612756908161010e8239f35b631e4fbdf760e01b5f525f60045260245ffd5b5f80fd5b634e487b7160e01b5f52604160045260245ffdfe6080604052600436101561001a575b3615610018575f80fd5b005b5f5f3560e01c806308a5b9291461223757806317df526d1461221a57806318a6d63a146121fc5780631d28329e1461217d578063222b894714611fe957806325429e7d14611fcc57806329d37dfe14611ec657806330bf0f0014611a405780633f4ba83a14611e58578063438af4f214611e3b57806343b920c514611c535780635300f84114611bea5780635c975abb14611bc5578063665aeee614611ba4578063715018a614611b4957806371c8ccd214611adb5780638456cb5914611a7a57806389d4ca4514611a405780638da5cb5b14611a1857806390c268381461179c57806391edd8f2146116b557806395ccea671461163b57806399fddc0914611611578063a4516c48146115e2578063aaaf6551146110a7578063ad5bdc4e14610799578063af7b718a1461073f578063b06a2ca9146106e7578063bc1fd34b146106ca578063bee9fb46146106a2578063c618d0ec14610666578063c7fd823014610623578063d794d2d9146105e6578063e4f920b81461058e578063eb4af0451461056d578063ecf3c739146102dd578063f1887684146102bf578063f2fde38b146102365763faf9f851146101d2575061000e565b346102335760203660031901126102335760406020916004358152600283522060068101549060ff8216159182610224575b5081610216575b506040519015158152f35b60059150015442105f61020b565b60081c60ff161591505f610204565b80fd5b5034610233576020366003190112610233576102506122d3565b6102586125ea565b6001600160a01b031680156102ab57600180546001600160a01b0319811683179091556001600160a01b03167f8be0079c531659141344cd1fd0a4f28419497f9722a3daafe3b4186f6b6457e08380a380f35b631e4fbdf760e01b82526004829052602482fd5b50346102335780600319360112610233576020600954604051908152f35b503461049c576102ec3661242e565b9291335f52600360205260ff60405f205416156105135761030b612611565b61031361262f565b825f52600260205260405f20600581015461012c4201908142116104ff5711156104a0576001018054336001600160a01b0319821617825590936001600160a01b0390911692303b1561049c575f9161038d604051948593849363aaaf655160e01b855260048501526060602485015260648401916125ca565b876044830152038183305af180156104915761047c575b5081546001600160a01b0319166001600160a01b039190911617905533825260036020526040822060020180546103da906125bc565b9055338252600360205242600460408420015560085490818102918183041490151715610468576127109004818082801561045e575b8280929181923390f115610451576040519081527f04d1de9ae0331892f2dd9bf9875efe6be7ce406fde9450bd808dcc91f3b0874b60203392a26001815580f35b50604051903d90823e3d90fd5b6108fc9150610410565b634e487b7160e01b82526011600452602482fd5b6104899194505f9061233e565b5f925f6103a4565b6040513d5f823e3d90fd5b5f80fd5b60405162461bcd60e51b815260206004820152603160248201527f467573696f6e31696e6368426974636f696e4272696467653a20746f6f20636c60448201527037b9b2903a379032bc3834b930ba34b7b760791b6064820152608490fd5b634e487b7160e01b5f52601160045260245ffd5b60405162461bcd60e51b815260206004820152602c60248201527f467573696f6e31696e6368426974636f696e4272696467653a2072656c61796560448201526b72206e6f742061637469766560a01b6064820152608490fd5b3461049c57602036600319011261049c576105866125ea565b600435600955005b3461049c57602036600319011261049c576105a76122d3565b6105af6125ea565b6001600160a01b03165f818152600360209081526040808320805460ff19169055519182525f5160206127015f395f51905f5291a2005b3461049c57602036600319011261049c576001600160a01b036106076122d3565b165f526005602052602060ff60405f2054166040519015158152f35b3461049c57602036600319011261049c5761063c6122d3565b6106446125ea565b600780546001600160a01b0319166001600160a01b0392909216919091179055005b3461049c57602036600319011261049c576004355f526002602052602061069a60405f20600360028201549101549061255a565b604051908152f35b3461049c575f36600319011261049c576007546040516001600160a01b039091168152602090f35b3461049c575f36600319011261049c576020600a54604051908152f35b3461049c57602036600319011261049c576107006122d3565b6107086125ea565b6001600160a01b03165f818152600560209081526040808320805460ff19169055519182525f5160206127015f395f51905f5291a2005b3461049c57602036600319011261049c576107586122d3565b6107606125ea565b60018060a01b0316805f52600560205260405f20600160ff198254161790555f5160206127015f395f51905f52602060405160018152a2005b61014036600319011261049c576024356001600160a01b0381169081900361049c576084356001600160a01b0381169160643591604435919084900361049c5760a4356001600160a01b038116929083900361049c5760e43580151580910361049c576101243567ffffffffffffffff811161049c5761081d903690600401612400565b9091610827612611565b61082f61262f565b600b54871061104d57600a548711610ff4576004355f908152600260205260409020546001600160a01b0316610f99578415610f54578315610f0c57835f52600460205260ff60405f205416610eac57845f52600560205260ff60405f20541615610e4d578115610dfc5787610d82573415610d27576108b134975b426125af565b936020956040516108c2888261233e565b5f81525f368137604051916108d683612321565b338352888301528960408301525f60608301528260808301528660a08301525f60c08301525f60e0830152836101008301528a6101208301528861014083015260c43561016083015261010435610180830152426101a08301526101c08201526004355f52600287526101c0600b60405f2060018060a01b0360018060a01b03855116166bffffffffffffffffffffffff60a01b82541617815560018060a01b038a85015116600182019060018060a01b03166bffffffffffffffffffffffff60a01b82541617905560408401516002820155606084015160038201556080840151600482015560a08401516005820155600681016109e760c08601511515829060ff801983541691151516179055565b60e08501518154610100870151610120880151610100600160b81b0319909216921515600890811b61ff00169390931790151560101b62ff0000161760189190911b6301000000600160b81b0316179091556101408501516007830180546001600160a01b0319166001600160a01b03929092169190911790556101608501519082015561018084015160098201556101a0840151600a82015591909201518051929091019067ffffffffffffffff8311610cd957600160401b8311610cd95788908254848455808510610cff575b5001905f52875f205f5b838110610ced57505050506004355f526006865260405f209167ffffffffffffffff8411610cd957610af283546122e9565b601f8111610c96575b505f9284601f8111600114610c0f577f9a4098f19f5ff554843eed4924d1d370545595b1e21645b5bac690c1954e9c8c945f91610c04575b508560011b905f198760031b1c19161790555b815f526004875260405f20600160ff198254161790556004355f526002875260018060a01b03600160405f2001541695604051928a8452888401526040830152606082015260a0608082015280610ba633956004359560a08401916125ca565b0390a461010435610bb8575b60015f55005b604051938452830152604082015260c435606082015261010435907f7df538d8d84ef9ca2274280225bfe87a7d970fc5da744805787a7f3e2f0b1cd7608060043592a380808080610bb2565b90508601358c610b33565b505f818152888120909486601f1981165b8b818910610c7a57507f9a4098f19f5ff554843eed4924d1d370545595b1e21645b5bac690c1954e9c8c975010610c61575b5050600185811b019055610b46565b8701355f19600388901b60f8161c191690558b80610c52565b838b013585559788019760019094019390920191889150610c20565b835f52875f20601f860160051c810191898710610ccf575b601f0160051c01905b818110610cc45750610afb565b5f8155600101610cb7565b9091508190610cae565b634e487b7160e01b5f52604160045260245ffd5b82518282015591890191600101610ac0565b835f5284835f2091820191015b818110610d195750610ab6565b5f81558b9350600101610d0c565b60405162461bcd60e51b815260206004820152602d60248201527f467573696f6e31696e6368426974636f696e4272696467653a2045544820616d60448201526c1bdd5b9d081c995c5d5a5c9959609a1b6064820152608490fd5b34610d91576108b15f976108ab565b60405162461bcd60e51b815260206004820152603960248201527f467573696f6e31696e6368426974636f696e4272696467653a20455448206e6f60448201527f7420616c6c6f77656420666f72204552433230207377617073000000000000006064820152608490fd5b60405162461bcd60e51b815260206004820152603660248201525f5160206126e15f395f51905f526044820152756420426974636f696e2048544c43206164647265737360501b6064820152608490fd5b60405162461bcd60e51b815260206004820152603160248201527f467573696f6e31696e6368426974636f696e4272696467653a207265736f6c76604482015270195c881b9bdd08185d5d1a1bdc9a5e9959607a1b6064820152608490fd5b60405162461bcd60e51b815260206004820152603260248201527f467573696f6e31696e6368426974636f696e4272696467653a20736563726574604482015271081a185cda08185b1c9958591e481d5cd95960721b6064820152608490fd5b60405162461bcd60e51b815260206004820152602d60248201525f5160206126e15f395f51905f5260448201526c0c840e6cac6e4cae840d0c2e6d609b1b6064820152608490fd5b60405162461bcd60e51b815260206004820152602a60248201525f5160206126e15f395f51905f5260448201526932103932b9b7b63b32b960b11b6064820152608490fd5b60405162461bcd60e51b815260206004820152602d60248201527f467573696f6e31696e6368426974636f696e4272696467653a2048544c43206160448201526c6c72656164792065786973747360981b6064820152608490fd5b60405162461bcd60e51b815260206004820152602b60248201527f467573696f6e31696e6368426974636f696e4272696467653a2074696d656c6f60448201526a636b20746f6f206c6f6e6760a81b6064820152608490fd5b60405162461bcd60e51b815260206004820152602c60248201527f467573696f6e31696e6368426974636f696e4272696467653a2074696d656c6f60448201526b18dac81d1bdbc81cda1bdc9d60a21b6064820152608490fd5b3461049c576110b53661242e565b906110be612611565b6110c661262f565b5f8481526002602052604090206001810180546001600160a01b0316330361158e57600682019081549360ff8516158061157f575b611104906124fc565b60058401544210156115305760205f60405182810190848b833761113a848287810186838201520301601f19810183528261233e565b604051918291518091835e8101838152039060025afa15610491575f519660048501978854036114eb57600285019788549761117c60038801998a549061255a565b908115611497578015801561148d575b156113a6575060ff1990971660011785555b6111a98789546125af565b8855895f52600c60205260405f206111c181546125bc565b9055895f52600c602052600b60405f205460405160208101918d83528a60408301524260608301526080820152608081526111fd60a08261233e565b51902096018054600160401b811015610cd95760018101808355811015611392575f918252602090912001869055845460181c6001600160a01b031687816113765785545f9250829182918291906001600160a01b031682821561136d575bf115610491575b5467ffffffffffffffff8311610cd9576040519361128b601f8501601f19166020018661233e565b83855260208501368585011161049c578b955f6020877fd3e8321600bbd1a60ba41611fa97369cbea694355074f1ae6d8fb38f853d85739860809886378301015251902090546040805193845260208401929092529082018890526001600160a01b03166060820152a25460ff8160101c169081611361575b5061130f5760015f55005b6113406080937fb6634431f92bb8f06eabf1181a0096537ccec375cb6a16933eb37c34f75a99bc955490549061255a565b60405192835260208301523360408301526060820152a28080808080610bb2565b60ff9150161586611304565b506108fc61125c565b855461138d926001600160a01b039091169061264d565b611263565b634e487b7160e01b5f52603260045260245ffd5b919760ff915060101c161561142f57895f52600c60205260405f2054600d5411156113d1579561119e565b60405162461bcd60e51b815260206004820152603060248201527f467573696f6e31696e6368426974636f696e4272696467653a20746f6f206d6160448201526f6e79207061727469616c2066696c6c7360801b6064820152608490fd5b60405162461bcd60e51b815260206004820152603060248201527f467573696f6e31696e6368426974636f696e4272696467653a2070617274696160448201526f1b08199a5b1b1cc8191a5cd8589b195960821b6064820152608490fd5b508181101561118c565b60405162461bcd60e51b815260206004820152602660248201527f467573696f6e31696e6368426974636f696e4272696467653a2066756c6c7920604482015265199a5b1b195960d21b6064820152608490fd5b60405162461bcd60e51b815260206004820152602a60248201525f5160206126e15f395f51905f526044820152696420707265696d61676560b01b6064820152608490fd5b60405162461bcd60e51b815260206004820152602160248201527f467573696f6e31696e6368426974636f696e4272696467653a206578706972656044820152601960fa1b6064820152608490fd5b50600885901c60ff16156110fb565b60405162461bcd60e51b815260206004820152602660248201527f467573696f6e31696e6368426974636f696e4272696467653a20756e617574686044820152651bdc9a5e995960d21b6064820152608490fd5b3461049c57602036600319011261049c576004355f526004602052602060ff60405f2054166040519015158152f35b3461049c57602036600319011261049c576004355f52600c602052602060405f2054604051908152f35b3461049c57604036600319011261049c576116546122d3565b602435906116606125ea565b6001600160a01b03168061169c57506001545f918291829182916001600160a01b0316828215611693575bf11561049157005b506108fc61168b565b60015461001892916001600160a01b039091169061264d565b3461049c57602036600319011261049c576004355f5260026020526101c060405f2060018060a01b038154169060018060a01b0360018201541690600281015460038201546004830154600584015460068501549160018060a01b0360078701541693600887015495600a6009890154980154986040519a8b5260208b015260408a01526060890152608088015260a087015260ff8116151560c087015260ff8160081c16151560e087015260ff8160101c16151561010087015260018060a01b039060181c166101208601526101408501526101608401526101808301526101a0820152f35b3461049c57602036600319011261049c576040516117b981612321565b5f8152602081015f9052604081015f9052606081015f9052608081015f905260a081015f905260c081015f905260e081015f905261010081015f905261012081015f905261014081015f905261016081015f905261018081015f90526101a081015f90526101c001606090526004355f52600260205260405f2060405161183f81612321565b600160a01b600190038254168152600160a01b6001900360018301541690602081019182526002830154916040820192835260038401549360608301948552600481015460808401908152600582015460a08501908152600683015460c086019060ff81161515825260e087018160081c60ff16151581526101008801908260101c60ff1615158252610120890192600160a01b600190039060181c168352600160a01b60019003600788015416936101408a019485526008880154956101608b019687526009890154976101808c01988952600a8a0154996101a08d019a8b52600b0161192c90612567565b9a6101c08d019b8c526040519e8f9e8f926020845261020084019f600160a01b600190039051166020850152600160a01b6001900390511660408401525160608301525190608001525160a08d01525160c08c015251151560e08b01525115156101008a0152511515610120890152600160a01b60019003905116610140880152600160a01b6001900390511661016087015251610180860152516101a0850152516101c084015251906101e083016101e090528151809152610220830191602001905f5b8181106119ff575050500390f35b82518452859450602093840193909201916001016119f1565b3461049c575f36600319011261049c576001546040516001600160a01b039091168152602090f35b3461049c57602036600319011261049c576004355f526006602052611a76611a6a60405f20612360565b604051918291826122a9565b0390f35b3461049c575f36600319011261049c57611a926125ea565b611a9a61262f565b6001805460ff60a01b1916600160a01b1790556040513381527f62e78cea01bee320cd4e420270b5ea74000d11b0c9f74754ebdbfc544b05a25890602090a1005b3461049c57602036600319011261049c576004355f526002602052611b05600b60405f2001612567565b6040518091602082016020835281518091526020604084019201905f5b818110611b30575050500390f35b8251845285945060209384019390920191600101611b22565b3461049c575f36600319011261049c57611b616125ea565b600180546001600160a01b031981169091555f906001600160a01b03167f8be0079c531659141344cd1fd0a4f28419497f9722a3daafe3b4186f6b6457e08280a3005b3461049c57602036600319011261049c57611bbd6125ea565b600435600d55005b3461049c575f36600319011261049c57602060ff60015460a01c166040519015158152f35b3461049c57602036600319011261049c576001600160a01b03611c0b6122d3565b165f52600360205260a060405f2060ff815416906001810154906002810154600460038301549201549260405194151585526020850152604084015260608301526080820152f35b3461049c57602036600319011261049c57600435611c6f612611565b5f81815260026020526040902080546001600160a01b031690611c933383146124a0565b600681019182549260ff84161580611e2c575b611caf906124fc565b60058301544210611dd957611ccd600284015460038501549061255a565b938415611d805761ff001916610100179081905560181c6001600160a01b031680611d4b5750505f8080808560018060a01b0386541682f115610491577f4a3556ef2b039f17a91c71e4f371f01d12184cfecc5ec146cb420d4b19caadb6916040915b5482519182526001600160a01b03166020820152a260015f55005b91611d7b847f4a3556ef2b039f17a91c71e4f371f01d12184cfecc5ec146cb420d4b19caadb6959360409561264d565b611d30565b60405162461bcd60e51b815260206004820152602b60248201527f467573696f6e31696e6368426974636f696e4272696467653a206e6f7468696e60448201526a19c81d1bc81c99599d5b9960aa1b6064820152608490fd5b60405162461bcd60e51b815260206004820152602560248201527f467573696f6e31696e6368426974636f696e4272696467653a206e6f742065786044820152641c1a5c995960da1b6064820152608490fd5b50600884901c60ff1615611ca6565b3461049c575f36600319011261049c576020600d54604051908152f35b3461049c575f36600319011261049c57611e706125ea565b60015460ff8160a01c1615611eb75760ff60a01b19166001556040513381527f5db9ee0a495bf2e6ff9c91a7834c1ba4fdd244a5e8aa4e537bd38aeae4b073aa90602090a1005b638dfc202b60e01b5f5260045ffd5b5f36600319011261049c576009543410611f725760405160a0810181811067ffffffffffffffff821117610cd95760405260018152600460208201348152604083015f815260608401905f82526080850192428452335f526003602052611f4060405f2096511515879060ff801983541691151516179055565b51600186015551600285015551600384015551910155604051600181525f5160206127015f395f51905f5260203392a2005b60405162461bcd60e51b815260206004820152602c60248201527f467573696f6e31696e6368426974636f696e4272696467653a20696e7375666660448201526b696369656e74207374616b6560a01b6064820152608490fd5b3461049c575f36600319011261049c576020600b54604051908152f35b3461049c57604036600319011261049c57602435612005612611565b61200d61262f565b6004355f52600260205260405f209061203060018060a01b0383541633146124a0565b600682015460181c6001600160a01b031691821561212d576002019182546120d75781156120945781610bb29355604051916323b872dd60e01b602084015233602484015230604484015260648301526064825261208f60848361233e565b612688565b60405162461bcd60e51b815260206004820152602860248201525f5160206126e15f395f51905f526044820152671908185b5bdd5b9d60c21b6064820152608490fd5b60405162461bcd60e51b815260206004820152602860248201527f467573696f6e31696e6368426974636f696e4272696467653a20616c726561646044820152671e48199d5b99195960c21b6064820152608490fd5b60405162461bcd60e51b815260206004820152602260248201527f467573696f6e31696e6368426974636f696e4272696467653a204554482048546044820152614c4360f01b6064820152608490fd5b3461049c57602036600319011261049c576004356121996125ea565b6103e881116121a757600855005b60405162461bcd60e51b815260206004820152602760248201527f467573696f6e31696e6368426974636f696e4272696467653a207261746520746044820152660dede40d0d2ced60cb1b6064820152608490fd5b3461049c57602036600319011261049c57602061069a600435612466565b3461049c575f36600319011261049c576020600854604051908152f35b3461049c57604036600319011261049c576024356004356122566125ea565b8181101561226657600b55600a55005b60405162461bcd60e51b815260206004820152602860248201525f5160206126e15f395f51905f5260448201526764206c696d69747360c01b6064820152608490fd5b602060409281835280519182918282860152018484015e5f828201840152601f01601f1916010190565b600435906001600160a01b038216820361049c57565b90600182811c92168015612317575b602083101461230357565b634e487b7160e01b5f52602260045260245ffd5b91607f16916122f8565b6101e0810190811067ffffffffffffffff821117610cd957604052565b90601f8019910116810190811067ffffffffffffffff821117610cd957604052565b9060405191825f825492612373846122e9565b80845293600181169081156123de575060011461239a575b506123989250038361233e565b565b90505f9291925260205f20905f915b8183106123c2575050906020612398928201015f61238b565b60209193508060019154838589010152019101909184926123a9565b90506020925061239894915060ff191682840152151560051b8201015f61238b565b9181601f8401121561049c5782359167ffffffffffffffff831161049c576020838186019501011161049c57565b90606060031983011261049c57600435916024359067ffffffffffffffff821161049c5761245e91600401612400565b909160443590565b5f52600260205260405f20600281015490811561249a576003015461271081029080820461271014901517156104ff570490565b50505f90565b156124a757565b60405162461bcd60e51b815260206004820152602760248201527f467573696f6e31696e6368426974636f696e4272696467653a206e6f7420696e60448201526634ba34b0ba37b960c91b6064820152608490fd5b1561250357565b60405162461bcd60e51b815260206004820152602960248201527f467573696f6e31696e6368426974636f696e4272696467653a2048544c43206e6044820152686f742061637469766560b81b6064820152608490fd5b919082039182116104ff57565b90604051918281549182825260208201905f5260205f20925f5b8181106125965750506123989250038361233e565b8454835260019485019487945060209093019201612581565b919082018092116104ff57565b5f1981146104ff5760010190565b908060209392818452848401375f828201840152601f01601f1916010190565b6001546001600160a01b031633036125fe57565b63118cdaa760e01b5f523360045260245ffd5b60025f54146126205760025f55565b633ee5aeb560e01b5f5260045ffd5b60ff60015460a01c1661263e57565b63d93c066560e01b5f5260045ffd5b60405163a9059cbb60e01b60208201526001600160a01b0390921660248301526044808301939093529181526123989161208f60648361233e565b905f602091828151910182855af115610491575f513d6126d757506001600160a01b0381163b155b6126b75750565b635274afe760e01b5f9081526001600160a01b0391909116600452602490fd5b600114156126b056fe467573696f6e31696e6368426974636f696e4272696467653a20696e76616c6958fbedaec29d75e04c2ce6fbd0eae86142a167515d4a7df538321935066b6c9ea2646970667358221220e9a3fdab38e87cd84a4d80f522a7da5b568cb100ae010e44f0d86a390aa3728764736f6c634300081e0033","linkReferences":{}},"methodIdentifiers":{"authorizeResolver(address)":"af7b718a","authorizedResolvers(address)":"d794d2d9","bitcoinHTLCAddresses(bytes32)":"89d4ca45","deactivateRelayer(address)":"e4f920b8","deauthorizeResolver(address)":"b06a2ca9","depositTokens(bytes32,uint256)":"222b8947","emergencyWithdraw(address,uint256)":"95ccea67","fillCounts(bytes32)":"99fddc09","fusionProtocol()":"bee9fb46","getBitcoinHTLCAddress(bytes32)":"30bf0f00","getFillPercentage(bytes32)":"18a6d63a","getHTLC(bytes32)":"90c26838","getHTLCFills(bytes32)":"71c8ccd2","getRemainingAmount(bytes32)":"c618d0ec","htlcs(bytes32)":"91edd8f2","initiateFusionHTLC(bytes32,address,bytes32,uint256,address,address,uint256,bool,bytes32,string)":"ad5bdc4e","isHTLCActive(bytes32)":"faf9f851","maxPartialFills()":"438af4f2","maxTimelock()":"bc1fd34b","minStakeAmount()":"f1887684","minTimelock()":"25429e7d","owner()":"8da5cb5b","pause()":"8456cb59","paused()":"5c975abb","redeemHTLC(bytes32,bytes,uint256)":"aaaf6551","refundHTLC(bytes32)":"43b920c5","registerRelayer()":"29d37dfe","relayerRedeem(bytes32,bytes,uint256)":"ecf3c739","relayerRewardRate()":"17df526d","relayers(address)":"5300f841","renounceOwnership()":"715018a6","setFusionProtocol(address)":"c7fd8230","setMaxPartialFills(uint256)":"665aeee6","setMinStakeAmount(uint256)":"eb4af045","setRelayerRewardRate(uint256)":"1d28329e","setTimelockLimits(uint256,uint256)":"08a5b929","transferOwnership(address)":"f2fde38b","unpause()":"3f4ba83a","usedSecrets(bytes32)":"a4516c48"},"id":1}