{
  "_format": "hh-sol-artifact-1",
  "contractName": "BitcoinBridge",
  "sourceName": "contracts/BitcoinBridge.sol",
  "abi": [
    {
      "inputs": [
        {
          "internalType": "address",
          "name": "_wbtcToken",
          "type": "address"
        }
      ],
      "stateMutability": "nonpayable",
      "type": "constructor"
    },
    {
      "inputs": [
        {
          "internalType": "address",
          "name": "owner",
          "type": "address"
        }
      ],
      "name": "OwnableInvalidOwner",
      "type": "error"
    },
    {
      "inputs": [
        {
          "internalType": "address",
          "name": "account",
          "type": "address"
        }
      ],
      "name": "OwnableUnauthorizedAccount",
      "type": "error"
    },
    {
      "inputs": [],
      "name": "ReentrancyGuardReentrantCall",
      "type": "error"
    },
    {
      "anonymous": false,
      "inputs": [
        {
          "indexed": true,
          "internalType": "bytes32",
          "name": "id",
          "type": "bytes32"
        },
        {
          "indexed": true,
          "internalType": "address",
          "name": "initiator",
          "type": "address"
        },
        {
          "indexed": true,
          "internalType": "address",
          "name": "resolver",
          "type": "address"
        },
        {
          "indexed": false,
          "internalType": "uint256",
          "name": "amount",
          "type": "uint256"
        }
      ],
      "name": "Initiated",
      "type": "event"
    },
    {
      "anonymous": false,
      "inputs": [
        {
          "indexed": true,
          "internalType": "address",
          "name": "previousOwner",
          "type": "address"
        },
        {
          "indexed": true,
          "internalType": "address",
          "name": "newOwner",
          "type": "address"
        }
      ],
      "name": "OwnershipTransferred",
      "type": "event"
    },
    {
      "anonymous": false,
      "inputs": [
        {
          "indexed": true,
          "internalType": "bytes32",
          "name": "id",
          "type": "bytes32"
        },
        {
          "indexed": false,
          "internalType": "bytes32",
          "name": "preimage",
          "type": "bytes32"
        }
      ],
      "name": "Redeemed",
      "type": "event"
    },
    {
      "anonymous": false,
      "inputs": [
        {
          "indexed": true,
          "internalType": "bytes32",
          "name": "id",
          "type": "bytes32"
        }
      ],
      "name": "Refunded",
      "type": "event"
    },
    {
      "inputs": [],
      "name": "emergencyPause",
      "outputs": [],
      "stateMutability": "nonpayable",
      "type": "function"
    },
    {
      "inputs": [
        {
          "internalType": "address",
          "name": "_token",
          "type": "address"
        },
        {
          "internalType": "uint256",
          "name": "_amount",
          "type": "uint256"
        }
      ],
      "name": "emergencyWithdraw",
      "outputs": [],
      "stateMutability": "nonpayable",
      "type": "function"
    },
    {
      "inputs": [
        {
          "internalType": "bytes32",
          "name": "",
          "type": "bytes32"
        }
      ],
      "name": "htlcs",
      "outputs": [
        {
          "internalType": "address payable",
          "name": "initiator",
          "type": "address"
        },
        {
          "internalType": "address payable",
          "name": "resolver",
          "type": "address"
        },
        {
          "internalType": "uint256",
          "name": "amount",
          "type": "uint256"
        },
        {
          "internalType": "bytes32",
          "name": "hash",
          "type": "bytes32"
        },
        {
          "internalType": "uint256",
          "name": "timelock",
          "type": "uint256"
        },
        {
          "internalType": "bool",
          "name": "executed",
          "type": "bool"
        },
        {
          "internalType": "bool",
          "name": "refunded",
          "type": "bool"
        }
      ],
      "stateMutability": "view",
      "type": "function"
    },
    {
      "inputs": [
        {
          "internalType": "bytes32",
          "name": "id",
          "type": "bytes32"
        },
        {
          "internalType": "address payable",
          "name": "_resolver",
          "type": "address"
        },
        {
          "internalType": "bytes32",
          "name": "_hash",
          "type": "bytes32"
        },
        {
          "internalType": "uint256",
          "name": "_timelock",
          "type": "uint256"
        }
      ],
      "name": "initiate",
      "outputs": [],
      "stateMutability": "payable",
      "type": "function"
    },
    {
      "inputs": [],
      "name": "owner",
      "outputs": [
        {
          "internalType": "address",
          "name": "",
          "type": "address"
        }
      ],
      "stateMutability": "view",
      "type": "function"
    },
    {
      "inputs": [
        {
          "internalType": "bytes32",
          "name": "id",
          "type": "bytes32"
        },
        {
          "internalType": "bytes",
          "name": "_preimage",
          "type": "bytes"
        }
      ],
      "name": "redeem",
      "outputs": [],
      "stateMutability": "nonpayable",
      "type": "function"
    },
    {
      "inputs": [
        {
          "internalType": "bytes32",
          "name": "id",
          "type": "bytes32"
        }
      ],
      "name": "refund",
      "outputs": [],
      "stateMutability": "nonpayable",
      "type": "function"
    },
    {
      "inputs": [],
      "name": "renounceOwnership",
      "outputs": [],
      "stateMutability": "nonpayable",
      "type": "function"
    },
    {
      "inputs": [
        {
          "internalType": "address",
          "name": "newOwner",
          "type": "address"
        }
      ],
      "name": "transferOwnership",
      "outputs": [],
      "stateMutability": "nonpayable",
      "type": "function"
    },
    {
      "inputs": [],
      "name": "wbtcToken",
      "outputs": [
        {
          "internalType": "contract IERC20",
          "name": "",
          "type": "address"
        }
      ],
      "stateMutability": "view",
      "type": "function"
    }
  ],
  "bytecode": "0x60a06040523480156200001157600080fd5b5060405162001f1e38038062001f1e833981810160405281019062000037919062000232565b336001600081905550600073ffffffffffffffffffffffffffffffffffffffff168173ffffffffffffffffffffffffffffffffffffffff1603620000b55760006040517f1e4fbdf7000000000000000000000000000000000000000000000000000000008152600401620000ac919062000275565b60405180910390fd5b620000c6816200010260201b60201c565b508073ffffffffffffffffffffffffffffffffffffffff1660808173ffffffffffffffffffffffffffffffffffffffff16815250505062000292565b6000600160009054906101000a900473ffffffffffffffffffffffffffffffffffffffff16905081600160006101000a81548173ffffffffffffffffffffffffffffffffffffffff021916908373ffffffffffffffffffffffffffffffffffffffff1602179055508173ffffffffffffffffffffffffffffffffffffffff168173ffffffffffffffffffffffffffffffffffffffff167f8be0079c531659141344cd1fd0a4f28419497f9722a3daafe3b4186f6b6457e060405160405180910390a35050565b600080fd5b600073ffffffffffffffffffffffffffffffffffffffff82169050919050565b6000620001fa82620001cd565b9050919050565b6200020c81620001ed565b81146200021857600080fd5b50565b6000815190506200022c8162000201565b92915050565b6000602082840312156200024b576200024a620001c8565b5b60006200025b848285016200021b565b91505092915050565b6200026f81620001ed565b82525050565b60006020820190506200028c600083018462000264565b92915050565b608051611c70620002ae600039600061021f0152611c706000f3fe6080604052600436106100915760003560e01c80638da5cb5b116100595780638da5cb5b1461013457806391edd8f21461015f57806395ccea67146101a2578063f2fde38b146101cb578063f7ff7207146101f457610091565b806327614df814610096578063412c0b58146100c157806351858e27146100dd578063715018a6146100f45780637249fbb61461010b575b600080fd5b3480156100a257600080fd5b506100ab61021d565b6040516100b89190610fb7565b60405180910390f35b6100db60048036038101906100d69190611086565b610241565b005b3480156100e957600080fd5b506100f261060f565b005b34801561010057600080fd5b50610109610619565b005b34801561011757600080fd5b50610132600480360381019061012d91906110ed565b61062d565b005b34801561014057600080fd5b5061014961088e565b604051610156919061113b565b60405180910390f35b34801561016b57600080fd5b50610186600480360381019061018191906110ed565b6108b8565b604051610199979695949392919061119e565b60405180910390f35b3480156101ae57600080fd5b506101c960048036038101906101c49190611239565b610954565b005b3480156101d757600080fd5b506101f260048036038101906101ed9190611279565b6109e6565b005b34801561020057600080fd5b5061021b6004803603810190610216919061130b565b610a6c565b005b7f000000000000000000000000000000000000000000000000000000000000000081565b610249610d93565b600073ffffffffffffffffffffffffffffffffffffffff166002600086815260200190815260200160002060000160009054906101000a900473ffffffffffffffffffffffffffffffffffffffff1673ffffffffffffffffffffffffffffffffffffffff16146102ee576040517f08c379a00000000000000000000000000000000000000000000000000000000081526004016102e5906113ee565b60405180910390fd5b60003411610331576040517f08c379a000000000000000000000000000000000000000000000000000000000815260040161032890611480565b60405180910390fd5b600073ffffffffffffffffffffffffffffffffffffffff168373ffffffffffffffffffffffffffffffffffffffff16036103a0576040517f08c379a000000000000000000000000000000000000000000000000000000000815260040161039790611512565b60405180910390fd5b6000801b82036103e5576040517f08c379a00000000000000000000000000000000000000000000000000000000081526004016103dc9061157e565b60405180910390fd5b610e108111610429576040517f08c379a000000000000000000000000000000000000000000000000000000000815260040161042090611610565b60405180910390fd5b6040518060e001604052803373ffffffffffffffffffffffffffffffffffffffff1681526020018473ffffffffffffffffffffffffffffffffffffffff1681526020013481526020018381526020018242610484919061165f565b8152602001600015158152602001600015158152506002600086815260200190815260200160002060008201518160000160006101000a81548173ffffffffffffffffffffffffffffffffffffffff021916908373ffffffffffffffffffffffffffffffffffffffff16021790555060208201518160010160006101000a81548173ffffffffffffffffffffffffffffffffffffffff021916908373ffffffffffffffffffffffffffffffffffffffff16021790555060408201518160020155606082015181600301556080820151816004015560a08201518160050160006101000a81548160ff02191690831515021790555060c08201518160050160016101000a81548160ff0219169083151502179055509050508273ffffffffffffffffffffffffffffffffffffffff163373ffffffffffffffffffffffffffffffffffffffff16857fe6cf32272b10a93a5a022b8a3184f4c213f232ce976cb7cc95190fa8d3c9d546346040516105f99190611693565b60405180910390a4610609610dd9565b50505050565b610617610de3565b565b610621610de3565b61062b6000610e6a565b565b610635610d93565b60006002600083815260200190815260200160002090503373ffffffffffffffffffffffffffffffffffffffff168160000160009054906101000a900473ffffffffffffffffffffffffffffffffffffffff1673ffffffffffffffffffffffffffffffffffffffff16146106de576040517f08c379a00000000000000000000000000000000000000000000000000000000081526004016106d590611720565b60405180910390fd5b8060050160009054906101000a900460ff1615610730576040517f08c379a0000000000000000000000000000000000000000000000000000000008152600401610727906117b2565b60405180910390fd5b8060050160019054906101000a900460ff1615610782576040517f08c379a000000000000000000000000000000000000000000000000000000000815260040161077990611844565b60405180910390fd5b42816004015411156107c9576040517f08c379a00000000000000000000000000000000000000000000000000000000081526004016107c0906118d6565b60405180910390fd5b60018160050160016101000a81548160ff0219169083151502179055508060000160009054906101000a900473ffffffffffffffffffffffffffffffffffffffff1673ffffffffffffffffffffffffffffffffffffffff166108fc82600201549081150290604051600060405180830381858888f19350505050158015610854573d6000803e3d6000fd5b50817ffe509803c09416b28ff3d8f690c8b0c61462a892c46d5430c8fb20abe472daf060405160405180910390a25061088b610dd9565b50565b6000600160009054906101000a900473ffffffffffffffffffffffffffffffffffffffff16905090565b60026020528060005260406000206000915090508060000160009054906101000a900473ffffffffffffffffffffffffffffffffffffffff16908060010160009054906101000a900473ffffffffffffffffffffffffffffffffffffffff16908060020154908060030154908060040154908060050160009054906101000a900460ff16908060050160019054906101000a900460ff16905087565b61095c610de3565b8173ffffffffffffffffffffffffffffffffffffffff1663a9059cbb61098061088e565b836040518363ffffffff1660e01b815260040161099e9291906118f6565b6020604051808303816000875af11580156109bd573d6000803e3d6000fd5b505050506040513d601f19601f820116820180604052508101906109e1919061194b565b505050565b6109ee610de3565b600073ffffffffffffffffffffffffffffffffffffffff168173ffffffffffffffffffffffffffffffffffffffff1603610a605760006040517f1e4fbdf7000000000000000000000000000000000000000000000000000000008152600401610a57919061113b565b60405180910390fd5b610a6981610e6a565b50565b610a74610d93565b60006002600085815260200190815260200160002090503373ffffffffffffffffffffffffffffffffffffffff168160010160009054906101000a900473ffffffffffffffffffffffffffffffffffffffff1673ffffffffffffffffffffffffffffffffffffffff1614610b1d576040517f08c379a0000000000000000000000000000000000000000000000000000000008152600401610b14906119ea565b60405180910390fd5b8060050160009054906101000a900460ff1615610b6f576040517f08c379a0000000000000000000000000000000000000000000000000000000008152600401610b66906117b2565b60405180910390fd5b8060050160019054906101000a900460ff1615610bc1576040517f08c379a0000000000000000000000000000000000000000000000000000000008152600401610bb890611844565b60405180910390fd5b42816004015411610c07576040517f08c379a0000000000000000000000000000000000000000000000000000000008152600401610bfe90611a7c565b60405180910390fd5b806003015460028484604051602001610c21929190611adb565b604051602081830303815290604052604051610c3d9190611b5a565b602060405180830381855afa158015610c5a573d6000803e3d6000fd5b5050506040513d601f19601f82011682018060405250810190610c7d9190611b86565b14610cbd576040517f08c379a0000000000000000000000000000000000000000000000000000000008152600401610cb490611bff565b60405180910390fd5b60018160050160006101000a81548160ff0219169083151502179055508060010160009054906101000a900473ffffffffffffffffffffffffffffffffffffffff1673ffffffffffffffffffffffffffffffffffffffff166108fc82600201549081150290604051600060405180830381858888f19350505050158015610d48573d6000803e3d6000fd5b50837f489e9ee921192823d1aa1ef800c9ffc642993538b1e7e43a4d46a91965e894ab8260030154604051610d7d9190611c1f565b60405180910390a250610d8e610dd9565b505050565b600260005403610dcf576040517f3ee5aeb500000000000000000000000000000000000000000000000000000000815260040160405180910390fd5b6002600081905550565b6001600081905550565b610deb610f30565b73ffffffffffffffffffffffffffffffffffffffff16610e0961088e565b73ffffffffffffffffffffffffffffffffffffffff1614610e6857610e2c610f30565b6040517f118cdaa7000000000000000000000000000000000000000000000000000000008152600401610e5f919061113b565b60405180910390fd5b565b6000600160009054906101000a900473ffffffffffffffffffffffffffffffffffffffff16905081600160006101000a81548173ffffffffffffffffffffffffffffffffffffffff021916908373ffffffffffffffffffffffffffffffffffffffff1602179055508173ffffffffffffffffffffffffffffffffffffffff168173ffffffffffffffffffffffffffffffffffffffff167f8be0079c531659141344cd1fd0a4f28419497f9722a3daafe3b4186f6b6457e060405160405180910390a35050565b600033905090565b600073ffffffffffffffffffffffffffffffffffffffff82169050919050565b6000819050919050565b6000610f7d610f78610f7384610f38565b610f58565b610f38565b9050919050565b6000610f8f82610f62565b9050919050565b6000610fa182610f84565b9050919050565b610fb181610f96565b82525050565b6000602082019050610fcc6000830184610fa8565b92915050565b600080fd5b600080fd5b6000819050919050565b610fef81610fdc565b8114610ffa57600080fd5b50565b60008135905061100c81610fe6565b92915050565b600061101d82610f38565b9050919050565b61102d81611012565b811461103857600080fd5b50565b60008135905061104a81611024565b92915050565b6000819050919050565b61106381611050565b811461106e57600080fd5b50565b6000813590506110808161105a565b92915050565b600080600080608085870312156110a05761109f610fd2565b5b60006110ae87828801610ffd565b94505060206110bf8782880161103b565b93505060406110d087828801610ffd565b92505060606110e187828801611071565b91505092959194509250565b60006020828403121561110357611102610fd2565b5b600061111184828501610ffd565b91505092915050565b600061112582610f38565b9050919050565b6111358161111a565b82525050565b6000602082019050611150600083018461112c565b92915050565b61115f81611012565b82525050565b61116e81611050565b82525050565b61117d81610fdc565b82525050565b60008115159050919050565b61119881611183565b82525050565b600060e0820190506111b3600083018a611156565b6111c06020830189611156565b6111cd6040830188611165565b6111da6060830187611174565b6111e76080830186611165565b6111f460a083018561118f565b61120160c083018461118f565b98975050505050505050565b6112168161111a565b811461122157600080fd5b50565b6000813590506112338161120d565b92915050565b600080604083850312156112505761124f610fd2565b5b600061125e85828601611224565b925050602061126f85828601611071565b9150509250929050565b60006020828403121561128f5761128e610fd2565b5b600061129d84828501611224565b91505092915050565b600080fd5b600080fd5b600080fd5b60008083601f8401126112cb576112ca6112a6565b5b8235905067ffffffffffffffff8111156112e8576112e76112ab565b5b602083019150836001820283011115611304576113036112b0565b5b9250929050565b60008060006040848603121561132457611323610fd2565b5b600061133286828701610ffd565b935050602084013567ffffffffffffffff81111561135357611352610fd7565b5b61135f868287016112b5565b92509250509250925092565b600082825260208201905092915050565b7f426974636f696e4272696467653a20737761702077697468207468697320696460008201527f20616c7265616479206578697374730000000000000000000000000000000000602082015250565b60006113d8602f8361136b565b91506113e38261137c565b604082019050919050565b60006020820190508181036000830152611407816113cb565b9050919050565b7f426974636f696e4272696467653a20616d6f756e74206d75737420626520677260008201527f6561746572207468616e20300000000000000000000000000000000000000000602082015250565b600061146a602c8361136b565b91506114758261140e565b604082019050919050565b600060208201905081810360008301526114998161145d565b9050919050565b7f426974636f696e4272696467653a20696e76616c6964207265736f6c7665722060008201527f6164647265737300000000000000000000000000000000000000000000000000602082015250565b60006114fc60278361136b565b9150611507826114a0565b604082019050919050565b6000602082019050818103600083015261152b816114ef565b9050919050565b7f426974636f696e4272696467653a20696e76616c696420686173680000000000600082015250565b6000611568601b8361136b565b915061157382611532565b602082019050919050565b600060208201905081810360008301526115978161155b565b9050919050565b7f426974636f696e4272696467653a2074696d656c6f636b206d7573742062652060008201527f67726561746572207468616e203120686f757200000000000000000000000000602082015250565b60006115fa60338361136b565b91506116058261159e565b604082019050919050565b60006020820190508181036000830152611629816115ed565b9050919050565b7f4e487b7100000000000000000000000000000000000000000000000000000000600052601160045260246000fd5b600061166a82611050565b915061167583611050565b925082820190508082111561168d5761168c611630565b5b92915050565b60006020820190506116a86000830184611165565b92915050565b7f426974636f696e4272696467653a2063616c6c6572206973206e6f742074686560008201527f20696e69746961746f7200000000000000000000000000000000000000000000602082015250565b600061170a602a8361136b565b9150611715826116ae565b604082019050919050565b60006020820190508181036000830152611739816116fd565b9050919050565b7f426974636f696e4272696467653a207377617020616c7265616479206578656360008201527f7574656400000000000000000000000000000000000000000000000000000000602082015250565b600061179c60248361136b565b91506117a782611740565b604082019050919050565b600060208201905081810360008301526117cb8161178f565b9050919050565b7f426974636f696e4272696467653a207377617020616c7265616479207265667560008201527f6e64656400000000000000000000000000000000000000000000000000000000602082015250565b600061182e60248361136b565b9150611839826117d2565b604082019050919050565b6000602082019050818103600083015261185d81611821565b9050919050565b7f426974636f696e4272696467653a2074696d656c6f636b20686173206e6f742060008201527f6578706972656400000000000000000000000000000000000000000000000000602082015250565b60006118c060278361136b565b91506118cb82611864565b604082019050919050565b600060208201905081810360008301526118ef816118b3565b9050919050565b600060408201905061190b600083018561112c565b6119186020830184611165565b9392505050565b61192881611183565b811461193357600080fd5b50565b6000815190506119458161191f565b92915050565b60006020828403121561196157611960610fd2565b5b600061196f84828501611936565b91505092915050565b7f426974636f696e4272696467653a2063616c6c6572206973206e6f742074686560008201527f207265736f6c7665720000000000000000000000000000000000000000000000602082015250565b60006119d460298361136b565b91506119df82611978565b604082019050919050565b60006020820190508181036000830152611a03816119c7565b9050919050565b7f426974636f696e4272696467653a2074696d656c6f636b20686173206578706960008201527f7265640000000000000000000000000000000000000000000000000000000000602082015250565b6000611a6660238361136b565b9150611a7182611a0a565b604082019050919050565b60006020820190508181036000830152611a9581611a59565b9050919050565b600081905092915050565b82818337600083830152505050565b6000611ac28385611a9c565b9350611acf838584611aa7565b82840190509392505050565b6000611ae8828486611ab6565b91508190509392505050565b600081519050919050565b60005b83811015611b1d578082015181840152602081019050611b02565b60008484015250505050565b6000611b3482611af4565b611b3e8185611a9c565b9350611b4e818560208601611aff565b80840191505092915050565b6000611b668284611b29565b915081905092915050565b600081519050611b8081610fe6565b92915050565b600060208284031215611b9c57611b9b610fd2565b5b6000611baa84828501611b71565b91505092915050565b7f426974636f696e4272696467653a20696e76616c696420707265696d61676500600082015250565b6000611be9601f8361136b565b9150611bf482611bb3565b602082019050919050565b60006020820190508181036000830152611c1881611bdc565b9050919050565b6000602082019050611c346000830184611174565b9291505056fea264697066735822122062cf4049db9f60af78472e93fcd8c3b01770251b879dd5809f860214ae06d0b364736f6c63430008140033",
  "linkReferences": {},
  "deployedLinkReferences": {}
}