{
  "_format": "hh-sol-artifact-1",
  "contractName": "SolanaHTLC",
  "sourceName": "contracts/SolanaHTLC.sol",
  "abi": [
    {
      "inputs": [],
      "stateMutability": "nonpayable",
      "type": "constructor"
    },
    {
      "inputs": [
        {
          "internalType": "address",
          "name": "owner",
          "type": "address"
        }
      ],
      "name": "OwnableInvalidOwner",
      "type": "error"
    },
    {
      "inputs": [
        {
          "internalType": "address",
          "name": "account",
          "type": "address"
        }
      ],
      "name": "OwnableUnauthorizedAccount",
      "type": "error"
    },
    {
      "inputs": [],
      "name": "ReentrancyGuardReentrantCall",
      "type": "error"
    },
    {
      "anonymous": false,
      "inputs": [
        {
          "indexed": true,
          "internalType": "bytes32",
          "name": "htlcId",
          "type": "bytes32"
        },
        {
          "indexed": true,
          "internalType": "address",
          "name": "recipient",
          "type": "address"
        },
        {
          "indexed": false,
          "internalType": "bytes32",
          "name": "secret",
          "type": "bytes32"
        }
      ],
      "name": "HTLCCompleted",
      "type": "event"
    },
    {
      "anonymous": false,
      "inputs": [
        {
          "indexed": true,
          "internalType": "bytes32",
          "name": "htlcId",
          "type": "bytes32"
        },
        {
          "indexed": true,
          "internalType": "address",
          "name": "sender",
          "type": "address"
        },
        {
          "indexed": true,
          "internalType": "address",
          "name": "recipient",
          "type": "address"
        },
        {
          "indexed": false,
          "internalType": "string",
          "name": "solanaAddress",
          "type": "string"
        },
        {
          "indexed": false,
          "internalType": "uint256",
          "name": "amount",
          "type": "uint256"
        },
        {
          "indexed": false,
          "internalType": "bytes32",
          "name": "secretHash",
          "type": "bytes32"
        },
        {
          "indexed": false,
          "internalType": "uint256",
          "name": "timelock",
          "type": "uint256"
        }
      ],
      "name": "HTLCCreated",
      "type": "event"
    },
    {
      "anonymous": false,
      "inputs": [
        {
          "indexed": true,
          "internalType": "bytes32",
          "name": "htlcId",
          "type": "bytes32"
        },
        {
          "indexed": true,
          "internalType": "address",
          "name": "sender",
          "type": "address"
        }
      ],
      "name": "HTLCRefunded",
      "type": "event"
    },
    {
      "anonymous": false,
      "inputs": [
        {
          "indexed": true,
          "internalType": "address",
          "name": "previousOwner",
          "type": "address"
        },
        {
          "indexed": true,
          "internalType": "address",
          "name": "newOwner",
          "type": "address"
        }
      ],
      "name": "OwnershipTransferred",
      "type": "event"
    },
    {
      "inputs": [
        {
          "internalType": "bytes32",
          "name": "htlcId",
          "type": "bytes32"
        },
        {
          "internalType": "bytes32",
          "name": "secret",
          "type": "bytes32"
        }
      ],
      "name": "completeHTLC",
      "outputs": [],
      "stateMutability": "nonpayable",
      "type": "function"
    },
    {
      "inputs": [
        {
          "internalType": "address",
          "name": "recipient",
          "type": "address"
        },
        {
          "internalType": "string",
          "name": "solanaAddress",
          "type": "string"
        },
        {
          "internalType": "bytes32",
          "name": "secretHash",
          "type": "bytes32"
        },
        {
          "internalType": "uint256",
          "name": "timelock",
          "type": "uint256"
        }
      ],
      "name": "createHTLC",
      "outputs": [],
      "stateMutability": "payable",
      "type": "function"
    },
    {
      "inputs": [],
      "name": "emergencyWithdraw",
      "outputs": [],
      "stateMutability": "nonpayable",
      "type": "function"
    },
    {
      "inputs": [
        {
          "internalType": "bytes32",
          "name": "htlcId",
          "type": "bytes32"
        }
      ],
      "name": "getHTLC",
      "outputs": [
        {
          "components": [
            {
              "internalType": "address",
              "name": "sender",
              "type": "address"
            },
            {
              "internalType": "address",
              "name": "recipient",
              "type": "address"
            },
            {
              "internalType": "string",
              "name": "solanaAddress",
              "type": "string"
            },
            {
              "internalType": "uint256",
              "name": "amount",
              "type": "uint256"
            },
            {
              "internalType": "bytes32",
              "name": "secretHash",
              "type": "bytes32"
            },
            {
              "internalType": "uint256",
              "name": "timelock",
              "type": "uint256"
            },
            {
              "internalType": "bool",
              "name": "isActive",
              "type": "bool"
            },
            {
              "internalType": "bool",
              "name": "isCompleted",
              "type": "bool"
            },
            {
              "internalType": "bool",
              "name": "isRefunded",
              "type": "bool"
            }
          ],
          "internalType": "struct SolanaHTLC.HTLC",
          "name": "",
          "type": "tuple"
        }
      ],
      "stateMutability": "view",
      "type": "function"
    },
    {
      "inputs": [
        {
          "internalType": "bytes32",
          "name": "htlcId",
          "type": "bytes32"
        }
      ],
      "name": "htlcExistsCheck",
      "outputs": [
        {
          "internalType": "bool",
          "name": "",
          "type": "bool"
        }
      ],
      "stateMutability": "view",
      "type": "function"
    },
    {
      "inputs": [
        {
          "internalType": "bytes32",
          "name": "",
          "type": "bytes32"
        }
      ],
      "name": "htlcExistsMap",
      "outputs": [
        {
          "internalType": "bool",
          "name": "",
          "type": "bool"
        }
      ],
      "stateMutability": "view",
      "type": "function"
    },
    {
      "inputs": [
        {
          "internalType": "bytes32",
          "name": "",
          "type": "bytes32"
        }
      ],
      "name": "htlcMap",
      "outputs": [
        {
          "internalType": "address",
          "name": "sender",
          "type": "address"
        },
        {
          "internalType": "address",
          "name": "recipient",
          "type": "address"
        },
        {
          "internalType": "string",
          "name": "solanaAddress",
          "type": "string"
        },
        {
          "internalType": "uint256",
          "name": "amount",
          "type": "uint256"
        },
        {
          "internalType": "bytes32",
          "name": "secretHash",
          "type": "bytes32"
        },
        {
          "internalType": "uint256",
          "name": "timelock",
          "type": "uint256"
        },
        {
          "internalType": "bool",
          "name": "isActive",
          "type": "bool"
        },
        {
          "internalType": "bool",
          "name": "isCompleted",
          "type": "bool"
        },
        {
          "internalType": "bool",
          "name": "isRefunded",
          "type": "bool"
        }
      ],
      "stateMutability": "view",
      "type": "function"
    },
    {
      "inputs": [],
      "name": "owner",
      "outputs": [
        {
          "internalType": "address",
          "name": "",
          "type": "address"
        }
      ],
      "stateMutability": "view",
      "type": "function"
    },
    {
      "inputs": [
        {
          "internalType": "bytes32",
          "name": "htlcId",
          "type": "bytes32"
        }
      ],
      "name": "refundHTLC",
      "outputs": [],
      "stateMutability": "nonpayable",
      "type": "function"
    },
    {
      "inputs": [],
      "name": "renounceOwnership",
      "outputs": [],
      "stateMutability": "nonpayable",
      "type": "function"
    },
    {
      "inputs": [
        {
          "internalType": "address",
          "name": "newOwner",
          "type": "address"
        }
      ],
      "name": "transferOwnership",
      "outputs": [],
      "stateMutability": "nonpayable",
      "type": "function"
    },
    {
      "stateMutability": "payable",
      "type": "receive"
    }
  ],
  "bytecode": "0x6080806040523461007e5733156100685760008054336001600160a01b03198216811783556040519290916001600160a01b0316907f8be0079c531659141344cd1fd0a4f28419497f9722a3daafe3b4186f6b6457e09080a3600180556110d790816100848239f35b631e4fbdf760e01b815260006004820152602490fd5b600080fdfe6080604052600436101561001b575b361561001957600080fd5b005b60003560e01c80631e8de7ac1461085557806334f1f2c91461069c57806343b920c5146106cd5780634962130b1461069c57806366aa428414610489578063715018a6146104305780638da5cb5b1461040757806390c268381461028e578063ad177cf2146101de578063db2e21bc146101275763f2fde38b0361000e5734610122576020366003190112610122576100b2610d3f565b6100ba610ed8565b6001600160a01b0390811690811561010957600054826001600160601b0360a01b821617600055167f8be0079c531659141344cd1fd0a4f28419497f9722a3daafe3b4186f6b6457e0600080a3005b604051631e4fbdf760e01b815260006004820152602490fd5b600080fd5b3461012257600036600319011261012257610140610ed8565b4780156101a25760008080809360018060a01b038254165af1610161611033565b501561016957005b60405162461bcd60e51b815260206004820152601160248201527015da5d1a191c985dd85b0819985a5b1959607a1b6044820152606490fd5b60405162461bcd60e51b81526020600482015260146024820152734e6f2066756e647320746f20776974686472617760601b6044820152606490fd5b34610122576020366003190112610122576004356000526002602052604060002060018060a01b0380825416906001830154169160ff61022060028301610e32565b60038301549260048101546102576006600584015493015493604051988998895260208901526101208060408a0152880190610dd3565b946060870152608086015260a0850152818116151560c0850152818160081c16151560e085015260101c1615156101008301520390f35b346101225760208060031936011261012257604051906004356102b083610d55565b60008352600082840152606060408401526000606084015260006080840152600060a0840152600060c0840152600060e0840152600061010080940152806000526003825261030660ff60406000205416610f27565b600052600281526040600020916040519261032084610d55565b80546001600160a01b03908116855260018201548116848601908152909261034a60028401610e32565b91604087019283526003840154946060880195865260048501549460808901958652600660058201549160a08b0192835201549460c08a019260ff87161515845260e08b019460ff8860081c161515865260ff878d019860101c16151588528a826040519d8e9d8e525116908c0152511660408a015251956103da610120978860608c01526101408b0190610dd3565b975160808a01525160a08901525160c088015251151560e087015251151590850152511515908301520390f35b34610122576000366003190112610122576000546040516001600160a01b039091168152602090f35b3461012257600036600319011261012257610449610ed8565b600080546001600160a01b0319811682556001600160a01b03167f8be0079c531659141344cd1fd0a4f28419497f9722a3daafe3b4186f6b6457e08280a3005b346101225760403660031901126101225760043560243581600052602091600383526104bc60ff60406000205416610f27565b80600052600283526104d860ff60066040600020015416610f69565b8060005260028352600560406000200154421015610664576104f8610f04565b80600052600283526040600020926001840160018060a01b039081815416958633036106215760405184810190878252858152604081019181831067ffffffffffffffff84111761060b5782604052815190206004840154036105da57505060008080807f4f7b64bef129d9a1cda3d9dd8adf8d7c0660eba7aea205aea4802ed9de7c32da98999a60038660066105ca9801610100815461059f60ff8260081c1615610faa565b6105af60ff8260101c1615610fef565b61ffff19161790550154905af16105c4611033565b50611063565b541693604051908152a360018055005b906d125b9d985b1a59081cd958dc995d60921b60846064938862461bcd60e51b85526044820152600e858201520152fd5b634e487b7160e01b600052604160045260246000fd5b6064846040519062461bcd60e51b825280600483015260248201527f4f6e6c7920726563697069656e742063616e20636f6d706c6574652048544c436044820152fd5b60405162461bcd60e51b815260048101849052601060248201526f12151310c81a185cc8195e1c1a5c995960821b6044820152606490fd5b34610122576020366003190112610122576004356000526003602052602060ff604060002054166040519015158152f35b3461012257602080600319360112610122576004359081600052600381526106fc60ff60406000205416610f27565b816000526002815261071860ff60066040600020015416610f69565b8160005260028152600560406000200154421061081a57610737610f04565b6000828152600282526040902080546001600160a01b039290831690338290036107d6575060008080806107a8946006870162010000815461077f60ff8260081c1615610faa565b61078f60ff8260101c1615610fef565b62ff00ff19161790556003870154905af16105c4611033565b5416907f19438ba24f558efe29e176888dc45d354fa6ca8f049af37592767f6534f32eb0600080a360018055005b6064906040519062461bcd60e51b82526004820152601b60248201527f4f6e6c792073656e6465722063616e20726566756e642048544c4300000000006044820152fd5b6064906040519062461bcd60e51b82526004820152601460248201527312151310c81a185cc81b9bdd08195e1c1a5c995960621b6044820152fd5b608036600319011261012257610869610d3f565b6024359067ffffffffffffffff821161012257366023830112156101225781600401359161089683610d94565b926108a46040519485610d72565b8084526020840191366024838301011161012257816000926024602093018537850101526108d0610f04565b3415610cfa576001600160a01b03821615610cc157426064351115610c7c57825115610c3e5760405161095a60c88260208101943360601b86526001600160601b03198760601b16603483015261092e885180926048850190610db0565b8101346048820152604435606882015260643560888201524260a88201520360a8810184520182610d72565b51902080600052600360205260ff60406000205416610c035760405161097f81610d55565b33815260018060a01b0383166020820152836040820152346060820152604435608082015260643560a0820152600160c0820152600060e08201526000610100820152816000526002602052604060002060018060a01b038251166001600160601b0360a01b9081835416178255600182019060018060a01b0360208501511690825416179055604082015180519067ffffffffffffffff821161060b57610a2a6002840154610df8565b601f8111610bbc575b50602090601f8311600114610b4957600693929160009183610b3e575b50508160011b916000199060031b1c19161760028201555b606083015160038201556080830151600482015560a08301516005820155019060c0810151151590825460ff62ff000061010061ff0060e0860151151560081b16940151151560101b1693169062ffffff191617171790558060005260036020526040600020600160ff198254161790557fdad4391ca68117fba6ece1d1f072c1e9889ba1e5a9444ccd66fca772c39fe26f610b0f60405194608086526080860190610dd3565b346020860152604435604086015260643560608601526001600160a01b0390931693339381900390a460018055005b015190508880610a50565b906002840160005260206000209160005b601f1985168110610ba4575091839160019360069695601f19811610610b8b575b505050811b016002820155610a68565b015160001960f88460031b161c19169055888080610b7b565b91926020600181928685015181550194019201610b5a565b600284016000526020600020601f840160051c810160208510610bfc575b601f830160051c82018110610bf0575050610a33565b60008155600101610bda565b5080610bda565b60405162461bcd60e51b815260206004820152601360248201527248544c4320616c72656164792065786973747360681b6044820152606490fd5b60405162461bcd60e51b8152602060048201526016602482015275496e76616c696420536f6c616e61206164647265737360501b6044820152606490fd5b60405162461bcd60e51b815260206004820152601e60248201527f54696d656c6f636b206d75737420626520696e207468652066757475726500006044820152606490fd5b60405162461bcd60e51b8152602060048201526011602482015270125b9d985b1a59081c9958da5c1a595b9d607a1b6044820152606490fd5b60405162461bcd60e51b815260206004820152601d60248201527f416d6f756e74206d7573742062652067726561746572207468616e20300000006044820152606490fd5b600435906001600160a01b038216820361012257565b610120810190811067ffffffffffffffff82111761060b57604052565b90601f8019910116810190811067ffffffffffffffff82111761060b57604052565b67ffffffffffffffff811161060b57601f01601f191660200190565b60005b838110610dc35750506000910152565b8181015183820152602001610db3565b90602091610dec81518092818552858086019101610db0565b601f01601f1916010190565b90600182811c92168015610e28575b6020831014610e1257565b634e487b7160e01b600052602260045260246000fd5b91607f1691610e07565b9060405191826000825492610e4684610df8565b908184526001948581169081600014610eb55750600114610e72575b5050610e7092500383610d72565b565b9093915060005260209081600020936000915b818310610e9d575050610e7093508201013880610e62565b85548884018501529485019487945091830191610e85565b915050610e7094506020925060ff191682840152151560051b8201013880610e62565b6000546001600160a01b03163303610eec57565b60405163118cdaa760e01b8152336004820152602490fd5b600260015414610f15576002600155565b604051633ee5aeb560e01b8152600490fd5b15610f2e57565b60405162461bcd60e51b815260206004820152601360248201527212151310c8191bd95cc81b9bdd08195e1a5cdd606a1b6044820152606490fd5b15610f7057565b60405162461bcd60e51b815260206004820152601260248201527148544c43206973206e6f742061637469766560701b6044820152606490fd5b15610fb157565b60405162461bcd60e51b815260206004820152601660248201527512151310c8185b1c9958591e4818dbdb5c1b195d195960521b6044820152606490fd5b15610ff657565b60405162461bcd60e51b815260206004820152601560248201527412151310c8185b1c9958591e481c99599d5b991959605a1b6044820152606490fd5b3d1561105e573d9061104482610d94565b916110526040519384610d72565b82523d6000602084013e565b606090565b1561106a57565b60405162461bcd60e51b815260206004820152600f60248201526e151c985b9cd9995c8819985a5b1959608a1b6044820152606490fdfea2646970667358221220385dc0b2516cae12f055bab7c3177d51270fda27ba0d36950f3f3583bf1f881564736f6c63430008140033",
  "linkReferences": {},
  "deployedLinkReferences": {}
}