{
  "_format": "hh-sol-artifact-1",
  "contractName": "StellarBridge",
  "sourceName": "contracts/StellarBridge.sol",
  "abi": [
    {
      "inputs": [
        {
          "internalType": "address",
          "name": "_wethToken",
          "type": "address"
        },
        {
          "internalType": "address",
          "name": "_wxlmToken",
          "type": "address"
        }
      ],
      "stateMutability": "nonpayable",
      "type": "constructor"
    },
    {
      "inputs": [
        {
          "internalType": "address",
          "name": "owner",
          "type": "address"
        }
      ],
      "name": "OwnableInvalidOwner",
      "type": "error"
    },
    {
      "inputs": [
        {
          "internalType": "address",
          "name": "account",
          "type": "address"
        }
      ],
      "name": "OwnableUnauthorizedAccount",
      "type": "error"
    },
    {
      "inputs": [],
      "name": "ReentrancyGuardReentrantCall",
      "type": "error"
    },
    {
      "anonymous": false,
      "inputs": [
        {
          "indexed": true,
          "internalType": "bytes32",
          "name": "id",
          "type": "bytes32"
        },
        {
          "indexed": true,
          "internalType": "address",
          "name": "initiator",
          "type": "address"
        },
        {
          "indexed": true,
          "internalType": "string",
          "name": "stellarAddress",
          "type": "string"
        },
        {
          "indexed": false,
          "internalType": "uint256",
          "name": "amount",
          "type": "uint256"
        }
      ],
      "name": "Initiated",
      "type": "event"
    },
    {
      "anonymous": false,
      "inputs": [
        {
          "indexed": true,
          "internalType": "address",
          "name": "previousOwner",
          "type": "address"
        },
        {
          "indexed": true,
          "internalType": "address",
          "name": "newOwner",
          "type": "address"
        }
      ],
      "name": "OwnershipTransferred",
      "type": "event"
    },
    {
      "anonymous": false,
      "inputs": [
        {
          "indexed": true,
          "internalType": "bytes32",
          "name": "id",
          "type": "bytes32"
        },
        {
          "indexed": false,
          "internalType": "bytes32",
          "name": "preimage",
          "type": "bytes32"
        }
      ],
      "name": "Redeemed",
      "type": "event"
    },
    {
      "anonymous": false,
      "inputs": [
        {
          "indexed": true,
          "internalType": "bytes32",
          "name": "id",
          "type": "bytes32"
        }
      ],
      "name": "Refunded",
      "type": "event"
    },
    {
      "anonymous": false,
      "inputs": [
        {
          "indexed": true,
          "internalType": "bytes32",
          "name": "id",
          "type": "bytes32"
        },
        {
          "indexed": false,
          "internalType": "string",
          "name": "stellarTxHash",
          "type": "string"
        }
      ],
      "name": "StellarTransactionConfirmed",
      "type": "event"
    },
    {
      "inputs": [],
      "name": "MAX_BRIDGE_AMOUNT",
      "outputs": [
        {
          "internalType": "uint256",
          "name": "",
          "type": "uint256"
        }
      ],
      "stateMutability": "view",
      "type": "function"
    },
    {
      "inputs": [],
      "name": "MIN_BRIDGE_AMOUNT",
      "outputs": [
        {
          "internalType": "uint256",
          "name": "",
          "type": "uint256"
        }
      ],
      "stateMutability": "view",
      "type": "function"
    },
    {
      "inputs": [],
      "name": "bridgeFee",
      "outputs": [
        {
          "internalType": "uint256",
          "name": "",
          "type": "uint256"
        }
      ],
      "stateMutability": "view",
      "type": "function"
    },
    {
      "inputs": [
        {
          "internalType": "bytes32",
          "name": "id",
          "type": "bytes32"
        },
        {
          "internalType": "string",
          "name": "_stellarTxHash",
          "type": "string"
        }
      ],
      "name": "confirmStellarTransaction",
      "outputs": [],
      "stateMutability": "nonpayable",
      "type": "function"
    },
    {
      "inputs": [],
      "name": "emergencyPause",
      "outputs": [],
      "stateMutability": "nonpayable",
      "type": "function"
    },
    {
      "inputs": [
        {
          "internalType": "address",
          "name": "_token",
          "type": "address"
        },
        {
          "internalType": "uint256",
          "name": "_amount",
          "type": "uint256"
        }
      ],
      "name": "emergencyWithdraw",
      "outputs": [],
      "stateMutability": "nonpayable",
      "type": "function"
    },
    {
      "inputs": [
        {
          "internalType": "bytes32",
          "name": "id",
          "type": "bytes32"
        }
      ],
      "name": "getHtlc",
      "outputs": [
        {
          "internalType": "address",
          "name": "initiator",
          "type": "address"
        },
        {
          "internalType": "string",
          "name": "stellarAddress",
          "type": "string"
        },
        {
          "internalType": "uint256",
          "name": "amount",
          "type": "uint256"
        },
        {
          "internalType": "bytes32",
          "name": "hash",
          "type": "bytes32"
        },
        {
          "internalType": "uint256",
          "name": "timelock",
          "type": "uint256"
        },
        {
          "internalType": "bool",
          "name": "executed",
          "type": "bool"
        },
        {
          "internalType": "bool",
          "name": "refunded",
          "type": "bool"
        },
        {
          "internalType": "bool",
          "name": "stellarConfirmed",
          "type": "bool"
        },
        {
          "internalType": "string",
          "name": "stellarTxHash",
          "type": "string"
        }
      ],
      "stateMutability": "view",
      "type": "function"
    },
    {
      "inputs": [
        {
          "internalType": "bytes32",
          "name": "",
          "type": "bytes32"
        }
      ],
      "name": "htlcs",
      "outputs": [
        {
          "internalType": "address payable",
          "name": "initiator",
          "type": "address"
        },
        {
          "internalType": "string",
          "name": "stellarAddress",
          "type": "string"
        },
        {
          "internalType": "uint256",
          "name": "amount",
          "type": "uint256"
        },
        {
          "internalType": "bytes32",
          "name": "hash",
          "type": "bytes32"
        },
        {
          "internalType": "uint256",
          "name": "timelock",
          "type": "uint256"
        },
        {
          "internalType": "bool",
          "name": "executed",
          "type": "bool"
        },
        {
          "internalType": "bool",
          "name": "refunded",
          "type": "bool"
        },
        {
          "internalType": "bool",
          "name": "stellarConfirmed",
          "type": "bool"
        },
        {
          "internalType": "string",
          "name": "stellarTxHash",
          "type": "string"
        }
      ],
      "stateMutability": "view",
      "type": "function"
    },
    {
      "inputs": [
        {
          "internalType": "bytes32",
          "name": "id",
          "type": "bytes32"
        },
        {
          "internalType": "address payable",
          "name": "_ethereumAddress",
          "type": "address"
        },
        {
          "internalType": "uint256",
          "name": "_amount",
          "type": "uint256"
        },
        {
          "internalType": "bytes32",
          "name": "_hash",
          "type": "bytes32"
        },
        {
          "internalType": "uint256",
          "name": "_timelock",
          "type": "uint256"
        }
      ],
      "name": "initiateFromStellar",
      "outputs": [],
      "stateMutability": "nonpayable",
      "type": "function"
    },
    {
      "inputs": [
        {
          "internalType": "bytes32",
          "name": "id",
          "type": "bytes32"
        },
        {
          "internalType": "string",
          "name": "_stellarAddress",
          "type": "string"
        },
        {
          "internalType": "bytes32",
          "name": "_hash",
          "type": "bytes32"
        },
        {
          "internalType": "uint256",
          "name": "_timelock",
          "type": "uint256"
        }
      ],
      "name": "initiateToStellar",
      "outputs": [],
      "stateMutability": "payable",
      "type": "function"
    },
    {
      "inputs": [
        {
          "internalType": "bytes32",
          "name": "id",
          "type": "bytes32"
        }
      ],
      "name": "isValidHtlc",
      "outputs": [
        {
          "internalType": "bool",
          "name": "",
          "type": "bool"
        }
      ],
      "stateMutability": "view",
      "type": "function"
    },
    {
      "inputs": [],
      "name": "owner",
      "outputs": [
        {
          "internalType": "address",
          "name": "",
          "type": "address"
        }
      ],
      "stateMutability": "view",
      "type": "function"
    },
    {
      "inputs": [
        {
          "internalType": "bytes32",
          "name": "id",
          "type": "bytes32"
        },
        {
          "internalType": "bytes",
          "name": "_preimage",
          "type": "bytes"
        }
      ],
      "name": "redeem",
      "outputs": [],
      "stateMutability": "nonpayable",
      "type": "function"
    },
    {
      "inputs": [
        {
          "internalType": "bytes32",
          "name": "id",
          "type": "bytes32"
        }
      ],
      "name": "refund",
      "outputs": [],
      "stateMutability": "nonpayable",
      "type": "function"
    },
    {
      "inputs": [],
      "name": "renounceOwnership",
      "outputs": [],
      "stateMutability": "nonpayable",
      "type": "function"
    },
    {
      "inputs": [],
      "name": "stellarNetwork",
      "outputs": [
        {
          "internalType": "string",
          "name": "",
          "type": "string"
        }
      ],
      "stateMutability": "view",
      "type": "function"
    },
    {
      "inputs": [],
      "name": "stellarSequenceNumber",
      "outputs": [
        {
          "internalType": "uint256",
          "name": "",
          "type": "uint256"
        }
      ],
      "stateMutability": "view",
      "type": "function"
    },
    {
      "inputs": [
        {
          "internalType": "address",
          "name": "newOwner",
          "type": "address"
        }
      ],
      "name": "transferOwnership",
      "outputs": [],
      "stateMutability": "nonpayable",
      "type": "function"
    },
    {
      "inputs": [
        {
          "internalType": "uint256",
          "name": "_newFee",
          "type": "uint256"
        }
      ],
      "name": "updateBridgeFee",
      "outputs": [],
      "stateMutability": "nonpayable",
      "type": "function"
    },
    {
      "inputs": [
        {
          "internalType": "string",
          "name": "_network",
          "type": "string"
        }
      ],
      "name": "updateStellarNetwork",
      "outputs": [],
      "stateMutability": "nonpayable",
      "type": "function"
    },
    {
      "inputs": [
        {
          "internalType": "string",
          "name": "_stellarAddress",
          "type": "string"
        }
      ],
      "name": "validateStellarAddress",
      "outputs": [
        {
          "internalType": "bool",
          "name": "",
          "type": "bool"
        }
      ],
      "stateMutability": "pure",
      "type": "function"
    },
    {
      "inputs": [],
      "name": "wethToken",
      "outputs": [
        {
          "internalType": "contract IERC20",
          "name": "",
          "type": "address"
        }
      ],
      "stateMutability": "view",
      "type": "function"
    },
    {
      "inputs": [],
      "name": "withdrawFees",
      "outputs": [],
      "stateMutability": "nonpayable",
      "type": "function"
    },
    {
      "inputs": [],
      "name": "wxlmToken",
      "outputs": [
        {
          "internalType": "contract IERC20",
          "name": "",
          "type": "address"
        }
      ],
      "stateMutability": "view",
      "type": "function"
    },
    {
      "stateMutability": "payable",
      "type": "receive"
    }
  ],
  "bytecode": "0x60c034620001bf57601f6200226638819003918201601f19168301916001600160401b03831184841017620001c4578084926040948552833981010312620001bf576200005a60206200005283620001da565b9201620001da565b906001916000918383553315620001a6578354336001600160a01b0319821681178655604051956001600160a01b03959290919086167f8be0079c531659141344cd1fd0a4f28419497f9722a3daafe3b4186f6b6457e08480a366038d7ea4c680006003556004548181811c911680156200019b575b602082101462000187579081601f87959493116200013a575b5050600c657075626c696360d01b01600455600555166080521660a0526120769081620001f082396080518161119d015260a05181818161013d015281816102d00152818161058b0152610f920152f35b60048352601f0160051c7f8a35acfbc15ff81a39ae7d344fd709f28e8600b4aa8c65c6b64bfe7fe36bd19b908101905b818110620001795750620000e9565b83815587955082016200016a565b634e487b7160e01b83526022600452602483fd5b90607f1690620000d0565b604051631e4fbdf760e01b815260048101849052602490fd5b600080fd5b634e487b7160e01b600052604160045260246000fd5b51906001600160a01b0382168203620001bf5756fe6080604052600436101561001b575b361561001957600080fd5b005b60003560e01c80620111a41461157f578063089c0aa41461152257806319304e25146114b8578063470fb6261461125a578063476343ee146111cc5780634b57b0be1461118757806351858e271461116e5780635a1c0366146110fa578063715018a61461109d5780637249fbb614610e855780637fce000214610e6157806382b12dd714610e43578063886688c114610e215780638da5cb5b14610df857806391edd8f214610d3a57806395ccea6714610cbd578063acaa825514610c9f578063acdea6ad14610a26578063bd585a5c14610940578063e3294ccd146104c3578063eb6ad24e1461047e578063f2fde38b146103f5578063f7ff7207146101715763fcb6dc6e0361000e573461016c57600036600319011261016c576040517f00000000000000000000000000000000000000000000000000000000000000006001600160a01b03168152602090f35b600080fd5b3461016c5761017f36611b3d565b90610188611df3565b826000526020906002825260406000209060058201908154946101ae60ff871615611e7a565b6101be60ff8760081c1615611ed2565b60048401544210156103a45761020585926000926101f48560405183819483830196873781018783820152038084520182611a60565b60405192839283925192839161198c565b8101039060025afa1561028a5760005193600383019485540361035f5760019060ff191617905561023960018201546119d4565b1561029f5760008080600281940154818115610296575b3390f11561028a577f489e9ee921192823d1aa1ef800c9ffc642993538b1e7e43a4d46a91965e894ab915b54604051908152a26001600055005b6040513d6000823e3d90fd5b506108fc610250565b6002015460405163a9059cbb60e01b8152336004820152602481019190915291818360448160006001600160a01b037f0000000000000000000000000000000000000000000000000000000000000000165af192831561028a577f489e9ee921192823d1aa1ef800c9ffc642993538b1e7e43a4d46a91965e894ab9361032d91600091610332575b50611e2e565b61027b565b6103529150843d8611610358575b61034a8183611a60565b810190611e16565b86610327565b503d610340565b60405162461bcd60e51b815260048101859052601f60248201527f5374656c6c61724272696467653a20696e76616c696420707265696d616765006044820152606490fd5b60405162461bcd60e51b815260048101869052602360248201527f5374656c6c61724272696467653a2074696d656c6f636b2068617320657870696044820152621c995960ea1b6064820152608490fd5b3461016c57602036600319011261016c5761040e611b27565b610416611b70565b6001600160a01b0390811690811561046557600154826001600160601b0360a01b821617600155167f8be0079c531659141344cd1fd0a4f28419497f9722a3daafe3b4186f6b6457e0600080a3005b604051631e4fbdf760e01b815260006004820152602490fd5b3461016c57602036600319011261016c576004356001600160401b03811161016c576104b96104b3602092369060040161195f565b90611f2a565b6040519015158152f35b3461016c5760a036600319011261016c576024356001600160a01b038181169182900361016c5760643591608435906104fa611df3565b6004356000526002602052610516836040600020541615611b9c565b61052b662386f26fc100006044351015611c00565b610542683635c9adc5dea000006044351115611c4c565b156108eb57610552831515611c98565b61055f610e108211611ce4565b6040516323b872dd60e01b815233600482015230602482015260448035908201529060208260648160007f000000000000000000000000000000000000000000000000000000000000000088165af191821561028a576105d0926105ca916000916108d25750611e2e565b42611d4c565b91604051926105de84611a0e565b338452604051916105ee83611a2a565b6000835260208501928352604435604086015260608501526080840152600060a0840152600060c0840152600060e084015260405161062c81611a2a565b6000815261010084015260043560005260026020526040600020918351166001600160601b0360a01b835416178255518051906001600160401b03821161083b576106878261067e60018601546119d4565b60018601611d9f565b602090601f831160011461085c5791806101009492600694600092610851575b50508160011b916000199060031b1c19161760018201555b6040840151600282015560608401516003820155608084015160048201556107366005820161070060a08701511515829060ff801983541691151516179055565b60c0860151815461ff00191690151560081b61ff001617815560e0860151815462ff0000191690151560101b62ff000016179055565b019101519081516001600160401b03811161083b5761075f8161075984546119d4565b84611d9f565b602092601f82116001146107d757928192936000926107cc575b50508160011b916000199060031b1c19161790555b6040516000802090604435815233907f2a241314f1721916d74a645f65e364f43169e7aa07961dc76ae071f3b911cf59602060043592a46001600055005b015190508380610779565b601f198216938360005260206000209160005b868110610823575083600195961061080a575b505050811b01905561078e565b015160001960f88460031b161c191690558380806107fd565b919260206001819286850151815501940192016107ea565b634e487b7160e01b600052604160045260246000fd5b0151905086806106a7565b906001840160005260206000209160005b601f19851681106108ba575092610100949260019260069583601f198116106108a1575b505050811b0160018201556106bf565b015160001960f88460031b161c19169055868080610891565b9192602060018192868501518155019401920161086d565b610352915060203d6020116103585761034a8183611a60565b60405162461bcd60e51b815260206004820152602760248201527f5374656c6c61724272696467653a20696e76616c696420457468657265756d206044820152666164647265737360c81b6064820152608490fd5b3461016c57600036600319011261016c576040516000600454610962816119d4565b808452906001908181169081156109ff57506001146109a4575b6109a08461098c81860382611a60565b6040519182916020835260208301906119af565b0390f35b6004600090815292507f8a35acfbc15ff81a39ae7d344fd709f28e8600b4aa8c65c6b64bfe7fe36bd19b5b8284106109e757505050810160200161098c8261097c565b805460208587018101919091529093019281016109cf565b60ff191660208087019190915292151560051b8501909201925061098c915083905061097c565b3461016c57610a3436611b3d565b90610a3d611b70565b8260005260209060028252604060002060018060a01b0381541615610c4f5760058101805460ff8160101c16610c0c578515610bb75762ff00001916620100001790556006016001600160401b03841161083b57610aa584610a9f83546119d4565b83611d9f565b6000601f8511600114610b2a579380604093819593827f7b458edfb4d0a1eb2788cee32a1416442796661a685c60eaa574e969d29ffcf298600091610b1f575b508360011b906000198560031b1c19161790555b8451958487958652850152848401376000828201840152601f01601f19168101030190a2005b90508201358a610ae5565b601f1985169082600052846000209160005b818110610ba0575093869593869384937f7b458edfb4d0a1eb2788cee32a1416442796661a685c60eaa574e969d29ffcf29960409810610b86575b5050600183811b019055610af9565b830135600019600386901b60f8161c191690558980610b77565b919286600181928689013581550194019201610b3c565b60405162461bcd60e51b815260048101869052602760248201527f5374656c6c61724272696467653a20696e76616c6964207472616e73616374696044820152660dedc40d0c2e6d60cb1b6064820152608490fd5b6064856040519062461bcd60e51b825280600483015260248201527f5374656c6c61724272696467653a20616c726561647920636f6e6669726d65646044820152fd5b60405162461bcd60e51b815260048101849052602260248201527f5374656c6c61724272696467653a2048544c4320646f6573206e6f74206578696044820152611cdd60f21b6064820152608490fd5b3461016c57600036600319011261016c576020600554604051908152f35b3461016c57604036600319011261016c57610cd6611b27565b610cde611b70565b60015460405163a9059cbb60e01b81526001600160a01b03918216600482015260248035908201529160209183916044918391600091165af1801561028a57610d2357005b6100199060203d81116103585761034a8183611a60565b3461016c57602036600319011261016c57600435600090815260026020526040902080546001600160a01b03166109a0610d7660018401611a81565b9260028101549060ff6003820154916004810154610d9b600660058401549301611a81565b93610db8604051998a998a526101208060208c01528a01906119af565b95604089015260608801526080870152818116151560a0870152818160081c16151560c087015260101c16151560e08501528382036101008501526119af565b3461016c57600036600319011261016c576001546040516001600160a01b039091168152602090f35b3461016c57600036600319011261016c576020604051662386f26fc100008152f35b3461016c57600036600319011261016c576020600354604051908152f35b3461016c57600036600319011261016c57602060405168056bc75e2d631000008152f35b3461016c5760208060031936011261016c5760043590610ea3611df3565b60008281526002825260409020805490916001600160a01b0391821633810361104557600584018054610ed960ff821615611e7a565b610ee960ff8260081c1615611ed2565b60048601544210610ff05761ff0019166101001790556001840154610f0d906119d4565b15610f695750506000808360028295948395541691015490828215610f60575bf11561028a575b7ffe509803c09416b28ff3d8f690c8b0c61462a892c46d5430c8fb20abe472daf0600080a26001600055005b506108fc610f2d565b6044600283950154916000604051958694859363a9059cbb60e01b8552600485015260248401527f0000000000000000000000000000000000000000000000000000000000000000165af190811561028a57610fce92600092610fd3575b5050611e2e565b610f34565b610fe99250803d106103585761034a8183611a60565b8380610fc7565b60405162461bcd60e51b815260048101859052602760248201527f5374656c6c61724272696467653a2074696d656c6f636b20686173206e6f7420604482015266195e1c1a5c995960ca1b6064820152608490fd5b60405162461bcd60e51b815260048101839052602a60248201527f5374656c6c61724272696467653a2063616c6c6572206973206e6f74207468656044820152691034b734ba34b0ba37b960b11b6064820152608490fd5b3461016c57600036600319011261016c576110b6611b70565b600180546001600160a01b031981169091556000906001600160a01b03167f8be0079c531659141344cd1fd0a4f28419497f9722a3daafe3b4186f6b6457e08280a3005b3461016c57602036600319011261016c57600435611116611b70565b662386f26fc10000811161112957600355005b60405162461bcd60e51b815260206004820152601b60248201527f5374656c6c61724272696467653a2066656520746f6f206869676800000000006044820152606490fd5b3461016c57600036600319011261016c57610019611b70565b3461016c57600036600319011261016c576040517f00000000000000000000000000000000000000000000000000000000000000006001600160a01b03168152602090f35b3461016c57600036600319011261016c576111e5611b70565b47801561120a576001546000918291829182916001600160a01b031682f11561028a57005b60405162461bcd60e51b815260206004820152602260248201527f5374656c6c61724272696467653a206e6f206665657320746f20776974686472604482015261617760f01b6064820152608490fd5b3461016c5760208060031936011261016c576001600160401b0360043581811161016c5761128c90369060040161195f565b91611295611b70565b60405184810190848483376112b98682878101600083820152038084520182611a60565b51902060405185810190657075626c696360d01b8252600681526112dc81611a45565b519020148015611466575b1561142157821161083b576112fd6004546119d4565b601f81116113c2575b50600092601f8311600114611345575091819260009261133a575b5050600019600383901b1c191660019190911b17600455005b013590508280611321565b601f198316937f8a35acfbc15ff81a39ae7d344fd709f28e8600b4aa8c65c6b64bfe7fe36bd19b92916000905b8682106113aa5750508360019510611390575b505050811b01600455005b0135600019600384901b60f8161c19169055828080611385565b80600184968294958701358155019501920190611372565b7f8a35acfbc15ff81a39ae7d344fd709f28e8600b4aa8c65c6b64bfe7fe36bd19b601f840160051c810191858510611417575b601f0160051c01905b81811061140b5750611306565b600081556001016113fe565b90915081906113f5565b60405162461bcd60e51b815260048101859052601e60248201527f5374656c6c61724272696467653a20696e76616c6964206e6574776f726b00006044820152606490fd5b50604051848101908484833761148b8682878101600083820152038084520182611a60565b51902060405185810190661d195cdd1b995d60ca1b8252600781526114af81611a45565b519020146112e7565b3461016c57602036600319011261016c5760043560005260026020526020604060002060018060a01b0381541615159081611512575b816114ff575b506040519015158152f35b60ff91506005015460081c1615826114f4565b600581015460ff161591506114ee565b3461016c57602036600319011261016c576004356000526002602052604060002060018060a01b038154166109a06002830154600384015460ff6004860154600587015490610d9b600661157860018b01611a81565b9901611a81565b608036600319011261016c576024356001600160401b03811161016c576115aa90369060040161195f565b606435916115b6611df3565b6004356000908152600260205260409020546115db906001600160a01b031615611b9c565b6115ee662386f26fc10000341015611c00565b61160368056bc75e2d63100000341115611c4c565b811561190b576116166044351515611c98565b611623610e108411611ce4565b6003543403923484116118f55761163a9042611d4c565b6040519061164782611a0e565b338252611655368585611d59565b602083015284604083015260443560608301526080820152600060a0820152600060c0820152600060e082015260405161168e81611a2a565b600081526101008201526004356000526002602052604060002060018060a01b038251166001600160601b0360a01b82541617815560208201518051906001600160401b03821161083b576116ea8261067e60018601546119d4565b602090601f831160011461187f5791806101009492600694600092611874575b50508160011b916000199060031b1c19161760018201555b6040840151600282015560608401516003820155608084015160048201556117636005820161070060a08701511515829060ff801983541691151516179055565b019101518051906001600160401b03821161083b57819061178e8261178886546119d4565b86611d9f565b602090601f831160011461180e57600092611803575b50508160011b916000199060031b1c19161790555b8160405192839283378101600081520390209060405190815233907f2a241314f1721916d74a645f65e364f43169e7aa07961dc76ae071f3b911cf59602060043592a46001600055005b0151905086806117a4565b6000858152602081209350601f198516905b81811061185c5750908460019594939210611843575b505050811b0190556117b9565b015160001960f88460031b161c19169055868080611836565b92936020600181928786015181550195019301611820565b01519050898061170a565b906001840160005260206000209160005b601f19851681106118dd575092610100949260019260069583601f198116106118c4575b505050811b016001820155611722565b015160001960f88460031b161c191690558980806118b4565b91926020600181928685015181550194019201611890565b634e487b7160e01b600052601160045260246000fd5b60405162461bcd60e51b815260206004820152602660248201527f5374656c6c61724272696467653a20696e76616c6964205374656c6c6172206160448201526564647265737360d01b6064820152608490fd5b9181601f8401121561016c578235916001600160401b03831161016c576020838186019501011161016c57565b60005b83811061199f5750506000910152565b818101518382015260200161198f565b906020916119c88151809281855285808601910161198c565b601f01601f1916010190565b90600182811c92168015611a04575b60208310146119ee57565b634e487b7160e01b600052602260045260246000fd5b91607f16916119e3565b61012081019081106001600160401b0382111761083b57604052565b602081019081106001600160401b0382111761083b57604052565b604081019081106001600160401b0382111761083b57604052565b90601f801991011681019081106001600160401b0382111761083b57604052565b9060405191826000825492611a95846119d4565b908184526001948581169081600014611b045750600114611ac1575b5050611abf92500383611a60565b565b9093915060005260209081600020936000915b818310611aec575050611abf93508201013880611ab1565b85548884018501529485019487945091830191611ad4565b915050611abf94506020925060ff191682840152151560051b8201013880611ab1565b600435906001600160a01b038216820361016c57565b90604060031983011261016c5760043591602435906001600160401b03821161016c57611b6c9160040161195f565b9091565b6001546001600160a01b03163303611b8457565b60405163118cdaa760e01b8152336004820152602490fd5b15611ba357565b60405162461bcd60e51b815260206004820152602f60248201527f5374656c6c61724272696467653a20737761702077697468207468697320696460448201526e20616c72656164792065786973747360881b6064820152608490fd5b15611c0757565b60405162461bcd60e51b815260206004820152601d60248201527f5374656c6c61724272696467653a20616d6f756e7420746f6f206c6f770000006044820152606490fd5b15611c5357565b60405162461bcd60e51b815260206004820152601e60248201527f5374656c6c61724272696467653a20616d6f756e7420746f6f206869676800006044820152606490fd5b15611c9f57565b60405162461bcd60e51b815260206004820152601b60248201527f5374656c6c61724272696467653a20696e76616c6964206861736800000000006044820152606490fd5b15611ceb57565b60405162461bcd60e51b815260206004820152603360248201527f5374656c6c61724272696467653a2074696d656c6f636b206d7573742062652060448201527233b932b0ba32b9103a3430b71018903437bab960691b6064820152608490fd5b919082018092116118f557565b9291926001600160401b03821161083b5760405191611d82601f8201601f191660200184611a60565b82948184528183011161016c578281602093846000960137010152565b90601f8111611dad57505050565b600091825260208220906020601f850160051c83019410611de9575b601f0160051c01915b828110611dde57505050565b818155600101611dd2565b9092508290611dc9565b600260005414611e04576002600055565b604051633ee5aeb560e01b8152600490fd5b9081602091031261016c5751801515810361016c5790565b15611e3557565b60405162461bcd60e51b815260206004820152601e60248201527f5374656c6c61724272696467653a207472616e73666572206661696c656400006044820152606490fd5b15611e8157565b60405162461bcd60e51b8152602060048201526024808201527f5374656c6c61724272696467653a207377617020616c726561647920657865636044820152631d5d195960e21b6064820152608490fd5b15611ed957565b60405162461bcd60e51b8152602060048201526024808201527f5374656c6c61724272696467653a207377617020616c726561647920726566756044820152631b99195960e21b6064820152608490fd5b611f35913691611d59565b90815160388103611fee571561201057602082810180516001600160f81b0319908116604760f81b1415919082612026575b82611ff5575b5050611fee5760005b8351811015611fe65781818501015160f81c60418110159081611fda575b8115611fba575b5015611fb25760001981146118f557600101611f76565b506000925050565b6032811015915081611fce575b5038611f9b565b60379150111538611fc7565b605a8111159150611f94565b506001925050565b5060009150565b90915084511561201057905116605360f81b14153880611f6d565b634e487b7160e01b600052603260045260246000fd5b91508451156120105780518216604d60f81b141591611f6756fea26469706673582212203847c22bf189053da779ca73637e001f4d9cbf4a703bdf09ca4308a417a4692964736f6c63430008140033",
  "linkReferences": {},
  "deployedLinkReferences": {}
}