{"abi":[{"type":"constructor","inputs":[{"name":"_wethToken","type":"address","internalType":"address"},{"name":"_wxlmToken","type":"address","internalType":"address"}],"stateMutability":"nonpayable"},{"type":"receive","stateMutability":"payable"},{"type":"function","name":"MAX_BRIDGE_AMOUNT","inputs":[],"outputs":[{"name":"","type":"uint256","internalType":"uint256"}],"stateMutability":"view"},{"type":"function","name":"MIN_BRIDGE_AMOUNT","inputs":[],"outputs":[{"name":"","type":"uint256","internalType":"uint256"}],"stateMutability":"view"},{"type":"function","name":"bridgeFee","inputs":[],"outputs":[{"name":"","type":"uint256","internalType":"uint256"}],"stateMutability":"view"},{"type":"function","name":"confirmStellarTransaction","inputs":[{"name":"id","type":"bytes32","internalType":"bytes32"},{"name":"_stellarTxHash","type":"string","internalType":"string"}],"outputs":[],"stateMutability":"nonpayable"},{"type":"function","name":"emergencyPause","inputs":[],"outputs":[],"stateMutability":"nonpayable"},{"type":"function","name":"emergencyWithdraw","inputs":[{"name":"_token","type":"address","internalType":"address"},{"name":"_amount","type":"uint256","internalType":"uint256"}],"outputs":[],"stateMutability":"nonpayable"},{"type":"function","name":"getHtlc","inputs":[{"name":"id","type":"bytes32","internalType":"bytes32"}],"outputs":[{"name":"initiator","type":"address","internalType":"address"},{"name":"stellarAddress","type":"string","internalType":"string"},{"name":"amount","type":"uint256","internalType":"uint256"},{"name":"hash","type":"bytes32","internalType":"bytes32"},{"name":"timelock","type":"uint256","internalType":"uint256"},{"name":"executed","type":"bool","internalType":"bool"},{"name":"refunded","type":"bool","internalType":"bool"},{"name":"stellarConfirmed","type":"bool","internalType":"bool"},{"name":"stellarTxHash","type":"string","internalType":"string"}],"stateMutability":"view"},{"type":"function","name":"htlcs","inputs":[{"name":"","type":"bytes32","internalType":"bytes32"}],"outputs":[{"name":"initiator","type":"address","internalType":"address payable"},{"name":"stellarAddress","type":"string","internalType":"string"},{"name":"amount","type":"uint256","internalType":"uint256"},{"name":"hash","type":"bytes32","internalType":"bytes32"},{"name":"timelock","type":"uint256","internalType":"uint256"},{"name":"executed","type":"bool","internalType":"bool"},{"name":"refunded","type":"bool","internalType":"bool"},{"name":"stellarConfirmed","type":"bool","internalType":"bool"},{"name":"stellarTxHash","type":"string","internalType":"string"}],"stateMutability":"view"},{"type":"function","name":"initiateFromStellar","inputs":[{"name":"id","type":"bytes32","internalType":"bytes32"},{"name":"_ethereumAddress","type":"address","internalType":"address payable"},{"name":"_amount","type":"uint256","internalType":"uint256"},{"name":"_hash","type":"bytes32","internalType":"bytes32"},{"name":"_timelock","type":"uint256","internalType":"uint256"}],"outputs":[],"stateMutability":"nonpayable"},{"type":"function","name":"initiateToStellar","inputs":[{"name":"id","type":"bytes32","internalType":"bytes32"},{"name":"_stellarAddress","type":"string","internalType":"string"},{"name":"_hash","type":"bytes32","internalType":"bytes32"},{"name":"_timelock","type":"uint256","internalType":"uint256"}],"outputs":[],"stateMutability":"payable"},{"type":"function","name":"isValidHtlc","inputs":[{"name":"id","type":"bytes32","internalType":"bytes32"}],"outputs":[{"name":"","type":"bool","internalType":"bool"}],"stateMutability":"view"},{"type":"function","name":"owner","inputs":[],"outputs":[{"name":"","type":"address","internalType":"address"}],"stateMutability":"view"},{"type":"function","name":"redeem","inputs":[{"name":"id","type":"bytes32","internalType":"bytes32"},{"name":"_preimage","type":"bytes","internalType":"bytes"}],"outputs":[],"stateMutability":"nonpayable"},{"type":"function","name":"refund","inputs":[{"name":"id","type":"bytes32","internalType":"bytes32"}],"outputs":[],"stateMutability":"nonpayable"},{"type":"function","name":"renounceOwnership","inputs":[],"outputs":[],"stateMutability":"nonpayable"},{"type":"function","name":"stellarNetwork","inputs":[],"outputs":[{"name":"","type":"string","internalType":"string"}],"stateMutability":"view"},{"type":"function","name":"stellarSequenceNumber","inputs":[],"outputs":[{"name":"","type":"uint256","internalType":"uint256"}],"stateMutability":"view"},{"type":"function","name":"transferOwnership","inputs":[{"name":"newOwner","type":"address","internalType":"address"}],"outputs":[],"stateMutability":"nonpayable"},{"type":"function","name":"updateBridgeFee","inputs":[{"name":"_newFee","type":"uint256","internalType":"uint256"}],"outputs":[],"stateMutability":"nonpayable"},{"type":"function","name":"updateStellarNetwork","inputs":[{"name":"_network","type":"string","internalType":"string"}],"outputs":[],"stateMutability":"nonpayable"},{"type":"function","name":"validateStellarAddress","inputs":[{"name":"_stellarAddress","type":"string","internalType":"string"}],"outputs":[{"name":"","type":"bool","internalType":"bool"}],"stateMutability":"pure"},{"type":"function","name":"wethToken","inputs":[],"outputs":[{"name":"","type":"address","internalType":"contract IERC20"}],"stateMutability":"view"},{"type":"function","name":"withdrawFees","inputs":[],"outputs":[],"stateMutability":"nonpayable"},{"type":"function","name":"wxlmToken","inputs":[],"outputs":[{"name":"","type":"address","internalType":"contract IERC20"}],"stateMutability":"view"},{"type":"event","name":"Initiated","inputs":[{"name":"id","type":"bytes32","indexed":true,"internalType":"bytes32"},{"name":"initiator","type":"address","indexed":true,"internalType":"address"},{"name":"stellarAddress","type":"string","indexed":true,"internalType":"string"},{"name":"amount","type":"uint256","indexed":false,"internalType":"uint256"}],"anonymous":false},{"type":"event","name":"OwnershipTransferred","inputs":[{"name":"previousOwner","type":"address","indexed":true,"internalType":"address"},{"name":"newOwner","type":"address","indexed":true,"internalType":"address"}],"anonymous":false},{"type":"event","name":"Redeemed","inputs":[{"name":"id","type":"bytes32","indexed":true,"internalType":"bytes32"},{"name":"preimage","type":"bytes32","indexed":false,"internalType":"bytes32"}],"anonymous":false},{"type":"event","name":"Refunded","inputs":[{"name":"id","type":"bytes32","indexed":true,"internalType":"bytes32"}],"anonymous":false},{"type":"event","name":"StellarTransactionConfirmed","inputs":[{"name":"id","type":"bytes32","indexed":true,"internalType":"bytes32"},{"name":"stellarTxHash","type":"string","indexed":false,"internalType":"string"}],"anonymous":false},{"type":"error","name":"OwnableInvalidOwner","inputs":[{"name":"owner","type":"address","internalType":"address"}]},{"type":"error","name":"OwnableUnauthorizedAccount","inputs":[{"name":"account","type":"address","internalType":"address"}]},{"type":"error","name":"ReentrancyGuardReentrantCall","inputs":[]}],"bytecode":{"object":"0x60c0346101a557601f61221138819003918201601f19168301916001600160401b038311848410176101a95780849260409485528339810103126101a557610052602061004b836101bd565b92016101bd565b60015f5533156101925760018054336001600160a01b0319821681179092556040519391906001600160a01b03167f8be0079c531659141344cd1fd0a4f28419497f9722a3daafe3b4186f6b6457e05f80a366038d7ea4c68000600355600454600181811c91168015610188575b602082101461017457601f811161012c575b50600c657075626c696360d01b016004555f6005556001600160a01b039081166080521660a05261203f90816101d28239608051816111a7015260a05181818161013a015281816102c4015281816105810152610f9a0152f35b60045f52601f0160051c7f8a35acfbc15ff81a39ae7d344fd709f28e8600b4aa8c65c6b64bfe7fe36bd19b908101905b81811061016957506100d2565b5f815560010161015c565b634e487b7160e01b5f52602260045260245ffd5b90607f16906100c0565b631e4fbdf760e01b5f525f60045260245ffd5b5f80fd5b634e487b7160e01b5f52604160045260245ffd5b51906001600160a01b03821682036101a55756fe6080604052600436101561001a575b3615610018575f80fd5b005b5f3560e01c80620111a414611595578063089c0aa41461153a57806319304e25146114d2578063470fb62614611262578063476343ee146111d65780634b57b0be1461119257806351858e271461117a5780635a1c036614611106578063715018a6146110ab5780637249fbb614610e925780637fce000214610e6f57806382b12dd714610e52578063886688c114610e315780638da5cb5b14610e0957806391edd8f214610d4a57806395ccea6714610cbb578063acaa825514610c9e578063acdea6ad14610a23578063bd585a5c14610941578063e3294ccd146104b5578063eb6ad24e14610470578063f2fde38b146103ea578063f7ff72071461016d5763fcb6dc6e0361000e5734610169575f366003190112610169576040517f00000000000000000000000000000000000000000000000000000000000000006001600160a01b03168152602090f35b5f80fd5b346101695761017b36611b15565b90610184611fc4565b825f52600260205260405f209060058201908154936101a660ff861615611d99565b6101b660ff8660081c1615611df1565b6004840154421015610399576020915f916101ed84604051838194838301968737810186838201520301601f198101835282611a3e565b604051918291518091835e8101838152039060025afa1561027f575f519260038301938454036103545760019060ff191617905561022e60018201546119ea565b15610293575f808060028194015481811561028a575b3390f11561027f5760207f489e9ee921192823d1aa1ef800c9ffc642993538b1e7e43a4d46a91965e894ab915b54604051908152a260015f55005b6040513d5f823e3d90fd5b506108fc610244565b6002015460405163a9059cbb60e01b81523360048201526024810191909152906020826044815f6001600160a01b037f0000000000000000000000000000000000000000000000000000000000000000165af190811561027f576103226020927f489e9ee921192823d1aa1ef800c9ffc642993538b1e7e43a4d46a91965e894ab945f91610327575b50611e61565b610271565b6103479150843d861161034d575b61033f8183611a3e565b810190611e49565b8661031c565b503d610335565b60405162461bcd60e51b815260206004820152601f60248201527f5374656c6c61724272696467653a20696e76616c696420707265696d616765006044820152606490fd5b60405162461bcd60e51b815260206004820152602360248201527f5374656c6c61724272696467653a2074696d656c6f636b2068617320657870696044820152621c995960ea1b6064820152608490fd5b3461016957602036600319011261016957610403611aff565b61040b611fe2565b6001600160a01b0316801561045d57600180546001600160a01b0319811683179091556001600160a01b03167f8be0079c531659141344cd1fd0a4f28419497f9722a3daafe3b4186f6b6457e05f80a3005b631e4fbdf760e01b5f525f60045260245ffd5b34610169576020366003190112610169576004356001600160401b038111610169576104ab6104a56020923690600401611999565b90611ead565b6040519015158152f35b346101695760a0366003190112610169576024356001600160a01b038116908190036101695760443560643591608435906104ee611fc4565b6004355f90815260026020526040902054610512906001600160a01b031615611b48565b610525662386f26fc10000841015611bac565b61053a683635c9adc5dea00000841115611bf8565b156108ec5761054a831515611c44565b610557610e108211611c90565b6040516323b872dd60e01b815233600482015230602482015260448101839052906020826064815f7f00000000000000000000000000000000000000000000000000000000000000006001600160a01b03165af191821561027f576105cc926105c6915f916108d35750611e61565b42611cf8565b91604051926105da84611a22565b338452602091604051916105ee8484611a3e565b5f8352838601928352604086019085825260608701928352608087019081525f60a088015260c08701925f845260e08801925f84526040516106308882611a3e565b5f8082526101008b019190915260043581526002885260409020895181546001600160a01b0319166001600160a01b039190911617815595518051906001600160401b03821161083b576106948261068b60018b01546119ea565b60018b01611d4a565b8890601f831160011461085a57926106d18361073d979460069a97946101009c9a975f9261084f575b50508160011b915f199060031b1c19161790565b60018801555b516002870155516003860155516004850155610724600585019261070d60a08c01511515859060ff801983541691151516179055565b51835461ff00191690151560081b61ff0016178355565b51815462ff0000191690151560101b62ff000016179055565b019301519283516001600160401b03811161083b576107668161076084546119ea565b84611d4a565b8294601f82116001146107db576107969293949582915f926107d05750508160011b915f199060031b1c19161790565b90555b6040515f80209281527f2a241314f1721916d74a645f65e364f43169e7aa07961dc76ae071f3b911cf59339260043592a460015f55005b0151905086806106bd565b601f19821695835f52845f20915f5b8881106108245750836001959697981061080c575b505050811b019055610799565b01515f1960f88460031b161c191690558580806107ff565b9192866001819286850151815501940192016107ea565b634e487b7160e01b5f52604160045260245ffd5b015190508f806106bd565b90600189015f52895f20915f5b8b601f19861682106108bd5750508360069996936101009b99969360019361073d9a97601f198116106108a5575b505050811b0160018801556106d7565b01515f1960f88460031b161c191690558e8080610895565b6001849582939585015181550194019201610867565b610347915060203d60201161034d5761033f8183611a3e565b60405162461bcd60e51b815260206004820152602760248201527f5374656c6c61724272696467653a20696e76616c696420457468657265756d206044820152666164647265737360c81b6064820152608490fd5b34610169575f366003190112610169576040515f600454610961816119ea565b80845290600181169081156109ff57506001146109a1575b61099d8361098981850382611a3e565b6040519182916020835260208301906119c6565b0390f35b60045f9081527f8a35acfbc15ff81a39ae7d344fd709f28e8600b4aa8c65c6b64bfe7fe36bd19b939250905b8082106109e557509091508101602001610989610979565b9192600181602092548385880101520191019092916109cd565b60ff191660208086019190915291151560051b840190910191506109899050610979565b3461016957610a3136611b15565b90610a3a611fe2565b5f83815260026020526040902080546001600160a01b031615610c4e57600581019081549160ff8360101c16610c0a578415610bb5576201000060069362ff00001916179055016001600160401b03831161083b57610aa383610a9d83546119ea565b83611d4a565b5f601f8411600114610b2d5791604091610af585807f7b458edfb4d0a1eb2788cee32a1416442796661a685c60eaa574e969d29ffcf297965f91610b22575b508160011b915f199060031b1c19161790565b90555b82825193849260208452816020850152848401375f828201840152601f01601f19168101030190a2005b905084013589610ae2565b601f19841690825f5260205f20915f5b818110610b9d57509160409391867f7b458edfb4d0a1eb2788cee32a1416442796661a685c60eaa574e969d29ffcf297969410610b84575b5050600184811b019055610af8565b8301355f19600387901b60f8161c191690558680610b75565b91926020600181928689013581550194019201610b3d565b60405162461bcd60e51b815260206004820152602760248201527f5374656c6c61724272696467653a20696e76616c6964207472616e73616374696044820152660dedc40d0c2e6d60cb1b6064820152608490fd5b606460405162461bcd60e51b815260206004820152602060248201527f5374656c6c61724272696467653a20616c726561647920636f6e6669726d65646044820152fd5b60405162461bcd60e51b815260206004820152602260248201527f5374656c6c61724272696467653a2048544c4320646f6573206e6f74206578696044820152611cdd60f21b6064820152608490fd5b34610169575f366003190112610169576020600554604051908152f35b34610169576040366003190112610169575f6020610d19610cda611aff565b610ce2611fe2565b60015460405163a9059cbb60e01b81526001600160a01b039091166004820152602480359082015293849283919082906044820190565b03926001600160a01b03165af1801561027f57610d3257005b6100189060203d60201161034d5761033f8183611a3e565b34610169576020366003190112610169576004355f90815260026020526040902080546001600160a01b031661099d610d8560018401611a5f565b9260028101549060ff6003820154916004810154610daa600660058401549301611a5f565b93610dc9604051998a998a5261012060208b01526101208a01906119c6565b95604089015260608801526080870152818116151560a0870152818160081c16151560c087015260101c16151560e08501528382036101008501526119c6565b34610169575f366003190112610169576001546040516001600160a01b039091168152602090f35b34610169575f366003190112610169576020604051662386f26fc100008152f35b34610169575f366003190112610169576020600354604051908152f35b34610169575f36600319011261016957602060405168056bc75e2d631000008152f35b3461016957602036600319011261016957600435610eae611fc4565b5f81815260026020526040902080546001600160a01b031633810361105357600582018054610ee060ff821615611d99565b610ef060ff8260081c1615611df1565b60048401544210610ffe5761ff0019166101001790556001820154610f14906119ea565b15610f7157505f80808093600260018060a01b0382541691015490828215610f68575bf11561027f575b7ffe509803c09416b28ff3d8f690c8b0c61462a892c46d5430c8fb20abe472daf05f80a260015f55005b506108fc610f37565b60029091015460405163a9059cbb60e01b8152600481019290925260248201526020816044815f7f00000000000000000000000000000000000000000000000000000000000000006001600160a01b03165af1801561027f57610fda915f91610fdf5750611e61565b610f3e565b610ff8915060203d60201161034d5761033f8183611a3e565b8361031c565b60405162461bcd60e51b815260206004820152602760248201527f5374656c6c61724272696467653a2074696d656c6f636b20686173206e6f7420604482015266195e1c1a5c995960ca1b6064820152608490fd5b60405162461bcd60e51b815260206004820152602a60248201527f5374656c6c61724272696467653a2063616c6c6572206973206e6f74207468656044820152691034b734ba34b0ba37b960b11b6064820152608490fd5b34610169575f366003190112610169576110c3611fe2565b600180546001600160a01b031981169091555f906001600160a01b03167f8be0079c531659141344cd1fd0a4f28419497f9722a3daafe3b4186f6b6457e08280a3005b3461016957602036600319011261016957600435611122611fe2565b662386f26fc10000811161113557600355005b60405162461bcd60e51b815260206004820152601b60248201527f5374656c6c61724272696467653a2066656520746f6f206869676800000000006044820152606490fd5b34610169575f36600319011261016957610018611fe2565b34610169575f366003190112610169576040517f00000000000000000000000000000000000000000000000000000000000000006001600160a01b03168152602090f35b34610169575f366003190112610169576111ee611fe2565b478015611212576001545f918291829182916001600160a01b031682f11561027f57005b60405162461bcd60e51b815260206004820152602260248201527f5374656c6c61724272696467653a206e6f206665657320746f20776974686472604482015261617760f01b6064820152608490fd5b34610169576020366003190112610169576004356001600160401b03811161016957611292903690600401611999565b61129a611fe2565b6040516020810190828483376112c36020828581015f838201520301601f198101835282611a3e565b5190206040516020810190657075626c696360d01b8252600681526112e9602682611a3e565b519020148015611478575b15611433576001600160401b03811161083b576113126004546119ea565b601f81116113d0575b505f601f8211600114611358578190611348935f9261134d5750508160011b915f199060031b1c19161790565b600455005b0135905083806106bd565b601f198216927f8a35acfbc15ff81a39ae7d344fd709f28e8600b4aa8c65c6b64bfe7fe36bd19b915f5b8581106113b85750836001951061139f575b505050811b01600455005b01355f19600384901b60f8161c19169055828080611394565b90926020600181928686013581550194019101611382565b60045f527f8a35acfbc15ff81a39ae7d344fd709f28e8600b4aa8c65c6b64bfe7fe36bd19b601f830160051c81019160208410611429575b601f0160051c01905b81811061141e575061131b565b5f8155600101611411565b9091508190611408565b60405162461bcd60e51b815260206004820152601e60248201527f5374656c6c61724272696467653a20696e76616c6964206e6574776f726b00006044820152606490fd5b506040516020810190828483376114a26020828581015f838201520301601f198101835282611a3e565b5190206040516020810190661d195cdd1b995d60ca1b8252600781526114c9602782611a3e565b519020146112f4565b34610169576020366003190112610169576004355f526002602052602060405f2060018060a01b038154161515908161152a575b81611517575b506040519015158152f35b60ff91506005015460081c16158261150c565b600581015460ff16159150611506565b34610169576020366003190112610169576004355f52600260205260405f2060018060a01b0381541661099d6002830154600384015460ff6004860154600587015490610daa600661158e60018b01611a5f565b9901611a5f565b6080366003190112610169576004356024356001600160401b038111610169576115c3903690600401611999565b9060443592606435926115d4611fc4565b5f828152600260205260409020546115f5906001600160a01b031615611b48565b611608662386f26fc10000341015611bac565b61161d68056bc75e2d63100000341115611bf8565b80156119455761162e851515611c44565b61163b610e108511611c90565b600354340392348411611931576002956116565f9642611cf8565b906040519161166483611a22565b338352611672368686611d05565b90602084019182526040840190888252606085019384526080850190815260a08501938a855260c08601928b845260e08701948c865260209d8e6040519e8f6116bb8382611a3e565b526101008a019e8f525f8d815291905260409020975188546001600160a01b0319166001600160a01b039190911617885551805160018901916001600160401b03821161083b578f906117188361171286546119ea565b86611d4a565b81601f84116001146118bc57509261175683610724979460069d9c9a97946117889c9a975f926118b15750508160011b915f199060031b1c19161790565b90555b51600289015551600388015551600487015561070d6005870194511515859060ff801983541691151516179055565b019451948551956001600160401b03871161083b576117ab8761076084546119ea565b8790601f881160011461182b5796806117fc927f2a241314f1721916d74a645f65e364f43169e7aa07961dc76ae071f3b911cf599798995f926118205750508160011b915f199060031b1c19161790565b90555b81604051928392833781015f8152039020936040519384523393a460015f55005b015190508a806106bd565b90601f19881691835f52895f20925f5b8b82821061189b57505091600193918a7f2a241314f1721916d74a645f65e364f43169e7aa07961dc76ae071f3b911cf59999a9b9410611883575b505050811b0190556117ff565b01515f1960f88460031b161c19169055898080611876565b600185968293968601518155019501930161183b565b015190505f806106bd565b9190601f198416855f52835f20935f905b8282106119195750509360069c9b9996936117889b999693600193836107249b9810611901575b505050811b019055611759565b01515f1960f88460031b161c191690555f80806118f4565b806001869782949787015181550196019401906118cd565b634e487b7160e01b5f52601160045260245ffd5b60405162461bcd60e51b815260206004820152602660248201527f5374656c6c61724272696467653a20696e76616c6964205374656c6c6172206160448201526564647265737360d01b6064820152608490fd5b9181601f84011215610169578235916001600160401b038311610169576020838186019501011161016957565b805180835260209291819084018484015e5f828201840152601f01601f1916010190565b90600182811c92168015611a18575b6020831014611a0457565b634e487b7160e01b5f52602260045260245ffd5b91607f16916119f9565b61012081019081106001600160401b0382111761083b57604052565b90601f801991011681019081106001600160401b0382111761083b57604052565b9060405191825f825492611a72846119ea565b8084529360018116908115611add5750600114611a99575b50611a9792500383611a3e565b565b90505f9291925260205f20905f915b818310611ac1575050906020611a97928201015f611a8a565b6020919350806001915483858901015201910190918492611aa8565b905060209250611a9794915060ff191682840152151560051b8201015f611a8a565b600435906001600160a01b038216820361016957565b9060406003198301126101695760043591602435906001600160401b03821161016957611b4491600401611999565b9091565b15611b4f57565b60405162461bcd60e51b815260206004820152602f60248201527f5374656c6c61724272696467653a20737761702077697468207468697320696460448201526e20616c72656164792065786973747360881b6064820152608490fd5b15611bb357565b60405162461bcd60e51b815260206004820152601d60248201527f5374656c6c61724272696467653a20616d6f756e7420746f6f206c6f770000006044820152606490fd5b15611bff57565b60405162461bcd60e51b815260206004820152601e60248201527f5374656c6c61724272696467653a20616d6f756e7420746f6f206869676800006044820152606490fd5b15611c4b57565b60405162461bcd60e51b815260206004820152601b60248201527f5374656c6c61724272696467653a20696e76616c6964206861736800000000006044820152606490fd5b15611c9757565b60405162461bcd60e51b815260206004820152603360248201527f5374656c6c61724272696467653a2074696d656c6f636b206d7573742062652060448201527233b932b0ba32b9103a3430b71018903437bab960691b6064820152608490fd5b9190820180921161193157565b9291926001600160401b03821161083b5760405191611d2e601f8201601f191660200184611a3e565b829481845281830111610169578281602093845f960137010152565b601f8211611d5757505050565b5f5260205f20906020601f840160051c83019310611d8f575b601f0160051c01905b818110611d84575050565b5f8155600101611d79565b9091508190611d70565b15611da057565b60405162461bcd60e51b8152602060048201526024808201527f5374656c6c61724272696467653a207377617020616c726561647920657865636044820152631d5d195960e21b6064820152608490fd5b15611df857565b60405162461bcd60e51b8152602060048201526024808201527f5374656c6c61724272696467653a207377617020616c726561647920726566756044820152631b99195960e21b6064820152608490fd5b90816020910312610169575180151581036101695790565b15611e6857565b60405162461bcd60e51b815260206004820152601e60248201527f5374656c6c61724272696467653a207472616e73666572206661696c656400006044820152606490fd5b611eb8913691611d05565b805160388103611f2f5715611f61576020810180516001600160f81b031916604760f81b14159081611fa2575b81611f81575b50611f7c575f5b8151811015611f75578151811015611f61576020818301015160f81c60418110159081611f55575b8115611f35575b5015611f2f57600101611ef2565b50505f90565b6032811015915081611f49575b505f611f21565b6037915011155f611f42565b605a8111159150611f1a565b634e487b7160e01b5f52603260045260245ffd5b5050600190565b505f90565b9050815115611f6157516001600160f81b031916605360f81b14155f611eeb565b9050815115611f615780516001600160f81b031916604d60f81b141590611ee5565b60025f5414611fd35760025f55565b633ee5aeb560e01b5f5260045ffd5b6001546001600160a01b03163303611ff657565b63118cdaa760e01b5f523360045260245ffdfea264697066735822122011a7354a9bc1e099d3f78e7b92318dd1fee328cc3bd21903818ca9166807621964736f6c634300081e0033","linkReferences":{}},"methodIdentifiers":{"MAX_BRIDGE_AMOUNT()":"7fce0002","MIN_BRIDGE_AMOUNT()":"886688c1","bridgeFee()":"82b12dd7","confirmStellarTransaction(bytes32,string)":"acdea6ad","emergencyPause()":"51858e27","emergencyWithdraw(address,uint256)":"95ccea67","getHtlc(bytes32)":"089c0aa4","htlcs(bytes32)":"91edd8f2","initiateFromStellar(bytes32,address,uint256,bytes32,uint256)":"e3294ccd","initiateToStellar(bytes32,string,bytes32,uint256)":"000111a4","isValidHtlc(bytes32)":"19304e25","owner()":"8da5cb5b","redeem(bytes32,bytes)":"f7ff7207","refund(bytes32)":"7249fbb6","renounceOwnership()":"715018a6","stellarNetwork()":"bd585a5c","stellarSequenceNumber()":"acaa8255","transferOwnership(address)":"f2fde38b","updateBridgeFee(uint256)":"5a1c0366","updateStellarNetwork(string)":"470fb626","validateStellarAddress(string)":"eb6ad24e","wethToken()":"4b57b0be","withdrawFees()":"476343ee","wxlmToken()":"fcb6dc6e"},"id":6}