{"abi":[{"type":"constructor","inputs":[{"name":"_wbtcToken","type":"address","internalType":"address"}],"stateMutability":"nonpayable"},{"type":"function","name":"emergencyPause","inputs":[],"outputs":[],"stateMutability":"nonpayable"},{"type":"function","name":"emergencyWithdraw","inputs":[{"name":"_token","type":"address","internalType":"address"},{"name":"_amount","type":"uint256","internalType":"uint256"}],"outputs":[],"stateMutability":"nonpayable"},{"type":"function","name":"htlcs","inputs":[{"name":"","type":"bytes32","internalType":"bytes32"}],"outputs":[{"name":"initiator","type":"address","internalType":"address payable"},{"name":"resolver","type":"address","internalType":"address payable"},{"name":"amount","type":"uint256","internalType":"uint256"},{"name":"hash","type":"bytes32","internalType":"bytes32"},{"name":"timelock","type":"uint256","internalType":"uint256"},{"name":"executed","type":"bool","internalType":"bool"},{"name":"refunded","type":"bool","internalType":"bool"}],"stateMutability":"view"},{"type":"function","name":"initiate","inputs":[{"name":"id","type":"bytes32","internalType":"bytes32"},{"name":"_resolver","type":"address","internalType":"address payable"},{"name":"_hash","type":"bytes32","internalType":"bytes32"},{"name":"_timelock","type":"uint256","internalType":"uint256"}],"outputs":[],"stateMutability":"payable"},{"type":"function","name":"owner","inputs":[],"outputs":[{"name":"","type":"address","internalType":"address"}],"stateMutability":"view"},{"type":"function","name":"redeem","inputs":[{"name":"id","type":"bytes32","internalType":"bytes32"},{"name":"_preimage","type":"bytes","internalType":"bytes"}],"outputs":[],"stateMutability":"nonpayable"},{"type":"function","name":"refund","inputs":[{"name":"id","type":"bytes32","internalType":"bytes32"}],"outputs":[],"stateMutability":"nonpayable"},{"type":"function","name":"renounceOwnership","inputs":[],"outputs":[],"stateMutability":"nonpayable"},{"type":"function","name":"transferOwnership","inputs":[{"name":"newOwner","type":"address","internalType":"address"}],"outputs":[],"stateMutability":"nonpayable"},{"type":"function","name":"wbtcToken","inputs":[],"outputs":[{"name":"","type":"address","internalType":"contract IERC20"}],"stateMutability":"view"},{"type":"event","name":"Initiated","inputs":[{"name":"id","type":"bytes32","indexed":true,"internalType":"bytes32"},{"name":"initiator","type":"address","indexed":true,"internalType":"address"},{"name":"resolver","type":"address","indexed":true,"internalType":"address"},{"name":"amount","type":"uint256","indexed":false,"internalType":"uint256"}],"anonymous":false},{"type":"event","name":"OwnershipTransferred","inputs":[{"name":"previousOwner","type":"address","indexed":true,"internalType":"address"},{"name":"newOwner","type":"address","indexed":true,"internalType":"address"}],"anonymous":false},{"type":"event","name":"Redeemed","inputs":[{"name":"id","type":"bytes32","indexed":true,"internalType":"bytes32"},{"name":"preimage","type":"bytes32","indexed":false,"internalType":"bytes32"}],"anonymous":false},{"type":"event","name":"Refunded","inputs":[{"name":"id","type":"bytes32","indexed":true,"internalType":"bytes32"}],"anonymous":false},{"type":"error","name":"OwnableInvalidOwner","inputs":[{"name":"owner","type":"address","internalType":"address"}]},{"type":"error","name":"OwnableUnauthorizedAccount","inputs":[{"name":"account","type":"address","internalType":"address"}]},{"type":"error","name":"ReentrancyGuardReentrantCall","inputs":[]}],"bytecode":{"object":"0x60a0346100ce57601f610c7638819003918201601f19168301916001600160401b038311848410176100d2578084926020946040528339810103126100ce57516001600160a01b038116908190036100ce5760015f5533156100bb5760018054336001600160a01b0319821681179092556040519291906001600160a01b03167f8be0079c531659141344cd1fd0a4f28419497f9722a3daafe3b4186f6b6457e05f80a3608052610b8f90816100e78239608051816109fd0152f35b631e4fbdf760e01b5f525f60045260245ffd5b5f80fd5b634e487b7160e01b5f52604160045260245ffdfe6080806040526004361015610012575f80fd5b5f3560e01c90816327614df8146109eb57508063412c0b581461069e57806351858e2714610684578063715018a6146106295780637249fbb6146104b65780638da5cb5b1461048e57806391edd8f21461040b57806395ccea6714610373578063f2fde38b146102ed5763f7ff72071461008a575f80fd5b346102e95760403660031901126102e95760043560243567ffffffffffffffff81116102e957366023820112156102e957806004013567ffffffffffffffff81116102e95736602482840101116102e9576100e3610b14565b5f83815260026020526040902060018101546001600160a01b0316919033830361029257600581019384549261011c60ff851615610a64565b61012c60ff8560081c1615610abc565b6004830154421015610241576020915f9161016684604051838194602484840197018737810186838201520301601f198101835282610a42565b604051918291518091835e8101838152039060025afa156101e8575f519360038201948554036101fc575f9360028594938594936001869560ff19161790550154908282156101f3575bf1156101e85760207f489e9ee921192823d1aa1ef800c9ffc642993538b1e7e43a4d46a91965e894ab9154604051908152a260015f55005b6040513d5f823e3d90fd5b506108fc6101b0565b60405162461bcd60e51b815260206004820152601f60248201527f426974636f696e4272696467653a20696e76616c696420707265696d616765006044820152606490fd5b60405162461bcd60e51b815260206004820152602360248201527f426974636f696e4272696467653a2074696d656c6f636b2068617320657870696044820152621c995960ea1b6064820152608490fd5b60405162461bcd60e51b815260206004820152602960248201527f426974636f696e4272696467653a2063616c6c6572206973206e6f7420746865604482015268103932b9b7b63b32b960b91b6064820152608490fd5b5f80fd5b346102e95760203660031901126102e957610306610a2c565b61030e610b32565b6001600160a01b0316801561036057600180546001600160a01b0319811683179091556001600160a01b03167f8be0079c531659141344cd1fd0a4f28419497f9722a3daafe3b4186f6b6457e05f80a3005b631e4fbdf760e01b5f525f60045260245ffd5b346102e95760403660031901126102e9575f602061038f610a2c565b610397610b32565b60015460405163a9059cbb60e01b81526001600160a01b0391821660048201526024803590820152938492604492849291165af180156101e8576103d757005b6020813d602011610403575b816103f060209383610a42565b810103126102e95751801515036102e957005b3d91506103e3565b346102e95760203660031901126102e9576004355f52600260205260e060405f2060ff60018060a01b038254169160018060a01b0360018201541690600281015460038201549060056004840154930154936040519687526020870152604086015260608501526080840152818116151560a084015260081c16151560c0820152f35b346102e9575f3660031901126102e9576001546040516001600160a01b039091168152602090f35b346102e95760203660031901126102e9576004356104d2610b14565b5f81815260026020526040902080546001600160a01b0316903382036105d157600581019081549161050760ff841615610a64565b61051760ff8460081c1615610abc565b6004820154421061057c575f80856002829583956101008b9961ff001916179055015490828215610573575bf1156101e8577ffe509803c09416b28ff3d8f690c8b0c61462a892c46d5430c8fb20abe472daf05f80a260015f55005b506108fc610543565b60405162461bcd60e51b815260206004820152602760248201527f426974636f696e4272696467653a2074696d656c6f636b20686173206e6f7420604482015266195e1c1a5c995960ca1b6064820152608490fd5b60405162461bcd60e51b815260206004820152602a60248201527f426974636f696e4272696467653a2063616c6c6572206973206e6f74207468656044820152691034b734ba34b0ba37b960b11b6064820152608490fd5b346102e9575f3660031901126102e957610641610b32565b600180546001600160a01b031981169091555f906001600160a01b03167f8be0079c531659141344cd1fd0a4f28419497f9722a3daafe3b4186f6b6457e08280a3005b346102e9575f3660031901126102e95761069c610b32565b005b60803660031901126102e9576024356001600160a01b03811690600435908290036102e9576044356064356106d1610b14565b5f838152600260205260409020546001600160a01b031661098e5734156109345783156108df57811561089a57610e108111156108395742018042116108255760405160e081019080821067ffffffffffffffff8311176108115760409182523380825260208083018881523484860181815260608601988952608086019788525f60a0870181815260c088018281528c83526002808852928a9020985189546001600160a01b03199081166001600160a01b03928316178b55965160018b018054909816911617909555915190870155975160038601559551600485015595516005939093018054965161ffff1990971660ff941515949094169390931795151560081b61ff001695909517909155905191825292917fe6cf32272b10a93a5a022b8a3184f4c213f232ce976cb7cc95190fa8d3c9d54691a460015f55005b634e487b7160e01b5f52604160045260245ffd5b634e487b7160e01b5f52601160045260245ffd5b60405162461bcd60e51b815260206004820152603360248201527f426974636f696e4272696467653a2074696d656c6f636b206d7573742062652060448201527233b932b0ba32b9103a3430b71018903437bab960691b6064820152608490fd5b60405162461bcd60e51b815260206004820152601b60248201527f426974636f696e4272696467653a20696e76616c6964206861736800000000006044820152606490fd5b60405162461bcd60e51b815260206004820152602760248201527f426974636f696e4272696467653a20696e76616c6964207265736f6c766572206044820152666164647265737360c81b6064820152608490fd5b60405162461bcd60e51b815260206004820152602c60248201527f426974636f696e4272696467653a20616d6f756e74206d75737420626520677260448201526b06561746572207468616e20360a41b6064820152608490fd5b60405162461bcd60e51b815260206004820152602f60248201527f426974636f696e4272696467653a20737761702077697468207468697320696460448201526e20616c72656164792065786973747360881b6064820152608490fd5b346102e9575f3660031901126102e9577f00000000000000000000000000000000000000000000000000000000000000006001600160a01b03168152602090f35b600435906001600160a01b03821682036102e957565b90601f8019910116810190811067ffffffffffffffff82111761081157604052565b15610a6b57565b60405162461bcd60e51b8152602060048201526024808201527f426974636f696e4272696467653a207377617020616c726561647920657865636044820152631d5d195960e21b6064820152608490fd5b15610ac357565b60405162461bcd60e51b8152602060048201526024808201527f426974636f696e4272696467653a207377617020616c726561647920726566756044820152631b99195960e21b6064820152608490fd5b60025f5414610b235760025f55565b633ee5aeb560e01b5f5260045ffd5b6001546001600160a01b03163303610b4657565b63118cdaa760e01b5f523360045260245ffdfea26469706673582212206238a2b2fe810d8286b8ad94d79100865a898acc2e0aed34b77fbd3db5cf7d9164736f6c634300081e0033","linkReferences":{}},"methodIdentifiers":{"emergencyPause()":"51858e27","emergencyWithdraw(address,uint256)":"95ccea67","htlcs(bytes32)":"91edd8f2","initiate(bytes32,address,bytes32,uint256)":"412c0b58","owner()":"8da5cb5b","redeem(bytes32,bytes)":"f7ff7207","refund(bytes32)":"7249fbb6","renounceOwnership()":"715018a6","transferOwnership(address)":"f2fde38b","wbtcToken()":"27614df8"},"id":0}