{"abi":[{"type":"constructor","inputs":[],"stateMutability":"nonpayable"},{"type":"receive","stateMutability":"payable"},{"type":"function","name":"completeHTLC","inputs":[{"name":"htlcId","type":"bytes32","internalType":"bytes32"},{"name":"secret","type":"bytes32","internalType":"bytes32"}],"outputs":[],"stateMutability":"nonpayable"},{"type":"function","name":"createHTLC","inputs":[{"name":"recipient","type":"address","internalType":"address"},{"name":"solanaAddress","type":"string","internalType":"string"},{"name":"secretHash","type":"bytes32","internalType":"bytes32"},{"name":"timelock","type":"uint256","internalType":"uint256"}],"outputs":[],"stateMutability":"payable"},{"type":"function","name":"emergencyWithdraw","inputs":[],"outputs":[],"stateMutability":"nonpayable"},{"type":"function","name":"getHTLC","inputs":[{"name":"htlcId","type":"bytes32","internalType":"bytes32"}],"outputs":[{"name":"","type":"tuple","internalType":"struct SolanaHTLC.HTLC","components":[{"name":"sender","type":"address","internalType":"address"},{"name":"recipient","type":"address","internalType":"address"},{"name":"solanaAddress","type":"string","internalType":"string"},{"name":"amount","type":"uint256","internalType":"uint256"},{"name":"secretHash","type":"bytes32","internalType":"bytes32"},{"name":"timelock","type":"uint256","internalType":"uint256"},{"name":"isActive","type":"bool","internalType":"bool"},{"name":"isCompleted","type":"bool","internalType":"bool"},{"name":"isRefunded","type":"bool","internalType":"bool"}]}],"stateMutability":"view"},{"type":"function","name":"htlcExistsCheck","inputs":[{"name":"htlcId","type":"bytes32","internalType":"bytes32"}],"outputs":[{"name":"","type":"bool","internalType":"bool"}],"stateMutability":"view"},{"type":"function","name":"htlcExistsMap","inputs":[{"name":"","type":"bytes32","internalType":"bytes32"}],"outputs":[{"name":"","type":"bool","internalType":"bool"}],"stateMutability":"view"},{"type":"function","name":"htlcMap","inputs":[{"name":"","type":"bytes32","internalType":"bytes32"}],"outputs":[{"name":"sender","type":"address","internalType":"address"},{"name":"recipient","type":"address","internalType":"address"},{"name":"solanaAddress","type":"string","internalType":"string"},{"name":"amount","type":"uint256","internalType":"uint256"},{"name":"secretHash","type":"bytes32","internalType":"bytes32"},{"name":"timelock","type":"uint256","internalType":"uint256"},{"name":"isActive","type":"bool","internalType":"bool"},{"name":"isCompleted","type":"bool","internalType":"bool"},{"name":"isRefunded","type":"bool","internalType":"bool"}],"stateMutability":"view"},{"type":"function","name":"owner","inputs":[],"outputs":[{"name":"","type":"address","internalType":"address"}],"stateMutability":"view"},{"type":"function","name":"refundHTLC","inputs":[{"name":"htlcId","type":"bytes32","internalType":"bytes32"}],"outputs":[],"stateMutability":"nonpayable"},{"type":"function","name":"renounceOwnership","inputs":[],"outputs":[],"stateMutability":"nonpayable"},{"type":"function","name":"transferOwnership","inputs":[{"name":"newOwner","type":"address","internalType":"address"}],"outputs":[],"stateMutability":"nonpayable"},{"type":"event","name":"HTLCCompleted","inputs":[{"name":"htlcId","type":"bytes32","indexed":true,"internalType":"bytes32"},{"name":"recipient","type":"address","indexed":true,"internalType":"address"},{"name":"secret","type":"bytes32","indexed":false,"internalType":"bytes32"}],"anonymous":false},{"type":"event","name":"HTLCCreated","inputs":[{"name":"htlcId","type":"bytes32","indexed":true,"internalType":"bytes32"},{"name":"sender","type":"address","indexed":true,"internalType":"address"},{"name":"recipient","type":"address","indexed":true,"internalType":"address"},{"name":"solanaAddress","type":"string","indexed":false,"internalType":"string"},{"name":"amount","type":"uint256","indexed":false,"internalType":"uint256"},{"name":"secretHash","type":"bytes32","indexed":false,"internalType":"bytes32"},{"name":"timelock","type":"uint256","indexed":false,"internalType":"uint256"}],"anonymous":false},{"type":"event","name":"HTLCRefunded","inputs":[{"name":"htlcId","type":"bytes32","indexed":true,"internalType":"bytes32"},{"name":"sender","type":"address","indexed":true,"internalType":"address"}],"anonymous":false},{"type":"event","name":"OwnershipTransferred","inputs":[{"name":"previousOwner","type":"address","indexed":true,"internalType":"address"},{"name":"newOwner","type":"address","indexed":true,"internalType":"address"}],"anonymous":false},{"type":"error","name":"OwnableInvalidOwner","inputs":[{"name":"owner","type":"address","internalType":"address"}]},{"type":"error","name":"OwnableUnauthorizedAccount","inputs":[{"name":"account","type":"address","internalType":"address"}]},{"type":"error","name":"ReentrancyGuardReentrantCall","inputs":[]}],"bytecode":{"object":"0x6080806040523460755733156062575f8054336001600160a01b0319821681178355916001600160a01b03909116907f8be0079c531659141344cd1fd0a4f28419497f9722a3daafe3b4186f6b6457e09080a360018055611093908161007a8239f35b631e4fbdf760e01b5f525f60045260245ffd5b5f80fdfe6080604052600436101561001a575b3615610018575f80fd5b005b5f3560e01c80631e8de7ac1461082b57806334f1f2c91461067657806343b920c5146106a55780634962130b1461067657806366aa428414610484578063715018a61461042d5780638da5cb5b1461040657806390c268381461028a578063ad177cf2146101d5578063db2e21bc146101205763f2fde38b0361000e573461011c57602036600319011261011c576100b0610d31565b6100b8611037565b6001600160a01b03168015610109575f80546001600160a01b03198116831782556001600160a01b0316907f8be0079c531659141344cd1fd0a4f28419497f9722a3daafe3b4186f6b6457e09080a3005b631e4fbdf760e01b5f525f60045260245ffd5b5f80fd5b3461011c575f36600319011261011c57610138611037565b478015610199575f8080809360018060a01b038254165af1610158610faa565b501561016057005b60405162461bcd60e51b815260206004820152601160248201527015da5d1a191c985dd85b0819985a5b1959607a1b6044820152606490fd5b60405162461bcd60e51b81526020600482015260146024820152734e6f2066756e647320746f20776974686472617760601b6044820152606490fd5b3461011c57602036600319011261011c576004355f52600260205260405f2060018060a01b0381541660018060a01b036001830154169160ff61021a60028301610dfe565b60038301549260048101546102536006600584015493015493604051988998895260208901526101206040890152610120880190610da2565b946060870152608086015260a0850152818116151560c0850152818160081c16151560e085015260101c1615156101008301520390f35b3461011c57602036600319011261011c576004355f6101006040516102ae81610d47565b828152826020820152606060408201528260608201528260808201528260a08201528260c08201528260e08201520152805f5260036020526102f660ff60405f205416610e9e565b5f52600260205260405f2060405161030d81610d47565b81546001600160a01b039081168252600183015416602082019081529161033660028201610dfe565b906040830191825260038101549160608401928352600482015460808501908152600660058401549360a0870194855201549260c086019160ff8516151583526103d560e088019460ff8760081c161515865260ff6101008a019760101c1615158752604051998a9960208b5260018060a01b0390511660208b015260018060a01b0390511660408a01525161012060608a0152610140890190610da2565b955160808801525160a08701525160c086015251151560e08501525115156101008401525115156101208301520390f35b3461011c575f36600319011261011c575f546040516001600160a01b039091168152602090f35b3461011c575f36600319011261011c57610445611037565b5f80546001600160a01b0319811682556001600160a01b03167f8be0079c531659141344cd1fd0a4f28419497f9722a3daafe3b4186f6b6457e08280a3005b3461011c57604036600319011261011c5760043560243590805f5260036020526104b460ff60405f205416610e9e565b805f5260026020526104cf60ff600660405f20015416610ee0565b805f526002602052600560405f20015442101561063e576104ee611017565b5f8181526002602052604090206001810180546001600160a01b031690338290036105fa5760405160208101908682526020815261052d604082610d64565b5190206004840154036105c4576105ac5f80808060209660038960067f4f7b64bef129d9a1cda3d9dd8adf8d7c0660eba7aea205aea4802ed9de7c32da9b01610100815461058160ff8260081c1615610f21565b61059160ff8260101c1615610f66565b61ffff19161790550154905af16105a6610faa565b50610fd9565b546040519485526001600160a01b031693a360018055005b60405162461bcd60e51b815260206004820152600e60248201526d125b9d985b1a59081cd958dc995d60921b6044820152606490fd5b606460405162461bcd60e51b815260206004820152602060248201527f4f6e6c7920726563697069656e742063616e20636f6d706c6574652048544c436044820152fd5b60405162461bcd60e51b815260206004820152601060248201526f12151310c81a185cc8195e1c1a5c995960821b6044820152606490fd5b3461011c57602036600319011261011c576004355f526003602052602060ff60405f2054166040519015158152f35b3461011c57602036600319011261011c57600435805f5260036020526106d160ff60405f205416610e9e565b805f5260026020526106ec60ff600660405f20015416610ee0565b805f526002602052600560405f20015442106107ef5761070a611017565b5f81815260026020526040902080546001600160a01b0316338190036107aa575f808080610775946006870162010000815461074c60ff8260081c1615610f21565b61075c60ff8260101c1615610f66565b62ff00ff19161790556003870154905af16105a6610faa565b546001600160a01b0316907f19438ba24f558efe29e176888dc45d354fa6ca8f049af37592767f6534f32eb05f80a360018055005b60405162461bcd60e51b815260206004820152601b60248201527f4f6e6c792073656e6465722063616e20726566756e642048544c4300000000006044820152606490fd5b60405162461bcd60e51b815260206004820152601460248201527312151310c81a185cc81b9bdd08195e1c1a5c995960621b6044820152606490fd5b608036600319011261011c5761083f610d31565b6024359067ffffffffffffffff821161011c573660238301121561011c5781600401359061086c82610d86565b9161087a6040519384610d64565b8083526020830193366024838301011161011c57815f9260246020930187378401015260443591606435916108ad611017565b3415610cec576001600160a01b038116948515610cb35742841115610c6e57825115610c305761093260806048604051809460208201963360601b88526bffffffffffffffffffffffff199060601b166034830152875180918484015e810134838201528960688201528860888201524260a882015203016060810184520182610d64565b51902091825f52600360205260ff60405f205416610bf55760405161095681610d47565b338152602080820187815260408084018681523460608601908152608086018a815260a08701888152600160c089018181525f60e08b018181526101008c018281528f835260029b8c9052989091209a518b546001600160a01b03199081166001600160a01b03928316178d559951938c018054909a169316929092179097559351805196989597949691949293928601919067ffffffffffffffff8211610be157610a028354610dc6565b601f8111610b9c575b50602090601f8311600114610b0b5791807fdad4391ca68117fba6ece1d1f072c1e9889ba1e5a9444ccd66fca772c39fe26f9d9c9b9a999896949260069896945f92610b00575b50508160011b915f199060031b1c19161790555b516003840155516004830155516005820155019251151560ff8019855416911617835551151561ff0083549160081b169061ff00191617825551151562ff000082549160101b169062ff00001916179055835f52600360205260405f20600160ff19825416179055610ae360405192608084526080840190610da2565b94346020840152604083015260608201528033940390a460018055005b015190505f80610a52565b90601f19831691845f52815f20925f5b818110610b845750926001927fdad4391ca68117fba6ece1d1f072c1e9889ba1e5a9444ccd66fca772c39fe26f9f9e9d9c9b9a989694928660069b99979410610b6c575b505050811b019055610a66565b01515f1960f88460031b161c191690555f8080610b5f565b92936020600181928786015181550195019301610b1b565b835f5260205f20601f840160051c81019160208510610bd7575b601f0160051c01905b818110610bcc5750610a0b565b5f8155600101610bbf565b9091508190610bb6565b634e487b7160e01b5f52604160045260245ffd5b60405162461bcd60e51b815260206004820152601360248201527248544c4320616c72656164792065786973747360681b6044820152606490fd5b60405162461bcd60e51b8152602060048201526016602482015275496e76616c696420536f6c616e61206164647265737360501b6044820152606490fd5b60405162461bcd60e51b815260206004820152601e60248201527f54696d656c6f636b206d75737420626520696e207468652066757475726500006044820152606490fd5b60405162461bcd60e51b8152602060048201526011602482015270125b9d985b1a59081c9958da5c1a595b9d607a1b6044820152606490fd5b60405162461bcd60e51b815260206004820152601d60248201527f416d6f756e74206d7573742062652067726561746572207468616e20300000006044820152606490fd5b600435906001600160a01b038216820361011c57565b610120810190811067ffffffffffffffff821117610be157604052565b90601f8019910116810190811067ffffffffffffffff821117610be157604052565b67ffffffffffffffff8111610be157601f01601f191660200190565b805180835260209291819084018484015e5f828201840152601f01601f1916010190565b90600182811c92168015610df4575b6020831014610de057565b634e487b7160e01b5f52602260045260245ffd5b91607f1691610dd5565b9060405191825f825492610e1184610dc6565b8084529360018116908115610e7c5750600114610e38575b50610e3692500383610d64565b565b90505f9291925260205f20905f915b818310610e60575050906020610e36928201015f610e29565b6020919350806001915483858901015201910190918492610e47565b905060209250610e3694915060ff191682840152151560051b8201015f610e29565b15610ea557565b60405162461bcd60e51b815260206004820152601360248201527212151310c8191bd95cc81b9bdd08195e1a5cdd606a1b6044820152606490fd5b15610ee757565b60405162461bcd60e51b815260206004820152601260248201527148544c43206973206e6f742061637469766560701b6044820152606490fd5b15610f2857565b60405162461bcd60e51b815260206004820152601660248201527512151310c8185b1c9958591e4818dbdb5c1b195d195960521b6044820152606490fd5b15610f6d57565b60405162461bcd60e51b815260206004820152601560248201527412151310c8185b1c9958591e481c99599d5b991959605a1b6044820152606490fd5b3d15610fd4573d90610fbb82610d86565b91610fc96040519384610d64565b82523d5f602084013e565b606090565b15610fe057565b60405162461bcd60e51b815260206004820152600f60248201526e151c985b9cd9995c8819985a5b1959608a1b6044820152606490fd5b600260015414611028576002600155565b633ee5aeb560e01b5f5260045ffd5b5f546001600160a01b0316330361104a57565b63118cdaa760e01b5f523360045260245ffdfea26469706673582212202c55bfe6efca19bf35373a16f58ee3a1c78e2fbf455c7f87da888ac8d99a783264736f6c634300081e0033","linkReferences":{}},"methodIdentifiers":{"completeHTLC(bytes32,bytes32)":"66aa4284","createHTLC(address,string,bytes32,uint256)":"1e8de7ac","emergencyWithdraw()":"db2e21bc","getHTLC(bytes32)":"90c26838","htlcExistsCheck(bytes32)":"34f1f2c9","htlcExistsMap(bytes32)":"4962130b","htlcMap(bytes32)":"ad177cf2","owner()":"8da5cb5b","refundHTLC(bytes32)":"43b920c5","renounceOwnership()":"715018a6","transferOwnership(address)":"f2fde38b"},"id":4}