{"abi":[{"type":"constructor","inputs":[{"name":"_wethToken","type":"address","internalType":"address"},{"name":"_wstarkToken","type":"address","internalType":"address"}],"stateMutability":"nonpayable"},{"type":"receive","stateMutability":"payable"},{"type":"function","name":"MAX_BRIDGE_AMOUNT","inputs":[],"outputs":[{"name":"","type":"uint256","internalType":"uint256"}],"stateMutability":"view"},{"type":"function","name":"MIN_BRIDGE_AMOUNT","inputs":[],"outputs":[{"name":"","type":"uint256","internalType":"uint256"}],"stateMutability":"view"},{"type":"function","name":"bridgeFee","inputs":[],"outputs":[{"name":"","type":"uint256","internalType":"uint256"}],"stateMutability":"view"},{"type":"function","name":"convertStarknetAddress","inputs":[{"name":"_starknetAddressHex","type":"string","internalType":"string"}],"outputs":[{"name":"","type":"uint256","internalType":"uint256"}],"stateMutability":"pure"},{"type":"function","name":"emergencyPause","inputs":[],"outputs":[],"stateMutability":"nonpayable"},{"type":"function","name":"emergencyWithdraw","inputs":[{"name":"_token","type":"address","internalType":"address"},{"name":"_amount","type":"uint256","internalType":"uint256"}],"outputs":[],"stateMutability":"nonpayable"},{"type":"function","name":"getHtlc","inputs":[{"name":"id","type":"bytes32","internalType":"bytes32"}],"outputs":[{"name":"initiator","type":"address","internalType":"address"},{"name":"starknetAddress","type":"uint256","internalType":"uint256"},{"name":"amount","type":"uint256","internalType":"uint256"},{"name":"hash","type":"bytes32","internalType":"bytes32"},{"name":"timelock","type":"uint256","internalType":"uint256"},{"name":"executed","type":"bool","internalType":"bool"},{"name":"refunded","type":"bool","internalType":"bool"}],"stateMutability":"view"},{"type":"function","name":"htlcs","inputs":[{"name":"","type":"bytes32","internalType":"bytes32"}],"outputs":[{"name":"initiator","type":"address","internalType":"address payable"},{"name":"starknetAddress","type":"uint256","internalType":"uint256"},{"name":"amount","type":"uint256","internalType":"uint256"},{"name":"hash","type":"bytes32","internalType":"bytes32"},{"name":"timelock","type":"uint256","internalType":"uint256"},{"name":"executed","type":"bool","internalType":"bool"},{"name":"refunded","type":"bool","internalType":"bool"}],"stateMutability":"view"},{"type":"function","name":"initiateFromStarknet","inputs":[{"name":"id","type":"bytes32","internalType":"bytes32"},{"name":"_ethereumAddress","type":"address","internalType":"address payable"},{"name":"_amount","type":"uint256","internalType":"uint256"},{"name":"_hash","type":"bytes32","internalType":"bytes32"},{"name":"_timelock","type":"uint256","internalType":"uint256"}],"outputs":[],"stateMutability":"nonpayable"},{"type":"function","name":"initiateToStarknet","inputs":[{"name":"id","type":"bytes32","internalType":"bytes32"},{"name":"_starknetAddress","type":"uint256","internalType":"uint256"},{"name":"_hash","type":"bytes32","internalType":"bytes32"},{"name":"_timelock","type":"uint256","internalType":"uint256"}],"outputs":[],"stateMutability":"payable"},{"type":"function","name":"isValidHtlc","inputs":[{"name":"id","type":"bytes32","internalType":"bytes32"}],"outputs":[{"name":"","type":"bool","internalType":"bool"}],"stateMutability":"view"},{"type":"function","name":"owner","inputs":[],"outputs":[{"name":"","type":"address","internalType":"address"}],"stateMutability":"view"},{"type":"function","name":"redeem","inputs":[{"name":"id","type":"bytes32","internalType":"bytes32"},{"name":"_preimage","type":"bytes","internalType":"bytes"}],"outputs":[],"stateMutability":"nonpayable"},{"type":"function","name":"refund","inputs":[{"name":"id","type":"bytes32","internalType":"bytes32"}],"outputs":[],"stateMutability":"nonpayable"},{"type":"function","name":"renounceOwnership","inputs":[],"outputs":[],"stateMutability":"nonpayable"},{"type":"function","name":"transferOwnership","inputs":[{"name":"newOwner","type":"address","internalType":"address"}],"outputs":[],"stateMutability":"nonpayable"},{"type":"function","name":"updateBridgeFee","inputs":[{"name":"_newFee","type":"uint256","internalType":"uint256"}],"outputs":[],"stateMutability":"nonpayable"},{"type":"function","name":"wethToken","inputs":[],"outputs":[{"name":"","type":"address","internalType":"contract IERC20"}],"stateMutability":"view"},{"type":"function","name":"withdrawFees","inputs":[],"outputs":[],"stateMutability":"nonpayable"},{"type":"function","name":"wstarkToken","inputs":[],"outputs":[{"name":"","type":"address","internalType":"contract IERC20"}],"stateMutability":"view"},{"type":"event","name":"Initiated","inputs":[{"name":"id","type":"bytes32","indexed":true,"internalType":"bytes32"},{"name":"initiator","type":"address","indexed":true,"internalType":"address"},{"name":"starknetAddress","type":"uint256","indexed":true,"internalType":"uint256"},{"name":"amount","type":"uint256","indexed":false,"internalType":"uint256"}],"anonymous":false},{"type":"event","name":"OwnershipTransferred","inputs":[{"name":"previousOwner","type":"address","indexed":true,"internalType":"address"},{"name":"newOwner","type":"address","indexed":true,"internalType":"address"}],"anonymous":false},{"type":"event","name":"Redeemed","inputs":[{"name":"id","type":"bytes32","indexed":true,"internalType":"bytes32"},{"name":"preimage","type":"bytes32","indexed":false,"internalType":"bytes32"}],"anonymous":false},{"type":"event","name":"Refunded","inputs":[{"name":"id","type":"bytes32","indexed":true,"internalType":"bytes32"}],"anonymous":false},{"type":"error","name":"OwnableInvalidOwner","inputs":[{"name":"owner","type":"address","internalType":"address"}]},{"type":"error","name":"OwnableUnauthorizedAccount","inputs":[{"name":"account","type":"address","internalType":"address"}]},{"type":"error","name":"ReentrancyGuardReentrantCall","inputs":[]}],"bytecode":{"object":"0x60c03461010757601f61164338819003918201601f19168301916001600160401b0383118484101761010b57808492604094855283398101031261010757610052602061004b8361011f565b920161011f565b60015f5533156100f45760018054336001600160a01b0319821681179092556040519391906001600160a01b03167f8be0079c531659141344cd1fd0a4f28419497f9722a3daafe3b4186f6b6457e05f80a366038d7ea4c680006003556001600160a01b039081166080521660a05261150f908161013482396080518161090d015260a0518181816102790152818161043d015281816106fe0152610a960152f35b631e4fbdf760e01b5f525f60045260245ffd5b5f80fd5b634e487b7160e01b5f52604160045260245ffd5b51906001600160a01b03821682036101075756fe608080604052600436101561001c575b50361561001a575f80fd5b005b5f3560e01c908163089c0aa4146110b25750806319304e251461104a57806319e2a1b914610eac578063375629cd14610c4a5780633a5c6e7a146109c9578063476343ee1461093c5780634b57b0be146108f857806351858e27146108e05780635a1c03661461086c578063715018a6146108115780637249fbb6146105ff5780637fce0002146105dc57806382b12dd7146105bf578063886688c11461059e5780638da5cb5b1461057657806391edd8f2146104fb57806395ccea671461046c578063cb521e7014610428578063f2fde38b146103a25763f7ff720714610104575f61000f565b3461039e57604036600319011261039e5760043560243567ffffffffffffffff811161039e57610138903690600401611129565b90610141611494565b825f52600260205260405f2090600582019081549361016360ff8616156113e0565b61017360ff8660081c161561143a565b600484015442101561034d576020915f916101aa84604051838194838301968737810186838201520301601f198101835282611348565b604051918291518091835e8101838152039060025afa15610234575f519260038301938454036103095760ff1916600190811790915581015415610248575f808060028194015481811561023f575b3390f1156102345760207f489e9ee921192823d1aa1ef800c9ffc642993538b1e7e43a4d46a91965e894ab915b54604051908152a260015f55005b6040513d5f823e3d90fd5b506108fc6101f9565b6002015460405163a9059cbb60e01b81523360048201526024810191909152906020826044815f6001600160a01b037f0000000000000000000000000000000000000000000000000000000000000000165af1908115610234576102d76020927f489e9ee921192823d1aa1ef800c9ffc642993538b1e7e43a4d46a91965e894ab945f916102dc575b50611394565b610226565b6102fc9150843d8611610302575b6102f48183611348565b81019061137c565b5f6102d1565b503d6102ea565b606460405162461bcd60e51b815260206004820152602060248201527f537461726b6e65744272696467653a20696e76616c696420707265696d6167656044820152fd5b60405162461bcd60e51b8152602060048201526024808201527f537461726b6e65744272696467653a2074696d656c6f636b20686173206578706044820152631a5c995960e21b6064820152608490fd5b5f80fd5b3461039e57602036600319011261039e576103bb611157565b6103c36114b2565b6001600160a01b0316801561041557600180546001600160a01b0319811683179091556001600160a01b03167f8be0079c531659141344cd1fd0a4f28419497f9722a3daafe3b4186f6b6457e05f80a3005b631e4fbdf760e01b5f525f60045260245ffd5b3461039e575f36600319011261039e576040517f00000000000000000000000000000000000000000000000000000000000000006001600160a01b03168152602090f35b3461039e57604036600319011261039e575f60206104ca61048b611157565b6104936114b2565b60015460405163a9059cbb60e01b81526001600160a01b039091166004820152602480359082015293849283919082906044820190565b03926001600160a01b03165af18015610234576104e357005b61001a9060203d602011610302576102f48183611348565b3461039e57602036600319011261039e576004355f52600260205260e060405f2060ff60018060a01b0382541691600181015490600281015460038201549060056004840154930154936040519687526020870152604086015260608501526080840152818116151560a084015260081c16151560c0820152f35b3461039e575f36600319011261039e576001546040516001600160a01b039091168152602090f35b3461039e575f36600319011261039e576020604051662386f26fc100008152f35b3461039e575f36600319011261039e576020600354604051908152f35b3461039e575f36600319011261039e57602060405168056bc75e2d631000008152f35b3461039e57602036600319011261039e5760043561061b611494565b5f81815260026020526040902080546001600160a01b03163381036107b85760058201805461064d60ff8216156113e0565b61065d60ff8260081c161561143a565b600484015442106107625761ff0019166101001790556001820154156106d557505f80808093600260018060a01b03825416910154908282156106cc575bf115610234575b7ffe509803c09416b28ff3d8f690c8b0c61462a892c46d5430c8fb20abe472daf05f80a260015f55005b506108fc61069b565b60029091015460405163a9059cbb60e01b8152600481019290925260248201526020816044815f7f00000000000000000000000000000000000000000000000000000000000000006001600160a01b03165af180156102345761073e915f916107435750611394565b6106a2565b61075c915060203d602011610302576102f48183611348565b836102d1565b60405162461bcd60e51b815260206004820152602860248201527f537461726b6e65744272696467653a2074696d656c6f636b20686173206e6f7460448201526708195e1c1a5c995960c21b6064820152608490fd5b60405162461bcd60e51b815260206004820152602b60248201527f537461726b6e65744272696467653a2063616c6c6572206973206e6f7420746860448201526a329034b734ba34b0ba37b960a91b6064820152608490fd5b3461039e575f36600319011261039e576108296114b2565b600180546001600160a01b031981169091555f906001600160a01b03167f8be0079c531659141344cd1fd0a4f28419497f9722a3daafe3b4186f6b6457e08280a3005b3461039e57602036600319011261039e576004356108886114b2565b662386f26fc10000811161089b57600355005b60405162461bcd60e51b815260206004820152601c60248201527f537461726b6e65744272696467653a2066656520746f6f2068696768000000006044820152606490fd5b3461039e575f36600319011261039e5761001a6114b2565b3461039e575f36600319011261039e576040517f00000000000000000000000000000000000000000000000000000000000000006001600160a01b03168152602090f35b3461039e575f36600319011261039e576109546114b2565b478015610978576001545f918291829182916001600160a01b031682f11561023457005b60405162461bcd60e51b815260206004820152602360248201527f537461726b6e65744272696467653a206e6f206665657320746f20776974686460448201526272617760e81b6064820152608490fd5b3461039e5760a036600319011261039e576024356001600160a01b038116906004359082900361039e576044359060643560843593610a06611494565b5f83815260026020526040902054610a27906001600160a01b03161561116d565b610a3a662386f26fc100008510156111d2565b610a4f683635c9adc5dea0000085111561121e565b15610bf457610a5f81151561126a565b610a6c610e1085116112b6565b6040516323b872dd60e01b815233600482015230602482015260448101849052906020826064815f7f00000000000000000000000000000000000000000000000000000000000000006001600160a01b03165af18015610234575f95610adf610ae592610ba3958991610bd55750611394565b4261131f565b610b8c6005604051610af68161132c565b33815260208101938985526040820195898752606083019081526080830191825260a08301968b885260c08401968c88528a8d52600260205260408d209460018060a01b039060018060a01b03905116166bffffffffffffffffffffffff60a01b8654161785555160018501555160028401555160038301555160048201550192511515839060ff801983541691151516179055565b51815461ff00191690151560081b61ff0016179055565b6040519182527f32f66378e1286d490c275e7123c9a3b56616fe021854a438dfcfa79ae7c46a2360203393a460015f55005b610bee915060203d602011610302576102f48183611348565b896102d1565b60405162461bcd60e51b815260206004820152602860248201527f537461726b6e65744272696467653a20696e76616c696420457468657265756d604482015267206164647265737360c01b6064820152608490fd5b3461039e57602036600319011261039e5760043567ffffffffffffffff811161039e57610c7b903690600401611129565b67ffffffffffffffff8111610e985760405191610ca2601f8301601f191660200184611348565b818352368282011161039e57815f9260209283860137830101526002815110610e44575f90815b8151831015610e39576020838301015160f81c603081101580610e2e575b15610d38578160041b9180830460101490151715610d2457602f190160ff8111610d245760019160ff610d1b92169061131f565b925b0191610cc9565b634e487b7160e01b5f52601160045260245ffd5b606181101580610e23575b15610d85578160041b9180830460101490151715610d24576060190160ff8111610d245760019160ff610d78610d7f9361136a565b169061131f565b92610d1d565b604181101580610e18575b15610dc5578160041b9180830460101490151715610d24576040190160ff8111610d245760019160ff610d78610d7f9361136a565b60405162461bcd60e51b815260206004820152602560248201527f537461726b6e65744272696467653a20696e76616c696420686578206368617260448201526430b1ba32b960d91b6064820152608490fd5b506046811115610d90565b506066811115610d43565b506039811115610ce7565b602090604051908152f35b60405162461bcd60e51b815260206004820152602660248201527f537461726b6e65744272696467653a20696e76616c6964206164647265737320604482015265199bdc9b585d60d21b6064820152608490fd5b634e487b7160e01b5f52604160045260245ffd5b608036600319011261039e57602435604435600435606435610ecc611494565b5f82815260026020526040902054610eed906001600160a01b03161561116d565b610f00662386f26fc100003410156111d2565b610f1568056bc75e2d6310000034111561121e565b8315610ff457610f2683151561126a565b610f33610e1082116112b6565b600354340392348411610d2457610f4d610ba3924261131f565b610b8c6005604051610f5e8161132c565b33815260208101938985526040820195898752606083019081526080830191825260a08301965f885260c08401965f88528a5f52600260205260405f209460018060a01b039060018060a01b03905116166bffffffffffffffffffffffff60a01b8654161785555160018501555160028401555160038301555160048201550192511515839060ff801983541691151516179055565b60405162461bcd60e51b815260206004820152602860248201527f537461726b6e65744272696467653a20696e76616c696420537461726b6e6574604482015267206164647265737360c01b6064820152608490fd5b3461039e57602036600319011261039e576004355f526002602052602060405f2060018060a01b03815416151590816110a2575b8161108f575b506040519015158152f35b60ff91506005015460081c161582611084565b600581015460ff1615915061107e565b3461039e57602036600319011261039e5760e0906004355f52600260205260ff60405f2060018060a01b038154169060018101546002820154600383015491600560048501549401549487526020870152604086015260608501526080840152818116151560a084015260081c16151560c0820152f35b9181601f8401121561039e5782359167ffffffffffffffff831161039e576020838186019501011161039e57565b600435906001600160a01b038216820361039e57565b1561117457565b60405162461bcd60e51b815260206004820152603060248201527f537461726b6e65744272696467653a207377617020776974682074686973206960448201526f6420616c72656164792065786973747360801b6064820152608490fd5b156111d957565b60405162461bcd60e51b815260206004820152601e60248201527f537461726b6e65744272696467653a20616d6f756e7420746f6f206c6f7700006044820152606490fd5b1561122557565b60405162461bcd60e51b815260206004820152601f60248201527f537461726b6e65744272696467653a20616d6f756e7420746f6f2068696768006044820152606490fd5b1561127157565b60405162461bcd60e51b815260206004820152601c60248201527f537461726b6e65744272696467653a20696e76616c69642068617368000000006044820152606490fd5b156112bd57565b60405162461bcd60e51b815260206004820152603460248201527f537461726b6e65744272696467653a2074696d656c6f636b206d7573742062656044820152731033b932b0ba32b9103a3430b71018903437bab960611b6064820152608490fd5b91908201809211610d2457565b60e0810190811067ffffffffffffffff821117610e9857604052565b90601f8019910116810190811067ffffffffffffffff821117610e9857604052565b60ff600a9116019060ff8211610d2457565b9081602091031261039e5751801515810361039e5790565b1561139b57565b60405162461bcd60e51b815260206004820152601f60248201527f537461726b6e65744272696467653a207472616e73666572206661696c6564006044820152606490fd5b156113e757565b60405162461bcd60e51b815260206004820152602560248201527f537461726b6e65744272696467653a207377617020616c72656164792065786560448201526418dd5d195960da1b6064820152608490fd5b1561144157565b60405162461bcd60e51b815260206004820152602560248201527f537461726b6e65744272696467653a207377617020616c7265616479207265666044820152641d5b99195960da1b6064820152608490fd5b60025f54146114a35760025f55565b633ee5aeb560e01b5f5260045ffd5b6001546001600160a01b031633036114c657565b63118cdaa760e01b5f523360045260245ffdfea2646970667358221220e09cf0aabc8b2e737b37fd86eb2659ae7a73a881cba41de4a01dcb0cfd94536464736f6c634300081e0033","linkReferences":{}},"methodIdentifiers":{"MAX_BRIDGE_AMOUNT()":"7fce0002","MIN_BRIDGE_AMOUNT()":"886688c1","bridgeFee()":"82b12dd7","convertStarknetAddress(string)":"375629cd","emergencyPause()":"51858e27","emergencyWithdraw(address,uint256)":"95ccea67","getHtlc(bytes32)":"089c0aa4","htlcs(bytes32)":"91edd8f2","initiateFromStarknet(bytes32,address,uint256,bytes32,uint256)":"3a5c6e7a","initiateToStarknet(bytes32,uint256,bytes32,uint256)":"19e2a1b9","isValidHtlc(bytes32)":"19304e25","owner()":"8da5cb5b","redeem(bytes32,bytes)":"f7ff7207","refund(bytes32)":"7249fbb6","renounceOwnership()":"715018a6","transferOwnership(address)":"f2fde38b","updateBridgeFee(uint256)":"5a1c0366","wethToken()":"4b57b0be","withdrawFees()":"476343ee","wstarkToken()":"cb521e70"},"id":5}