{
  "_format": "hh-sol-artifact-1",
  "contractName": "StarknetBridge",
  "sourceName": "contracts/StarknetBridge.sol",
  "abi": [
    {
      "inputs": [
        {
          "internalType": "address",
          "name": "_wethToken",
          "type": "address"
        },
        {
          "internalType": "address",
          "name": "_wstarkToken",
          "type": "address"
        }
      ],
      "stateMutability": "nonpayable",
      "type": "constructor"
    },
    {
      "inputs": [
        {
          "internalType": "address",
          "name": "owner",
          "type": "address"
        }
      ],
      "name": "OwnableInvalidOwner",
      "type": "error"
    },
    {
      "inputs": [
        {
          "internalType": "address",
          "name": "account",
          "type": "address"
        }
      ],
      "name": "OwnableUnauthorizedAccount",
      "type": "error"
    },
    {
      "inputs": [],
      "name": "ReentrancyGuardReentrantCall",
      "type": "error"
    },
    {
      "anonymous": false,
      "inputs": [
        {
          "indexed": true,
          "internalType": "bytes32",
          "name": "id",
          "type": "bytes32"
        },
        {
          "indexed": true,
          "internalType": "address",
          "name": "initiator",
          "type": "address"
        },
        {
          "indexed": true,
          "internalType": "uint256",
          "name": "starknetAddress",
          "type": "uint256"
        },
        {
          "indexed": false,
          "internalType": "uint256",
          "name": "amount",
          "type": "uint256"
        }
      ],
      "name": "Initiated",
      "type": "event"
    },
    {
      "anonymous": false,
      "inputs": [
        {
          "indexed": true,
          "internalType": "address",
          "name": "previousOwner",
          "type": "address"
        },
        {
          "indexed": true,
          "internalType": "address",
          "name": "newOwner",
          "type": "address"
        }
      ],
      "name": "OwnershipTransferred",
      "type": "event"
    },
    {
      "anonymous": false,
      "inputs": [
        {
          "indexed": true,
          "internalType": "bytes32",
          "name": "id",
          "type": "bytes32"
        },
        {
          "indexed": false,
          "internalType": "bytes32",
          "name": "preimage",
          "type": "bytes32"
        }
      ],
      "name": "Redeemed",
      "type": "event"
    },
    {
      "anonymous": false,
      "inputs": [
        {
          "indexed": true,
          "internalType": "bytes32",
          "name": "id",
          "type": "bytes32"
        }
      ],
      "name": "Refunded",
      "type": "event"
    },
    {
      "inputs": [],
      "name": "MAX_BRIDGE_AMOUNT",
      "outputs": [
        {
          "internalType": "uint256",
          "name": "",
          "type": "uint256"
        }
      ],
      "stateMutability": "view",
      "type": "function"
    },
    {
      "inputs": [],
      "name": "MIN_BRIDGE_AMOUNT",
      "outputs": [
        {
          "internalType": "uint256",
          "name": "",
          "type": "uint256"
        }
      ],
      "stateMutability": "view",
      "type": "function"
    },
    {
      "inputs": [],
      "name": "bridgeFee",
      "outputs": [
        {
          "internalType": "uint256",
          "name": "",
          "type": "uint256"
        }
      ],
      "stateMutability": "view",
      "type": "function"
    },
    {
      "inputs": [
        {
          "internalType": "string",
          "name": "_starknetAddressHex",
          "type": "string"
        }
      ],
      "name": "convertStarknetAddress",
      "outputs": [
        {
          "internalType": "uint256",
          "name": "",
          "type": "uint256"
        }
      ],
      "stateMutability": "pure",
      "type": "function"
    },
    {
      "inputs": [],
      "name": "emergencyPause",
      "outputs": [],
      "stateMutability": "nonpayable",
      "type": "function"
    },
    {
      "inputs": [
        {
          "internalType": "address",
          "name": "_token",
          "type": "address"
        },
        {
          "internalType": "uint256",
          "name": "_amount",
          "type": "uint256"
        }
      ],
      "name": "emergencyWithdraw",
      "outputs": [],
      "stateMutability": "nonpayable",
      "type": "function"
    },
    {
      "inputs": [
        {
          "internalType": "bytes32",
          "name": "id",
          "type": "bytes32"
        }
      ],
      "name": "getHtlc",
      "outputs": [
        {
          "internalType": "address",
          "name": "initiator",
          "type": "address"
        },
        {
          "internalType": "uint256",
          "name": "starknetAddress",
          "type": "uint256"
        },
        {
          "internalType": "uint256",
          "name": "amount",
          "type": "uint256"
        },
        {
          "internalType": "bytes32",
          "name": "hash",
          "type": "bytes32"
        },
        {
          "internalType": "uint256",
          "name": "timelock",
          "type": "uint256"
        },
        {
          "internalType": "bool",
          "name": "executed",
          "type": "bool"
        },
        {
          "internalType": "bool",
          "name": "refunded",
          "type": "bool"
        }
      ],
      "stateMutability": "view",
      "type": "function"
    },
    {
      "inputs": [
        {
          "internalType": "bytes32",
          "name": "",
          "type": "bytes32"
        }
      ],
      "name": "htlcs",
      "outputs": [
        {
          "internalType": "address payable",
          "name": "initiator",
          "type": "address"
        },
        {
          "internalType": "uint256",
          "name": "starknetAddress",
          "type": "uint256"
        },
        {
          "internalType": "uint256",
          "name": "amount",
          "type": "uint256"
        },
        {
          "internalType": "bytes32",
          "name": "hash",
          "type": "bytes32"
        },
        {
          "internalType": "uint256",
          "name": "timelock",
          "type": "uint256"
        },
        {
          "internalType": "bool",
          "name": "executed",
          "type": "bool"
        },
        {
          "internalType": "bool",
          "name": "refunded",
          "type": "bool"
        }
      ],
      "stateMutability": "view",
      "type": "function"
    },
    {
      "inputs": [
        {
          "internalType": "bytes32",
          "name": "id",
          "type": "bytes32"
        },
        {
          "internalType": "address payable",
          "name": "_ethereumAddress",
          "type": "address"
        },
        {
          "internalType": "uint256",
          "name": "_amount",
          "type": "uint256"
        },
        {
          "internalType": "bytes32",
          "name": "_hash",
          "type": "bytes32"
        },
        {
          "internalType": "uint256",
          "name": "_timelock",
          "type": "uint256"
        }
      ],
      "name": "initiateFromStarknet",
      "outputs": [],
      "stateMutability": "nonpayable",
      "type": "function"
    },
    {
      "inputs": [
        {
          "internalType": "bytes32",
          "name": "id",
          "type": "bytes32"
        },
        {
          "internalType": "uint256",
          "name": "_starknetAddress",
          "type": "uint256"
        },
        {
          "internalType": "bytes32",
          "name": "_hash",
          "type": "bytes32"
        },
        {
          "internalType": "uint256",
          "name": "_timelock",
          "type": "uint256"
        }
      ],
      "name": "initiateToStarknet",
      "outputs": [],
      "stateMutability": "payable",
      "type": "function"
    },
    {
      "inputs": [
        {
          "internalType": "bytes32",
          "name": "id",
          "type": "bytes32"
        }
      ],
      "name": "isValidHtlc",
      "outputs": [
        {
          "internalType": "bool",
          "name": "",
          "type": "bool"
        }
      ],
      "stateMutability": "view",
      "type": "function"
    },
    {
      "inputs": [],
      "name": "owner",
      "outputs": [
        {
          "internalType": "address",
          "name": "",
          "type": "address"
        }
      ],
      "stateMutability": "view",
      "type": "function"
    },
    {
      "inputs": [
        {
          "internalType": "bytes32",
          "name": "id",
          "type": "bytes32"
        },
        {
          "internalType": "bytes",
          "name": "_preimage",
          "type": "bytes"
        }
      ],
      "name": "redeem",
      "outputs": [],
      "stateMutability": "nonpayable",
      "type": "function"
    },
    {
      "inputs": [
        {
          "internalType": "bytes32",
          "name": "id",
          "type": "bytes32"
        }
      ],
      "name": "refund",
      "outputs": [],
      "stateMutability": "nonpayable",
      "type": "function"
    },
    {
      "inputs": [],
      "name": "renounceOwnership",
      "outputs": [],
      "stateMutability": "nonpayable",
      "type": "function"
    },
    {
      "inputs": [
        {
          "internalType": "address",
          "name": "newOwner",
          "type": "address"
        }
      ],
      "name": "transferOwnership",
      "outputs": [],
      "stateMutability": "nonpayable",
      "type": "function"
    },
    {
      "inputs": [
        {
          "internalType": "uint256",
          "name": "_newFee",
          "type": "uint256"
        }
      ],
      "name": "updateBridgeFee",
      "outputs": [],
      "stateMutability": "nonpayable",
      "type": "function"
    },
    {
      "inputs": [],
      "name": "wethToken",
      "outputs": [
        {
          "internalType": "contract IERC20",
          "name": "",
          "type": "address"
        }
      ],
      "stateMutability": "view",
      "type": "function"
    },
    {
      "inputs": [],
      "name": "withdrawFees",
      "outputs": [],
      "stateMutability": "nonpayable",
      "type": "function"
    },
    {
      "inputs": [],
      "name": "wstarkToken",
      "outputs": [
        {
          "internalType": "contract IERC20",
          "name": "",
          "type": "address"
        }
      ],
      "stateMutability": "view",
      "type": "function"
    },
    {
      "stateMutability": "payable",
      "type": "receive"
    }
  ],
  "bytecode": "0x60c03461010a57601f61174738819003918201601f19168301916001600160401b0383118484101761010f57808492604094855283398101031261010a57610052602061004b83610125565b9201610125565b90600160005533156100f15760018054336001600160a01b031982168117909255604051936001600160a01b03939092849283167f8be0079c531659141344cd1fd0a4f28419497f9722a3daafe3b4186f6b6457e0600080a366038d7ea4c68000600355166080521660a05261160d908161013a823960805181610984015260a05181818161028201528181610479015281816107690152610b140152f35b604051631e4fbdf760e01b815260006004820152602490fd5b600080fd5b634e487b7160e01b600052604160045260246000fd5b51906001600160a01b038216820361010a5756fe60806040818152600480361015610021575b505050361561001f57600080fd5b005b600092833560e01c908163089c0aa41461116f5750806319304e251461110857806319e2a1b914610f23578063375629cd14610ca65780633a5c6e7a14610a4d578063476343ee146109b35780634b57b0be1461096f57806351858e27146109535780635a1c0366146108dd578063715018a61461087d5780637249fbb61461064e5780637fce00021461062a57806382b12dd71461060b578063886688c1146105e95780638da5cb5b146105c057806391edd8f21461054857806395ccea67146104ac578063cb521e7014610464578063f2fde38b146103da5763f7ff72070361001157346103d657816003193601126103d65780359060243567ffffffffffffffff81116103d25761013890369083016111ec565b61014061148a565b8386526020926002845285872091600583019081549461016360ff871615611511565b61017360ff8760081c161561156b565b8385015442101561038357816101a2888c9381958d519485928484013781018583820152038084520182611468565b895190805190835b82811061036e57505081908101838152039060025afa156103645787519360038401948554036103235760ff19166001908117909155820154879291901561024e57508180600281930154818115610245575b3390f11561023857927f489e9ee921192823d1aa1ef800c9ffc642993538b1e7e43a4d46a91965e894ab92935b549051908152a26001815580f35b50505051903d90823e3d90fd5b506108fc6101fd565b60029190910154865163a9059cbb60e01b8152339281019283526020830191909152959291508390869081906040010381897f00000000000000000000000000000000000000000000000000000000000000006001600160a01b03165af1948515610319577f489e9ee921192823d1aa1ef800c9ffc642993538b1e7e43a4d46a91965e894ab94956102e79188916102ec575b506114c5565b61022a565b61030c9150853d8711610312575b6103048183611468565b8101906114ad565b386102e1565b503d6102fa565b82513d88823e3d90fd5b60648387808b519262461bcd60e51b845283015260248201527f537461726b6e65744272696467653a20696e76616c696420707265696d6167656044820152fd5b86513d89823e3d90fd5b818101860151848201528a958e9550016101aa565b885162461bcd60e51b81528085018890526024808201527f537461726b6e65744272696467653a2074696d656c6f636b20686173206578706044820152631a5c995960e21b6064820152608490fd5b8480fd5b8280fd5b50346103d65760203660031901126103d6576103f461121f565b906103fd611235565b6001600160a01b0391821692831561044e575050600154826001600160601b0360a01b821617600155167f8be0079c531659141344cd1fd0a4f28419497f9722a3daafe3b4186f6b6457e08380a380f35b51631e4fbdf760e01b8152908101849052602490fd5b5050346104a857816003193601126104a857517f00000000000000000000000000000000000000000000000000000000000000006001600160a01b03168152602090f35b5080fd5b5090346103d657806003193601126103d657602061050f926104cc61121f565b6104d4611235565b600154845163a9059cbb60e01b81526001600160a01b0391821693810193845260243560208501529586938492899290918491604090910190565b0393165af190811561053f5750610524575080f35b61053b9060203d8111610312576103048183611468565b5080f35b513d84823e3d90fd5b5090346103d65760203660031901126103d6578060ff9160e0948435815260026020522060018060a01b03815416936001820154926002830154906005600385015493850154940154948151978852602088015286015260608501526080840152818116151560a084015260081c16151560c0820152f35b5050346104a857816003193601126104a85760015490516001600160a01b039091168152602090f35b5050346104a857816003193601126104a85760209051662386f26fc100008152f35b5050346104a857816003193601126104a8576020906003549051908152f35b5050346104a857816003193601126104a8576020905168056bc75e2d631000008152f35b509190346104a857602090816003193601126103d65783359161066f61148a565b82845260028152818420805490916001600160a01b039182163381036108265760058401978854986106a460ff8b1615611511565b6106b460ff8b60081c161561156b565b8186015442106107d257610100899a61ff009a98999a19161790556001850154151560001461073e57505050828260028294938394541691015490828215610735575bf11561072a57505b7ffe509803c09416b28ff3d8f690c8b0c61462a892c46d5430c8fb20abe472daf08280a26001815580f35b51913d9150823e3d90fd5b506108fc6106f7565b829560026044939495969998990154958951968795869463a9059cbb60e01b865285015260248401527f0000000000000000000000000000000000000000000000000000000000000000165af19182156107c8576107a693945085926107ab575b50506114c5565b6106ff565b6107c19250803d10610312576103048183611468565b388061079f565b84513d87823e3d90fd5b865162461bcd60e51b8152808301859052602860248201527f537461726b6e65744272696467653a2074696d656c6f636b20686173206e6f7460448201526708195e1c1a5c995960c21b6064820152608490fd5b845162461bcd60e51b8152808901839052602b60248201527f537461726b6e65744272696467653a2063616c6c6572206973206e6f7420746860448201526a329034b734ba34b0ba37b960a91b6064820152608490fd5b83346108da57806003193601126108da57610896611235565b600180546001600160a01b0319811690915581906001600160a01b03167f8be0079c531659141344cd1fd0a4f28419497f9722a3daafe3b4186f6b6457e08280a380f35b80fd5b50346103d65760203660031901126103d6578035916108fa611235565b662386f26fc10000831161091057505060035580f35b906020606492519162461bcd60e51b8352820152601c60248201527f537461726b6e65744272696467653a2066656520746f6f2068696768000000006044820152fd5b83346108da57806003193601126108da5761096c611235565b80f35b5050346104a857816003193601126104a857517f00000000000000000000000000000000000000000000000000000000000000006001600160a01b03168152602090f35b50346103d657826003193601126103d6576109cc611235565b479081156109fe575060015483918291829182916001600160a01b031682f1156109f4575080f35b51903d90823e3d90fd5b608490602084519162461bcd60e51b8352820152602360248201527f537461726b6e65744272696467653a206e6f206665657320746f20776974686460448201526272617760e81b6064820152fd5b509190346104a85760a03660031901126104a8576024356001600160a01b03818116928535928490036103d257604435916064359660843597610a8e61148a565b85885260209660028852610aa784868b20541615611261565b610aba662386f26fc100008710156112c6565b610acf683635c9adc5dea00000871115611312565b15610c52578798610ae182151561135e565b610aee610e1082116113aa565b84516323b872dd60e01b815233848201523060248201526044810187905288816064818d7f00000000000000000000000000000000000000000000000000000000000000008a165af1908115610c485791610b558a9694928a96948d91610c3157506114c5565b610b5f9042611413565b908a875194610b6d86611436565b3386528786019082825289808801938c8552606089019586526080890196875260a089019a818c5260c08a019a828c52825260029052209651166001600160601b0360a01b875416178655516001860155516002850155516003840155519082015560050191511515610bec90839060ff801983541691151516179055565b51815461ff00191690151560081b61ff00161790555190815233927f32f66378e1286d490c275e7123c9a3b56616fe021854a438dfcfa79ae7c46a2391a46001815580f35b61030c9150883d8a11610312576103048183611468565b86513d8c823e3d90fd5b835162461bcd60e51b8152808301889052602860248201527f537461726b6e65744272696467653a20696e76616c696420457468657265756d604482015267206164647265737360c01b6064820152608490fd5b508290346104a8576020806003193601126103d65767ffffffffffffffff9382358581116103d257610cdb90369085016111ec565b90958111610f1057815195610cf9601f8301601f1916850188611468565b8187523682820111610f0c578186928592838a0137870101526002855110610ebc578391825b8651841015610eb55781848801015160f81c603081101580610eaa575b15610dba5781861b9180830460101490151715610da75760ff90602f1901818111610d9457610d6d92911690611413565b925b6000198114610d815760010192610d1f565b634e487b7160e01b865260118552602486fd5b634e487b7160e01b885260118752602488fd5b634e487b7160e01b875260118652602487fd5b606181101580610e9f575b15610e055781861b9180830460101490151715610da75760ff9060601901818111610d945790610df8610dff93926115c5565b1690611413565b92610d6f565b604181101580610e94575b15610e435781861b9180830460101490151715610da75760ff9060401901818111610d945790610df8610dff93926115c5565b835162461bcd60e51b8152808701849052602560248201527f537461726b6e65744272696467653a20696e76616c696420686578206368617260448201526430b1ba32b960d91b6064820152608490fd5b506046811115610e10565b506066811115610dc5565b506039811115610d3c565b8251908152f35b5162461bcd60e51b815291820152602660248201527f537461726b6e65744272696467653a20696e76616c6964206164647265737320604482015265199bdc9b585d60d21b606482015260849150fd5b8580fd5b634e487b7160e01b855260418452602485fd5b5060803660031901126103d65780356024359260443560643593610f4561148a565b8387526002602052828720546001600160a01b039290610f6790841615611261565b610f7a662386f26fc100003410156112c6565b610f8f68056bc75e2d63100000341115611312565b86156110b457610fa081151561135e565b610fad610e1087116113aa565b6003543403953487116110a1576005611070948a948894610fd16110599542611413565b908b8d8b5195610fe087611436565b338752602087019182528c870192835260608701938452608087019485528c60a088019b808d5260c089019b818d5281526002602052209651166001600160601b0360a01b87541617865551600186015551600285015551600384015551908201550192511515839060ff801983541691151516179055565b51815461ff00191690151560081b61ff0016179055565b519182527f32f66378e1286d490c275e7123c9a3b56616fe021854a438dfcfa79ae7c46a2360203393a46001815580f35b634e487b7160e01b895260118352602489fd5b835162461bcd60e51b8152602081840152602860248201527f537461726b6e65744272696467653a20696e76616c696420537461726b6e6574604482015267206164647265737360c01b6064820152608490fd5b50346103d65760203660031901126103d657358252600260209081529181902080546001600160a01b0316151591908261115f575b8261114c575b50519015158152f35b6005015460081c60ff1615915038611143565b600581015460ff1615925061113d565b92919050346111e85760203660031901126111e85790818160e09560ff943581526002602052209060018060a01b03825416926001830154906002840154916005600386015494860154950154958852602088015286015260608501526080840152818116151560a084015260081c16151560c0820152f35b8380fd5b9181601f8401121561121a5782359167ffffffffffffffff831161121a576020838186019501011161121a57565b600080fd5b600435906001600160a01b038216820361121a57565b6001546001600160a01b0316330361124957565b60405163118cdaa760e01b8152336004820152602490fd5b1561126857565b60405162461bcd60e51b815260206004820152603060248201527f537461726b6e65744272696467653a207377617020776974682074686973206960448201526f6420616c72656164792065786973747360801b6064820152608490fd5b156112cd57565b60405162461bcd60e51b815260206004820152601e60248201527f537461726b6e65744272696467653a20616d6f756e7420746f6f206c6f7700006044820152606490fd5b1561131957565b60405162461bcd60e51b815260206004820152601f60248201527f537461726b6e65744272696467653a20616d6f756e7420746f6f2068696768006044820152606490fd5b1561136557565b60405162461bcd60e51b815260206004820152601c60248201527f537461726b6e65744272696467653a20696e76616c69642068617368000000006044820152606490fd5b156113b157565b60405162461bcd60e51b815260206004820152603460248201527f537461726b6e65744272696467653a2074696d656c6f636b206d7573742062656044820152731033b932b0ba32b9103a3430b71018903437bab960611b6064820152608490fd5b9190820180921161142057565b634e487b7160e01b600052601160045260246000fd5b60e0810190811067ffffffffffffffff82111761145257604052565b634e487b7160e01b600052604160045260246000fd5b90601f8019910116810190811067ffffffffffffffff82111761145257604052565b60026000541461149b576002600055565b604051633ee5aeb560e01b8152600490fd5b9081602091031261121a5751801515810361121a5790565b156114cc57565b60405162461bcd60e51b815260206004820152601f60248201527f537461726b6e65744272696467653a207472616e73666572206661696c6564006044820152606490fd5b1561151857565b60405162461bcd60e51b815260206004820152602560248201527f537461726b6e65744272696467653a207377617020616c72656164792065786560448201526418dd5d195960da1b6064820152608490fd5b1561157257565b60405162461bcd60e51b815260206004820152602560248201527f537461726b6e65744272696467653a207377617020616c7265616479207265666044820152641d5b99195960da1b6064820152608490fd5b60ff600a9116019060ff82116114205756fea264697066735822122004c2e535285083ec5e1470848428e9d3ba35408d7e8cc40844c57e6cfda01b2064736f6c63430008140033",
  "linkReferences": {},
  "deployedLinkReferences": {}
}